{
  "contractName": "DSGuardFactory",
  "abi": [
    {
      "constant": true,
      "inputs": [
        {
          "name": "",
          "type": "address"
        }
      ],
      "name": "isGuard",
      "outputs": [
        {
          "name": "",
          "type": "bool"
        }
      ],
      "payable": false,
      "stateMutability": "view",
      "type": "function"
    },
    {
      "constant": false,
      "inputs": [],
      "name": "newGuard",
      "outputs": [
        {
          "name": "guard",
          "type": "address"
        }
      ],
      "payable": false,
      "stateMutability": "nonpayable",
      "type": "function"
    }
  ],
  "bytecode": "0x608060405234801561001057600080fd5b50611788806100206000396000f3fe60806040526004361061004c576000357c0100000000000000000000000000000000000000000000000000000000900463ffffffff168063489c12021461005157806365688cc9146100ba575b600080fd5b34801561005d57600080fd5b506100a06004803603602081101561007457600080fd5b81019080803573ffffffffffffffffffffffffffffffffffffffff169060200190929190505050610111565b604051808215151515815260200191505060405180910390f35b3480156100c657600080fd5b506100cf610131565b604051808273ffffffffffffffffffffffffffffffffffffffff1673ffffffffffffffffffffffffffffffffffffffff16815260200191505060405180910390f35b60006020528060005260406000206000915054906101000a900460ff1681565b600061013b610267565b604051809103906000f080158015610157573d6000803e3d6000fd5b5090508073ffffffffffffffffffffffffffffffffffffffff166313af4035336040518263ffffffff167c0100000000000000000000000000000000000000000000000000000000028152600401808273ffffffffffffffffffffffffffffffffffffffff1673ffffffffffffffffffffffffffffffffffffffff168152602001915050600060405180830381600087803b1580156101f557600080fd5b505af1158015610209573d6000803e3d6000fd5b5050505060016000808373ffffffffffffffffffffffffffffffffffffffff1673ffffffffffffffffffffffffffffffffffffffff16815260200190815260200160002060006101000a81548160ff02191690831515021790555090565b6040516114e5806102788339019056fe608060405233600160006101000a81548173ffffffffffffffffffffffffffffffffffffffff021916908373ffffffffffffffffffffffffffffffffffffffff1602179055503373ffffffffffffffffffffffffffffffffffffffff167fce241d7ca1f669fee44b6fc00b8eba2df3bb514eed0f6f668f8f89096e81ed9460405160405180910390a261144e806100976000396000f3fe608060405260043610610098576000357c0100000000000000000000000000000000000000000000000000000000900463ffffffff168062d520361461009d57806313af4035146100c85780632bc3217d146101195780637a9e5e4b146101945780638da5cb5b146101e5578063a8542f661461023c578063b700961314610293578063bf7e214f14610345578063cbeea68c1461039c575b600080fd5b3480156100a957600080fd5b506100b2610417565b6040518082815260200191505060405180910390f35b3480156100d457600080fd5b50610117600480360360208110156100eb57600080fd5b81019080803573ffffffffffffffffffffffffffffffffffffffff16906020019092919050505061043e565b005b34801561012557600080fd5b506101926004803603606081101561013c57600080fd5b81019080803573ffffffffffffffffffffffffffffffffffffffff169060200190929190803573ffffffffffffffffffffffffffffffffffffffff16906020019092919080359060200190929190505050610589565b005b3480156101a057600080fd5b506101e3600480360360208110156101b757600080fd5b81019080803573ffffffffffffffffffffffffffffffffffffffff169060200190929190505050610731565b005b3480156101f157600080fd5b506101fa61087a565b604051808273ffffffffffffffffffffffffffffffffffffffff1673ffffffffffffffffffffffffffffffffffffffff16815260200191505060405180910390f35b34801561024857600080fd5b506102516108a0565b604051808273ffffffffffffffffffffffffffffffffffffffff1673ffffffffffffffffffffffffffffffffffffffff16815260200191505060405180910390f35b34801561029f57600080fd5b5061032b600480360360608110156102b657600080fd5b81019080803573ffffffffffffffffffffffffffffffffffffffff169060200190929190803573ffffffffffffffffffffffffffffffffffffffff16906020019092919080357bffffffffffffffffffffffffffffffffffffffffffffffffffffffff191690602001909291905050506108c4565b604051808215151515815260200191505060405180910390f35b34801561035157600080fd5b5061035a610fe0565b604051808273ffffffffffffffffffffffffffffffffffffffff1673ffffffffffffffffffffffffffffffffffffffff16815260200191505060405180910390f35b3480156103a857600080fd5b50610415600480360360608110156103bf57600080fd5b81019080803573ffffffffffffffffffffffffffffffffffffffff169060200190929190803573ffffffffffffffffffffffffffffffffffffffff16906020019092919080359060200190929190505050611005565b005b7fffffffffffffffffffffffffffffffffffffffffffffffffffffffffffffffff60010281565b61046c336000357fffffffff00000000000000000000000000000000000000000000000000000000166111ad565b15156104e0576040517f08c379a00000000000000000000000000000000000000000000000000000000081526004018080602001828103825260138152602001807f556e617574686f72697a6564204163636573730000000000000000000000000081525060200191505060405180910390fd5b80600160006101000a81548173ffffffffffffffffffffffffffffffffffffffff021916908373ffffffffffffffffffffffffffffffffffffffff160217905550600160009054906101000a900473ffffffffffffffffffffffffffffffffffffffff1673ffffffffffffffffffffffffffffffffffffffff167fce241d7ca1f669fee44b6fc00b8eba2df3bb514eed0f6f668f8f89096e81ed9460405160405180910390a250565b6105b7336000357fffffffff00000000000000000000000000000000000000000000000000000000166111ad565b151561062b576040517f08c379a00000000000000000000000000000000000000000000000000000000081526004018080602001828103825260138152602001807f556e617574686f72697a6564204163636573730000000000000000000000000081525060200191505060405180910390fd5b6000600260008573ffffffffffffffffffffffffffffffffffffffff1673ffffffffffffffffffffffffffffffffffffffff16815260200190815260200160002060008473ffffffffffffffffffffffffffffffffffffffff1673ffffffffffffffffffffffffffffffffffffffff168152602001908152602001600020600083815260200190815260200160002060006101000a81548160ff021916908315150217905550808273ffffffffffffffffffffffffffffffffffffffff168473ffffffffffffffffffffffffffffffffffffffff167fb20326d950d315f11d9e51d5427e877ccef4a6f2b4d460812f0baac4424913ad60405160405180910390a4505050565b61075f336000357fffffffff00000000000000000000000000000000000000000000000000000000166111ad565b15156107d3576040517f08c379a00000000000000000000000000000000000000000000000000000000081526004018080602001828103825260138152602001807f556e617574686f72697a6564204163636573730000000000000000000000000081525060200191505060405180910390fd5b806000806101000a81548173ffffffffffffffffffffffffffffffffffffffff021916908373ffffffffffffffffffffffffffffffffffffffff1602179055506000809054906101000a900473ffffffffffffffffffffffffffffffffffffffff1673ffffffffffffffffffffffffffffffffffffffff167f1abebea81bfa2637f28358c371278fb15ede7ea8dd28d2e03b112ff6d936ada460405160405180910390a250565b600160009054906101000a900473ffffffffffffffffffffffffffffffffffffffff1681565b7fffffffffffffffffffffffffffffffffffffffffffffffffffffffffffffffff81565b6000600260008573ffffffffffffffffffffffffffffffffffffffff1673ffffffffffffffffffffffffffffffffffffffff16815260200190815260200160002060008473ffffffffffffffffffffffffffffffffffffffff1673ffffffffffffffffffffffffffffffffffffffff1681526020019081526020016000206000837bffffffffffffffffffffffffffffffffffffffffffffffffffffffff1916815260200190815260200160002060009054906101000a900460ff1680610a455750600260008573ffffffffffffffffffffffffffffffffffffffff1673ffffffffffffffffffffffffffffffffffffffff16815260200190815260200160002060008473ffffffffffffffffffffffffffffffffffffffff1673ffffffffffffffffffffffffffffffffffffffff16815260200190815260200160002060007fffffffffffffffffffffffffffffffffffffffffffffffffffffffffffffffff600102815260200190815260200160002060009054906101000a900460ff165b80610b265750600260008573ffffffffffffffffffffffffffffffffffffffff1673ffffffffffffffffffffffffffffffffffffffff16815260200190815260200160002060007fffffffffffffffffffffffffffffffffffffffffffffffffffffffffffffffff73ffffffffffffffffffffffffffffffffffffffff1673ffffffffffffffffffffffffffffffffffffffff1681526020019081526020016000206000837bffffffffffffffffffffffffffffffffffffffffffffffffffffffff1916815260200190815260200160002060009054906101000a900460ff165b80610c0b5750600260008573ffffffffffffffffffffffffffffffffffffffff1673ffffffffffffffffffffffffffffffffffffffff16815260200190815260200160002060007fffffffffffffffffffffffffffffffffffffffffffffffffffffffffffffffff73ffffffffffffffffffffffffffffffffffffffff1673ffffffffffffffffffffffffffffffffffffffff16815260200190815260200160002060007fffffffffffffffffffffffffffffffffffffffffffffffffffffffffffffffff600102815260200190815260200160002060009054906101000a900460ff165b80610cec5750600260007fffffffffffffffffffffffffffffffffffffffffffffffffffffffffffffffff73ffffffffffffffffffffffffffffffffffffffff1673ffffffffffffffffffffffffffffffffffffffff16815260200190815260200160002060008473ffffffffffffffffffffffffffffffffffffffff1673ffffffffffffffffffffffffffffffffffffffff1681526020019081526020016000206000837bffffffffffffffffffffffffffffffffffffffffffffffffffffffff1916815260200190815260200160002060009054906101000a900460ff165b80610dd15750600260007fffffffffffffffffffffffffffffffffffffffffffffffffffffffffffffffff73ffffffffffffffffffffffffffffffffffffffff1673ffffffffffffffffffffffffffffffffffffffff16815260200190815260200160002060008473ffffffffffffffffffffffffffffffffffffffff1673ffffffffffffffffffffffffffffffffffffffff16815260200190815260200160002060007fffffffffffffffffffffffffffffffffffffffffffffffffffffffffffffffff600102815260200190815260200160002060009054906101000a900460ff165b80610ed25750600260007fffffffffffffffffffffffffffffffffffffffffffffffffffffffffffffffff73ffffffffffffffffffffffffffffffffffffffff1673ffffffffffffffffffffffffffffffffffffffff16815260200190815260200160002060007fffffffffffffffffffffffffffffffffffffffffffffffffffffffffffffffff73ffffffffffffffffffffffffffffffffffffffff1673ffffffffffffffffffffffffffffffffffffffff1681526020019081526020016000206000837bffffffffffffffffffffffffffffffffffffffffffffffffffffffff1916815260200190815260200160002060009054906101000a900460ff165b80610fd75750600260007fffffffffffffffffffffffffffffffffffffffffffffffffffffffffffffffff73ffffffffffffffffffffffffffffffffffffffff1673ffffffffffffffffffffffffffffffffffffffff16815260200190815260200160002060007fffffffffffffffffffffffffffffffffffffffffffffffffffffffffffffffff73ffffffffffffffffffffffffffffffffffffffff1673ffffffffffffffffffffffffffffffffffffffff16815260200190815260200160002060007fffffffffffffffffffffffffffffffffffffffffffffffffffffffffffffffff600102815260200190815260200160002060009054906101000a900460ff165b90509392505050565b6000809054906101000a900473ffffffffffffffffffffffffffffffffffffffff1681565b611033336000357fffffffff00000000000000000000000000000000000000000000000000000000166111ad565b15156110a7576040517f08c379a00000000000000000000000000000000000000000000000000000000081526004018080602001828103825260138152602001807f556e617574686f72697a6564204163636573730000000000000000000000000081525060200191505060405180910390fd5b6001600260008573ffffffffffffffffffffffffffffffffffffffff1673ffffffffffffffffffffffffffffffffffffffff16815260200190815260200160002060008473ffffffffffffffffffffffffffffffffffffffff1673ffffffffffffffffffffffffffffffffffffffff168152602001908152602001600020600083815260200190815260200160002060006101000a81548160ff021916908315150217905550808273ffffffffffffffffffffffffffffffffffffffff168473ffffffffffffffffffffffffffffffffffffffff167f9d573c005248b79326150f884ef46790bfc5ecb9fb999be60991b217e7600d5a60405160405180910390a4505050565b60003073ffffffffffffffffffffffffffffffffffffffff168373ffffffffffffffffffffffffffffffffffffffff1614156111ec576001905061141c565b600160009054906101000a900473ffffffffffffffffffffffffffffffffffffffff1673ffffffffffffffffffffffffffffffffffffffff168373ffffffffffffffffffffffffffffffffffffffff16141561124b576001905061141c565b600073ffffffffffffffffffffffffffffffffffffffff166000809054906101000a900473ffffffffffffffffffffffffffffffffffffffff1673ffffffffffffffffffffffffffffffffffffffff1614156112aa576000905061141c565b6000809054906101000a900473ffffffffffffffffffffffffffffffffffffffff1673ffffffffffffffffffffffffffffffffffffffff1663b70096138430856040518463ffffffff167c0100000000000000000000000000000000000000000000000000000000028152600401808473ffffffffffffffffffffffffffffffffffffffff1673ffffffffffffffffffffffffffffffffffffffff1681526020018373ffffffffffffffffffffffffffffffffffffffff1673ffffffffffffffffffffffffffffffffffffffff168152602001827bffffffffffffffffffffffffffffffffffffffffffffffffffffffff19167bffffffffffffffffffffffffffffffffffffffffffffffffffffffff19168152602001935050505060206040518083038186803b1580156113de57600080fd5b505afa1580156113f2573d6000803e3d6000fd5b505050506040513d602081101561140857600080fd5b810190808051906020019092919050505090505b9291505056fea165627a7a72305820eb7af9399bda42984c816b10ecd26e67f82583e4ed75751359b400ae16bbd5190029a165627a7a72305820b0be17106e01e6ed6b78dc3ebf67d39bd2bc3c84427968e9b5b746cfe3919c850029",
  "source": "// guard.sol -- simple whitelist implementation of DSAuthority\n\n// Copyright (C) 2017  DappHub, LLC\n\n// This program is free software: you can redistribute it and/or modify\n// it under the terms of the GNU General Public License as published by\n// the Free Software Foundation, either version 3 of the License, or\n// (at your option) any later version.\n\n// This program is distributed in the hope that it will be useful,\n// but WITHOUT ANY WARRANTY; without even the implied warranty of\n// MERCHANTABILITY or FITNESS FOR A PARTICULAR PURPOSE.  See the\n// GNU General Public License for more details.\n\n// You should have received a copy of the GNU General Public License\n// along with this program.  If not, see <http://www.gnu.org/licenses/>.\n\npragma solidity ^0.5.0;\n\nimport \"./DSAuth.sol\";\n\n/// @title DSGuard Events\ncontract DSGuardEvents {\n  event LogPermit(address indexed src,\n                  address indexed dst,\n                  bytes32 indexed sig);\n\n  event LogForbid(address indexed src,\n                  address indexed dst,\n                  bytes32 indexed sig);\n}\n\n\n/// @title Simple whitelist implementation of DSAuthority\ncontract DSGuard is DSAuth, DSAuthority, DSGuardEvents {\n    \n  //\n  // Members\n  //\n\n  // Represents any address\n  address constant public ANY = address(0xffffffffffffffffffffffffffffffffffffffffffffffffffffffffffffffff);\n  bytes32 constant public ANYSIG = bytes32(uint(- 1));\n\n  //\n  // Collections\n  //\n\n  mapping(address => mapping(address => mapping(bytes32 => bool))) acl;\n\n  //\n  // Methods\n  //\n\n  function canCall(address src, address dst, bytes4 sig)\n    public view returns (bool) {\n\n    return acl[src][dst][sig]\n      || acl[src][dst][ANYSIG]\n      || acl[src][ANY][sig]\n      || acl[src][ANY][ANYSIG]\n      || acl[ANY][dst][sig]\n      || acl[ANY][dst][ANYSIG]\n      || acl[ANY][ANY][sig]\n      || acl[ANY][ANY][ANYSIG];\n  }\n\n\n  /// @dev Permits the authority of `src` to `dst` for the given\n  /// function identifier `sig`. Note that DSGuard.ANY can be\n  /// substituted in `src, `dst`, or `sig` to slacken authority\n  /// further.\n  /// @param src The source address\n  /// @param dst The destination address\n  /// @param sig The calldata function signature\n  function permit(address src, address dst, bytes32 sig) public auth {\n    acl[src][dst][sig] = true;\n    emit LogPermit(src, dst, sig);\n  }\n\n\n  /// @dev Forbids the authority of `src` to `dst` for the given\n  /// function identifier `sig`.\n  /// @param src The source address\n  /// @param dst The destination address\n  /// @param sig The calldata function signature\n  function forbid(address src, address dst, bytes32 sig) public auth {\n    acl[src][dst][sig] = false;\n    emit LogForbid(src, dst, sig);\n  }\n}\n\n\n/// @title DSGuard Authority Factory\n/// @dev Maintains a listing of active Guard Authorities.\ncontract DSGuardFactory {\n  mapping(address => bool) public isGuard;\n\n  /// @dev Create a new DSGuard, containing a DSAuthority Implementation.\n  /// @return The newly created DSGuard contract\n  function newGuard() public returns (DSGuard guard) {\n    guard = new DSGuard();\n    guard.setOwner(msg.sender);\n    isGuard[address(guard)] = true;\n  }\n}\n",
  "sourcePath": "/home/benzap/projects/ethlance/contracts/DSGuard.sol",
  "compiler": {
    "name": "solc",
    "version": "0.5.0+commit.1d4f565a.Emscripten.clang"
  },
  "schemaVersion": "3.0.9",
  "updatedAt": "2019-05-14T23:51:40.074Z",
  "devdoc": {
    "details": "Maintains a listing of active Guard Authorities.",
    "methods": {
      "newGuard()": {
        "details": "Create a new DSGuard, containing a DSAuthority Implementation.",
        "return": "The newly created DSGuard contract"
      }
    },
    "title": "DSGuard Authority Factory"
  },
  "userdoc": {
    "methods": {}
  }
}