{
  "contractName": "EthlanceRegistry",
  "abi": [
    {
      "constant": true,
      "inputs": [
        {
          "name": "",
          "type": "address"
        }
      ],
      "name": "privilegedFactoryContracts",
      "outputs": [
        {
          "name": "",
          "type": "bool"
        }
      ],
      "payable": false,
      "stateMutability": "view",
      "type": "function"
    },
    {
      "constant": false,
      "inputs": [
        {
          "name": "owner_",
          "type": "address"
        }
      ],
      "name": "setOwner",
      "outputs": [],
      "payable": false,
      "stateMutability": "nonpayable",
      "type": "function"
    },
    {
      "constant": false,
      "inputs": [
        {
          "name": "authority_",
          "type": "address"
        }
      ],
      "name": "setAuthority",
      "outputs": [],
      "payable": false,
      "stateMutability": "nonpayable",
      "type": "function"
    },
    {
      "constant": true,
      "inputs": [],
      "name": "owner",
      "outputs": [
        {
          "name": "",
          "type": "address"
        }
      ],
      "payable": false,
      "stateMutability": "view",
      "type": "function"
    },
    {
      "constant": true,
      "inputs": [
        {
          "name": "",
          "type": "address"
        }
      ],
      "name": "dispatchWhitelist",
      "outputs": [
        {
          "name": "",
          "type": "bool"
        }
      ],
      "payable": false,
      "stateMutability": "view",
      "type": "function"
    },
    {
      "constant": true,
      "inputs": [],
      "name": "authority",
      "outputs": [
        {
          "name": "",
          "type": "address"
        }
      ],
      "payable": false,
      "stateMutability": "view",
      "type": "function"
    },
    {
      "anonymous": false,
      "inputs": [
        {
          "indexed": true,
          "name": "eventSender",
          "type": "address"
        },
        {
          "indexed": false,
          "name": "eventName",
          "type": "string"
        },
        {
          "indexed": false,
          "name": "eventVersion",
          "type": "uint256"
        },
        {
          "indexed": false,
          "name": "timestamp",
          "type": "uint256"
        },
        {
          "indexed": false,
          "name": "eventData",
          "type": "uint256[]"
        }
      ],
      "name": "EthlanceEvent",
      "type": "event"
    },
    {
      "anonymous": false,
      "inputs": [
        {
          "indexed": true,
          "name": "authority",
          "type": "address"
        }
      ],
      "name": "LogSetAuthority",
      "type": "event"
    },
    {
      "anonymous": false,
      "inputs": [
        {
          "indexed": true,
          "name": "owner",
          "type": "address"
        }
      ],
      "name": "LogSetOwner",
      "type": "event"
    },
    {
      "constant": false,
      "inputs": [
        {
          "name": "_ethAddress",
          "type": "address"
        },
        {
          "name": "_userAddress",
          "type": "address"
        }
      ],
      "name": "pushUser",
      "outputs": [
        {
          "name": "",
          "type": "uint256"
        }
      ],
      "payable": false,
      "stateMutability": "nonpayable",
      "type": "function"
    },
    {
      "constant": true,
      "inputs": [],
      "name": "getUserCount",
      "outputs": [
        {
          "name": "",
          "type": "uint256"
        }
      ],
      "payable": false,
      "stateMutability": "view",
      "type": "function"
    },
    {
      "constant": true,
      "inputs": [
        {
          "name": "_ethAddress",
          "type": "address"
        }
      ],
      "name": "getUserByAddress",
      "outputs": [
        {
          "name": "",
          "type": "address"
        }
      ],
      "payable": false,
      "stateMutability": "view",
      "type": "function"
    },
    {
      "constant": true,
      "inputs": [
        {
          "name": "_ethAddress",
          "type": "address"
        }
      ],
      "name": "getUserId",
      "outputs": [
        {
          "name": "",
          "type": "uint256"
        }
      ],
      "payable": false,
      "stateMutability": "view",
      "type": "function"
    },
    {
      "constant": true,
      "inputs": [
        {
          "name": "index",
          "type": "uint256"
        }
      ],
      "name": "getUserByIndex",
      "outputs": [
        {
          "name": "",
          "type": "address"
        }
      ],
      "payable": false,
      "stateMutability": "view",
      "type": "function"
    },
    {
      "constant": false,
      "inputs": [
        {
          "name": "_jobAddress",
          "type": "address"
        }
      ],
      "name": "pushJobStore",
      "outputs": [
        {
          "name": "",
          "type": "uint256"
        }
      ],
      "payable": false,
      "stateMutability": "nonpayable",
      "type": "function"
    },
    {
      "constant": true,
      "inputs": [],
      "name": "getJobStoreCount",
      "outputs": [
        {
          "name": "",
          "type": "uint256"
        }
      ],
      "payable": false,
      "stateMutability": "view",
      "type": "function"
    },
    {
      "constant": true,
      "inputs": [
        {
          "name": "index",
          "type": "uint256"
        }
      ],
      "name": "getJobStoreByIndex",
      "outputs": [
        {
          "name": "",
          "type": "address"
        }
      ],
      "payable": false,
      "stateMutability": "view",
      "type": "function"
    },
    {
      "constant": false,
      "inputs": [
        {
          "name": "factoryAddress",
          "type": "address"
        }
      ],
      "name": "permitFactoryPrivilege",
      "outputs": [],
      "payable": false,
      "stateMutability": "nonpayable",
      "type": "function"
    },
    {
      "constant": true,
      "inputs": [
        {
          "name": "factoryAddress",
          "type": "address"
        }
      ],
      "name": "checkFactoryPrivilege",
      "outputs": [
        {
          "name": "",
          "type": "bool"
        }
      ],
      "payable": false,
      "stateMutability": "view",
      "type": "function"
    },
    {
      "constant": false,
      "inputs": [
        {
          "name": "eventName",
          "type": "string"
        },
        {
          "name": "eventVersion",
          "type": "uint256"
        },
        {
          "name": "eventData",
          "type": "uint256[]"
        }
      ],
      "name": "fireEvent",
      "outputs": [],
      "payable": false,
      "stateMutability": "nonpayable",
      "type": "function"
    },
    {
      "constant": false,
      "inputs": [
        {
          "name": "_address",
          "type": "address"
        }
      ],
      "name": "permitDispatch",
      "outputs": [],
      "payable": false,
      "stateMutability": "nonpayable",
      "type": "function"
    },
    {
      "constant": true,
      "inputs": [
        {
          "name": "_address",
          "type": "address"
        }
      ],
      "name": "isRegisteredUser",
      "outputs": [
        {
          "name": "",
          "type": "bool"
        }
      ],
      "payable": false,
      "stateMutability": "view",
      "type": "function"
    },
    {
      "constant": true,
      "inputs": [
        {
          "name": "_address",
          "type": "address"
        }
      ],
      "name": "isRegisteredEmployer",
      "outputs": [
        {
          "name": "",
          "type": "bool"
        }
      ],
      "payable": false,
      "stateMutability": "view",
      "type": "function"
    },
    {
      "constant": true,
      "inputs": [
        {
          "name": "_address",
          "type": "address"
        }
      ],
      "name": "isRegisteredCandidate",
      "outputs": [
        {
          "name": "",
          "type": "bool"
        }
      ],
      "payable": false,
      "stateMutability": "view",
      "type": "function"
    },
    {
      "constant": true,
      "inputs": [
        {
          "name": "_address",
          "type": "address"
        }
      ],
      "name": "isRegisteredArbiter",
      "outputs": [
        {
          "name": "",
          "type": "bool"
        }
      ],
      "payable": false,
      "stateMutability": "view",
      "type": "function"
    },
    {
      "constant": false,
      "inputs": [
        {
          "name": "contractAddress",
          "type": "address"
        },
        {
          "name": "comment",
          "type": "address"
        }
      ],
      "name": "pushComment",
      "outputs": [],
      "payable": false,
      "stateMutability": "nonpayable",
      "type": "function"
    },
    {
      "constant": true,
      "inputs": [
        {
          "name": "contractAddress",
          "type": "address"
        }
      ],
      "name": "getCommentCount",
      "outputs": [
        {
          "name": "",
          "type": "uint256"
        }
      ],
      "payable": false,
      "stateMutability": "view",
      "type": "function"
    },
    {
      "constant": true,
      "inputs": [
        {
          "name": "contractAddress",
          "type": "address"
        },
        {
          "name": "index",
          "type": "uint256"
        }
      ],
      "name": "getCommentByIndex",
      "outputs": [
        {
          "name": "",
          "type": "address"
        }
      ],
      "payable": false,
      "stateMutability": "view",
      "type": "function"
    },
    {
      "constant": false,
      "inputs": [
        {
          "name": "contractAddress",
          "type": "address"
        },
        {
          "name": "feedback",
          "type": "address"
        }
      ],
      "name": "pushFeedback",
      "outputs": [],
      "payable": false,
      "stateMutability": "nonpayable",
      "type": "function"
    },
    {
      "constant": true,
      "inputs": [
        {
          "name": "contractAddress",
          "type": "address"
        }
      ],
      "name": "hasFeedback",
      "outputs": [
        {
          "name": "",
          "type": "bool"
        }
      ],
      "payable": false,
      "stateMutability": "view",
      "type": "function"
    },
    {
      "constant": true,
      "inputs": [
        {
          "name": "contractAddress",
          "type": "address"
        }
      ],
      "name": "getFeedbackByAddress",
      "outputs": [
        {
          "name": "",
          "type": "address"
        }
      ],
      "payable": false,
      "stateMutability": "view",
      "type": "function"
    }
  ],
  "bytecode": "0x608060405233600160006101000a81548173ffffffffffffffffffffffffffffffffffffffff021916908373ffffffffffffffffffffffffffffffffffffffff1602179055503373ffffffffffffffffffffffffffffffffffffffff167fce241d7ca1f669fee44b6fc00b8eba2df3bb514eed0f6f668f8f89096e81ed9460405160405180910390a2612752806100976000396000f3fe60806040526004361061016a576000357c0100000000000000000000000000000000000000000000000000000000900463ffffffff16806304d643861461016f5780631338408e146101c0578063134e88071461022957806313af4035146102c457806313f7ab10146103155780631f5bdf5d146103a65780632b956ff71461040f5780633c231adf146104745780634904a20c146104d9578063585a5b1d1461063f5780635b123189146106b05780635ef16fa9146107355780635f329fb21461079e57806364528e771461080357806369c212f61461082e5780637a9e5e4b146108bf5780637fe0e7b1146109105780638a790662146109795780638bac5fbc146109ca5780638da5cb5b14610a33578063b5cb15f714610a8a578063bb7186f214610ab5578063bf7e214f14610b1e578063c20ae75a14610b75578063ec6040be14610bde578063f067498c14610c4f578063f1b02bb414610cb8578063ff5d32fe14610d33575b600080fd5b34801561017b57600080fd5b506101be6004803603602081101561019257600080fd5b81019080803573ffffffffffffffffffffffffffffffffffffffff169060200190929190505050610dae565b005b3480156101cc57600080fd5b5061020f600480360360208110156101e357600080fd5b81019080803573ffffffffffffffffffffffffffffffffffffffff169060200190929190505050610f25565b604051808215151515815260200191505060405180910390f35b34801561023557600080fd5b506102826004803603604081101561024c57600080fd5b81019080803573ffffffffffffffffffffffffffffffffffffffff16906020019092919080359060200190929190505050610f45565b604051808273ffffffffffffffffffffffffffffffffffffffff1673ffffffffffffffffffffffffffffffffffffffff16815260200191505060405180910390f35b3480156102d057600080fd5b50610313600480360360208110156102e757600080fd5b81019080803573ffffffffffffffffffffffffffffffffffffffff169060200190929190505050611045565b005b34801561032157600080fd5b506103646004803603602081101561033857600080fd5b81019080803573ffffffffffffffffffffffffffffffffffffffff169060200190929190505050611190565b604051808273ffffffffffffffffffffffffffffffffffffffff1673ffffffffffffffffffffffffffffffffffffffff16815260200191505060405180910390f35b3480156103b257600080fd5b506103f5600480360360208110156103c957600080fd5b81019080803573ffffffffffffffffffffffffffffffffffffffff1690602001909291905050506111f9565b604051808215151515815260200191505060405180910390f35b34801561041b57600080fd5b5061045e6004803603602081101561043257600080fd5b81019080803573ffffffffffffffffffffffffffffffffffffffff169060200190929190505050611251565b6040518082815260200191505060405180910390f35b34801561048057600080fd5b506104c36004803603602081101561049757600080fd5b81019080803573ffffffffffffffffffffffffffffffffffffffff16906020019092919050505061129a565b6040518082815260200191505060405180910390f35b3480156104e557600080fd5b5061063d600480360360608110156104fc57600080fd5b810190808035906020019064010000000081111561051957600080fd5b82018360208201111561052b57600080fd5b8035906020019184600183028401116401000000008311171561054d57600080fd5b91908080601f016020809104026020016040519081016040528093929190818152602001838380828437600081840152601f19601f82011690508083019250505050505050919291929080359060200190929190803590602001906401000000008111156105ba57600080fd5b8201836020820111156105cc57600080fd5b803590602001918460208302840111640100000000831117156105ee57600080fd5b919080806020026020016040519081016040528093929190818152602001838360200280828437600081840152601f19601f8201169050808301925050505050505091929192905050506113bd565b005b34801561064b57600080fd5b506106ae6004803603604081101561066257600080fd5b81019080803573ffffffffffffffffffffffffffffffffffffffff169060200190929190803573ffffffffffffffffffffffffffffffffffffffff1690602001909291905050506115f1565b005b3480156106bc57600080fd5b5061071f600480360360408110156106d357600080fd5b81019080803573ffffffffffffffffffffffffffffffffffffffff169060200190929190803573ffffffffffffffffffffffffffffffffffffffff1690602001909291905050506117bb565b6040518082815260200191505060405180910390f35b34801561074157600080fd5b506107846004803603602081101561075857600080fd5b81019080803573ffffffffffffffffffffffffffffffffffffffff169060200190929190505050611925565b604051808215151515815260200191505060405180910390f35b3480156107aa57600080fd5b506107ed600480360360208110156107c157600080fd5b81019080803573ffffffffffffffffffffffffffffffffffffffff169060200190929190505050611a34565b6040518082815260200191505060405180910390f35b34801561080f57600080fd5b50610818611a80565b6040518082815260200191505060405180910390f35b34801561083a57600080fd5b5061087d6004803603602081101561085157600080fd5b81019080803573ffffffffffffffffffffffffffffffffffffffff169060200190929190505050611a8d565b604051808273ffffffffffffffffffffffffffffffffffffffff1673ffffffffffffffffffffffffffffffffffffffff16815260200191505060405180910390f35b3480156108cb57600080fd5b5061090e600480360360208110156108e257600080fd5b81019080803573ffffffffffffffffffffffffffffffffffffffff169060200190929190505050611b2b565b005b34801561091c57600080fd5b5061095f6004803603602081101561093357600080fd5b81019080803573ffffffffffffffffffffffffffffffffffffffff169060200190929190505050611c74565b604051808215151515815260200191505060405180910390f35b34801561098557600080fd5b506109c86004803603602081101561099c57600080fd5b81019080803573ffffffffffffffffffffffffffffffffffffffff169060200190929190505050611cca565b005b3480156109d657600080fd5b50610a19600480360360208110156109ed57600080fd5b81019080803573ffffffffffffffffffffffffffffffffffffffff169060200190929190505050611dc7565b604051808215151515815260200191505060405180910390f35b348015610a3f57600080fd5b50610a48611e5f565b604051808273ffffffffffffffffffffffffffffffffffffffff1673ffffffffffffffffffffffffffffffffffffffff16815260200191505060405180910390f35b348015610a9657600080fd5b50610a9f611e85565b6040518082815260200191505060405180910390f35b348015610ac157600080fd5b50610b0460048036036020811015610ad857600080fd5b81019080803573ffffffffffffffffffffffffffffffffffffffff169060200190929190505050611e92565b604051808215151515815260200191505060405180910390f35b348015610b2a57600080fd5b50610b33611eb2565b604051808273ffffffffffffffffffffffffffffffffffffffff1673ffffffffffffffffffffffffffffffffffffffff16815260200191505060405180910390f35b348015610b8157600080fd5b50610bc460048036036020811015610b9857600080fd5b81019080803573ffffffffffffffffffffffffffffffffffffffff169060200190929190505050611ed7565b604051808215151515815260200191505060405180910390f35b348015610bea57600080fd5b50610c4d60048036036040811015610c0157600080fd5b81019080803573ffffffffffffffffffffffffffffffffffffffff169060200190929190803573ffffffffffffffffffffffffffffffffffffffff169060200190929190505050611ff1565b005b348015610c5b57600080fd5b50610c9e60048036036020811015610c7257600080fd5b81019080803573ffffffffffffffffffffffffffffffffffffffff16906020019092919050505061223a565b604051808215151515815260200191505060405180910390f35b348015610cc457600080fd5b50610cf160048036036020811015610cdb57600080fd5b8101908080359060200190929190505050612333565b604051808273ffffffffffffffffffffffffffffffffffffffff1673ffffffffffffffffffffffffffffffffffffffff16815260200191505060405180910390f35b348015610d3f57600080fd5b50610d6c60048036036020811015610d5657600080fd5b81019080803590602001909291905050506123f2565b604051808273ffffffffffffffffffffffffffffffffffffffff1673ffffffffffffffffffffffffffffffffffffffff16815260200191505060405180910390f35b600860003373ffffffffffffffffffffffffffffffffffffffff1673ffffffffffffffffffffffffffffffffffffffff16815260200190815260200160002060009054906101000a900460ff1680610e305750610e2f336000357fffffffff00000000000000000000000000000000000000000000000000000000166124b1565b5b1515610eca576040517f08c379a00000000000000000000000000000000000000000000000000000000081526004018080602001828103825260228152602001807f4e6f7420417574686f72697a656420746f207065726d6974206469737061746381526020017f682e00000000000000000000000000000000000000000000000000000000000081525060400191505060405180910390fd5b6001600860008373ffffffffffffffffffffffffffffffffffffffff1673ffffffffffffffffffffffffffffffffffffffff16815260200190815260200160002060006101000a81548160ff02191690831515021790555050565b60076020528060005260406000206000915054906101000a900460ff1681565b6000610f5083611a34565b82101515610fc6576040517f08c379a00000000000000000000000000000000000000000000000000000000081526004018080602001828103825260138152602001807f496e646578206f7574206f6620626f756e64730000000000000000000000000081525060200191505060405180910390fd5b600460008473ffffffffffffffffffffffffffffffffffffffff1673ffffffffffffffffffffffffffffffffffffffff1681526020019081526020016000208281548110151561101257fe5b9060005260206000200160009054906101000a900473ffffffffffffffffffffffffffffffffffffffff16905092915050565b611073336000357fffffffff00000000000000000000000000000000000000000000000000000000166124b1565b15156110e7576040517f08c379a00000000000000000000000000000000000000000000000000000000081526004018080602001828103825260138152602001807f556e617574686f72697a6564204163636573730000000000000000000000000081525060200191505060405180910390fd5b80600160006101000a81548173ffffffffffffffffffffffffffffffffffffffff021916908373ffffffffffffffffffffffffffffffffffffffff160217905550600160009054906101000a900473ffffffffffffffffffffffffffffffffffffffff1673ffffffffffffffffffffffffffffffffffffffff167fce241d7ca1f669fee44b6fc00b8eba2df3bb514eed0f6f668f8f89096e81ed9460405160405180910390a250565b6000600560008373ffffffffffffffffffffffffffffffffffffffff1673ffffffffffffffffffffffffffffffffffffffff16815260200190815260200160002060009054906101000a900473ffffffffffffffffffffffffffffffffffffffff169050919050565b60008061120583611a8d565b9050600073ffffffffffffffffffffffffffffffffffffffff168173ffffffffffffffffffffffffffffffffffffffff16141561124657600091505061124c565b60019150505b919050565b6000600360008373ffffffffffffffffffffffffffffffffffffffff1673ffffffffffffffffffffffffffffffffffffffff168152602001908152602001600020549050919050565b60006112ca336000357fffffffff00000000000000000000000000000000000000000000000000000000166124b1565b151561133e576040517f08c379a00000000000000000000000000000000000000000000000000000000081526004018080602001828103825260138152602001807f556e617574686f72697a6564204163636573730000000000000000000000000081525060200191505060405180910390fd5b60068290806001815401808255809150509060018203906000526020600020016000909192909190916101000a81548173ffffffffffffffffffffffffffffffffffffffff021916908373ffffffffffffffffffffffffffffffffffffffff160217905550506113ad82610dae565b6001600680549050039050919050565b60011515600860003373ffffffffffffffffffffffffffffffffffffffff1673ffffffffffffffffffffffffffffffffffffffff16815260200190815260200160002060009054906101000a900460ff16151514806114465750611445336000357fffffffff00000000000000000000000000000000000000000000000000000000166124b1565b5b15156114e0576040517f08c379a00000000000000000000000000000000000000000000000000000000081526004018080602001828103825260248152602001807f4e6f74205065726d697474656420746f2066697265204574686c616e6365457681526020017f656e742e0000000000000000000000000000000000000000000000000000000081525060400191505060405180910390fd5b3373ffffffffffffffffffffffffffffffffffffffff167fd503912f49fd001db8d459165d4079ce1e3808113135394317a86953bb5492df84844285604051808060200185815260200184815260200180602001838103835287818151815260200191508051906020019080838360005b8381101561156c578082015181840152602081019050611551565b50505050905090810190601f1680156115995780820380516001836020036101000a031916815260200191505b50838103825284818151815260200191508051906020019060200280838360005b838110156115d55780820151818401526020810190506115ba565b50505050905001965050505050505060405180910390a2505050565b60011515600860003373ffffffffffffffffffffffffffffffffffffffff1673ffffffffffffffffffffffffffffffffffffffff16815260200190815260200160002060009054906101000a900460ff161515148061167a5750611679336000357fffffffff00000000000000000000000000000000000000000000000000000000166124b1565b5b1515611714576040517f08c379a00000000000000000000000000000000000000000000000000000000081526004018080602001828103825260248152602001807f4e6f74205065726d697474656420746f2066697265204574686c616e6365457681526020017f656e742e0000000000000000000000000000000000000000000000000000000081525060400191505060405180910390fd5b600460008373ffffffffffffffffffffffffffffffffffffffff1673ffffffffffffffffffffffffffffffffffffffff1681526020019081526020016000208190806001815401808255809150509060018203906000526020600020016000909192909190916101000a81548173ffffffffffffffffffffffffffffffffffffffff021916908373ffffffffffffffffffffffffffffffffffffffff160217905550505050565b60006117eb336000357fffffffff00000000000000000000000000000000000000000000000000000000166124b1565b151561185f576040517f08c379a00000000000000000000000000000000000000000000000000000000081526004018080602001828103825260138152602001807f556e617574686f72697a6564204163636573730000000000000000000000000081525060200191505060405180910390fd5b60028290806001815401808255809150509060018203906000526020600020016000909192909190916101000a81548173ffffffffffffffffffffffffffffffffffffffff021916908373ffffffffffffffffffffffffffffffffffffffff16021790555050600280549050600360008573ffffffffffffffffffffffffffffffffffffffff1673ffffffffffffffffffffffffffffffffffffffff1681526020019081526020016000208190555061191782610dae565b600280549050905092915050565b60008061193183611a8d565b9050600073ffffffffffffffffffffffffffffffffffffffff168173ffffffffffffffffffffffffffffffffffffffff161415611972576000915050611a2f565b60008173ffffffffffffffffffffffffffffffffffffffff166350a4ca1b6040518163ffffffff167c010000000000000000000000000000000000000000000000000000000002815260040160606040518083038186803b1580156119d657600080fd5b505afa1580156119ea573d6000803e3d6000fd5b505050506040513d6060811015611a0057600080fd5b810190808051906020019092919080519060200190929190805190602001909291905050505050905080925050505b919050565b6000600460008373ffffffffffffffffffffffffffffffffffffffff1673ffffffffffffffffffffffffffffffffffffffff168152602001908152602001600020805490509050919050565b6000600680549050905090565b600080600360008473ffffffffffffffffffffffffffffffffffffffff1673ffffffffffffffffffffffffffffffffffffffff1681526020019081526020016000205490506000811415611ae5576000915050611b26565b600260018203815481101515611af757fe5b9060005260206000200160009054906101000a900473ffffffffffffffffffffffffffffffffffffffff169150505b919050565b611b59336000357fffffffff00000000000000000000000000000000000000000000000000000000166124b1565b1515611bcd576040517f08c379a00000000000000000000000000000000000000000000000000000000081526004018080602001828103825260138152602001807f556e617574686f72697a6564204163636573730000000000000000000000000081525060200191505060405180910390fd5b806000806101000a81548173ffffffffffffffffffffffffffffffffffffffff021916908373ffffffffffffffffffffffffffffffffffffffff1602179055506000809054906101000a900473ffffffffffffffffffffffffffffffffffffffff1673ffffffffffffffffffffffffffffffffffffffff167f1abebea81bfa2637f28358c371278fb15ede7ea8dd28d2e03b112ff6d936ada460405160405180910390a250565b6000600760008373ffffffffffffffffffffffffffffffffffffffff1673ffffffffffffffffffffffffffffffffffffffff16815260200190815260200160002060009054906101000a900460ff169050919050565b611cf8336000357fffffffff00000000000000000000000000000000000000000000000000000000166124b1565b1515611d6c576040517f08c379a00000000000000000000000000000000000000000000000000000000081526004018080602001828103825260138152602001807f556e617574686f72697a6564204163636573730000000000000000000000000081525060200191505060405180910390fd5b6001600760008373ffffffffffffffffffffffffffffffffffffffff1673ffffffffffffffffffffffffffffffffffffffff16815260200190815260200160002060006101000a81548160ff02191690831515021790555050565b60008073ffffffffffffffffffffffffffffffffffffffff16600560008473ffffffffffffffffffffffffffffffffffffffff1673ffffffffffffffffffffffffffffffffffffffff16815260200190815260200160002060009054906101000a900473ffffffffffffffffffffffffffffffffffffffff1673ffffffffffffffffffffffffffffffffffffffff1614159050919050565b600160009054906101000a900473ffffffffffffffffffffffffffffffffffffffff1681565b6000600280549050905090565b60086020528060005260406000206000915054906101000a900460ff1681565b6000809054906101000a900473ffffffffffffffffffffffffffffffffffffffff1681565b600080611ee383611a8d565b9050600073ffffffffffffffffffffffffffffffffffffffff168173ffffffffffffffffffffffffffffffffffffffff161415611f24576000915050611fec565b60008173ffffffffffffffffffffffffffffffffffffffff1663e0a88f496040518163ffffffff167c010000000000000000000000000000000000000000000000000000000002815260040160806040518083038186803b158015611f8857600080fd5b505afa158015611f9c573d6000803e3d6000fd5b505050506040513d6080811015611fb257600080fd5b8101908080519060200190929190805190602001909291908051906020019092919080519060200190929190505050505050905080925050505b919050565b60011515600860003373ffffffffffffffffffffffffffffffffffffffff1673ffffffffffffffffffffffffffffffffffffffff16815260200190815260200160002060009054906101000a900460ff161515148061207a5750612079336000357fffffffff00000000000000000000000000000000000000000000000000000000166124b1565b5b1515612114576040517f08c379a00000000000000000000000000000000000000000000000000000000081526004018080602001828103825260248152602001807f4e6f74205065726d697474656420746f2066697265204574686c616e6365457681526020017f656e742e0000000000000000000000000000000000000000000000000000000081525060400191505060405180910390fd5b61211d82611dc7565b1515156121b8576040517f08c379a00000000000000000000000000000000000000000000000000000000081526004018080602001828103825260378152602001807f476976656e20636f6e7472616374206164647265737320616c7265616479206881526020017f6173206120666565646261636b20696e7374616e63652e00000000000000000081525060400191505060405180910390fd5b80600560008473ffffffffffffffffffffffffffffffffffffffff1673ffffffffffffffffffffffffffffffffffffffff16815260200190815260200160002060006101000a81548173ffffffffffffffffffffffffffffffffffffffff021916908373ffffffffffffffffffffffffffffffffffffffff1602179055505050565b60008061224683611a8d565b9050600073ffffffffffffffffffffffffffffffffffffffff168173ffffffffffffffffffffffffffffffffffffffff16141561228757600091505061232e565b60008173ffffffffffffffffffffffffffffffffffffffff166317a857be6040518163ffffffff167c010000000000000000000000000000000000000000000000000000000002815260040160206040518083038186803b1580156122eb57600080fd5b505afa1580156122ff573d6000803e3d6000fd5b505050506040513d602081101561231557600080fd5b8101908080519060200190929190505050905080925050505b919050565b6000600680549050821015156123b1576040517f08c379a000000000000000000000000000000000000000000000000000000000815260040180806020018281038252601d8152602001807f476976656e20696e646578206973206f7574206f6620626f756e64732e00000081525060200191505060405180910390fd5b6006828154811015156123c057fe5b9060005260206000200160009054906101000a900473ffffffffffffffffffffffffffffffffffffffff169050919050565b600060028054905082101515612470576040517f08c379a000000000000000000000000000000000000000000000000000000000815260040180806020018281038252601d8152602001807f476976656e20696e646578206973206f7574206f6620626f756e64732e00000081525060200191505060405180910390fd5b60028281548110151561247f57fe5b9060005260206000200160009054906101000a900473ffffffffffffffffffffffffffffffffffffffff169050919050565b60003073ffffffffffffffffffffffffffffffffffffffff168373ffffffffffffffffffffffffffffffffffffffff1614156124f05760019050612720565b600160009054906101000a900473ffffffffffffffffffffffffffffffffffffffff1673ffffffffffffffffffffffffffffffffffffffff168373ffffffffffffffffffffffffffffffffffffffff16141561254f5760019050612720565b600073ffffffffffffffffffffffffffffffffffffffff166000809054906101000a900473ffffffffffffffffffffffffffffffffffffffff1673ffffffffffffffffffffffffffffffffffffffff1614156125ae5760009050612720565b6000809054906101000a900473ffffffffffffffffffffffffffffffffffffffff1673ffffffffffffffffffffffffffffffffffffffff1663b70096138430856040518463ffffffff167c0100000000000000000000000000000000000000000000000000000000028152600401808473ffffffffffffffffffffffffffffffffffffffff1673ffffffffffffffffffffffffffffffffffffffff1681526020018373ffffffffffffffffffffffffffffffffffffffff1673ffffffffffffffffffffffffffffffffffffffff168152602001827bffffffffffffffffffffffffffffffffffffffffffffffffffffffff19167bffffffffffffffffffffffffffffffffffffffffffffffffffffffff19168152602001935050505060206040518083038186803b1580156126e257600080fd5b505afa1580156126f6573d6000803e3d6000fd5b505050506040513d602081101561270c57600080fd5b810190808051906020019092919050505090505b9291505056fea165627a7a72305820ee4fb44f608f7e11c0d455bcb604c901ba53c2fd8a8a4399c66f60320a023aa30029",
  "source": "pragma solidity ^0.5.0;\n\nimport \"./DSAuth.sol\";\nimport \"./proxy/MutableForwarder.sol\";\nimport \"./EthlanceUser.sol\";\n\n/*\n  EthlanceRegistry deployment should make use of the mutable forwarder.\n*/\n\n/// @title Dynamic Event Dispatch\ncontract EthlanceEventDispatcher {\n  event EthlanceEvent(address indexed eventSender,\n                      string eventName,\n                      uint eventVersion,\n                      uint timestamp,\n                      uint[] eventData);\n}\n\n\ncontract EthlanceRegistry is DSAuth, EthlanceEventDispatcher {\n\n  // Only one contract user address per an ethereum user address\n  address[] userAddressListing;\n  mapping(address => uint) userAddressMapping;\n\n  // Comment Listings\n  mapping(address => address[]) commentListing;\n\n  // Feedback Mapping\n  mapping(address => address) feedbackMapping;\n\n  // Ethereum users can have multiple jobs.\n  address[] jobStoreAddressListing;\n\n  // Mapping of privileged factories to carry out contract construction\n  mapping(address => bool) public privilegedFactoryContracts;\n\n  // Mapping of contracts that can send an EthlanceEvent,\n  // append Comments, and append Feedback.\n  mapping(address => bool) public dispatchWhitelist;\n\n  /// @dev Push user address into the user listing.\n  /// @param _ethAddress The address of the ethereum user.\n  /// @param _userAddress The address of the user contract.\n  /// @return The user_id of the pushed user address.\n  function pushUser(address _ethAddress,\n                    address _userAddress)\n    auth\n    public returns(uint) {\n    userAddressListing.push(_userAddress);\n    userAddressMapping[_ethAddress] = userAddressListing.length;\n    permitDispatch(_userAddress);\n    return userAddressListing.length;\n  }\n\n    \n  /// @dev Get the number of users currently registered.\n  /// @return The number of users.\n  function getUserCount()\n    public view\n    returns(uint) {\n    return userAddressListing.length;\n  }\n\n\n  /// @dev Get the current user address based on the assigned\n  /// address, or return 0x0 if the given user does not exist.\n  /// @param _ethAddress The ethereum address of the user\n  /// @return The user contract address.\n  function getUserByAddress(address _ethAddress) \n    public view\n    returns(address) {\n    uint user_id = userAddressMapping[_ethAddress];\n    if (user_id == 0) {\n      return address(0);\n    }\n    return userAddressListing[user_id - 1];\n  }\n\n    \n  /// @dev Get the User ID linked to the given Ethereum\n  /// Address. Returns 0 if there is no linked ethereum address.\n  function getUserId(address _ethAddress) public view returns(uint) {\n    return userAddressMapping[_ethAddress];\n  }\n\n\n  /// @dev Get the user contract address by the provided index.\n  /// @param index The user contract index.\n  /// @return The address of the user contract.\n  function getUserByIndex(uint index)\n    public view\n    returns(address) {\n    require(index < userAddressListing.length,\n            \"Given index is out of bounds.\");\n    return userAddressListing[index];\n  }\n\n\n  /// @dev Push job address into the job listing\n  /// @param _jobAddress The address to place in the job listing.\n  /// @return The job index of the pushed contract address.\n  function pushJobStore(address _jobAddress)\n    auth\n    public returns(uint) {\n    jobStoreAddressListing.push(_jobAddress);\n    permitDispatch(_jobAddress);\n    return jobStoreAddressListing.length - 1;\n  }\n\n\n  /// @dev Get the total number of jobs\n  /// @return The number of job contract addresses.\n  function getJobStoreCount()\n    public view\n    returns(uint) {\n    return jobStoreAddressListing.length;\n  }\n\n    \n  /// @dev Gets the job contract address at the given index.\n  /// @param index The index of the job contract.\n  /// @return The address at the given job contract.\n  function getJobStoreByIndex(uint index)\n    public view\n    returns(address) {\n    require(index < jobStoreAddressListing.length,\n            \"Given index is out of bounds.\");\n    return jobStoreAddressListing[index];\n  }\n\n\n  /// @dev Allow a factory contract to be privileged for contract\n  /// construction.\n  /// @param factoryAddress The address of the privileged factory.\n  function permitFactoryPrivilege(address factoryAddress)\n    auth\n    public {\n    privilegedFactoryContracts[factoryAddress] = true;\n  }\n\n    \n  /// @dev Checks if the given factoryAddress is privileged to\n  /// carry out contract construction.\n  /// @param factoryAddress The address of the factory contract\n  /// @return True, if the factory is privileged\n  function checkFactoryPrivilege(address factoryAddress)\n    public view returns(bool) {\n    return privilegedFactoryContracts[factoryAddress];\n  }\n\n\n  /// @dev Emit the dynamic Ethlance Event.\n  /// @param eventName - Name of the event.\n  /// @param eventVersion - Version of the event.\n  /// @param eventData - Array of data within the event.\n  function fireEvent(string memory eventName,\n                     uint eventVersion,\n                     uint[] memory eventData)\n    public {\n    require(dispatchWhitelist[msg.sender] == true ||\n            isAuthorized(msg.sender, msg.sig),\n            \"Not Permitted to fire EthlanceEvent.\");\n  \n    emit EthlanceEvent(msg.sender,\n                       eventName,\n                       eventVersion,\n                       now,\n                       eventData);\n  }\n\n    \n  /// @dev Permits the given address to call fireEvent and push\n  /// values to the Registry listings. (comment listing, feedback\n  /// listing)\n  /// @param _address The address to permit the use of fireEvent.\n  /*\n    Note that permitting dispatch allows the provided address to\n    propagate the same permissions.\n  */\n  function permitDispatch(address _address)\n    public {\n    require(dispatchWhitelist[msg.sender] ||\n            isAuthorized(msg.sender, msg.sig),\n            \"Not Authorized to permit dispatch.\");\n    dispatchWhitelist[_address] = true;\n  }\n\n\n  /// @dev Returns true, if the given address is a registered user\n  /// within the registry.\n  /// @param _address Address of the user.\n  /// @return Returns true if it is a registered user.\n  function isRegisteredUser(address _address)\n    public view returns(bool) {\n    EthlanceUser user = EthlanceUser(getUserByAddress(_address));\n    if (address(user) == address(0)) {\n      return false;\n    }\n    return true;\n  }\n\n\n  /// @dev Returns true, if the given user address is a registered employer\n  /// @param _address Address of the user\n  /// @return Returns true if it is an employer address.\n  function isRegisteredEmployer(address _address)\n    public view returns(bool) {\n    EthlanceUser user = EthlanceUser(getUserByAddress(_address));\n    if (address(user) == address(0)) {\n      return false;\n    }\n\n    bool isRegistered = user.getEmployerData();\n    return isRegistered;\n  }\n\n\n  /// @dev Returns true, if the given user address is a registered candidate\n  /// @param _address Address of the user\n  /// @return Returns true if it is a registered candidate.\n  function isRegisteredCandidate(address _address)\n    public view returns(bool) {\n    EthlanceUser user = EthlanceUser(getUserByAddress(_address));\n    if (address(user) == address(0)) {\n      return false;\n    }\n\n    (bool isRegistered,,) = user.getCandidateData();\n    return isRegistered;\n  }\n\n    \n  /// @dev Returns true, if the given user address is a registered arbiter\n  /// @param _address Address of the user\n  /// @return Returns true if it is a registered arbiter.\n  function isRegisteredArbiter(address _address)\n    public view returns(bool) {\n    EthlanceUser user = EthlanceUser(getUserByAddress(_address));\n    if (address(user) == address(0)) {\n      return false;\n    }\n\n    (bool isRegistered,,,) = user.getArbiterData();\n    return isRegistered;\n  }\n\n\n  /// @dev Push Comment into comment listing\n  /// @param contractAddress Address of the contract which contains comments\n  /// @param comment Comment Contract being appended\n  function pushComment(address contractAddress, address comment)\n    public {\n    require(dispatchWhitelist[msg.sender] == true ||\n            isAuthorized(msg.sender, msg.sig),\n            \"Not Permitted to fire EthlanceEvent.\");\n\n    commentListing[contractAddress].push(comment);\n  }\n\n    \n  /// @dev Get the number of comments linked to the given contract\n  function getCommentCount(address contractAddress)\n    public view returns(uint) {\n    return commentListing[contractAddress].length;\n  }\n    \n    \n  /// @dev Get the comment contract at the given address, with the given index\n  function getCommentByIndex(address contractAddress, uint index)\n    public view returns(address) {\n    require(index < getCommentCount(contractAddress), \"Index out of bounds\");\n    return commentListing[contractAddress][index];\n  }\n\n\n  /// @dev Push Feedback into feedback listing\n  /// @param contractAddress Address of the contract which contains feedbacks\n  /// @param feedback Feedback Contract being appended\n  function pushFeedback(address contractAddress, address feedback)\n    public {\n    require(dispatchWhitelist[msg.sender] == true ||\n            isAuthorized(msg.sender, msg.sig),\n            \"Not Permitted to fire EthlanceEvent.\");\n    require(!hasFeedback(contractAddress), \"Given contract address already has a feedback instance.\");\n\n    feedbackMapping[contractAddress] = feedback;\n  }\n    \n\n  /// @dev Returns true if a feedback instance is already linked to the given contract address.\n  function hasFeedback(address contractAddress) public view returns(bool) {\n    return feedbackMapping[contractAddress] != address(0);\n  }\n    \n\n  /// @dev Get the feedback contract at the given address, with the given index\n  function getFeedbackByAddress(address contractAddress)\n    public view returns(address) {\n    return feedbackMapping[contractAddress];\n  }\n}\n",
  "sourcePath": "/home/benzap/projects/ethlance/contracts/EthlanceRegistry.sol",
  "compiler": {
    "name": "solc",
    "version": "0.5.0+commit.1d4f565a.Emscripten.clang"
  },
  "schemaVersion": "3.0.9",
  "updatedAt": "2019-05-14T23:51:40.121Z",
  "devdoc": {
    "methods": {
      "checkFactoryPrivilege(address)": {
        "details": "Checks if the given factoryAddress is privileged to carry out contract construction.",
        "params": {
          "factoryAddress": "The address of the factory contract"
        },
        "return": "True, if the factory is privileged"
      },
      "fireEvent(string,uint256,uint256[])": {
        "details": "Emit the dynamic Ethlance Event.",
        "params": {
          "eventData": "- Array of data within the event.",
          "eventName": "- Name of the event.",
          "eventVersion": "- Version of the event."
        }
      },
      "getCommentByIndex(address,uint256)": {
        "details": "Get the comment contract at the given address, with the given index"
      },
      "getCommentCount(address)": {
        "details": "Get the number of comments linked to the given contract"
      },
      "getFeedbackByAddress(address)": {
        "details": "Get the feedback contract at the given address, with the given index"
      },
      "getJobStoreByIndex(uint256)": {
        "details": "Gets the job contract address at the given index.",
        "params": {
          "index": "The index of the job contract."
        },
        "return": "The address at the given job contract."
      },
      "getJobStoreCount()": {
        "details": "Get the total number of jobs",
        "return": "The number of job contract addresses."
      },
      "getUserByAddress(address)": {
        "details": "Get the current user address based on the assigned address, or return 0x0 if the given user does not exist.",
        "params": {
          "_ethAddress": "The ethereum address of the user"
        },
        "return": "The user contract address."
      },
      "getUserByIndex(uint256)": {
        "details": "Get the user contract address by the provided index.",
        "params": {
          "index": "The user contract index."
        },
        "return": "The address of the user contract."
      },
      "getUserCount()": {
        "details": "Get the number of users currently registered.",
        "return": "The number of users."
      },
      "getUserId(address)": {
        "details": "Get the User ID linked to the given Ethereum Address. Returns 0 if there is no linked ethereum address."
      },
      "hasFeedback(address)": {
        "details": "Returns true if a feedback instance is already linked to the given contract address."
      },
      "isRegisteredArbiter(address)": {
        "details": "Returns true, if the given user address is a registered arbiter",
        "params": {
          "_address": "Address of the user"
        },
        "return": "Returns true if it is a registered arbiter."
      },
      "isRegisteredCandidate(address)": {
        "details": "Returns true, if the given user address is a registered candidate",
        "params": {
          "_address": "Address of the user"
        },
        "return": "Returns true if it is a registered candidate."
      },
      "isRegisteredEmployer(address)": {
        "details": "Returns true, if the given user address is a registered employer",
        "params": {
          "_address": "Address of the user"
        },
        "return": "Returns true if it is an employer address."
      },
      "isRegisteredUser(address)": {
        "details": "Returns true, if the given address is a registered user within the registry.",
        "params": {
          "_address": "Address of the user."
        },
        "return": "Returns true if it is a registered user."
      },
      "permitDispatch(address)": {
        "details": "Permits the given address to call fireEvent and push values to the Registry listings. (comment listing, feedback listing)",
        "params": {
          "_address": "The address to permit the use of fireEvent."
        }
      },
      "permitFactoryPrivilege(address)": {
        "details": "Allow a factory contract to be privileged for contract construction.",
        "params": {
          "factoryAddress": "The address of the privileged factory."
        }
      },
      "pushComment(address,address)": {
        "details": "Push Comment into comment listing",
        "params": {
          "comment": "Comment Contract being appended",
          "contractAddress": "Address of the contract which contains comments"
        }
      },
      "pushFeedback(address,address)": {
        "details": "Push Feedback into feedback listing",
        "params": {
          "contractAddress": "Address of the contract which contains feedbacks",
          "feedback": "Feedback Contract being appended"
        }
      },
      "pushJobStore(address)": {
        "details": "Push job address into the job listing",
        "params": {
          "_jobAddress": "The address to place in the job listing."
        },
        "return": "The job index of the pushed contract address."
      },
      "pushUser(address,address)": {
        "details": "Push user address into the user listing.",
        "params": {
          "_ethAddress": "The address of the ethereum user.",
          "_userAddress": "The address of the user contract."
        },
        "return": "The user_id of the pushed user address."
      }
    }
  },
  "userdoc": {
    "methods": {}
  }
}