{
  "contractName": "EthlanceFeedback",
  "abi": [
    {
      "constant": true,
      "inputs": [],
      "name": "workIndex",
      "outputs": [
        {
          "name": "",
          "type": "uint256"
        }
      ],
      "payable": false,
      "stateMutability": "view",
      "type": "function"
    },
    {
      "constant": true,
      "inputs": [],
      "name": "version",
      "outputs": [
        {
          "name": "",
          "type": "uint256"
        }
      ],
      "payable": false,
      "stateMutability": "view",
      "type": "function"
    },
    {
      "constant": true,
      "inputs": [],
      "name": "EMPLOYER_TYPE",
      "outputs": [
        {
          "name": "",
          "type": "uint256"
        }
      ],
      "payable": false,
      "stateMutability": "view",
      "type": "function"
    },
    {
      "constant": true,
      "inputs": [],
      "name": "registry",
      "outputs": [
        {
          "name": "",
          "type": "address"
        }
      ],
      "payable": false,
      "stateMutability": "view",
      "type": "function"
    },
    {
      "constant": true,
      "inputs": [],
      "name": "owner",
      "outputs": [
        {
          "name": "",
          "type": "address"
        }
      ],
      "payable": false,
      "stateMutability": "view",
      "type": "function"
    },
    {
      "constant": true,
      "inputs": [],
      "name": "CANDIDATE_TYPE",
      "outputs": [
        {
          "name": "",
          "type": "uint256"
        }
      ],
      "payable": false,
      "stateMutability": "view",
      "type": "function"
    },
    {
      "constant": true,
      "inputs": [],
      "name": "jobIndex",
      "outputs": [
        {
          "name": "",
          "type": "uint256"
        }
      ],
      "payable": false,
      "stateMutability": "view",
      "type": "function"
    },
    {
      "constant": true,
      "inputs": [],
      "name": "ARBITER_TYPE",
      "outputs": [
        {
          "name": "",
          "type": "uint256"
        }
      ],
      "payable": false,
      "stateMutability": "view",
      "type": "function"
    },
    {
      "constant": true,
      "inputs": [],
      "name": "GUEST_TYPE",
      "outputs": [
        {
          "name": "",
          "type": "uint256"
        }
      ],
      "payable": false,
      "stateMutability": "view",
      "type": "function"
    },
    {
      "constant": false,
      "inputs": [
        {
          "name": "_owner",
          "type": "address"
        },
        {
          "name": "_jobIndex",
          "type": "uint256"
        },
        {
          "name": "_workIndex",
          "type": "uint256"
        }
      ],
      "name": "construct",
      "outputs": [],
      "payable": false,
      "stateMutability": "nonpayable",
      "type": "function"
    },
    {
      "constant": false,
      "inputs": [
        {
          "name": "fromUserAddress",
          "type": "address"
        },
        {
          "name": "toUserAddress",
          "type": "address"
        },
        {
          "name": "fromUserType",
          "type": "uint256"
        },
        {
          "name": "toUserType",
          "type": "uint256"
        },
        {
          "name": "metahash",
          "type": "string"
        },
        {
          "name": "rating",
          "type": "uint256"
        }
      ],
      "name": "update",
      "outputs": [],
      "payable": false,
      "stateMutability": "nonpayable",
      "type": "function"
    },
    {
      "constant": true,
      "inputs": [],
      "name": "getFeedbackCount",
      "outputs": [
        {
          "name": "",
          "type": "uint256"
        }
      ],
      "payable": false,
      "stateMutability": "view",
      "type": "function"
    },
    {
      "constant": true,
      "inputs": [
        {
          "name": "_index",
          "type": "uint256"
        }
      ],
      "name": "getFeedbackByIndex",
      "outputs": [
        {
          "name": "fromUserAddress",
          "type": "address"
        },
        {
          "name": "toUserAddress",
          "type": "address"
        },
        {
          "name": "fromUserType",
          "type": "uint256"
        },
        {
          "name": "toUserType",
          "type": "uint256"
        },
        {
          "name": "metahash",
          "type": "string"
        },
        {
          "name": "rating",
          "type": "uint256"
        },
        {
          "name": "dateCreated",
          "type": "uint256"
        },
        {
          "name": "dateUpdated",
          "type": "uint256"
        }
      ],
      "payable": false,
      "stateMutability": "view",
      "type": "function"
    }
  ],
  "bytecode": "0x608060405234801561001057600080fd5b50611147806100206000396000f3fe6080604052600436106100c5576000357c0100000000000000000000000000000000000000000000000000000000900463ffffffff1680630f8af3c5146100ca57806338c5c86b146100f557806343168a3e1461012057806354fd4d50146102045780636a10928f1461022f5780637b1039991461025a5780638da5cb5b146102b1578063b1049dbe14610308578063b721f1cd14610445578063b777281814610470578063ed7ace461461049b578063fb01b30314610500578063fe737a121461052b575b600080fd5b3480156100d657600080fd5b506100df610556565b6040518082815260200191505060405180910390f35b34801561010157600080fd5b5061010a61055c565b6040518082815260200191505060405180910390f35b34801561012c57600080fd5b50610202600480360360c081101561014357600080fd5b81019080803573ffffffffffffffffffffffffffffffffffffffff169060200190929190803573ffffffffffffffffffffffffffffffffffffffff1690602001909291908035906020019092919080359060200190929190803590602001906401000000008111156101b457600080fd5b8201836020820111156101c657600080fd5b803590602001918460018302840111640100000000831117156101e857600080fd5b909192939192939080359060200190929190505050610569565b005b34801561021057600080fd5b506102196109ff565b6040518082815260200191505060405180910390f35b34801561023b57600080fd5b50610244610a04565b6040518082815260200191505060405180910390f35b34801561026657600080fd5b5061026f610a09565b604051808273ffffffffffffffffffffffffffffffffffffffff1673ffffffffffffffffffffffffffffffffffffffff16815260200191505060405180910390f35b3480156102bd57600080fd5b506102c6610a21565b604051808273ffffffffffffffffffffffffffffffffffffffff1673ffffffffffffffffffffffffffffffffffffffff16815260200191505060405180910390f35b34801561031457600080fd5b506103416004803603602081101561032b57600080fd5b8101908080359060200190929190505050610a46565b604051808973ffffffffffffffffffffffffffffffffffffffff1673ffffffffffffffffffffffffffffffffffffffff1681526020018873ffffffffffffffffffffffffffffffffffffffff1673ffffffffffffffffffffffffffffffffffffffff16815260200187815260200186815260200180602001858152602001848152602001838152602001828103825286818151815260200191508051906020019080838360005b838110156104035780820151818401526020810190506103e8565b50505050905090810190601f1680156104305780820380516001836020036101000a031916815260200191505b50995050505050505050505060405180910390f35b34801561045157600080fd5b5061045a610cc7565b6040518082815260200191505060405180910390f35b34801561047c57600080fd5b50610485610ccc565b6040518082815260200191505060405180910390f35b3480156104a757600080fd5b506104fe600480360360608110156104be57600080fd5b81019080803573ffffffffffffffffffffffffffffffffffffffff1690602001909291908035906020019092919080359060200190929190505050610cd2565b005b34801561050c57600080fd5b50610515610e10565b6040518082815260200191505060405180910390f35b34801561053757600080fd5b50610540610e15565b6040518082815260200191505060405180910390f35b60045481565b6000600280549050905090565b60058111151515610608576040517f08c379a00000000000000000000000000000000000000000000000000000000081526004018080602001828103825260278152602001807f526174696e67206d75737420626520612076616c7565206265747765656e203081526020017f20616e6420352e0000000000000000000000000000000000000000000000000081525060400191505060405180910390fd5b610610611004565b610100604051908101604052808973ffffffffffffffffffffffffffffffffffffffff1681526020018873ffffffffffffffffffffffffffffffffffffffff16815260200187815260200186815260200185858080601f016020809104026020016040519081016040528093929190818152602001838380828437600081840152601f19601f8201169050808301925050505050505081526020018381526020014281526020014281525090506000600160008a73ffffffffffffffffffffffffffffffffffffffff1673ffffffffffffffffffffffffffffffffffffffff168152602001908152602001600020549050600080821115610853576001820390508260028281548110151561072157fe5b906000526020600020906008020160008201518160000160006101000a81548173ffffffffffffffffffffffffffffffffffffffff021916908373ffffffffffffffffffffffffffffffffffffffff16021790555060208201518160010160006101000a81548173ffffffffffffffffffffffffffffffffffffffff021916908373ffffffffffffffffffffffffffffffffffffffff160217905550604082015181600201556060820151816003015560808201518160040190805190602001906107ed929190611076565b5060a0820151816005015560c0820151816006015560e0820151816007015590505061084e6040805190810160405280600f81526020017f466565646261636b55706461746564000000000000000000000000000000000081525082610e1a565b6109f3565b6002839080600181540180825580915050906001820390600052602060002090600802016000909192909190915060008201518160000160006101000a81548173ffffffffffffffffffffffffffffffffffffffff021916908373ffffffffffffffffffffffffffffffffffffffff16021790555060208201518160010160006101000a81548173ffffffffffffffffffffffffffffffffffffffff021916908373ffffffffffffffffffffffffffffffffffffffff1602179055506040820151816002015560608201518160030155608082015181600401908051906020019061093f929190611076565b5060a0820151816005015560c0820151816006015560e08201518160070155505050600280549050915060018203905081600160008c73ffffffffffffffffffffffffffffffffffffffff1673ffffffffffffffffffffffffffffffffffffffff168152602001908152602001600020819055506109f26040805190810160405280600f81526020017f466565646261636b43726561746564000000000000000000000000000000000081525082610e1a565b5b50505050505050505050565b600181565b600181565b73dabbdabbdabbdabbdabbdabbdabbdabbdabbdabb81565b6000809054906101000a900473ffffffffffffffffffffffffffffffffffffffff1681565b6000806000806060600080600060028054905089101515610acf576040517f08c379a000000000000000000000000000000000000000000000000000000000815260040180806020018281038252601d8152602001807f476976656e20696e646578206973206f7574206f6620626f756e64732e00000081525060200191505060405180910390fd5b610ad7611004565b60028a815481101515610ae657fe5b906000526020600020906008020161010060405190810160405290816000820160009054906101000a900473ffffffffffffffffffffffffffffffffffffffff1673ffffffffffffffffffffffffffffffffffffffff1673ffffffffffffffffffffffffffffffffffffffff1681526020016001820160009054906101000a900473ffffffffffffffffffffffffffffffffffffffff1673ffffffffffffffffffffffffffffffffffffffff1673ffffffffffffffffffffffffffffffffffffffff1681526020016002820154815260200160038201548152602001600482018054600181600116156101000203166002900480601f016020809104026020016040519081016040528092919081815260200182805460018160011615610100020316600290048015610c5a5780601f10610c2f57610100808354040283529160200191610c5a565b820191906000526020600020905b815481529060010190602001808311610c3d57829003601f168201915b505050505081526020016005820154815260200160068201548152602001600782015481525050905080600001519850806020015197508060400151965080606001519550806080015194508060a0015193508060c0015192508060e00151915050919395975091939597565b600281565b60035481565b600073ffffffffffffffffffffffffffffffffffffffff166000809054906101000a900473ffffffffffffffffffffffffffffffffffffffff1673ffffffffffffffffffffffffffffffffffffffff16141515610dbd576040517f08c379a00000000000000000000000000000000000000000000000000000000081526004018080602001828103825260318152602001807f4574686c616e6365466565646261636b20636f6e74726163742077617320616c81526020017f726561647920636f6e737472756374656400000000000000000000000000000081525060400191505060405180910390fd5b826000806101000a81548173ffffffffffffffffffffffffffffffffffffffff021916908373ffffffffffffffffffffffffffffffffffffffff1602179055508160038190555080600481905550505050565b600381565b600081565b60606003604051908082528060200260200182016040528015610e4c5781602001602082028038833980820191505090505b509050600354816000815181101515610e6157fe5b9060200190602002018181525050600454816001815181101515610e8157fe5b906020019060200201818152505081816002815181101515610e9f57fe5b906020019060200201818152505073dabbdabbdabbdabbdabbdabbdabbdabbdabbdabb73ffffffffffffffffffffffffffffffffffffffff16634904a20c846001846040518463ffffffff167c0100000000000000000000000000000000000000000000000000000000028152600401808060200184815260200180602001838103835286818151815260200191508051906020019080838360005b83811015610f56578082015181840152602081019050610f3b565b50505050905090810190601f168015610f835780820380516001836020036101000a031916815260200191505b50838103825284818151815260200191508051906020019060200280838360005b83811015610fbf578082015181840152602081019050610fa4565b5050505090500195505050505050600060405180830381600087803b158015610fe757600080fd5b505af1158015610ffb573d6000803e3d6000fd5b50505050505050565b61010060405190810160405280600073ffffffffffffffffffffffffffffffffffffffff168152602001600073ffffffffffffffffffffffffffffffffffffffff1681526020016000815260200160008152602001606081526020016000815260200160008152602001600081525090565b828054600181600116156101000203166002900490600052602060002090601f016020900481019282601f106110b757805160ff19168380011785556110e5565b828001600101855582156110e5579182015b828111156110e45782518255916020019190600101906110c9565b5b5090506110f291906110f6565b5090565b61111891905b808211156111145760008160009055506001016110fc565b5090565b9056fea165627a7a72305820b5a1fe4ae75ee903bcd46dcc4c8d21340fd8f9c4b5b0ed8432d6ed2dcdf8c4690029",
  "source": "pragma solidity ^0.5.0;\n\nimport \"./EthlanceRegistry.sol\";\n\n/// @title Represents feedback for a given contract.\n/*\n  Notes:\n\n  - EthlanceFeedback is setup to be composable.\n\n  - Feedback contract is owned by the contract that constructs it,\n\twhich then decides on who can leave feedback.\n\n  - Feedback can only be left once per a user address, and can be\n\tupdated from then on.\n\n  - EthlanceFeedback objects exist in the WorkContract, and the\n\tDispute. Although they are stored separately, they are usually\n\tunionized when stored outside of the smart contracts. This is why\n\tthere is no dispute_index key present during construction.\n*/\ncontract EthlanceFeedback {\n\tuint public constant version = 1;\n\tEthlanceRegistry public constant registry = EthlanceRegistry(0xdaBBdABbDABbDabbDaBbDabbDaBbdaBbdaBbDAbB);\n\n\n\t//\n\t// Constants\n\t//\n\n\t// User Type Constants\n\tuint public constant GUEST_TYPE = 0;\n\tuint public constant EMPLOYER_TYPE = 1;\n\tuint public constant CANDIDATE_TYPE = 2;\n\tuint public constant ARBITER_TYPE = 3;\n\n\n\t//\n\t// Structs\n\t//\n\tstruct Feedback {\n\t\t// Address of the user leaving feedback\n\t\taddress fromUserAddress;\n\t\n\t\t// Address of the user receiving feedback\n\t\taddress toUserAddress;\n\n\t\t// User Role of the user leaving feedback\n\t\tuint fromUserType;\n\n\t\t// User Role of the user receiving feedback\n\t\tuint toUserType;\n\n\t\t// Additional Metadata attached to the contract via IPFS\n\t\tstring metahash;\n\t\n\t\t// Feedback, 0-5 Star Rating\n\t\tuint rating;\n\n\t\t// When the feedback was created\n\t\tuint dateCreated;\n\n\t\t// Latest feedback update\n\t\tuint dateUpdated;\n\t}\n\n\n\t//\n\t// Members\n\t//\n\taddress public owner;\n\tmapping(address => uint) feedbackMapping;\n\tFeedback[] feedbackListing;\n\n\tuint public jobIndex;\n\tuint public workIndex;\n\n    \n\t/// @dev Forwarder Constructor\n\t/// @param _owner The owning address for this feedback {EthlanceWorkContract, EthlanceDispute}\n\t/// @param _jobIndex The EthlanceJobStore Index for the feedback\n\t/// @param _workIndex The EthlanceWorkContract Index for the feedback\n\tfunction construct(address _owner, uint _jobIndex, uint _workIndex) public {\n\t\trequire(owner == address(0), \"EthlanceFeedback contract was already constructed\");\n\t\towner = _owner;\n\t\tjobIndex = _jobIndex;\n\t\tworkIndex = _workIndex;\n\t}\n\n\n\t/// @dev Update the given feedback.\n\t/*\n\t\tNotes:\n\n\t\t- Feedback can only be updated by the owner, this method should\n\t\tbe superceded by the owner contract.\n\t*/\n\tfunction update(address fromUserAddress,\n\t\t\t\t\t\t\t\t\taddress toUserAddress,\n\t\t\t\t\t\t\t\t\tuint fromUserType,\n\t\t\t\t\t\t\t\t\tuint toUserType,\n\t\t\t\t\t\t\t\t\tstring calldata metahash,\n\t\t\t\t\t\t\t\t\tuint rating) external {\n\t\t//require(msg.sender == owner, \"Must be contract owner to update feedback.\");\n\t\trequire(rating <= 5, \"Rating must be a value between 0 and 5.\");\n\n\t\tFeedback memory feedback = Feedback({\n\t    fromUserAddress: fromUserAddress,\n\t\t\t\t\ttoUserAddress: toUserAddress,\n\t\t\t\t\tfromUserType: fromUserType,\n\t\t\t\t\ttoUserType: toUserType,\n\t\t\t\t\tmetahash: metahash,\n\t\t\t\t\trating: rating,\n\t\t\t\t\tdateCreated: now,\n\t\t\t\t\tdateUpdated: now\n\t\t\t\t\t});\n\n\n\t\tuint feedbackId = feedbackMapping[fromUserAddress];\n\t\tuint feedbackIndex; // minus one of feedback ID\n\n\t\t// It's an existing user that has chosen to leave updated feedback.\n\t\tif (feedbackId > 0) {\n\t    feedbackIndex = feedbackId - 1;\n\t    feedbackListing[feedbackIndex] = feedback;\n\t    fireEvent(\"FeedbackUpdated\", feedbackIndex);\n\t\t}\n\t\t// New user leaving feedback.\n\t\telse {\n\t    feedbackListing.push(feedback);\n\n\t    feedbackId = feedbackListing.length;\n\t    feedbackIndex = feedbackId - 1;\n\t    \n\t    feedbackMapping[fromUserAddress] = feedbackId;\n\t    fireEvent(\"FeedbackCreated\", feedbackIndex);\n\t\t}\n\t}\n\n\n\t/// @dev Get the number of feedback entries\n\tfunction getFeedbackCount() public view returns(uint) {\n\t\treturn feedbackListing.length;\n\t}\n\n\n\t/// @dev Get the feedback at the given index.\n\tfunction getFeedbackByIndex(uint _index)\n\t\tpublic view\n\t\treturns(address fromUserAddress,\n\t\t\t\t\t\taddress toUserAddress,\n\t\t\t\t\t\tuint fromUserType,\n\t\t\t\t\t\tuint toUserType,\n\t\t\t\t\t\tstring memory metahash,\n\t\t\t\t\t\tuint rating,\n\t\t\t\t\t\tuint dateCreated,\n\t\t\t\t\t\tuint dateUpdated) {\n\t\trequire(_index < feedbackListing.length, \"Given index is out of bounds.\");\n\t\tFeedback memory feedback = feedbackListing[_index];\n\t\n\t\tfromUserAddress = feedback.fromUserAddress;\n\t\ttoUserAddress = feedback.toUserAddress;\n\t\tfromUserType = feedback.fromUserType;\n\t\ttoUserType = feedback.toUserType;\n\t\tmetahash = feedback.metahash;\n\t\trating = feedback.rating;\n\t\tdateCreated = feedback.dateCreated;\n\t\tdateUpdated = feedback.dateUpdated;\n\t}\n\n\n\t/// @dev Fire events specific to the feedback.\n\t/// @param eventName Unique name to give the fired event\n\t/// @param _index The feedback index of the feedback object throwing the event.\n\t/*\n\t\tNotes:\n\n\t\t- EthlanceFeedback is a store of feedback objects\n\t*/\n\tfunction fireEvent(string memory eventName, uint _index) private {\n\t\tuint[] memory eventData = new uint[](3);\n\t\teventData[0] = jobIndex;\n\t\teventData[1] = workIndex;\n\t\teventData[2] = _index;\n\n\t\tregistry.fireEvent(eventName, version, eventData);\n\t}\n}\n",
  "sourcePath": "/home/benzap/projects/ethlance/contracts/EthlanceFeedback.sol",
  "compiler": {
    "name": "solc",
    "version": "0.5.0+commit.1d4f565a.Emscripten.clang"
  },
  "schemaVersion": "3.0.9",
  "updatedAt": "2019-05-14T23:51:40.092Z",
  "devdoc": {
    "methods": {
      "construct(address,uint256,uint256)": {
        "details": "Forwarder Constructor",
        "params": {
          "_jobIndex": "The EthlanceJobStore Index for the feedback",
          "_owner": "The owning address for this feedback {EthlanceWorkContract, EthlanceDispute}",
          "_workIndex": "The EthlanceWorkContract Index for the feedback"
        }
      },
      "getFeedbackByIndex(uint256)": {
        "details": "Get the feedback at the given index."
      },
      "getFeedbackCount()": {
        "details": "Get the number of feedback entries"
      },
      "update(address,address,uint256,uint256,string,uint256)": {
        "details": "Update the given feedback."
      }
    },
    "title": "Represents feedback for a given contract."
  },
  "userdoc": {
    "methods": {}
  }
}