{
  "contractName": "EthlanceWorkContract",
  "abi": [
    {
      "constant": true,
      "inputs": [],
      "name": "dateUpdated",
      "outputs": [
        {
          "name": "",
          "type": "uint256"
        }
      ],
      "payable": false,
      "stateMutability": "view",
      "type": "function"
    },
    {
      "constant": true,
      "inputs": [],
      "name": "CONTRACT_STATUS_FINISHED",
      "outputs": [
        {
          "name": "",
          "type": "uint256"
        }
      ],
      "payable": false,
      "stateMutability": "view",
      "type": "function"
    },
    {
      "constant": true,
      "inputs": [],
      "name": "workIndex",
      "outputs": [
        {
          "name": "",
          "type": "uint256"
        }
      ],
      "payable": false,
      "stateMutability": "view",
      "type": "function"
    },
    {
      "constant": true,
      "inputs": [],
      "name": "candidateAddress",
      "outputs": [
        {
          "name": "",
          "type": "address"
        }
      ],
      "payable": false,
      "stateMutability": "view",
      "type": "function"
    },
    {
      "constant": true,
      "inputs": [],
      "name": "dateCreated",
      "outputs": [
        {
          "name": "",
          "type": "uint256"
        }
      ],
      "payable": false,
      "stateMutability": "view",
      "type": "function"
    },
    {
      "constant": true,
      "inputs": [
        {
          "name": "",
          "type": "uint256"
        }
      ],
      "name": "invoiceListing",
      "outputs": [
        {
          "name": "",
          "type": "address"
        }
      ],
      "payable": false,
      "stateMutability": "view",
      "type": "function"
    },
    {
      "constant": true,
      "inputs": [],
      "name": "CONTRACT_STATUS_ACCEPTED",
      "outputs": [
        {
          "name": "",
          "type": "uint256"
        }
      ],
      "payable": false,
      "stateMutability": "view",
      "type": "function"
    },
    {
      "constant": true,
      "inputs": [],
      "name": "CONTRACT_STATUS_IN_PROGRESS",
      "outputs": [
        {
          "name": "",
          "type": "uint256"
        }
      ],
      "payable": false,
      "stateMutability": "view",
      "type": "function"
    },
    {
      "constant": true,
      "inputs": [],
      "name": "CONTRACT_STATUS_REQUEST_CANDIDATE_FINISHED",
      "outputs": [
        {
          "name": "",
          "type": "uint256"
        }
      ],
      "payable": false,
      "stateMutability": "view",
      "type": "function"
    },
    {
      "constant": true,
      "inputs": [],
      "name": "version",
      "outputs": [
        {
          "name": "",
          "type": "uint256"
        }
      ],
      "payable": false,
      "stateMutability": "view",
      "type": "function"
    },
    {
      "constant": true,
      "inputs": [],
      "name": "CONTRACT_STATUS_REQUEST_EMPLOYER_FINISHED",
      "outputs": [
        {
          "name": "",
          "type": "uint256"
        }
      ],
      "payable": false,
      "stateMutability": "view",
      "type": "function"
    },
    {
      "constant": true,
      "inputs": [],
      "name": "CONTRACT_STATUS_CANCELLED",
      "outputs": [
        {
          "name": "",
          "type": "uint256"
        }
      ],
      "payable": false,
      "stateMutability": "view",
      "type": "function"
    },
    {
      "constant": true,
      "inputs": [],
      "name": "CONTRACT_STATUS_REQUEST_EMPLOYER_INVITE",
      "outputs": [
        {
          "name": "",
          "type": "uint256"
        }
      ],
      "payable": false,
      "stateMutability": "view",
      "type": "function"
    },
    {
      "constant": true,
      "inputs": [],
      "name": "CONTRACT_STATUS_REQUEST_CANDIDATE_INVITE",
      "outputs": [
        {
          "name": "",
          "type": "uint256"
        }
      ],
      "payable": false,
      "stateMutability": "view",
      "type": "function"
    },
    {
      "constant": true,
      "inputs": [],
      "name": "EMPLOYER_TYPE",
      "outputs": [
        {
          "name": "",
          "type": "uint256"
        }
      ],
      "payable": false,
      "stateMutability": "view",
      "type": "function"
    },
    {
      "constant": true,
      "inputs": [],
      "name": "registry",
      "outputs": [
        {
          "name": "",
          "type": "address"
        }
      ],
      "payable": false,
      "stateMutability": "view",
      "type": "function"
    },
    {
      "constant": true,
      "inputs": [],
      "name": "owner",
      "outputs": [
        {
          "name": "",
          "type": "address"
        }
      ],
      "payable": false,
      "stateMutability": "view",
      "type": "function"
    },
    {
      "constant": true,
      "inputs": [],
      "name": "CONTRACT_STATUS_OPEN_BOUNTY",
      "outputs": [
        {
          "name": "",
          "type": "uint256"
        }
      ],
      "payable": false,
      "stateMutability": "view",
      "type": "function"
    },
    {
      "constant": true,
      "inputs": [],
      "name": "storeInstance",
      "outputs": [
        {
          "name": "",
          "type": "address"
        }
      ],
      "payable": false,
      "stateMutability": "view",
      "type": "function"
    },
    {
      "constant": true,
      "inputs": [],
      "name": "CANDIDATE_TYPE",
      "outputs": [
        {
          "name": "",
          "type": "uint256"
        }
      ],
      "payable": false,
      "stateMutability": "view",
      "type": "function"
    },
    {
      "constant": true,
      "inputs": [],
      "name": "jobIndex",
      "outputs": [
        {
          "name": "",
          "type": "uint256"
        }
      ],
      "payable": false,
      "stateMutability": "view",
      "type": "function"
    },
    {
      "constant": true,
      "inputs": [],
      "name": "contractStatus",
      "outputs": [
        {
          "name": "",
          "type": "uint256"
        }
      ],
      "payable": false,
      "stateMutability": "view",
      "type": "function"
    },
    {
      "constant": true,
      "inputs": [],
      "name": "CONTRACT_STATUS_INITIAL",
      "outputs": [
        {
          "name": "",
          "type": "uint256"
        }
      ],
      "payable": false,
      "stateMutability": "view",
      "type": "function"
    },
    {
      "constant": true,
      "inputs": [],
      "name": "CONTRACT_STATUS_ON_HOLD",
      "outputs": [
        {
          "name": "",
          "type": "uint256"
        }
      ],
      "payable": false,
      "stateMutability": "view",
      "type": "function"
    },
    {
      "constant": true,
      "inputs": [
        {
          "name": "",
          "type": "uint256"
        }
      ],
      "name": "disputeListing",
      "outputs": [
        {
          "name": "",
          "type": "address"
        }
      ],
      "payable": false,
      "stateMutability": "view",
      "type": "function"
    },
    {
      "constant": true,
      "inputs": [],
      "name": "ARBITER_TYPE",
      "outputs": [
        {
          "name": "",
          "type": "uint256"
        }
      ],
      "payable": false,
      "stateMutability": "view",
      "type": "function"
    },
    {
      "constant": true,
      "inputs": [],
      "name": "GUEST_TYPE",
      "outputs": [
        {
          "name": "",
          "type": "uint256"
        }
      ],
      "payable": false,
      "stateMutability": "view",
      "type": "function"
    },
    {
      "constant": false,
      "inputs": [
        {
          "name": "_storeInstance",
          "type": "address"
        },
        {
          "name": "_workIndex",
          "type": "uint256"
        },
        {
          "name": "_candidateAddress",
          "type": "address"
        },
        {
          "name": "isEmployerRequest",
          "type": "bool"
        }
      ],
      "name": "construct",
      "outputs": [],
      "payable": false,
      "stateMutability": "nonpayable",
      "type": "function"
    },
    {
      "constant": false,
      "inputs": [],
      "name": "requestInvite",
      "outputs": [],
      "payable": false,
      "stateMutability": "nonpayable",
      "type": "function"
    },
    {
      "constant": false,
      "inputs": [
        {
          "name": "_sender",
          "type": "address"
        }
      ],
      "name": "requestInvite",
      "outputs": [],
      "payable": false,
      "stateMutability": "nonpayable",
      "type": "function"
    },
    {
      "constant": false,
      "inputs": [],
      "name": "proceed",
      "outputs": [],
      "payable": false,
      "stateMutability": "nonpayable",
      "type": "function"
    },
    {
      "constant": false,
      "inputs": [],
      "name": "requestFinished",
      "outputs": [],
      "payable": false,
      "stateMutability": "nonpayable",
      "type": "function"
    },
    {
      "constant": false,
      "inputs": [
        {
          "name": "reason",
          "type": "string"
        },
        {
          "name": "metahash",
          "type": "string"
        }
      ],
      "name": "createDispute",
      "outputs": [],
      "payable": false,
      "stateMutability": "nonpayable",
      "type": "function"
    },
    {
      "constant": true,
      "inputs": [],
      "name": "getDisputeCount",
      "outputs": [
        {
          "name": "",
          "type": "uint256"
        }
      ],
      "payable": false,
      "stateMutability": "view",
      "type": "function"
    },
    {
      "constant": true,
      "inputs": [
        {
          "name": "index",
          "type": "uint256"
        }
      ],
      "name": "getDisputeByIndex",
      "outputs": [
        {
          "name": "",
          "type": "address"
        }
      ],
      "payable": false,
      "stateMutability": "view",
      "type": "function"
    },
    {
      "constant": false,
      "inputs": [
        {
          "name": "_employerAmount",
          "type": "uint256"
        },
        {
          "name": "_employerToken",
          "type": "address"
        },
        {
          "name": "_candidateAmount",
          "type": "uint256"
        },
        {
          "name": "_candidateToken",
          "type": "address"
        },
        {
          "name": "_arbiterAmount",
          "type": "uint256"
        },
        {
          "name": "_arbiterToken",
          "type": "address"
        }
      ],
      "name": "resolveDispute",
      "outputs": [],
      "payable": false,
      "stateMutability": "nonpayable",
      "type": "function"
    },
    {
      "constant": false,
      "inputs": [
        {
          "name": "amount",
          "type": "uint256"
        },
        {
          "name": "metahash",
          "type": "string"
        }
      ],
      "name": "createInvoice",
      "outputs": [],
      "payable": false,
      "stateMutability": "nonpayable",
      "type": "function"
    },
    {
      "constant": false,
      "inputs": [
        {
          "name": "amountPaid",
          "type": "uint256"
        }
      ],
      "name": "payInvoice",
      "outputs": [],
      "payable": false,
      "stateMutability": "nonpayable",
      "type": "function"
    },
    {
      "constant": true,
      "inputs": [],
      "name": "getInvoiceCount",
      "outputs": [
        {
          "name": "",
          "type": "uint256"
        }
      ],
      "payable": false,
      "stateMutability": "view",
      "type": "function"
    },
    {
      "constant": true,
      "inputs": [
        {
          "name": "index",
          "type": "uint256"
        }
      ],
      "name": "getInvoiceByIndex",
      "outputs": [
        {
          "name": "",
          "type": "address"
        }
      ],
      "payable": false,
      "stateMutability": "view",
      "type": "function"
    },
    {
      "constant": false,
      "inputs": [
        {
          "name": "metahash",
          "type": "string"
        }
      ],
      "name": "addComment",
      "outputs": [],
      "payable": false,
      "stateMutability": "nonpayable",
      "type": "function"
    },
    {
      "constant": false,
      "inputs": [
        {
          "name": "rating",
          "type": "uint256"
        },
        {
          "name": "metahash",
          "type": "string"
        }
      ],
      "name": "leaveFeedback",
      "outputs": [],
      "payable": false,
      "stateMutability": "nonpayable",
      "type": "function"
    }
  ],
  "bytecode": "0x608060405234801561001057600080fd5b506144e9806100206000396000f3fe608060405234801561001057600080fd5b506004361061025e5760003560e01c80637d6a59ed11610146578063c45fc513116100c3578063e9cbdb7a11610087578063e9cbdb7a14610b3a578063eab95edf14610ba8578063eb1a9c5514610bec578063ebef75e514610c0a578063fb01b30314610c78578063fe737a1214610c965761025e565b8063c45fc513146109cf578063c6a1086514610a71578063c6ee20d214610a7b578063cbf50ec014610a99578063e779235e14610b1c5761025e565b8063a94c83951161010a578063a94c8395146108fd578063ac0677881461091b578063ac60a6cd14610965578063b721f1cd14610993578063b7772818146109b15761025e565b80637d6a59ed1461065c578063843b43861461067a5780638cd1ac61146106f35780638da5cb5b146108455780638e724a721461088f5761025e565b80632d48feae116101df5780635cf7a9ad116101a35780635cf7a9ad146105205780635f77dbd01461053e5780636196e6931461055c57806364b3f0691461057a5780636a10928f146105f45780637b103999146106125761025e565b80632d48feae1461049e578063331df534146104a85780634ce66035146104c657806354fd4d50146104e45780635b2d05db146105025761025e565b80631f741c7a116102265780631f741c7a1461032557806329578ad2146103435780632a33fec6146103b15780632c40d0fa146103bb5780632d1aa118146103d95761025e565b80630201e535146102635780630ad334df146102815780630f8af3c51461029f57806310987b77146102bd5780631daa7a38146102db575b600080fd5b61026b610cb4565b6040518082815260200191505060405180910390f35b610289610cba565b6040518082815260200191505060405180910390f35b6102a7610cbf565b6040518082815260200191505060405180910390f35b6102c5610cc5565b6040518082815260200191505060405180910390f35b6102e3610cd2565b604051808273ffffffffffffffffffffffffffffffffffffffff1673ffffffffffffffffffffffffffffffffffffffff16815260200191505060405180910390f35b61032d610cf8565b6040518082815260200191505060405180910390f35b61036f6004803603602081101561035957600080fd5b8101908080359060200190929190505050610cfe565b604051808273ffffffffffffffffffffffffffffffffffffffff1673ffffffffffffffffffffffffffffffffffffffff16815260200191505060405180910390f35b6103b9610d3a565b005b6103c3611033565b6040518082815260200191505060405180910390f35b61049c600480360360408110156103ef57600080fd5b81019080803590602001909291908035906020019064010000000081111561041657600080fd5b82018360208201111561042857600080fd5b8035906020019184600183028401116401000000008311171561044a57600080fd5b91908080601f016020809104026020016040519081016040528093929190818152602001838380828437600081840152601f19601f820116905080830192505050505050509192919290505050611038565b005b6104a66112a0565b005b6104b06116c3565b6040518082815260200191505060405180910390f35b6104ce6116c8565b6040518082815260200191505060405180910390f35b6104ec6116cd565b6040518082815260200191505060405180910390f35b61050a6116d2565b6040518082815260200191505060405180910390f35b6105286116d7565b6040518082815260200191505060405180910390f35b6105466116dc565b6040518082815260200191505060405180910390f35b6105646116e1565b6040518082815260200191505060405180910390f35b6105f26004803603608081101561059057600080fd5b81019080803573ffffffffffffffffffffffffffffffffffffffff16906020019092919080359060200190929190803573ffffffffffffffffffffffffffffffffffffffff1690602001909291908035151590602001909291905050506116e6565b005b6105fc6119f6565b6040518082815260200191505060405180910390f35b61061a6119fb565b604051808273ffffffffffffffffffffffffffffffffffffffff1673ffffffffffffffffffffffffffffffffffffffff16815260200191505060405180910390f35b610664611a13565b6040518082815260200191505060405180910390f35b6106f16004803603602081101561069057600080fd5b81019080803590602001906401000000008111156106ad57600080fd5b8201836020820111156106bf57600080fd5b803590602001918460018302840111640100000000831117156106e157600080fd5b9091929391929390505050611a20565b005b6108436004803603604081101561070957600080fd5b810190808035906020019064010000000081111561072657600080fd5b82018360208201111561073857600080fd5b8035906020019184600183028401116401000000008311171561075a57600080fd5b91908080601f016020809104026020016040519081016040528093929190818152602001838380828437600081840152601f19601f820116905080830192505050505050509192919290803590602001906401000000008111156107bd57600080fd5b8201836020820111156107cf57600080fd5b803590602001918460018302840111640100000000831117156107f157600080fd5b91908080601f016020809104026020016040519081016040528093929190818152602001838380828437600081840152601f19601f820116905080830192505050505050509192919290505050611f24565b005b61084d6124e8565b604051808273ffffffffffffffffffffffffffffffffffffffff1673ffffffffffffffffffffffffffffffffffffffff16815260200191505060405180910390f35b6108bb600480360360208110156108a557600080fd5b810190808035906020019092919050505061250e565b604051808273ffffffffffffffffffffffffffffffffffffffff1673ffffffffffffffffffffffffffffffffffffffff16815260200191505060405180910390f35b61090561254f565b6040518082815260200191505060405180910390f35b610923612554565b604051808273ffffffffffffffffffffffffffffffffffffffff1673ffffffffffffffffffffffffffffffffffffffff16815260200191505060405180910390f35b6109916004803603602081101561097b57600080fd5b810190808035906020019092919050505061257a565b005b61099b6126be565b6040518082815260200191505060405180910390f35b6109b96126c3565b6040518082815260200191505060405180910390f35b610a6f600480360360c08110156109e557600080fd5b8101908080359060200190929190803573ffffffffffffffffffffffffffffffffffffffff16906020019092919080359060200190929190803573ffffffffffffffffffffffffffffffffffffffff16906020019092919080359060200190929190803573ffffffffffffffffffffffffffffffffffffffff1690602001909291905050506126c9565b005b610a796128bd565b005b610a836128c9565b6040518082815260200191505060405180910390f35b610b1a60048036036040811015610aaf57600080fd5b810190808035906020019092919080359060200190640100000000811115610ad657600080fd5b820183602082011115610ae857600080fd5b80359060200191846001830284011164010000000083111715610b0a57600080fd5b90919293919293905050506128cf565b005b610b24612f50565b6040518082815260200191505060405180910390f35b610b6660048036036020811015610b5057600080fd5b8101908080359060200190929190505050612f55565b604051808273ffffffffffffffffffffffffffffffffffffffff1673ffffffffffffffffffffffffffffffffffffffff16815260200191505060405180910390f35b610bea60048036036020811015610bbe57600080fd5b81019080803573ffffffffffffffffffffffffffffffffffffffff169060200190929190505050612f96565b005b610bf46135be565b6040518082815260200191505060405180910390f35b610c3660048036036020811015610c2057600080fd5b81019080803590602001909291905050506135c3565b604051808273ffffffffffffffffffffffffffffffffffffffff1673ffffffffffffffffffffffffffffffffffffffff16815260200191505060405180910390f35b610c806135ff565b6040518082815260200191505060405180910390f35b610c9e613604565b6040518082815260200191505060405180910390f35b60075481565b600981565b60025481565b6000600880549050905090565b600460009054906101000a900473ffffffffffffffffffffffffffffffffffffffff1681565b60065481565b60098181548110610d0b57fe5b906000526020600020016000915054906101000a900473ffffffffffffffffffffffffffffffffffffffff1681565b3373ffffffffffffffffffffffffffffffffffffffff16600360009054906101000a900473ffffffffffffffffffffffffffffffffffffffff1673ffffffffffffffffffffffffffffffffffffffff16630d0175a96040518163ffffffff1660e01b815260040160206040518083038186803b158015610db957600080fd5b505afa158015610dcd573d6000803e3d6000fd5b505050506040513d6020811015610de357600080fd5b810190808051906020019092919050505073ffffffffffffffffffffffffffffffffffffffff1614610e60576040517f08c379a00000000000000000000000000000000000000000000000000000000081526004018080602001828103825260278152602001806143876027913960400191505060405180910390fd5b600073ffffffffffffffffffffffffffffffffffffffff16600360009054906101000a900473ffffffffffffffffffffffffffffffffffffffff1673ffffffffffffffffffffffffffffffffffffffff1663fbbd21386040518163ffffffff1660e01b815260040160206040518083038186803b158015610ee057600080fd5b505afa158015610ef4573d6000803e3d6000fd5b505050506040513d6020811015610f0a57600080fd5b810190808051906020019092919050505073ffffffffffffffffffffffffffffffffffffffff161415610f88576040517f08c379a000000000000000000000000000000000000000000000000000000000815260040180806020018281038252603d815260200180614453603d913960400191505060405180910390fd5b60046000541415610fe057610f9d6005613609565b610fdb6040518060400160405280601681526020017f4a6f6250726f63656564576f726b436f6e74726163740000000000000000000081525061361b565b611031565b6040517f08c379a000000000000000000000000000000000000000000000000000000000815260040180806020018281038252603d81526020018061427d603d913960400191505060405180910390fd5b565b600481565b600060405161104690613b38565b604051809103906000f080158015611062573d6000803e3d6000fd5b509050600081905073dabbdabbdabbdabbdabbdabbdabbdabbdabbdabb73ffffffffffffffffffffffffffffffffffffffff166304d64386836040518263ffffffff1660e01b8152600401808273ffffffffffffffffffffffffffffffffffffffff1673ffffffffffffffffffffffffffffffffffffffff168152602001915050600060405180830381600087803b1580156110fd57600080fd5b505af1158015611111573d6000803e3d6000fd5b505050506000600980549050905060098290806001815401808255809150509060018203906000526020600020016000909192909190916101000a81548173ffffffffffffffffffffffffffffffffffffffff021916908373ffffffffffffffffffffffffffffffffffffffff160217905550508173ffffffffffffffffffffffffffffffffffffffff166314ec4f91308388886040518563ffffffff1660e01b8152600401808573ffffffffffffffffffffffffffffffffffffffff1673ffffffffffffffffffffffffffffffffffffffff16815260200184815260200183815260200180602001828103825283818151815260200191508051906020019080838360005b83811015611232578082015181840152602081019050611217565b50505050905090810190601f16801561125f5780820380516001836020036101000a031916815260200191505b5095505050505050600060405180830381600087803b15801561128157600080fd5b505af1158015611295573d6000803e3d6000fd5b505050505050505050565b3373ffffffffffffffffffffffffffffffffffffffff16600360009054906101000a900473ffffffffffffffffffffffffffffffffffffffff1673ffffffffffffffffffffffffffffffffffffffff16630d0175a96040518163ffffffff1660e01b815260040160206040518083038186803b15801561131f57600080fd5b505afa158015611333573d6000803e3d6000fd5b505050506040513d602081101561134957600080fd5b810190808051906020019092919050505073ffffffffffffffffffffffffffffffffffffffff1614806113c957503373ffffffffffffffffffffffffffffffffffffffff16600460009054906101000a900473ffffffffffffffffffffffffffffffffffffffff1673ffffffffffffffffffffffffffffffffffffffff16145b61141e576040517f08c379a00000000000000000000000000000000000000000000000000000000081526004018080602001828103825260478152602001806142ea6047913960600191505060405180910390fd5b60008090503373ffffffffffffffffffffffffffffffffffffffff16600360009054906101000a900473ffffffffffffffffffffffffffffffffffffffff1673ffffffffffffffffffffffffffffffffffffffff16630d0175a96040518163ffffffff1660e01b815260040160206040518083038186803b1580156114a257600080fd5b505afa1580156114b6573d6000803e3d6000fd5b505050506040513d60208110156114cc57600080fd5b810190808051906020019092919050505073ffffffffffffffffffffffffffffffffffffffff1614156114fe57600190505b600560005414156115ab57801561155d576115196008613609565b6115576040518060400160405280601b81526020017f576f726b436f6e74726163745265717565737446696e6973686564000000000081525061361b565b506116c1565b6115676007613609565b6115a56040518060400160405280601b81526020017f576f726b436f6e74726163745265717565737446696e6973686564000000000081525061361b565b506116c1565b801580156115bb57506008600054145b1561160e576115ca6009613609565b6116086040518060400160405280601481526020017f576f726b436f6e747261637446696e697368656400000000000000000000000081525061361b565b506116c1565b80801561161d57506007600054145b156116705761162c6009613609565b61166a6040518060400160405280601481526020017f576f726b436f6e747261637446696e697368656400000000000000000000000081525061361b565b506116c1565b6040517f08c379a000000000000000000000000000000000000000000000000000000000815260040180806020018281038252602881526020018061435f6028913960400191505060405180910390fd5b565b600581565b600781565b600181565b600881565b600a81565b600281565b600181565b600073ffffffffffffffffffffffffffffffffffffffff16600560009054906101000a900473ffffffffffffffffffffffffffffffffffffffff1673ffffffffffffffffffffffffffffffffffffffff161461178d576040517f08c379a00000000000000000000000000000000000000000000000000000000081526004018080602001828103825260328152602001806143e56032913960400191505060405180910390fd5b33600560006101000a81548173ffffffffffffffffffffffffffffffffffffffff021916908373ffffffffffffffffffffffffffffffffffffffff16021790555083600360006101000a81548173ffffffffffffffffffffffffffffffffffffffff021916908373ffffffffffffffffffffffffffffffffffffffff1602179055508260028190555081600460006101000a81548173ffffffffffffffffffffffffffffffffffffffff021916908373ffffffffffffffffffffffffffffffffffffffff1602179055504260068190555042600781905550600360009054906101000a900473ffffffffffffffffffffffffffffffffffffffff1673ffffffffffffffffffffffffffffffffffffffff1663b77728186040518163ffffffff1660e01b815260040160206040518083038186803b1580156118cd57600080fd5b505afa1580156118e1573d6000803e3d6000fd5b505050506040513d60208110156118f757600080fd5b810190808051906020019092919050505060018190555080156119c4576119bf600360009054906101000a900473ffffffffffffffffffffffffffffffffffffffff1673ffffffffffffffffffffffffffffffffffffffff16630d0175a96040518163ffffffff1660e01b815260040160206040518083038186803b15801561197f57600080fd5b505afa158015611993573d6000803e3d6000fd5b505050506040513d60208110156119a957600080fd5b8101908080519060200190929190505050612f96565b6119f0565b6119ef600460009054906101000a900473ffffffffffffffffffffffffffffffffffffffff16612f96565b5b50505050565b600181565b73dabbdabbdabbdabbdabbdabbdabbdabbdabbdabb81565b6000600980549050905090565b6000611a2b336137c2565b90506000811415611a87576040517f08c379a00000000000000000000000000000000000000000000000000000000081526004018080602001828103825260368152602001806142066036913960400191505060405180910390fd5b6000604051611a9590613b45565b604051809103906000f080158015611ab1573d6000803e3d6000fd5b509050600081905073dabbdabbdabbdabbdabbdabbdabbdabbdabbdabb73ffffffffffffffffffffffffffffffffffffffff166304d64386836040518263ffffffff1660e01b8152600401808273ffffffffffffffffffffffffffffffffffffffff1673ffffffffffffffffffffffffffffffffffffffff168152602001915050600060405180830381600087803b158015611b4c57600080fd5b505af1158015611b60573d6000803e3d6000fd5b5050505073dabbdabbdabbdabbdabbdabbdabbdabbdabbdabb73ffffffffffffffffffffffffffffffffffffffff1663585a5b1d30836040518363ffffffff1660e01b8152600401808373ffffffffffffffffffffffffffffffffffffffff1673ffffffffffffffffffffffffffffffffffffffff1681526020018273ffffffffffffffffffffffffffffffffffffffff1673ffffffffffffffffffffffffffffffffffffffff16815260200192505050600060405180830381600087803b158015611c2b57600080fd5b505af1158015611c3f573d6000803e3d6000fd5b50505050611c4b613b52565b600360009054906101000a900473ffffffffffffffffffffffffffffffffffffffff1673ffffffffffffffffffffffffffffffffffffffff1663b77728186040518163ffffffff1660e01b815260040160206040518083038186803b158015611cb357600080fd5b505afa158015611cc7573d6000803e3d6000fd5b505050506040513d6020811015611cdd57600080fd5b810190808051906020019092919050505081600060048110611cfb57fe5b60200201818152505060025481600160048110611d1457fe5b602002018181525050600173dabbdabbdabbdabbdabbdabbdabbdabbdabbdabb73ffffffffffffffffffffffffffffffffffffffff16635f329fb2306040518263ffffffff1660e01b8152600401808273ffffffffffffffffffffffffffffffffffffffff1673ffffffffffffffffffffffffffffffffffffffff16815260200191505060206040518083038186803b158015611db057600080fd5b505afa158015611dc4573d6000803e3d6000fd5b505050506040513d6020811015611dda57600080fd5b81019080805190602001909291905050500381600260048110611df957fe5b6020020181815250508173ffffffffffffffffffffffffffffffffffffffff16634bda28d1338689896000876040518763ffffffff1660e01b8152600401808773ffffffffffffffffffffffffffffffffffffffff1673ffffffffffffffffffffffffffffffffffffffff16815260200186815260200180602001846002811115611e8057fe5b60ff16815260200183600460200280838360005b83811015611eaf578082015181840152602081019050611e94565b505050509050018281038252868682818152602001925080828437600081840152601f19601f820116905080830192505050975050505050505050600060405180830381600087803b158015611f0457600080fd5b505af1158015611f18573d6000803e3d6000fd5b50505050505050505050565b3373ffffffffffffffffffffffffffffffffffffffff16600460009054906101000a900473ffffffffffffffffffffffffffffffffffffffff1673ffffffffffffffffffffffffffffffffffffffff16148061204d57503373ffffffffffffffffffffffffffffffffffffffff16600360009054906101000a900473ffffffffffffffffffffffffffffffffffffffff1673ffffffffffffffffffffffffffffffffffffffff16630d0175a96040518163ffffffff1660e01b815260040160206040518083038186803b158015611ffa57600080fd5b505afa15801561200e573d6000803e3d6000fd5b505050506040513d602081101561202457600080fd5b810190808051906020019092919050505073ffffffffffffffffffffffffffffffffffffffff16145b6120a2576040517f08c379a000000000000000000000000000000000000000000000000000000000815260040180806020018281038252603c815260200180614417603c913960400191505060405180910390fd5b600560005414806120b557506006600054145b806120c257506008600054145b806120cf57506007600054145b612124576040517f08c379a00000000000000000000000000000000000000000000000000000000081526004018080602001828103825260438152602001806141c36043913960600191505060405180910390fd5b60008090503373ffffffffffffffffffffffffffffffffffffffff16600360009054906101000a900473ffffffffffffffffffffffffffffffffffffffff1673ffffffffffffffffffffffffffffffffffffffff16630d0175a96040518163ffffffff1660e01b815260040160206040518083038186803b1580156121a857600080fd5b505afa1580156121bc573d6000803e3d6000fd5b505050506040513d60208110156121d257600080fd5b810190808051906020019092919050505073ffffffffffffffffffffffffffffffffffffffff16141561220457600190505b600060405161221290613b74565b604051809103906000f08015801561222e573d6000803e3d6000fd5b50905073dabbdabbdabbdabbdabbdabbdabbdabbdabbdabb73ffffffffffffffffffffffffffffffffffffffff166304d64386826040518263ffffffff1660e01b8152600401808273ffffffffffffffffffffffffffffffffffffffff1673ffffffffffffffffffffffffffffffffffffffff168152602001915050600060405180830381600087803b1580156122c457600080fd5b505af11580156122d8573d6000803e3d6000fd5b5050505060008190506000600880549050905060088290806001815401808255809150509060018203906000526020600020016000909192909190916101000a81548173ffffffffffffffffffffffffffffffffffffffff021916908373ffffffffffffffffffffffffffffffffffffffff160217905550508173ffffffffffffffffffffffffffffffffffffffff166349f4b51730838989896040518663ffffffff1660e01b8152600401808673ffffffffffffffffffffffffffffffffffffffff1673ffffffffffffffffffffffffffffffffffffffff168152602001858152602001806020018060200184151515158152602001838103835286818151815260200191508051906020019080838360005b838110156124075780820151818401526020810190506123ec565b50505050905090810190601f1680156124345780820380516001836020036101000a031916815260200191505b50838103825285818151815260200191508051906020019080838360005b8381101561246d578082015181840152602081019050612452565b50505050905090810190601f16801561249a5780820380516001836020036101000a031916815260200191505b50975050505050505050600060405180830381600087803b1580156124be57600080fd5b505af11580156124d2573d6000803e3d6000fd5b505050506124e06006613609565b505050505050565b600560009054906101000a900473ffffffffffffffffffffffffffffffffffffffff1681565b60006009828154811061251d57fe5b9060005260206000200160009054906101000a900473ffffffffffffffffffffffffffffffffffffffff169050919050565b600381565b600360009054906101000a900473ffffffffffffffffffffffffffffffffffffffff1681565b612583336139eb565b6125d8576040517f08c379a000000000000000000000000000000000000000000000000000000000815260040180806020018281038252602e815260200180614490602e913960400191505060405180910390fd5b600360009054906101000a900473ffffffffffffffffffffffffffffffffffffffff1673ffffffffffffffffffffffffffffffffffffffff166330c6faeb600460009054906101000a900473ffffffffffffffffffffffffffffffffffffffff16836040518363ffffffff1660e01b8152600401808373ffffffffffffffffffffffffffffffffffffffff1673ffffffffffffffffffffffffffffffffffffffff16815260200182815260200192505050600060405180830381600087803b1580156126a357600080fd5b505af11580156126b7573d6000803e3d6000fd5b5050505050565b600281565b60015481565b6126d233613a8d565b612727576040517f08c379a00000000000000000000000000000000000000000000000000000000081526004018080602001828103825260308152602001806142ba6030913960400191505060405180910390fd5b600360009054906101000a900473ffffffffffffffffffffffffffffffffffffffff1673ffffffffffffffffffffffffffffffffffffffff1662955650878787878787600460009054906101000a900473ffffffffffffffffffffffffffffffffffffffff166040518863ffffffff1660e01b8152600401808881526020018773ffffffffffffffffffffffffffffffffffffffff1673ffffffffffffffffffffffffffffffffffffffff1681526020018681526020018573ffffffffffffffffffffffffffffffffffffffff1673ffffffffffffffffffffffffffffffffffffffff1681526020018481526020018373ffffffffffffffffffffffffffffffffffffffff1673ffffffffffffffffffffffffffffffffffffffff1681526020018273ffffffffffffffffffffffffffffffffffffffff1673ffffffffffffffffffffffffffffffffffffffff168152602001975050505050505050600060405180830381600087803b15801561289d57600080fd5b505af11580156128b1573d6000803e3d6000fd5b50505050505050505050565b6128c76000612f96565b565b60005481565b60006128da336137c2565b905060028114806128eb5750600181145b612940576040517f08c379a00000000000000000000000000000000000000000000000000000000081526004018080602001828103825260378152602001806143ae6037913960400191505060405180910390fd5b60008060028314156129fa5760019150600360009054906101000a900473ffffffffffffffffffffffffffffffffffffffff1673ffffffffffffffffffffffffffffffffffffffff16630d0175a96040518163ffffffff1660e01b815260040160206040518083038186803b1580156129b857600080fd5b505afa1580156129cc573d6000803e3d6000fd5b505050506040513d60208110156129e257600080fd5b81019080805190602001909291905050509050612a24565b60029150600460009054906101000a900473ffffffffffffffffffffffffffffffffffffffff1690505b600073dabbdabbdabbdabbdabbdabbdabbdabbdabbdabb73ffffffffffffffffffffffffffffffffffffffff16638bac5fbc306040518263ffffffff1660e01b8152600401808273ffffffffffffffffffffffffffffffffffffffff1673ffffffffffffffffffffffffffffffffffffffff16815260200191505060206040518083038186803b158015612ab757600080fd5b505afa158015612acb573d6000803e3d6000fd5b505050506040513d6020811015612ae157600080fd5b8101908080519060200190929190505050612d61576000604051612b0490613b81565b604051809103906000f080158015612b20573d6000803e3d6000fd5b50905080915073dabbdabbdabbdabbdabbdabbdabbdabbdabbdabb73ffffffffffffffffffffffffffffffffffffffff166304d64386826040518263ffffffff1660e01b8152600401808273ffffffffffffffffffffffffffffffffffffffff1673ffffffffffffffffffffffffffffffffffffffff168152602001915050600060405180830381600087803b158015612bb957600080fd5b505af1158015612bcd573d6000803e3d6000fd5b5050505073dabbdabbdabbdabbdabbdabbdabbdabbdabbdabb73ffffffffffffffffffffffffffffffffffffffff1663ec6040be30836040518363ffffffff1660e01b8152600401808373ffffffffffffffffffffffffffffffffffffffff1673ffffffffffffffffffffffffffffffffffffffff1681526020018273ffffffffffffffffffffffffffffffffffffffff1673ffffffffffffffffffffffffffffffffffffffff16815260200192505050600060405180830381600087803b158015612c9857600080fd5b505af1158015612cac573d6000803e3d6000fd5b505050508173ffffffffffffffffffffffffffffffffffffffff1663ed7ace46306001546002546040518463ffffffff1660e01b8152600401808473ffffffffffffffffffffffffffffffffffffffff1673ffffffffffffffffffffffffffffffffffffffff1681526020018381526020018281526020019350505050600060405180830381600087803b158015612d4357600080fd5b505af1158015612d57573d6000803e3d6000fd5b5050505050612e30565b73dabbdabbdabbdabbdabbdabbdabbdabbdabbdabb73ffffffffffffffffffffffffffffffffffffffff166313f7ab10306040518263ffffffff1660e01b8152600401808273ffffffffffffffffffffffffffffffffffffffff1673ffffffffffffffffffffffffffffffffffffffff16815260200191505060206040518083038186803b158015612df257600080fd5b505afa158015612e06573d6000803e3d6000fd5b505050506040513d6020811015612e1c57600080fd5b810190808051906020019092919050505090505b8073ffffffffffffffffffffffffffffffffffffffff166343168a3e338487878b8b8e6040518863ffffffff1660e01b8152600401808873ffffffffffffffffffffffffffffffffffffffff1673ffffffffffffffffffffffffffffffffffffffff1681526020018773ffffffffffffffffffffffffffffffffffffffff1673ffffffffffffffffffffffffffffffffffffffff168152602001868152602001858152602001806020018381526020018281038252858582818152602001925080828437600081840152601f19601f82011690508083019250505098505050505050505050600060405180830381600087803b158015612f2f57600080fd5b505af1158015612f43573d6000803e3d6000fd5b5050505050505050505050565b600081565b600060088281548110612f6457fe5b9060005260206000200160009054906101000a900473ffffffffffffffffffffffffffffffffffffffff169050919050565b3373ffffffffffffffffffffffffffffffffffffffff16600360009054906101000a900473ffffffffffffffffffffffffffffffffffffffff1673ffffffffffffffffffffffffffffffffffffffff161415612ff157613179565b3373ffffffffffffffffffffffffffffffffffffffff16600360009054906101000a900473ffffffffffffffffffffffffffffffffffffffff1673ffffffffffffffffffffffffffffffffffffffff16630d0175a96040518163ffffffff1660e01b815260040160206040518083038186803b15801561307057600080fd5b505afa158015613084573d6000803e3d6000fd5b505050506040513d602081101561309a57600080fd5b810190808051906020019092919050505073ffffffffffffffffffffffffffffffffffffffff16148061311a57503373ffffffffffffffffffffffffffffffffffffffff16600460009054906101000a900473ffffffffffffffffffffffffffffffffffffffff1673ffffffffffffffffffffffffffffffffffffffff16145b1561312757339050613178565b6040517f08c379a000000000000000000000000000000000000000000000000000000000815260040180806020018281038252604181526020018061423c6041913960600191505060405180910390fd5b5b60008090508173ffffffffffffffffffffffffffffffffffffffff16600360009054906101000a900473ffffffffffffffffffffffffffffffffffffffff1673ffffffffffffffffffffffffffffffffffffffff16630d0175a96040518163ffffffff1660e01b815260040160206040518083038186803b1580156131fd57600080fd5b505afa158015613211573d6000803e3d6000fd5b505050506040513d602081101561322757600080fd5b810190808051906020019092919050505073ffffffffffffffffffffffffffffffffffffffff16141561325957600190505b600360009054906101000a900473ffffffffffffffffffffffffffffffffffffffff1673ffffffffffffffffffffffffffffffffffffffff1663905ee4746040518163ffffffff1660e01b815260040160206040518083038186803b1580156132c157600080fd5b505afa1580156132d5573d6000803e3d6000fd5b505050506040513d60208110156132eb57600080fd5b810190808051906020019092919050505060ff16600360009054906101000a900473ffffffffffffffffffffffffffffffffffffffff1673ffffffffffffffffffffffffffffffffffffffff1663024302796040518163ffffffff1660e01b815260040160206040518083038186803b15801561336757600080fd5b505afa15801561337b573d6000803e3d6000fd5b505050506040513d602081101561339157600080fd5b810190808051906020019092919050505060ff1614156133f9576133b56003613609565b6133f36040518060400160405280601681526020017f4a6f6252657175657374576f726b436f6e74726163740000000000000000000081525061361b565b506135bb565b6000805414156134a5578015613457576134136002613609565b6134516040518060400160405280601681526020017f4a6f6252657175657374576f726b436f6e74726163740000000000000000000081525061361b565b506135bb565b6134616001613609565b61349f6040518060400160405280601681526020017f4a6f6252657175657374576f726b436f6e74726163740000000000000000000081525061361b565b506135bb565b8080156134b457506001600054145b15613507576134c36004613609565b6135016040518060400160405280601581526020017f4a6f62416363657074576f726b436f6e7472616374000000000000000000000081525061361b565b506135bb565b8015801561351757506002600054145b1561356a576135266004613609565b6135646040518060400160405280601581526020017f4a6f62416363657074576f726b436f6e7472616374000000000000000000000081525061361b565b506135bb565b6040517f08c379a000000000000000000000000000000000000000000000000000000000815260040180806020018281038252602e815260200180614331602e913960400191505060405180910390fd5b50565b600681565b600881815481106135d057fe5b906000526020600020016000915054906101000a900473ffffffffffffffffffffffffffffffffffffffff1681565b600381565b600081565b80600081905550613618613b2f565b50565b6060600260405190808252806020026020018201604052801561364d5781602001602082028038833980820191505090505b5090506001548160008151811061366057fe5b6020026020010181815250506002548160018151811061367c57fe5b60200260200101818152505073dabbdabbdabbdabbdabbdabbdabbdabbdabbdabb73ffffffffffffffffffffffffffffffffffffffff16634904a20c836001846040518463ffffffff1660e01b8152600401808060200184815260200180602001838103835286818151815260200191508051906020019080838360005b838110156137155780820151818401526020810190506136fa565b50505050905090810190601f1680156137425780820380516001836020036101000a031916815260200191505b50838103825284818151815260200191508051906020019060200280838360005b8381101561377e578082015181840152602081019050613763565b5050505090500195505050505050600060405180830381600087803b1580156137a657600080fd5b505af11580156137ba573d6000803e3d6000fd5b505050505050565b6000600460009054906101000a900473ffffffffffffffffffffffffffffffffffffffff1673ffffffffffffffffffffffffffffffffffffffff168273ffffffffffffffffffffffffffffffffffffffff16141561382357600290506139e6565b600360009054906101000a900473ffffffffffffffffffffffffffffffffffffffff1673ffffffffffffffffffffffffffffffffffffffff16630d0175a96040518163ffffffff1660e01b815260040160206040518083038186803b15801561388b57600080fd5b505afa15801561389f573d6000803e3d6000fd5b505050506040513d60208110156138b557600080fd5b810190808051906020019092919050505073ffffffffffffffffffffffffffffffffffffffff168273ffffffffffffffffffffffffffffffffffffffff16141561390257600190506139e6565b600360009054906101000a900473ffffffffffffffffffffffffffffffffffffffff1673ffffffffffffffffffffffffffffffffffffffff1663fbbd21386040518163ffffffff1660e01b815260040160206040518083038186803b15801561396a57600080fd5b505afa15801561397e573d6000803e3d6000fd5b505050506040513d602081101561399457600080fd5b810190808051906020019092919050505073ffffffffffffffffffffffffffffffffffffffff168273ffffffffffffffffffffffffffffffffffffffff1614156139e157600390506139e6565b600090505b919050565b600080600090505b600980549050811015613a82578273ffffffffffffffffffffffffffffffffffffffff1660098281548110613a2457fe5b9060005260206000200160009054906101000a900473ffffffffffffffffffffffffffffffffffffffff1673ffffffffffffffffffffffffffffffffffffffff161415613a75576001915050613a88565b80806001019150506139f3565b50600090505b919050565b600080600090505b600880549050811015613b24578273ffffffffffffffffffffffffffffffffffffffff1660088281548110613ac657fe5b9060005260206000200160009054906101000a900473ffffffffffffffffffffffffffffffffffffffff1673ffffffffffffffffffffffffffffffffffffffff161415613b17576001915050613b2a565b8080600101915050613a95565b50600090505b919050565b42600781905550565b61018d80613b8f83390190565b61018d80613d1c83390190565b6040518060800160405280600490602082028038833980820191505090505090565b61018d80613ea983390190565b61018d806140368339019056fe608060405234801561001057600080fd5b5061016d806100206000396000f3fe60806040526004361061001e5760003560e01c8063d4b8399214610083575b61008173beefbeefbeefbeefbeefbeefbeefbeefbeefbeef6000368080601f016020809104026020016040519081016040528093929190818152602001838380828437600081840152601f19601f820116905080830192505050505050506100da565b005b34801561008f57600080fd5b50610098610116565b604051808273ffffffffffffffffffffffffffffffffffffffff1673ffffffffffffffffffffffffffffffffffffffff16815260200191505060405180910390f35b6100e38261012e565b6100ec57600080fd5b600080825160208401856127105a03f43d604051816000823e8260008114610112578282f35b8282fd5b73beefbeefbeefbeefbeefbeefbeefbeefbeefbeef81565b600080823b90506000811191505091905056fea165627a7a72305820ed1d3b3569ae986f822b8e9264b896f17014f4eea4cea9ee6c554559d0c3dafb0029608060405234801561001057600080fd5b5061016d806100206000396000f3fe60806040526004361061001e5760003560e01c8063d4b8399214610083575b61008173dbdadbadbabdabdbadabdbafffd1234fdfadbccc6000368080601f016020809104026020016040519081016040528093929190818152602001838380828437600081840152601f19601f820116905080830192505050505050506100da565b005b34801561008f57600080fd5b50610098610116565b604051808273ffffffffffffffffffffffffffffffffffffffff1673ffffffffffffffffffffffffffffffffffffffff16815260200191505060405180910390f35b6100e38261012e565b6100ec57600080fd5b600080825160208401856127105a03f43d604051816000823e8260008114610112578282f35b8282fd5b73dbdadbadbabdabdbadabdbafffd1234fdfadbccc81565b600080823b90506000811191505091905056fea165627a7a72305820354680f9d9b9fa54daea548d8487388401a3a8fd7b03fdb9063b075d593bab0b0029608060405234801561001057600080fd5b5061016d806100206000396000f3fe60806040526004361061001e5760003560e01c8063d4b8399214610083575b61008173dabadabadabadabadabadabadabadabadabadaba6000368080601f016020809104026020016040519081016040528093929190818152602001838380828437600081840152601f19601f820116905080830192505050505050506100da565b005b34801561008f57600080fd5b50610098610116565b604051808273ffffffffffffffffffffffffffffffffffffffff1673ffffffffffffffffffffffffffffffffffffffff16815260200191505060405180910390f35b6100e38261012e565b6100ec57600080fd5b600080825160208401856127105a03f43d604051816000823e8260008114610112578282f35b8282fd5b73dabadabadabadabadabadabadabadabadabadaba81565b600080823b90506000811191505091905056fea165627a7a7230582014d765e86116e8adca284f5da6fdb3958a332d063238eea03fa8ec6023d30a550029608060405234801561001057600080fd5b5061016d806100206000396000f3fe60806040526004361061001e5760003560e01c8063d4b8399214610083575b61008173beefabeefabeefabeefabeefabeefabeefabeefa6000368080601f016020809104026020016040519081016040528093929190818152602001838380828437600081840152601f19601f820116905080830192505050505050506100da565b005b34801561008f57600080fd5b50610098610116565b604051808273ffffffffffffffffffffffffffffffffffffffff1673ffffffffffffffffffffffffffffffffffffffff16815260200191505060405180910390f35b6100e38261012e565b6100ec57600080fd5b600080825160208401856127105a03f43d604051816000823e8260008114610112578282f35b8282fd5b73beefabeefabeefabeefabeefabeefabeefabeefa81565b600080823b90506000811191505091905056fea165627a7a72305820cc593d3a74d1976ffa1d217612a8ea81d8e9e740bf9f693d4d26131e20898bad00295468652063757272656e7420636f6e74726163742073746174757320646f6573206e6f7420616c6c6f7720796f7520746f20637265617465206120646973707574652e4f6e6c79207468652063616e6469646174652c20656d706c6f7965722c20616e6420617262697465722063616e20636f6d6d656e742e4f6e6c7920746865206a6f622073746f72652c2063616e64696461746520616e6420656d706c6f7965722063616e207265717565737420616e20696e766974652e43616e6e6f74207374617274206120636f6e7472616374206966206974206973206e6f7420696e2074686520276163636570746564272073746174652e4f6e6c792061206469737075746520636f6e74726163742063616e20277265736f6c766527206120646973707574652e4f6e6c79207468652063616e64696461746520616e642074686520656d706c6f7965722063616e20726571756573742066696e697368696e672074686520636f6e74726163742e4661696c656420746f206d6565742072657175697265642072657175657374496e766974652063726974657269614661696c656420746f206d656574207265717565737446696e69736865642063726974657269612e4d75737420626520616e20656d706c6f79657220746f207374617274206120636f6e74726163744f6e6c79207468652063616e646964617465206f722074686520656d706c6f7965722c2063616e206c6561766520666565646261636b2e4574686c616e6365576f726b436f6e747261637420636f6e747261637420616c726561647920636f6e73747275637465642e4f6e6c792074686520656d706c6f79657220616e64207468652063616e6469646174652063616e20637265617465206e65772064697370757465732e4d75737420626520616e2061636365707465642061726269746572206265666f726520776f726b20636f6e7472616374732063616e2070726f636565644f6e6c7920616e20696e766f69636520636f6e74726163742063616e20277061792720616e20696e766f6963652ea165627a7a723058208448ae079179ce0439a2bbc8cc13dd74eb22af29f29c7ccac954073474ca42930029",
  "source": "pragma solidity ^0.5.0;\n\nimport \"./EthlanceRegistry.sol\";\nimport \"./EthlanceUserFactory.sol\";\nimport \"./EthlanceUser.sol\";\nimport \"./EthlanceJobStore.sol\";\nimport \"./EthlanceDispute.sol\";\nimport \"./EthlanceInvoice.sol\";\nimport \"./EthlanceFeedback.sol\";\nimport \"./EthlanceComment.sol\";\nimport \"./proxy/MutableForwarder.sol\";\nimport \"./proxy/Forwarder.sol\";       // target(EthlanceInvoice)\nimport \"./proxy/SecondForwarder.sol\"; // target(EthlanceDispute)\nimport \"./proxy/ThirdForwarder.sol\";  // target(EthlanceComment)\nimport \"./proxy/FourthForwarder.sol\"; // target(EthlanceFeedback)\n\n\n/// @title Work Contract to tie candidates, employers, and arbiters to\n/// an agreement.\ncontract EthlanceWorkContract {\n  uint public constant version = 1;\n  EthlanceRegistry public constant registry = EthlanceRegistry(0xdaBBdABbDABbDabbDaBbDabbDaBbdaBbdaBbDAbB);\n\n  //\n  // Constants\n  //\n  uint public constant GUEST_TYPE = 0;\n  uint public constant EMPLOYER_TYPE = 1;\n  uint public constant CANDIDATE_TYPE = 2;\n  uint public constant ARBITER_TYPE = 3;\n\n  //\n  // Structures\n  //\n\n  // Nothing here yet.\n\n  //\n  // Members\n  //\n\n  // The status of contract with respect to the employer and the\n  // candidate's interactions.\n  //\n  // Notes:\n  //\n  // - The overall status of the contract will also be reflected\n  //   with respect to any open disputes.\n  //\n  // Status Codes:\n  // -----------\n  // 0  -> Initial\n  // --\n  // 1  -> Request Candidate Invite\n  // 2  -> Request Employer Invite\n  // 3  -> Open Bounty\n  // --\n  // 4  -> Accepted\n  // --\n  // 5  -> In Progress\n  // 6  -> On Hold\n  // --\n  // 7  -> Request Candidate Finished\n  // 8  -> Request Employer Finished\n  // 9  -> Finished\n  // --\n  // 10 -> Cancelled\n  uint public contractStatus;\n  uint public constant CONTRACT_STATUS_INITIAL = 0;\n  uint public constant CONTRACT_STATUS_REQUEST_CANDIDATE_INVITE = 1;\n  uint public constant CONTRACT_STATUS_REQUEST_EMPLOYER_INVITE = 2;\n  uint public constant CONTRACT_STATUS_OPEN_BOUNTY = 3;\n  uint public constant CONTRACT_STATUS_ACCEPTED = 4;\n  uint public constant CONTRACT_STATUS_IN_PROGRESS = 5;\n  uint public constant CONTRACT_STATUS_ON_HOLD = 6;\n  uint public constant CONTRACT_STATUS_REQUEST_CANDIDATE_FINISHED = 7;\n  uint public constant CONTRACT_STATUS_REQUEST_EMPLOYER_FINISHED = 8;\n  uint public constant CONTRACT_STATUS_FINISHED = 9;\n  uint public constant CONTRACT_STATUS_CANCELLED = 10;\n    \n  uint public jobIndex;\n  uint public workIndex;\n\n  // The EthlanceJobStore contains additional data about our\n  // contract.\n  EthlanceJobStore public storeInstance;\n\n  // The candidate linked to this contract\n  address payable public candidateAddress;\n\n  // The entity that constructed contract\n  address public owner;\n\n  uint public dateCreated;\n  uint public dateUpdated;\n\n  // Feedback Store\n    \n\n  //\n  // Collections\n  //\n    \n  // Dispute Listing\n  EthlanceDispute[] public disputeListing;\n\n  // Invoice Listing\n  EthlanceInvoice[] public invoiceListing;\n\n\n  /// @dev Forwarder Constructor\n  function construct(EthlanceJobStore _storeInstance,\n                     uint _workIndex,\n                     address payable _candidateAddress,\n                     bool isEmployerRequest)\n    external {\n    require(owner == address(0), \"EthlanceWorkContract contract already constructed.\");\n    owner = msg.sender;\n\n    // Main members\n    storeInstance = _storeInstance;\n    workIndex = _workIndex;\n    candidateAddress = _candidateAddress;\n    dateCreated = now;\n    dateUpdated = now;\n  \n    // Event Data Construction\n    jobIndex = storeInstance.jobIndex();\n\n\n    if (isEmployerRequest) {\n      requestInvite(storeInstance.employerAddress());\n      return;\n    }\n    requestInvite(candidateAddress);\n    return;\n  }\n\n  //\n  // Methods\n  //\n\n  /// @dev Update the datetime of the job contract.\n  function updateDateUpdated()\n    private {\n    dateUpdated = now;\n  }\n\n    \n  /// @dev Change the contract status\n  /// @param newStatus The new contract status\n  function setContractStatus(uint newStatus) private {\n    contractStatus = newStatus;\n    updateDateUpdated();\n  }\n\n\n  /// @dev Requests an invite from either the candidate or the employer.\n  /// @param _sender Delegation for initial work contract construction.\n  /*\n    Case 1:\n      \n    requestInvite() is initially called while the contract is in a\n    CONTRACT_STATUS_INITIAL state and the storeInstance.is_bounty\n    is true. The Contract is placed in a CONTRACT_STATUS_OPEN_BOUNTY\n    state.\n\n    Case 2:\n      \n    requestInvite() is initially called while the contract is in a\n    CONTRACT_STATUS_INITIAL state and the contract is placed in a\n    CONTRACT_STATUS_EMPLOYER_INVITE state.\n\n    Case 3:\n\n    requestInvite() is initially called while the contract is in a\n    CONTRACT_STATUS_INITIAL state and the contract is placed in a\n    CONTRACT_STATUS_CANDIDATE_INVITE state.\n\n    Case 4:\n\n    requestInvite() is called while the contract is in a\n    CONTRACT_STATUS_CANDIDATE_INVITE state and the contract is\n    placed in a CONTRACT_STATUS_ACCEPTED state.\n\n    Case 5:\n\n    requestInvite() is called while the contract is in a\n    CONTRACT_STATUS_EMPLOYER_INVITE state and the contract is placed\n    in a CONTRACT_STATUS_ACCEPTED state.\n      \n    Default:\n\n    ERROR\n  */\n  function requestInvite(address _sender)\n    public {\n  \n    if (address(storeInstance) == msg.sender) {/* _sender has been loaded by the constructor */}\n    else if (storeInstance.employerAddress() == msg.sender || candidateAddress == msg.sender) {\n      _sender = msg.sender;\n    }\n    else {\n      revert(\"Only the job store, candidate and employer can request an invite.\");\n    }\n\n    bool isEmployerRequest = false;\n    if (storeInstance.employerAddress() == _sender) {\n      isEmployerRequest = true;\n    }\n\n    // Case 1\n    if (storeInstance.bidOption() == storeInstance.BID_OPTION_BOUNTY()) {\n      setContractStatus(CONTRACT_STATUS_OPEN_BOUNTY);\n      fireEvent(\"JobRequestWorkContract\");\n      return;\n    }\n\n    // Case 2 & 3\n    if (contractStatus == CONTRACT_STATUS_INITIAL) {\n      if (isEmployerRequest) {\n        setContractStatus(CONTRACT_STATUS_REQUEST_EMPLOYER_INVITE);\n        fireEvent(\"JobRequestWorkContract\");\n        return;\n      }\n      setContractStatus(CONTRACT_STATUS_REQUEST_CANDIDATE_INVITE);\n      fireEvent(\"JobRequestWorkContract\");\n      return;\n    }\n  \n    // Case 4\n    if (isEmployerRequest && contractStatus == CONTRACT_STATUS_REQUEST_CANDIDATE_INVITE) {\n      setContractStatus(CONTRACT_STATUS_ACCEPTED);\n      fireEvent(\"JobAcceptWorkContract\");\n      return;\n    }\n\n    // Case 5\n    if (!isEmployerRequest && contractStatus == CONTRACT_STATUS_REQUEST_EMPLOYER_INVITE) {\n      setContractStatus(CONTRACT_STATUS_ACCEPTED);\n      fireEvent(\"JobAcceptWorkContract\");\n      return;\n    }\n\n    revert(\"Failed to meet required requestInvite criteria\");\n  }\n\n    \n  /// @dev Overloaded requestInvite for direct employer and candidate requests.\n  /*\n    Notes:\n\n    - The address is set to 0x0 to reflect that it's a direct\n    request from a candidate, or an employer.\n\n  */\n  function requestInvite() public {\n    requestInvite(address(0));\n  }\n    \n\n  /// @dev Start the work contract\n  /*\n    Notes:\n\n    - This requires that the contract be within the CONTRACT_STATUS_ACCEPTED state.\n  */\n  function proceed() external {\n    require(storeInstance.employerAddress() == msg.sender,\n            \"Must be an employer to start a contract\");\n    require(storeInstance.acceptedArbiter() != address(0),\n            \"Must be an accepted arbiter before work contracts can proceed\");\n\n    if (contractStatus == CONTRACT_STATUS_ACCEPTED) {\n      setContractStatus(CONTRACT_STATUS_IN_PROGRESS);\n      fireEvent(\"JobProceedWorkContract\");\n    }\n    else {\n      revert(\"Cannot start a contract if it is not in the 'accepted' state.\");\n    }\n  }\n\n\n  /// @dev Request to finish the contract as the employer or the candidate\n  /*\n    Case 1:\n\n    While in the CONTRACT_STATUS_IN_PROGRESS state, and if the\n    candidate invokes requestFinished(), the contract will be placed\n    in the CONTRACT_STATUS_REQUEST_CANDIDATE_FINISHED state.\n\n    Case 2:\n\n    While in the CONTRACT_STATUS_IN_PROGRESS state, and if the\n    employer invokes requestFinished(), the contract will be placed\n    in the CONTRACT_STATUS_REQUEST_EMPLOYER_FINISHED state.\n      \n    Case 3:\n\n    While in the CONTRACT_STATUS_REQUEST_EMPLOYER_FINISHED state,\n    and if the candidate invokes requestFinished(), the contract\n    will be placed in the CONTRACT_STATUS_FINISHED state.\n\n    Case 4:\n\n    While in the CONTRACT_STATUS_REQUEST_CANDIDATE_FINISHED state,\n    and if the employer invokes requestFinished(), the contract will\n    be placed in the CONTRACT_STATUS_FINISHED state.\n\n  */\n  function requestFinished() external {\n    require(storeInstance.employerAddress() == msg.sender || candidateAddress == msg.sender,\n            \"Only the candidate and the employer can request finishing the contract.\");\n\n    bool isEmployerRequest = false;\n    if (storeInstance.employerAddress() == msg.sender) {\n      isEmployerRequest = true;\n    }\n\n    // Case 1 & 2\n    if (contractStatus == CONTRACT_STATUS_IN_PROGRESS) {\n      if (isEmployerRequest) {\n        setContractStatus(CONTRACT_STATUS_REQUEST_EMPLOYER_FINISHED);\n        fireEvent(\"WorkContractRequestFinished\");\n        return;\n      }\n      setContractStatus(CONTRACT_STATUS_REQUEST_CANDIDATE_FINISHED);\n      fireEvent(\"WorkContractRequestFinished\");\n      return;\n    }\n  \n    // Case 3\n    if (!isEmployerRequest && contractStatus == CONTRACT_STATUS_REQUEST_EMPLOYER_FINISHED) {\n      setContractStatus(CONTRACT_STATUS_FINISHED);\n      fireEvent(\"WorkContractFinished\");\n      return;\n    }\n\n    // Case 4\n    if (isEmployerRequest && contractStatus == CONTRACT_STATUS_REQUEST_CANDIDATE_FINISHED) {\n      setContractStatus(CONTRACT_STATUS_FINISHED);\n      fireEvent(\"WorkContractFinished\");\n      return;\n    }\n\n    revert(\"Failed to meet requestFinished criteria.\");\n  }\n    \n\n  /// @dev Fire events specific to the work contract\n  /// @param eventName Unique to give the fired event\n  function fireEvent(string memory eventName) private {\n    // Event Data Pre-construction\n    uint[] memory eventData = new uint[](2);\n    eventData[0] = jobIndex;\n    eventData[1] = workIndex;\n\n    registry.fireEvent(eventName, version, eventData);\n  }\n\n\n  /// @dev Create a dispute between the employer and the candidate.\n  /// @param reason Short string with the reason for the dispute.\n  /// @param metahash Represents a IPFS hash with a longer\n  /// explanation for the dispute by either the employer or the\n  /// candidate.\n  function createDispute(string memory reason, string memory metahash) public {\n    // TODO: authentication\n    require(candidateAddress == msg.sender || storeInstance.employerAddress() == msg.sender,\n            \"Only the employer and the candidate can create new disputes.\");\n    require(contractStatus == CONTRACT_STATUS_IN_PROGRESS ||\n            contractStatus == CONTRACT_STATUS_ON_HOLD ||\n            contractStatus == CONTRACT_STATUS_REQUEST_EMPLOYER_FINISHED ||\n            contractStatus == CONTRACT_STATUS_REQUEST_CANDIDATE_FINISHED,\n            \"The current contract status does not allow you to create a dispute.\");\n\n    bool isEmployerRequest = false;\n    if (storeInstance.employerAddress() == msg.sender) {\n      isEmployerRequest = true;\n    }\n\n    // Create the forwarded contract\n    SecondForwarder fwd = new SecondForwarder(); // Proxy Contract\n    // target(EthlanceDispute)\n\n    // Permit Dispute to fire registry events and create comments\n    registry.permitDispatch(address(fwd));\n\n    EthlanceDispute dispute = EthlanceDispute(address(fwd));\n    uint disputeIndex = disputeListing.length;\n    disputeListing.push(dispute);\n  \n    // Construct the dispute contract\n    dispute.construct(this, disputeIndex, reason, metahash, isEmployerRequest);\n\n    // Change our status to 'on hold', since we have a new open dispute.\n    setContractStatus(CONTRACT_STATUS_ON_HOLD);\n  }\n\n    \n  /// @dev Returns the number of disputes within the work contract\n  function getDisputeCount() public view returns(uint) {\n    return disputeListing.length;\n  }\n\n    \n  /// @dev Returns the address of the EthlanceDispute at the given\n  /// index within the dispute listing.\n  function getDisputeByIndex(uint index) public view returns (EthlanceDispute) {\n    return disputeListing[index];\n  }\n\n\n  /// @dev Resolves a dispute.\n  /*\n    Notes:\n\n    - The original EthlanceDispute.resolve(...) propagates to this method.\n\n    - This function only ensures that it is a call from an\n    EthlanceDispute. The result is propagated to the job store for\n    resolution.\n  */\n  function resolveDispute(uint _employerAmount,\n                          address _employerToken,\n                          uint _candidateAmount,\n                          address _candidateToken,\n                          uint _arbiterAmount,\n                          address _arbiterToken) external {\n    require(isDispute(msg.sender), \"Only a dispute contract can 'resolve' a dispute.\");\n    storeInstance.resolveDispute(_employerAmount, _employerToken,\n                                  _candidateAmount, _candidateToken,\n                                  _arbiterAmount, _arbiterToken,\n                                  candidateAddress);\n  }\n\n    \n  /// @dev Determines whether the given address is an\n  /// EthlanceDispute contract that is part of the current\n  /// EthlanceWorkContract.\n  /// @return True, if it is an EthlanceDispute contract that is\n  /// part of the EthlanceWorkContract.\n  function isDispute(address _dispute) private returns(bool) {\n    for (uint i = 0; i < disputeListing.length; i++) {\n      if (address(disputeListing[i]) == _dispute) {\n        return true;\n      }\n    }\n    return false;\n  }\n\n\n  /// @dev Create an invoice between the employer and the candidate.\n  /// @param metahash Contains additional information about the invoice\n  function createInvoice(uint amount, string memory metahash) public {\n    // Create the forwarded contract\n    Forwarder fwd = new Forwarder(); // Proxy Contract\n    // target(EthlanceInvoice)\n    EthlanceInvoice invoice = EthlanceInvoice(address(fwd));\n\n    // Permit Invoice to fire registry events\n    registry.permitDispatch(address(fwd));\n\n    uint invoiceIndex = invoiceListing.length;\n    invoiceListing.push(invoice);\n  \n    // Construct the invoice contract\n    invoice.construct(this, invoiceIndex, amount, metahash);\n  }\n\n    \n  /// @dev Pays an invoice\n  /*\n    Notes:\n\n    - The original EthlanceInvoice.pay(...) propagates to this method.\n\n    - This function only ensures that it is receiving a payment\n    request from the desired invoice. The result is propagated to\n    the job store for payment.\n  */\n  function payInvoice(uint amountPaid) external {\n    require(isInvoice(msg.sender), \"Only an invoice contract can 'pay' an invoice.\");\n    storeInstance.payInvoice(candidateAddress, amountPaid);\n  }\n\n\n  /// @dev Determines whether the given address is an\n  /// EthlanceInvoice contract that is part of the current\n  /// EthlanceWorkContract.\n  /// @return True, if it is an EthlanceInvoice contract that is\n  /// part of the EthlanceWorkContract.\n  function isInvoice(address _invoice) private returns(bool) {\n    for (uint i = 0; i < invoiceListing.length; i++) {\n      if (address(invoiceListing[i]) == _invoice) {\n        return true;\n      }\n    }\n    return false;\n  }\n\n    \n  /// @dev Returns the number of invoices within the work contract\n  function getInvoiceCount() public view returns(uint) {\n    return invoiceListing.length;\n  }\n\n    \n  /// @dev Returns the address of the EthlanceInvoice at the given\n  /// index within the invoice listing.\n  function getInvoiceByIndex(uint index) public view returns (EthlanceInvoice) {\n    return invoiceListing[index];\n  }\n\n\n  /// @dev Returns the user type, either CANDIDATE_TYPE,\n  /// EMPLOYER_TYPE, ARBITER_TYPE, or GUEST_TYPE for the given\n  /// address.\n  function getUserType(address _address) private returns (uint) {\n    if (_address == candidateAddress) {\n      return CANDIDATE_TYPE;\n    }\n    else if (_address == storeInstance.employerAddress()) {\n      return EMPLOYER_TYPE;\n    }\n    else if (_address == storeInstance.acceptedArbiter()) {\n      return ARBITER_TYPE;\n    }\n    else {\n      return GUEST_TYPE;\n    }\n  }\n\n\n  /// @dev Place a comment on the dispute\n  function addComment(string calldata metahash) external {\n    uint userType = getUserType(msg.sender);\n    require(userType != GUEST_TYPE,\n            \"Only the candidate, employer, and arbiter can comment.\");\n  \n    // Create the forwarded contract\n    ThirdForwarder fwd = new ThirdForwarder(); // Proxy Contract\n    // target(EthlanceComment)\n    EthlanceComment comment = EthlanceComment(address(fwd));\n\n    // Permit Comment to fire registry events\n    registry.permitDispatch(address(fwd));\n\n    // Add comment to the registry comment listing\n    registry.pushComment(address(this), address(comment));\n\n    uint[4] memory index;\n    index[0] = storeInstance.jobIndex();\n    index[1] = workIndex;\n    index[2] = registry.getCommentCount(address(this)) - 1;\n\n    // Construct the comment contract\n    comment.construct(msg.sender,\n                      userType,\n                      metahash,\n                      EthlanceComment.CommentType.WorkContract,\n                      index);\n  }\n\n    \n  /// @dev Leave feedback on the given work contract\n  /*\n    Notes:\n\n    - Only the candidate and the employer can leave feedback on a work contract.\n    - A candidate leaving feedback is meant for the employer.\n    - An employer leaving feedback is meant for the candidate.\n  */\n  function leaveFeedback(uint rating, string calldata metahash) external {\n    uint userType = getUserType(msg.sender);\n    require(userType == CANDIDATE_TYPE || userType == EMPLOYER_TYPE,\n            \"Only the candidate or the employer, can leave feedback.\");\n  \n    uint toUserType;\n    address toUserAddress;\n  \n    if (userType == CANDIDATE_TYPE) {\n      toUserType = EMPLOYER_TYPE;\n      toUserAddress = storeInstance.employerAddress();\n    }\n    else {\n      toUserType = CANDIDATE_TYPE;\n      toUserAddress = candidateAddress;\n    }\n  \n    // Check and create forwarded feedback contract instance\n    EthlanceFeedback feedback;\n    if (!registry.hasFeedback(address(this))) {\n      FourthForwarder fwd = new FourthForwarder(); // Proxy Contract\n                                                   // target(EthlanceFeedback)\n\n      feedback = EthlanceFeedback(address(fwd));\n\n      // Permit Feedback to fire registry events\n      registry.permitDispatch(address(fwd));\n      \n      // Add feedback to the registry feedback mapping\n      registry.pushFeedback(address(this), address(fwd));\n      \n      // Construct the feedback contract\n      feedback.construct(address(this), jobIndex, workIndex);\n    }\n    else {\n      feedback = EthlanceFeedback(registry.getFeedbackByAddress(address(this)));\n    }\n\n    feedback.update(msg.sender,\n                    toUserAddress,\n                    userType,\n                    toUserType,\n                    metahash,\n                    rating);\n  }\n}\n",
  "sourcePath": "/home/benzap/projects/ethlance/contracts/EthlanceWorkContract.sol",
  "compiler": {
    "name": "solc",
    "version": "0.5.8+commit.23d335f2.Linux.g++"
  },
  "schemaVersion": "3.0.9",
  "updatedAt": "2019-05-15T03:25:42.149Z",
  "devdoc": {
    "methods": {
      "addComment(string)": {
        "details": "Place a comment on the dispute"
      },
      "construct(address,uint256,address,bool)": {
        "details": "Forwarder Constructor"
      },
      "createDispute(string,string)": {
        "details": "Create a dispute between the employer and the candidate.",
        "params": {
          "metahash": "Represents a IPFS hash with a longer explanation for the dispute by either the employer or the candidate.",
          "reason": "Short string with the reason for the dispute."
        }
      },
      "createInvoice(uint256,string)": {
        "details": "Create an invoice between the employer and the candidate.",
        "params": {
          "metahash": "Contains additional information about the invoice"
        }
      },
      "getDisputeByIndex(uint256)": {
        "details": "Returns the address of the EthlanceDispute at the given index within the dispute listing."
      },
      "getDisputeCount()": {
        "details": "Returns the number of disputes within the work contract"
      },
      "getInvoiceByIndex(uint256)": {
        "details": "Returns the address of the EthlanceInvoice at the given index within the invoice listing."
      },
      "getInvoiceCount()": {
        "details": "Returns the number of invoices within the work contract"
      },
      "leaveFeedback(uint256,string)": {
        "details": "Leave feedback on the given work contract"
      },
      "payInvoice(uint256)": {
        "details": "Pays an invoice"
      },
      "proceed()": {
        "details": "Start the work contract"
      },
      "requestFinished()": {
        "details": "Request to finish the contract as the employer or the candidate"
      },
      "requestInvite()": {
        "details": "Overloaded requestInvite for direct employer and candidate requests."
      },
      "requestInvite(address)": {
        "details": "Requests an invite from either the candidate or the employer.",
        "params": {
          "_sender": "Delegation for initial work contract construction."
        }
      },
      "resolveDispute(uint256,address,uint256,address,uint256,address)": {
        "details": "Resolves a dispute."
      }
    },
    "title": "Work Contract to tie candidates, employers, and arbiters to an agreement."
  },
  "userdoc": {
    "methods": {}
  }
}