{
  "contractName": "EthlanceUserFactory",
  "abi": [
    {
      "constant": true,
      "inputs": [],
      "name": "version",
      "outputs": [
        {
          "name": "",
          "type": "uint256"
        }
      ],
      "payable": false,
      "stateMutability": "view",
      "type": "function"
    },
    {
      "constant": true,
      "inputs": [],
      "name": "registry",
      "outputs": [
        {
          "name": "",
          "type": "address"
        }
      ],
      "payable": false,
      "stateMutability": "view",
      "type": "function"
    },
    {
      "constant": false,
      "inputs": [
        {
          "name": "_metahash",
          "type": "string"
        }
      ],
      "name": "registerUser",
      "outputs": [],
      "payable": false,
      "stateMutability": "nonpayable",
      "type": "function"
    },
    {
      "constant": true,
      "inputs": [
        {
          "name": "user_id",
          "type": "uint256"
        }
      ],
      "name": "getUserByID",
      "outputs": [
        {
          "name": "",
          "type": "address"
        }
      ],
      "payable": false,
      "stateMutability": "view",
      "type": "function"
    },
    {
      "constant": true,
      "inputs": [
        {
          "name": "_address",
          "type": "address"
        }
      ],
      "name": "getUserByAddress",
      "outputs": [
        {
          "name": "",
          "type": "address"
        }
      ],
      "payable": false,
      "stateMutability": "view",
      "type": "function"
    },
    {
      "constant": true,
      "inputs": [],
      "name": "getCurrentUser",
      "outputs": [
        {
          "name": "",
          "type": "address"
        }
      ],
      "payable": false,
      "stateMutability": "view",
      "type": "function"
    },
    {
      "constant": true,
      "inputs": [],
      "name": "getUserCount",
      "outputs": [
        {
          "name": "",
          "type": "uint256"
        }
      ],
      "payable": false,
      "stateMutability": "view",
      "type": "function"
    },
    {
      "constant": true,
      "inputs": [
        {
          "name": "_address",
          "type": "address"
        }
      ],
      "name": "isRegisteredUser",
      "outputs": [
        {
          "name": "",
          "type": "bool"
        }
      ],
      "payable": false,
      "stateMutability": "view",
      "type": "function"
    }
  ],
  "bytecode": "0x608060405234801561001057600080fd5b506113dc806100206000396000f3fe60806040526004361061008e576000357c0100000000000000000000000000000000000000000000000000000000900463ffffffff1680631f5bdf5d1461009357806343ae37c3146100fc57806354fd4d501461015357806369c212f61461017e5780636d3b5f181461020f578063704f1b941461028a5780637b10399914610352578063b5cb15f7146103a9575b600080fd5b34801561009f57600080fd5b506100e2600480360360208110156100b657600080fd5b81019080803573ffffffffffffffffffffffffffffffffffffffff1690602001909291905050506103d4565b604051808215151515815260200191505060405180910390f35b34801561010857600080fd5b5061011161050e565b604051808273ffffffffffffffffffffffffffffffffffffffff1673ffffffffffffffffffffffffffffffffffffffff16815260200191505060405180910390f35b34801561015f57600080fd5b506101686106a8565b6040518082815260200191505060405180910390f35b34801561018a57600080fd5b506101cd600480360360208110156101a157600080fd5b81019080803573ffffffffffffffffffffffffffffffffffffffff1690602001909291905050506106ad565b604051808273ffffffffffffffffffffffffffffffffffffffff1673ffffffffffffffffffffffffffffffffffffffff16815260200191505060405180910390f35b34801561021b57600080fd5b506102486004803603602081101561023257600080fd5b8101908080359060200190929190505050610849565b604051808273ffffffffffffffffffffffffffffffffffffffff1673ffffffffffffffffffffffffffffffffffffffff16815260200191505060405180910390f35b34801561029657600080fd5b50610350600480360360208110156102ad57600080fd5b81019080803590602001906401000000008111156102ca57600080fd5b8201836020820111156102dc57600080fd5b803590602001918460018302840111640100000000831117156102fe57600080fd5b91908080601f016020809104026020016040519081016040528093929190818152602001838380828437600081840152601f19601f820116905080830192505050505050509192919290505050610a3f565b005b34801561035e57600080fd5b50610367610fc8565b604051808273ffffffffffffffffffffffffffffffffffffffff1673ffffffffffffffffffffffffffffffffffffffff16815260200191505060405180910390f35b3480156103b557600080fd5b506103be610fe0565b6040518082815260200191505060405180910390f35b6000806103df610fe0565b14156103ee5760009050610509565b600073ffffffffffffffffffffffffffffffffffffffff1673dabbdabbdabbdabbdabbdabbdabbdabbdabbdabb73ffffffffffffffffffffffffffffffffffffffff166369c212f6846040518263ffffffff167c0100000000000000000000000000000000000000000000000000000000028152600401808273ffffffffffffffffffffffffffffffffffffffff1673ffffffffffffffffffffffffffffffffffffffff16815260200191505060206040518083038186803b1580156104b357600080fd5b505afa1580156104c7573d6000803e3d6000fd5b505050506040513d60208110156104dd57600080fd5b810190808051906020019092919050505073ffffffffffffffffffffffffffffffffffffffff16141590505b919050565b60003361051a816103d4565b15156105b4576040517f08c379a00000000000000000000000000000000000000000000000000000000081526004018080602001828103825260308152602001807f476976656e2061646472657373206964656e74697479206973206e6f7420612081526020017f7265676973746572656420557365722e0000000000000000000000000000000081525060400191505060405180910390fd5b600073dabbdabbdabbdabbdabbdabbdabbdabbdabbdabb73ffffffffffffffffffffffffffffffffffffffff166369c212f6336040518263ffffffff167c0100000000000000000000000000000000000000000000000000000000028152600401808273ffffffffffffffffffffffffffffffffffffffff1673ffffffffffffffffffffffffffffffffffffffff16815260200191505060206040518083038186803b15801561066357600080fd5b505afa158015610677573d6000803e3d6000fd5b505050506040513d602081101561068d57600080fd5b81019080805190602001909291905050509050809250505090565b600181565b6000816106b9816103d4565b1515610753576040517f08c379a00000000000000000000000000000000000000000000000000000000081526004018080602001828103825260308152602001807f476976656e2061646472657373206964656e74697479206973206e6f7420612081526020017f7265676973746572656420557365722e0000000000000000000000000000000081525060400191505060405180910390fd5b600073dabbdabbdabbdabbdabbdabbdabbdabbdabbdabb73ffffffffffffffffffffffffffffffffffffffff166369c212f6856040518263ffffffff167c0100000000000000000000000000000000000000000000000000000000028152600401808273ffffffffffffffffffffffffffffffffffffffff1673ffffffffffffffffffffffffffffffffffffffff16815260200191505060206040518083038186803b15801561080257600080fd5b505afa158015610816573d6000803e3d6000fd5b505050506040513d602081101561082c57600080fd5b810190808051906020019092919050505090508092505050919050565b600073dabbdabbdabbdabbdabbdabbdabbdabbdabbdabb73ffffffffffffffffffffffffffffffffffffffff1663b5cb15f76040518163ffffffff167c010000000000000000000000000000000000000000000000000000000002815260040160206040518083038186803b1580156108c157600080fd5b505afa1580156108d5573d6000803e3d6000fd5b505050506040513d60208110156108eb57600080fd5b81019080805190602001909291905050508211151515610973576040517f08c379a000000000000000000000000000000000000000000000000000000000815260040180806020018281038252601f8152602001807f476976656e20757365725f6964206973206f7574206f6620626f756e64732e0081525060200191505060405180910390fd5b600073dabbdabbdabbdabbdabbdabbdabbdabbdabbdabb73ffffffffffffffffffffffffffffffffffffffff1663ff5d32fe600185036040518263ffffffff167c01000000000000000000000000000000000000000000000000000000000281526004018082815260200191505060206040518083038186803b1580156109f957600080fd5b505afa158015610a0d573d6000803e3d6000fd5b505050506040513d6020811015610a2357600080fd5b8101908080519060200190929190505050905080915050919050565b600073ffffffffffffffffffffffffffffffffffffffff1673dabbdabbdabbdabbdabbdabbdabbdabbdabbdabb73ffffffffffffffffffffffffffffffffffffffff166369c212f6336040518263ffffffff167c0100000000000000000000000000000000000000000000000000000000028152600401808273ffffffffffffffffffffffffffffffffffffffff1673ffffffffffffffffffffffffffffffffffffffff16815260200191505060206040518083038186803b158015610b0457600080fd5b505afa158015610b18573d6000803e3d6000fd5b505050506040513d6020811015610b2e57600080fd5b810190808051906020019092919050505073ffffffffffffffffffffffffffffffffffffffff16141515610bf0576040517f08c379a00000000000000000000000000000000000000000000000000000000081526004018080602001828103825260218152602001807f476976656e207573657220697320616c7265616479207265676973746572656481526020017f2e0000000000000000000000000000000000000000000000000000000000000081525060400191505060405180910390fd5b6000610bfa6111ee565b604051809103906000f080158015610c16573d6000803e3d6000fd5b509050600081905073dabbdabbdabbdabbdabbdabbdabbdabbdabbdabb73ffffffffffffffffffffffffffffffffffffffff166304d64386836040518263ffffffff167c0100000000000000000000000000000000000000000000000000000000028152600401808273ffffffffffffffffffffffffffffffffffffffff1673ffffffffffffffffffffffffffffffffffffffff168152602001915050600060405180830381600087803b158015610ccd57600080fd5b505af1158015610ce1573d6000803e3d6000fd5b50505050600073dabbdabbdabbdabbdabbdabbdabbdabbdabbdabb73ffffffffffffffffffffffffffffffffffffffff16635b12318933846040518363ffffffff167c0100000000000000000000000000000000000000000000000000000000028152600401808373ffffffffffffffffffffffffffffffffffffffff1673ffffffffffffffffffffffffffffffffffffffff1681526020018273ffffffffffffffffffffffffffffffffffffffff1673ffffffffffffffffffffffffffffffffffffffff16815260200192505050602060405180830381600087803b158015610dca57600080fd5b505af1158015610dde573d6000803e3d6000fd5b505050506040513d6020811015610df457600080fd5b810190808051906020019092919050505090508173ffffffffffffffffffffffffffffffffffffffff16634fba3c418233876040518463ffffffff167c0100000000000000000000000000000000000000000000000000000000028152600401808481526020018373ffffffffffffffffffffffffffffffffffffffff1673ffffffffffffffffffffffffffffffffffffffff16815260200180602001828103825283818151815260200191508051906020019080838360005b83811015610ec9578082015181840152602081019050610eae565b50505050905090810190601f168015610ef65780820380516001836020036101000a031916815260200191505b50945050505050600060405180830381600087803b158015610f1757600080fd5b505af1158015610f2b573d6000803e3d6000fd5b5050505060606001604051908082528060200260200182016040528015610f615781602001602082028038833980820191505090505b50905081816000815181101515610f7457fe5b9060200190602002018181525050610fc16040805190810160405280600e81526020017f557365725265676973746572656400000000000000000000000000000000000081525082611098565b5050505050565b73dabbdabbdabbdabbdabbdabbdabbdabbdabbdabb81565b600073dabbdabbdabbdabbdabbdabbdabbdabbdabbdabb73ffffffffffffffffffffffffffffffffffffffff1663b5cb15f76040518163ffffffff167c010000000000000000000000000000000000000000000000000000000002815260040160206040518083038186803b15801561105857600080fd5b505afa15801561106c573d6000803e3d6000fd5b505050506040513d602081101561108257600080fd5b8101908080519060200190929190505050905090565b73dabbdabbdabbdabbdabbdabbdabbdabbdabbdabb73ffffffffffffffffffffffffffffffffffffffff16634904a20c836001846040518463ffffffff167c0100000000000000000000000000000000000000000000000000000000028152600401808060200184815260200180602001838103835286818151815260200191508051906020019080838360005b83811015611141578082015181840152602081019050611126565b50505050905090810190601f16801561116e5780820380516001836020036101000a031916815260200191505b50838103825284818151815260200191508051906020019060200280838360005b838110156111aa57808201518184015260208101905061118f565b5050505090500195505050505050600060405180830381600087803b1580156111d257600080fd5b505af11580156111e6573d6000803e3d6000fd5b505050505050565b6040516101b2806111ff8339019056fe608060405234801561001057600080fd5b50610192806100206000396000f3fe608060405260043610610041576000357c0100000000000000000000000000000000000000000000000000000000900463ffffffff168063d4b83992146100a6575b6100a473beefbeefbeefbeefbeefbeefbeefbeefbeefbeef6000368080601f016020809104026020016040519081016040528093929190818152602001838380828437600081840152601f19601f820116905080830192505050505050506100fd565b005b3480156100b257600080fd5b506100bb61013b565b604051808273ffffffffffffffffffffffffffffffffffffffff1673ffffffffffffffffffffffffffffffffffffffff16815260200191505060405180910390f35b61010682610153565b151561011157600080fd5b600080825160208401856127105a03f43d604051816000823e8260008114610137578282f35b8282fd5b73beefbeefbeefbeefbeefbeefbeefbeefbeefbeef81565b600080823b90506000811191505091905056fea165627a7a72305820276e76d79a36bb731ba224be90c8a15bd265b79c545434b5bd78802a33ee14700029a165627a7a723058208182ad7e09b5b86ebd25c269ba52237ab127f40e257a6733c0096344d99f716d0029",
  "source": "pragma solidity ^0.5.0;\n\nimport \"./EthlanceRegistry.sol\";\nimport \"./EthlanceUser.sol\";\nimport \"./proxy/MutableForwarder.sol\";\nimport \"./proxy/Forwarder.sol\";\n\n/// @title Ethlance User Factory\n/// @dev Used for the creation of users, along with the relation to\n/// Candidates, Employers and Arbiters.\ncontract EthlanceUserFactory {\n  uint public constant version = 1;\n  EthlanceRegistry public constant registry = EthlanceRegistry(0xdaBBdABbDABbDabbDaBbDabbDaBbdaBbdaBbDAbB);\n\n  //\n  // Methods\n  //\n\n  /// @dev Fire events specific to the UserFactory\n  /// @param event_name Unique to give the fired event\n  /// @param event_data Additional event data to include in the\n  /// fired event.\n  function fireEvent(string memory event_name, uint[] memory event_data) private {\n    registry.fireEvent(event_name, version, event_data);\n  }\n\n\n  /// @dev Register user for the current address.\n  /// @param _metahash IPFS metahash.\n  function registerUser(string memory _metahash)\n    public {\n    require(registry.getUserByAddress(msg.sender) == address(0),\n            \"Given user is already registered.\");\n\n    Forwarder user_fwd = new Forwarder(); // Proxy Contract with\n    // target(EthlanceUser)\n    EthlanceUser user = EthlanceUser(address(user_fwd));\n  \n    // Permit User to fire registry events\n    registry.permitDispatch(address(user_fwd));\n\n    // Note: contract address needs to be registered before it can\n    // be constructed due to permission checks.\n    uint user_id = registry.pushUser(msg.sender, address(user));\n    user.construct(user_id, msg.sender, _metahash);\n\n    // Create and Fire off event data\n    uint[] memory edata = new uint[](1);\n    edata[0] = user_id;\n    fireEvent(\"UserRegistered\", edata);\n  }\n\n\n  //\n  // Views\n  //\n\n\n  /// @dev Returns IPFS metahash for the given `user_id`\n  /// @param user_id User Id for the given user\n  /// @return The EthlanceUser address.\n  function getUserByID(uint user_id)\n    public view returns(EthlanceUser) {\n    require(user_id <= registry.getUserCount(),\n            \"Given user_id is out of bounds.\");\n  \n    // Note: user_id is +1 of the index.\n    EthlanceUser user = EthlanceUser(registry.getUserByIndex(user_id-1));\n\n    return user;\n  }\n\n\n  /// @dev Returns IPFS metahash for the given address\n  /// @param _address The address of the user.\n  /// @return The EthlanceUser address.\n  function getUserByAddress(address _address)\n    public view\n    registeredUser(_address)\n    returns(EthlanceUser)\n  {\n    EthlanceUser user = EthlanceUser(registry.getUserByAddress(_address));\n\n    return user;\n  }\n\n\n  /// @dev Returns the current User Contract Address\n  /// @return The current user contract address.\n  function getCurrentUser()\n    public view\n    registeredUser(msg.sender)\n    returns (EthlanceUser)\n  {\n    EthlanceUser user = EthlanceUser(registry.getUserByAddress(msg.sender));\n  \n    return user;\n  }\n\n\n  /// @dev Returns the number of users.\n  /// @return The number of users.\n  function getUserCount()\n    public view returns (uint) {\n\n    return registry.getUserCount();\n  }\n\n\n  /// @dev Returns true, if the given user address is registered.\n  /// @param _address The address of the user.\n  /// @return True, if the address is registered.\n  function isRegisteredUser(address _address)\n    public view returns(bool) {\n    if (getUserCount() == 0) {\n      return false;\n    }\n    return registry.getUserByAddress(_address) != address(0);\n  }\n\n\n  //\n  // Modifiers\n  //\n\n\n  /// @dev Checks if the given address is a registered User.\n  modifier registeredUser(address _address) {\n    require(isRegisteredUser(_address),\n            \"Given address identity is not a registered User.\");\n    _;\n  }\n}\n",
  "sourcePath": "/home/benzap/projects/ethlance/contracts/EthlanceUserFactory.sol",
  "compiler": {
    "name": "solc",
    "version": "0.5.0+commit.1d4f565a.Emscripten.clang"
  },
  "schemaVersion": "3.0.9",
  "updatedAt": "2019-05-14T23:51:40.136Z",
  "devdoc": {
    "details": "Used for the creation of users, along with the relation to Candidates, Employers and Arbiters.",
    "methods": {
      "getCurrentUser()": {
        "details": "Returns the current User Contract Address",
        "return": "The current user contract address."
      },
      "getUserByAddress(address)": {
        "details": "Returns IPFS metahash for the given address",
        "params": {
          "_address": "The address of the user."
        },
        "return": "The EthlanceUser address."
      },
      "getUserByID(uint256)": {
        "details": "Returns IPFS metahash for the given `user_id`",
        "params": {
          "user_id": "User Id for the given user"
        },
        "return": "The EthlanceUser address."
      },
      "getUserCount()": {
        "details": "Returns the number of users.",
        "return": "The number of users."
      },
      "isRegisteredUser(address)": {
        "details": "Returns true, if the given user address is registered.",
        "params": {
          "_address": "The address of the user."
        },
        "return": "True, if the address is registered."
      },
      "registerUser(string)": {
        "details": "Register user for the current address.",
        "params": {
          "_metahash": "IPFS metahash."
        }
      }
    },
    "title": "Ethlance User Factory"
  },
  "userdoc": {
    "methods": {}
  }
}