{
  "contractName": "EthlanceDispute",
  "abi": [
    {
      "constant": true,
      "inputs": [],
      "name": "dateUpdated",
      "outputs": [
        {
          "name": "",
          "type": "uint256"
        }
      ],
      "payable": false,
      "stateMutability": "view",
      "type": "function"
    },
    {
      "constant": true,
      "inputs": [],
      "name": "arbiterResolutionAmount",
      "outputs": [
        {
          "name": "",
          "type": "uint256"
        }
      ],
      "payable": false,
      "stateMutability": "view",
      "type": "function"
    },
    {
      "constant": true,
      "inputs": [],
      "name": "employerResolutionToken",
      "outputs": [
        {
          "name": "",
          "type": "address"
        }
      ],
      "payable": false,
      "stateMutability": "view",
      "type": "function"
    },
    {
      "constant": true,
      "inputs": [],
      "name": "dateCreated",
      "outputs": [
        {
          "name": "",
          "type": "uint256"
        }
      ],
      "payable": false,
      "stateMutability": "view",
      "type": "function"
    },
    {
      "constant": true,
      "inputs": [],
      "name": "arbiterResolutionToken",
      "outputs": [
        {
          "name": "",
          "type": "address"
        }
      ],
      "payable": false,
      "stateMutability": "view",
      "type": "function"
    },
    {
      "constant": true,
      "inputs": [],
      "name": "version",
      "outputs": [
        {
          "name": "",
          "type": "uint256"
        }
      ],
      "payable": false,
      "stateMutability": "view",
      "type": "function"
    },
    {
      "constant": true,
      "inputs": [],
      "name": "candidateResolutionToken",
      "outputs": [
        {
          "name": "",
          "type": "address"
        }
      ],
      "payable": false,
      "stateMutability": "view",
      "type": "function"
    },
    {
      "constant": true,
      "inputs": [],
      "name": "EMPLOYER_TYPE",
      "outputs": [
        {
          "name": "",
          "type": "uint256"
        }
      ],
      "payable": false,
      "stateMutability": "view",
      "type": "function"
    },
    {
      "constant": true,
      "inputs": [],
      "name": "dateResolved",
      "outputs": [
        {
          "name": "",
          "type": "uint256"
        }
      ],
      "payable": false,
      "stateMutability": "view",
      "type": "function"
    },
    {
      "constant": true,
      "inputs": [],
      "name": "registry",
      "outputs": [
        {
          "name": "",
          "type": "address"
        }
      ],
      "payable": false,
      "stateMutability": "view",
      "type": "function"
    },
    {
      "constant": true,
      "inputs": [],
      "name": "candidateResolutionAmount",
      "outputs": [
        {
          "name": "",
          "type": "uint256"
        }
      ],
      "payable": false,
      "stateMutability": "view",
      "type": "function"
    },
    {
      "constant": true,
      "inputs": [],
      "name": "owner",
      "outputs": [
        {
          "name": "",
          "type": "address"
        }
      ],
      "payable": false,
      "stateMutability": "view",
      "type": "function"
    },
    {
      "constant": true,
      "inputs": [],
      "name": "workInstance",
      "outputs": [
        {
          "name": "",
          "type": "address"
        }
      ],
      "payable": false,
      "stateMutability": "view",
      "type": "function"
    },
    {
      "constant": true,
      "inputs": [],
      "name": "CANDIDATE_TYPE",
      "outputs": [
        {
          "name": "",
          "type": "uint256"
        }
      ],
      "payable": false,
      "stateMutability": "view",
      "type": "function"
    },
    {
      "constant": true,
      "inputs": [],
      "name": "disputeIndex",
      "outputs": [
        {
          "name": "",
          "type": "uint256"
        }
      ],
      "payable": false,
      "stateMutability": "view",
      "type": "function"
    },
    {
      "constant": true,
      "inputs": [],
      "name": "reason",
      "outputs": [
        {
          "name": "",
          "type": "string"
        }
      ],
      "payable": false,
      "stateMutability": "view",
      "type": "function"
    },
    {
      "constant": true,
      "inputs": [],
      "name": "ARBITER_TYPE",
      "outputs": [
        {
          "name": "",
          "type": "uint256"
        }
      ],
      "payable": false,
      "stateMutability": "view",
      "type": "function"
    },
    {
      "constant": true,
      "inputs": [],
      "name": "employerResolutionAmount",
      "outputs": [
        {
          "name": "",
          "type": "uint256"
        }
      ],
      "payable": false,
      "stateMutability": "view",
      "type": "function"
    },
    {
      "constant": true,
      "inputs": [],
      "name": "GUEST_TYPE",
      "outputs": [
        {
          "name": "",
          "type": "uint256"
        }
      ],
      "payable": false,
      "stateMutability": "view",
      "type": "function"
    },
    {
      "constant": false,
      "inputs": [
        {
          "name": "_workInstance",
          "type": "address"
        },
        {
          "name": "_disputeIndex",
          "type": "uint256"
        },
        {
          "name": "_reason",
          "type": "string"
        },
        {
          "name": "metahash",
          "type": "string"
        },
        {
          "name": "is_employer_request",
          "type": "bool"
        }
      ],
      "name": "construct",
      "outputs": [],
      "payable": false,
      "stateMutability": "nonpayable",
      "type": "function"
    },
    {
      "constant": false,
      "inputs": [
        {
          "name": "_employerAmount",
          "type": "uint256"
        },
        {
          "name": "_employerToken",
          "type": "address"
        },
        {
          "name": "_candidateAmount",
          "type": "uint256"
        },
        {
          "name": "_candidateToken",
          "type": "address"
        },
        {
          "name": "_arbiterAmount",
          "type": "uint256"
        },
        {
          "name": "_arbiterToken",
          "type": "address"
        }
      ],
      "name": "resolve",
      "outputs": [],
      "payable": false,
      "stateMutability": "nonpayable",
      "type": "function"
    },
    {
      "constant": true,
      "inputs": [],
      "name": "isResolved",
      "outputs": [
        {
          "name": "",
          "type": "bool"
        }
      ],
      "payable": false,
      "stateMutability": "view",
      "type": "function"
    },
    {
      "constant": false,
      "inputs": [
        {
          "name": "metahash",
          "type": "string"
        }
      ],
      "name": "addComment",
      "outputs": [],
      "payable": false,
      "stateMutability": "nonpayable",
      "type": "function"
    },
    {
      "constant": false,
      "inputs": [
        {
          "name": "rating",
          "type": "uint256"
        },
        {
          "name": "metahash",
          "type": "string"
        }
      ],
      "name": "leaveFeedback",
      "outputs": [],
      "payable": false,
      "stateMutability": "nonpayable",
      "type": "function"
    }
  ],
  "bytecode": "0x608060405234801561001057600080fd5b50613328806100206000396000f3fe60806040526004361061013e576000357c0100000000000000000000000000000000000000000000000000000000900463ffffffff1680630201e5351461014357806308a447a41461016e5780631c0994b6146101995780631f741c7a146101f0578063485715e81461021b57806349f4b5171461027257806354fd4d50146103835780635e7277b8146103ae5780636a10928f146104055780636aa42beb146104305780637b1039991461045b578063843b4386146104b25780638ac236f7146105385780638da5cb5b14610563578063a5d622ea146105ba578063aafcf67c14610611578063b721f1cd146106c0578063cbf50ec0146106eb578063d2cc8fee1461077b578063dbb3f537146107a6578063e134e33d146107d5578063fb01b30314610865578063fb26986814610890578063fe737a12146108bb575b600080fd5b34801561014f57600080fd5b506101586108e6565b6040518082815260200191505060405180910390f35b34801561017a57600080fd5b506101836108ec565b6040518082815260200191505060405180910390f35b3480156101a557600080fd5b506101ae6108f2565b604051808273ffffffffffffffffffffffffffffffffffffffff1673ffffffffffffffffffffffffffffffffffffffff16815260200191505060405180910390f35b3480156101fc57600080fd5b50610205610918565b6040518082815260200191505060405180910390f35b34801561022757600080fd5b5061023061091e565b604051808273ffffffffffffffffffffffffffffffffffffffff1673ffffffffffffffffffffffffffffffffffffffff16815260200191505060405180910390f35b34801561027e57600080fd5b50610381600480360360a081101561029557600080fd5b81019080803573ffffffffffffffffffffffffffffffffffffffff16906020019092919080359060200190929190803590602001906401000000008111156102dc57600080fd5b8201836020820111156102ee57600080fd5b8035906020019184600183028401116401000000008311171561031057600080fd5b90919293919293908035906020019064010000000081111561033157600080fd5b82018360208201111561034357600080fd5b8035906020019184600183028401116401000000008311171561036557600080fd5b9091929391929390803515159060200190929190505050610944565b005b34801561038f57600080fd5b50610398610de0565b6040518082815260200191505060405180910390f35b3480156103ba57600080fd5b506103c3610de5565b604051808273ffffffffffffffffffffffffffffffffffffffff1673ffffffffffffffffffffffffffffffffffffffff16815260200191505060405180910390f35b34801561041157600080fd5b5061041a610e0b565b6040518082815260200191505060405180910390f35b34801561043c57600080fd5b50610445610e10565b6040518082815260200191505060405180910390f35b34801561046757600080fd5b50610470610e16565b604051808273ffffffffffffffffffffffffffffffffffffffff1673ffffffffffffffffffffffffffffffffffffffff16815260200191505060405180910390f35b3480156104be57600080fd5b50610536600480360360208110156104d557600080fd5b81019080803590602001906401000000008111156104f257600080fd5b82018360208201111561050457600080fd5b8035906020019184600183028401116401000000008311171561052657600080fd5b9091929391929390505050610e2e565b005b34801561054457600080fd5b5061054d610e80565b6040518082815260200191505060405180910390f35b34801561056f57600080fd5b50610578610e86565b604051808273ffffffffffffffffffffffffffffffffffffffff1673ffffffffffffffffffffffffffffffffffffffff16815260200191505060405180910390f35b3480156105c657600080fd5b506105cf610eac565b604051808273ffffffffffffffffffffffffffffffffffffffff1673ffffffffffffffffffffffffffffffffffffffff16815260200191505060405180910390f35b34801561061d57600080fd5b506106be600480360360c081101561063457600080fd5b8101908080359060200190929190803573ffffffffffffffffffffffffffffffffffffffff16906020019092919080359060200190929190803573ffffffffffffffffffffffffffffffffffffffff16906020019092919080359060200190929190803573ffffffffffffffffffffffffffffffffffffffff169060200190929190505050610ed2565b005b3480156106cc57600080fd5b506106d5611417565b6040518082815260200191505060405180910390f35b3480156106f757600080fd5b506107796004803603604081101561070e57600080fd5b81019080803590602001909291908035906020019064010000000081111561073557600080fd5b82018360208201111561074757600080fd5b8035906020019184600183028401116401000000008311171561076957600080fd5b909192939192939050505061141c565b005b34801561078757600080fd5b50610790611ecb565b6040518082815260200191505060405180910390f35b3480156107b257600080fd5b506107bb611ed1565b604051808215151515815260200191505060405180910390f35b3480156107e157600080fd5b506107ea611ede565b6040518080602001828103825283818151815260200191508051906020019080838360005b8381101561082a57808201518184015260208101905061080f565b50505050905090810190601f1680156108575780820380516001836020036101000a031916815260200191505b509250505060405180910390f35b34801561087157600080fd5b5061087a611f7c565b6040518082815260200191505060405180910390f35b34801561089c57600080fd5b506108a5611f81565b6040518082815260200191505060405180910390f35b3480156108c757600080fd5b506108d0611f87565b6040518082815260200191505060405180910390f35b60025481565b60095481565b600660009054906101000a900473ffffffffffffffffffffffffffffffffffffffff1681565b60015481565b600a60009054906101000a900473ffffffffffffffffffffffffffffffffffffffff1681565b600073ffffffffffffffffffffffffffffffffffffffff16600b60009054906101000a900473ffffffffffffffffffffffffffffffffffffffff1673ffffffffffffffffffffffffffffffffffffffff16141515610a30576040517f08c379a000000000000000000000000000000000000000000000000000000000815260040180806020018281038252602d8152602001807f4574686c616e63654469737075746520636f6e747261637420616c726561647981526020017f20636f6e73747275637465642e0000000000000000000000000000000000000081525060400191505060405180910390fd5b33600b60006101000a81548173ffffffffffffffffffffffffffffffffffffffff021916908373ffffffffffffffffffffffffffffffffffffffff16021790555086600c60006101000a81548173ffffffffffffffffffffffffffffffffffffffff021916908373ffffffffffffffffffffffffffffffffffffffff16021790555085600081905550848460049190610aca929190612eb0565b5042600181905550426002819055508015610c8c57610c87600c60009054906101000a900473ffffffffffffffffffffffffffffffffffffffff1673ffffffffffffffffffffffffffffffffffffffff1663ac0677886040518163ffffffff167c010000000000000000000000000000000000000000000000000000000002815260040160206040518083038186803b158015610b6657600080fd5b505afa158015610b7a573d6000803e3d6000fd5b505050506040513d6020811015610b9057600080fd5b810190808051906020019092919050505073ffffffffffffffffffffffffffffffffffffffff16630d0175a96040518163ffffffff167c010000000000000000000000000000000000000000000000000000000002815260040160206040518083038186803b158015610c0257600080fd5b505afa158015610c16573d6000803e3d6000fd5b505050506040513d6020811015610c2c57600080fd5b810190808051906020019092919050505084848080601f016020809104026020016040519081016040528093929190818152602001838380828437600081840152601f19601f82011690508083019250505050505050611f8c565b610d99565b610d98600c60009054906101000a900473ffffffffffffffffffffffffffffffffffffffff1673ffffffffffffffffffffffffffffffffffffffff16631daa7a386040518163ffffffff167c010000000000000000000000000000000000000000000000000000000002815260040160206040518083038186803b158015610d1357600080fd5b505afa158015610d27573d6000803e3d6000fd5b505050506040513d6020811015610d3d57600080fd5b810190808051906020019092919050505084848080601f016020809104026020016040519081016040528093929190818152602001838380828437600081840152601f19601f82011690508083019250505050505050611f8c565b5b610dd76040805190810160405280600e81526020017f446973707574654372656174656400000000000000000000000000000000000081525061270f565b50505050505050565b600181565b600860009054906101000a900473ffffffffffffffffffffffffffffffffffffffff1681565b600181565b60035481565b73dabbdabbdabbdabbdabbdabbdabbdabbdabbdabb81565b610e7c3383838080601f016020809104026020016040519081016040528093929190818152602001838380828437600081840152601f19601f82011690508083019250505050505050611f8c565b5050565b60075481565b600b60009054906101000a900473ffffffffffffffffffffffffffffffffffffffff1681565b600c60009054906101000a900473ffffffffffffffffffffffffffffffffffffffff1681565b3373ffffffffffffffffffffffffffffffffffffffff16600c60009054906101000a900473ffffffffffffffffffffffffffffffffffffffff1673ffffffffffffffffffffffffffffffffffffffff1663ac0677886040518163ffffffff167c010000000000000000000000000000000000000000000000000000000002815260040160206040518083038186803b158015610f6d57600080fd5b505afa158015610f81573d6000803e3d6000fd5b505050506040513d6020811015610f9757600080fd5b810190808051906020019092919050505073ffffffffffffffffffffffffffffffffffffffff1663fbbd21386040518163ffffffff167c010000000000000000000000000000000000000000000000000000000002815260040160206040518083038186803b15801561100957600080fd5b505afa15801561101d573d6000803e3d6000fd5b505050506040513d602081101561103357600080fd5b810190808051906020019092919050505073ffffffffffffffffffffffffffffffffffffffff161415156110f5576040517f08c379a00000000000000000000000000000000000000000000000000000000081526004018080602001828103825260308152602001807f4f6e6c792074686520616363657074656420617262697465722063616e20726581526020017f736f6c7665206120646973707574652e0000000000000000000000000000000081525060400191505060405180910390fd5b6000600354141515611195576040517f08c379a00000000000000000000000000000000000000000000000000000000081526004018080602001828103825260278152602001807f5468697320646973707574652068617320616c7265616479206265656e20726581526020017f736f6c7665642e0000000000000000000000000000000000000000000000000081525060400191505060405180910390fd5b600c60009054906101000a900473ffffffffffffffffffffffffffffffffffffffff1673ffffffffffffffffffffffffffffffffffffffff1663c45fc5138787878787876040518763ffffffff167c0100000000000000000000000000000000000000000000000000000000028152600401808781526020018673ffffffffffffffffffffffffffffffffffffffff1673ffffffffffffffffffffffffffffffffffffffff1681526020018581526020018473ffffffffffffffffffffffffffffffffffffffff1673ffffffffffffffffffffffffffffffffffffffff1681526020018381526020018273ffffffffffffffffffffffffffffffffffffffff1673ffffffffffffffffffffffffffffffffffffffff1681526020019650505050505050600060405180830381600087803b1580156112d257600080fd5b505af11580156112e6573d6000803e3d6000fd5b505050508560058190555084600660006101000a81548173ffffffffffffffffffffffffffffffffffffffff021916908373ffffffffffffffffffffffffffffffffffffffff1602179055508360078190555082600860006101000a81548173ffffffffffffffffffffffffffffffffffffffff021916908373ffffffffffffffffffffffffffffffffffffffff1602179055508160098190555080600a60006101000a81548173ffffffffffffffffffffffffffffffffffffffff021916908373ffffffffffffffffffffffffffffffffffffffff160217905550426003819055506113d1612a72565b61140f6040805190810160405280600f81526020017f446973707574655265736f6c766564000000000000000000000000000000000081525061270f565b505050505050565b600281565b600061142733612a7b565b905060028114806114385750600181145b15156114f8576040517f08c379a00000000000000000000000000000000000000000000000000000000081526004018080602001828103825260478152602001807f4f6e6c79207468652063616e646964617465206f722074686520656d706c6f7981526020017f65722c2063616e206c6561766520666565646261636b20666f7220746865206181526020017f7262697465722e0000000000000000000000000000000000000000000000000081525060600191505060405180910390fd5b6000600c60009054906101000a900473ffffffffffffffffffffffffffffffffffffffff1673ffffffffffffffffffffffffffffffffffffffff1663ac0677886040518163ffffffff167c010000000000000000000000000000000000000000000000000000000002815260040160206040518083038186803b15801561157e57600080fd5b505afa158015611592573d6000803e3d6000fd5b505050506040513d60208110156115a857600080fd5b810190808051906020019092919050505073ffffffffffffffffffffffffffffffffffffffff1663fbbd21386040518163ffffffff167c010000000000000000000000000000000000000000000000000000000002815260040160206040518083038186803b15801561161a57600080fd5b505afa15801561162e573d6000803e3d6000fd5b505050506040513d602081101561164457600080fd5b81019080805190602001909291905050509050600060039050600073dabbdabbdabbdabbdabbdabbdabbdabbdabbdabb73ffffffffffffffffffffffffffffffffffffffff16638bac5fbc600c60009054906101000a900473ffffffffffffffffffffffffffffffffffffffff166040518263ffffffff167c0100000000000000000000000000000000000000000000000000000000028152600401808273ffffffffffffffffffffffffffffffffffffffff1673ffffffffffffffffffffffffffffffffffffffff16815260200191505060206040518083038186803b15801561172e57600080fd5b505afa158015611742573d6000803e3d6000fd5b505050506040513d602081101561175857600080fd5b81019080805190602001909291905050501515611c82576000611779612f30565b604051809103906000f080158015611795573d6000803e3d6000fd5b50905080915073dabbdabbdabbdabbdabbdabbdabbdabbdabbdabb73ffffffffffffffffffffffffffffffffffffffff166304d64386826040518263ffffffff167c0100000000000000000000000000000000000000000000000000000000028152600401808273ffffffffffffffffffffffffffffffffffffffff1673ffffffffffffffffffffffffffffffffffffffff168152602001915050600060405180830381600087803b15801561184a57600080fd5b505af115801561185e573d6000803e3d6000fd5b5050505073dabbdabbdabbdabbdabbdabbdabbdabbdabbdabb73ffffffffffffffffffffffffffffffffffffffff1663ec6040be600c60009054906101000a900473ffffffffffffffffffffffffffffffffffffffff16846040518363ffffffff167c0100000000000000000000000000000000000000000000000000000000028152600401808373ffffffffffffffffffffffffffffffffffffffff1673ffffffffffffffffffffffffffffffffffffffff1681526020018273ffffffffffffffffffffffffffffffffffffffff1673ffffffffffffffffffffffffffffffffffffffff16815260200192505050600060405180830381600087803b15801561196757600080fd5b505af115801561197b573d6000803e3d6000fd5b505050508173ffffffffffffffffffffffffffffffffffffffff1663ed7ace46600c60009054906101000a900473ffffffffffffffffffffffffffffffffffffffff16600c60009054906101000a900473ffffffffffffffffffffffffffffffffffffffff1673ffffffffffffffffffffffffffffffffffffffff1663ac0677886040518163ffffffff167c010000000000000000000000000000000000000000000000000000000002815260040160206040518083038186803b158015611a4257600080fd5b505afa158015611a56573d6000803e3d6000fd5b505050506040513d6020811015611a6c57600080fd5b810190808051906020019092919050505073ffffffffffffffffffffffffffffffffffffffff1663b77728186040518163ffffffff167c010000000000000000000000000000000000000000000000000000000002815260040160206040518083038186803b158015611ade57600080fd5b505afa158015611af2573d6000803e3d6000fd5b505050506040513d6020811015611b0857600080fd5b8101908080519060200190929190505050600c60009054906101000a900473ffffffffffffffffffffffffffffffffffffffff1673ffffffffffffffffffffffffffffffffffffffff16630f8af3c56040518163ffffffff167c010000000000000000000000000000000000000000000000000000000002815260040160206040518083038186803b158015611b9d57600080fd5b505afa158015611bb1573d6000803e3d6000fd5b505050506040513d6020811015611bc757600080fd5b81019080805190602001909291905050506040518463ffffffff167c0100000000000000000000000000000000000000000000000000000000028152600401808473ffffffffffffffffffffffffffffffffffffffff1673ffffffffffffffffffffffffffffffffffffffff1681526020018381526020018281526020019350505050600060405180830381600087803b158015611c6457600080fd5b505af1158015611c78573d6000803e3d6000fd5b5050505050611d8f565b73dabbdabbdabbdabbdabbdabbdabbdabbdabbdabb73ffffffffffffffffffffffffffffffffffffffff166313f7ab10600c60009054906101000a900473ffffffffffffffffffffffffffffffffffffffff166040518263ffffffff167c0100000000000000000000000000000000000000000000000000000000028152600401808273ffffffffffffffffffffffffffffffffffffffff1673ffffffffffffffffffffffffffffffffffffffff16815260200191505060206040518083038186803b158015611d5157600080fd5b505afa158015611d65573d6000803e3d6000fd5b505050506040513d6020811015611d7b57600080fd5b810190808051906020019092919050505090505b8073ffffffffffffffffffffffffffffffffffffffff166343168a3e338587868b8b8e6040518863ffffffff167c0100000000000000000000000000000000000000000000000000000000028152600401808873ffffffffffffffffffffffffffffffffffffffff1673ffffffffffffffffffffffffffffffffffffffff1681526020018773ffffffffffffffffffffffffffffffffffffffff1673ffffffffffffffffffffffffffffffffffffffff168152602001868152602001858152602001806020018381526020018281038252858582818152602001925080828437600081840152601f19601f82011690508083019250505098505050505050505050600060405180830381600087803b158015611eaa57600080fd5b505af1158015611ebe573d6000803e3d6000fd5b5050505050505050505050565b60005481565b6000806003541415905090565b60048054600181600116156101000203166002900480601f016020809104026020016040519081016040528092919081815260200182805460018160011615610100020316600290048015611f745780601f10611f4957610100808354040283529160200191611f74565b820191906000526020600020905b815481529060010190602001808311611f5757829003601f168201915b505050505081565b600381565b60055481565b600081565b6000611f9783612a7b565b905060008114151515612038576040517f08c379a00000000000000000000000000000000000000000000000000000000081526004018080602001828103825260368152602001807f4f6e6c79207468652063616e6469646174652c20656d706c6f7965722c20616e81526020017f6420617262697465722063616e20636f6d6d656e742e0000000000000000000081525060400191505060405180910390fd5b6000612042612f40565b604051809103906000f08015801561205e573d6000803e3d6000fd5b509050600081905073dabbdabbdabbdabbdabbdabbdabbdabbdabbdabb73ffffffffffffffffffffffffffffffffffffffff166304d64386836040518263ffffffff167c0100000000000000000000000000000000000000000000000000000000028152600401808273ffffffffffffffffffffffffffffffffffffffff1673ffffffffffffffffffffffffffffffffffffffff168152602001915050600060405180830381600087803b15801561211557600080fd5b505af1158015612129573d6000803e3d6000fd5b5050505073dabbdabbdabbdabbdabbdabbdabbdabbdabbdabb73ffffffffffffffffffffffffffffffffffffffff1663585a5b1d30836040518363ffffffff167c0100000000000000000000000000000000000000000000000000000000028152600401808373ffffffffffffffffffffffffffffffffffffffff1673ffffffffffffffffffffffffffffffffffffffff1681526020018273ffffffffffffffffffffffffffffffffffffffff1673ffffffffffffffffffffffffffffffffffffffff16815260200192505050600060405180830381600087803b15801561221057600080fd5b505af1158015612224573d6000803e3d6000fd5b50505050612230612f50565b600c60009054906101000a900473ffffffffffffffffffffffffffffffffffffffff1673ffffffffffffffffffffffffffffffffffffffff1663ac0677886040518163ffffffff167c010000000000000000000000000000000000000000000000000000000002815260040160206040518083038186803b1580156122b457600080fd5b505afa1580156122c8573d6000803e3d6000fd5b505050506040513d60208110156122de57600080fd5b810190808051906020019092919050505073ffffffffffffffffffffffffffffffffffffffff1663b77728186040518163ffffffff167c010000000000000000000000000000000000000000000000000000000002815260040160206040518083038186803b15801561235057600080fd5b505afa158015612364573d6000803e3d6000fd5b505050506040513d602081101561237a57600080fd5b810190808051906020019092919050505081600060048110151561239a57fe5b602002018181525050600c60009054906101000a900473ffffffffffffffffffffffffffffffffffffffff1673ffffffffffffffffffffffffffffffffffffffff16630f8af3c56040518163ffffffff167c010000000000000000000000000000000000000000000000000000000002815260040160206040518083038186803b15801561242757600080fd5b505afa15801561243b573d6000803e3d6000fd5b505050506040513d602081101561245157600080fd5b810190808051906020019092919050505081600160048110151561247157fe5b60200201818152505060005481600260048110151561248c57fe5b602002018181525050600173dabbdabbdabbdabbdabbdabbdabbdabbdabbdabb73ffffffffffffffffffffffffffffffffffffffff16635f329fb2306040518263ffffffff167c0100000000000000000000000000000000000000000000000000000000028152600401808273ffffffffffffffffffffffffffffffffffffffff1673ffffffffffffffffffffffffffffffffffffffff16815260200191505060206040518083038186803b15801561254457600080fd5b505afa158015612558573d6000803e3d6000fd5b505050506040513d602081101561256e57600080fd5b81019080805190602001909291905050500381600360048110151561258f57fe5b6020020181815250508173ffffffffffffffffffffffffffffffffffffffff16634bda28d18786886002866040518663ffffffff167c0100000000000000000000000000000000000000000000000000000000028152600401808673ffffffffffffffffffffffffffffffffffffffff1673ffffffffffffffffffffffffffffffffffffffff1681526020018581526020018060200184600281111561263157fe5b60ff16815260200183600460200280838360005b83811015612660578082015181840152602081019050612645565b50505050905001828103825285818151815260200191508051906020019080838360005b8381101561269f578082015181840152602081019050612684565b50505050905090810190601f1680156126cc5780820380516001836020036101000a031916815260200191505b509650505050505050600060405180830381600087803b1580156126ef57600080fd5b505af1158015612703573d6000803e3d6000fd5b50505050505050505050565b606060036040519080825280602002602001820160405280156127415781602001602082028038833980820191505090505b509050600c60009054906101000a900473ffffffffffffffffffffffffffffffffffffffff1673ffffffffffffffffffffffffffffffffffffffff1663b77728186040518163ffffffff167c010000000000000000000000000000000000000000000000000000000002815260040160206040518083038186803b1580156127c857600080fd5b505afa1580156127dc573d6000803e3d6000fd5b505050506040513d60208110156127f257600080fd5b810190808051906020019092919050505081600081518110151561281257fe5b9060200190602002018181525050600c60009054906101000a900473ffffffffffffffffffffffffffffffffffffffff1673ffffffffffffffffffffffffffffffffffffffff16630f8af3c56040518163ffffffff167c010000000000000000000000000000000000000000000000000000000002815260040160206040518083038186803b1580156128a457600080fd5b505afa1580156128b8573d6000803e3d6000fd5b505050506040513d60208110156128ce57600080fd5b81019080805190602001909291905050508160018151811015156128ee57fe5b906020019060200201818152505060005481600281518110151561290e57fe5b906020019060200201818152505073dabbdabbdabbdabbdabbdabbdabbdabbdabbdabb73ffffffffffffffffffffffffffffffffffffffff16634904a20c836001846040518463ffffffff167c0100000000000000000000000000000000000000000000000000000000028152600401808060200184815260200180602001838103835286818151815260200191508051906020019080838360005b838110156129c55780820151818401526020810190506129aa565b50505050905090810190601f1680156129f25780820380516001836020036101000a031916815260200191505b50838103825284818151815260200191508051906020019060200280838360005b83811015612a2e578082015181840152602081019050612a13565b5050505090500195505050505050600060405180830381600087803b158015612a5657600080fd5b505af1158015612a6a573d6000803e3d6000fd5b505050505050565b42600281905550565b6000600c60009054906101000a900473ffffffffffffffffffffffffffffffffffffffff1673ffffffffffffffffffffffffffffffffffffffff16631daa7a386040518163ffffffff167c010000000000000000000000000000000000000000000000000000000002815260040160206040518083038186803b158015612b0157600080fd5b505afa158015612b15573d6000803e3d6000fd5b505050506040513d6020811015612b2b57600080fd5b810190808051906020019092919050505073ffffffffffffffffffffffffffffffffffffffff168273ffffffffffffffffffffffffffffffffffffffff161415612b785760029050612eab565b600c60009054906101000a900473ffffffffffffffffffffffffffffffffffffffff1673ffffffffffffffffffffffffffffffffffffffff1663ac0677886040518163ffffffff167c010000000000000000000000000000000000000000000000000000000002815260040160206040518083038186803b158015612bfc57600080fd5b505afa158015612c10573d6000803e3d6000fd5b505050506040513d6020811015612c2657600080fd5b810190808051906020019092919050505073ffffffffffffffffffffffffffffffffffffffff16630d0175a96040518163ffffffff167c010000000000000000000000000000000000000000000000000000000002815260040160206040518083038186803b158015612c9857600080fd5b505afa158015612cac573d6000803e3d6000fd5b505050506040513d6020811015612cc257600080fd5b810190808051906020019092919050505073ffffffffffffffffffffffffffffffffffffffff168273ffffffffffffffffffffffffffffffffffffffff161415612d0f5760019050612eab565b600c60009054906101000a900473ffffffffffffffffffffffffffffffffffffffff1673ffffffffffffffffffffffffffffffffffffffff1663ac0677886040518163ffffffff167c010000000000000000000000000000000000000000000000000000000002815260040160206040518083038186803b158015612d9357600080fd5b505afa158015612da7573d6000803e3d6000fd5b505050506040513d6020811015612dbd57600080fd5b810190808051906020019092919050505073ffffffffffffffffffffffffffffffffffffffff1663fbbd21386040518163ffffffff167c010000000000000000000000000000000000000000000000000000000002815260040160206040518083038186803b158015612e2f57600080fd5b505afa158015612e43573d6000803e3d6000fd5b505050506040513d6020811015612e5957600080fd5b810190808051906020019092919050505073ffffffffffffffffffffffffffffffffffffffff168273ffffffffffffffffffffffffffffffffffffffff161415612ea65760039050612eab565b600090505b919050565b828054600181600116156101000203166002900490600052602060002090601f016020900481019282601f10612ef157803560ff1916838001178555612f1f565b82800160010185558215612f1f579182015b82811115612f1e578235825591602001919060010190612f03565b5b509050612f2c9190612f73565b5090565b6040516101b280612f9983390190565b6040516101b28061314b83390190565b608060405190810160405280600490602082028038833980820191505090505090565b612f9591905b80821115612f91576000816000905550600101612f79565b5090565b9056fe608060405234801561001057600080fd5b50610192806100206000396000f3fe608060405260043610610041576000357c0100000000000000000000000000000000000000000000000000000000900463ffffffff168063d4b83992146100a6575b6100a473dabadabadabadabadabadabadabadabadabadaba6000368080601f016020809104026020016040519081016040528093929190818152602001838380828437600081840152601f19601f820116905080830192505050505050506100fd565b005b3480156100b257600080fd5b506100bb61013b565b604051808273ffffffffffffffffffffffffffffffffffffffff1673ffffffffffffffffffffffffffffffffffffffff16815260200191505060405180910390f35b61010682610153565b151561011157600080fd5b600080825160208401856127105a03f43d604051816000823e8260008114610137578282f35b8282fd5b73dabadabadabadabadabadabadabadabadabadaba81565b600080823b90506000811191505091905056fea165627a7a72305820bfe31bd3867c2ffbc4c62b094df10ee78b7acb47ad355bcd50c22f98c0dcf9730029608060405234801561001057600080fd5b50610192806100206000396000f3fe608060405260043610610041576000357c0100000000000000000000000000000000000000000000000000000000900463ffffffff168063d4b83992146100a6575b6100a473beefbeefbeefbeefbeefbeefbeefbeefbeefbeef6000368080601f016020809104026020016040519081016040528093929190818152602001838380828437600081840152601f19601f820116905080830192505050505050506100fd565b005b3480156100b257600080fd5b506100bb61013b565b604051808273ffffffffffffffffffffffffffffffffffffffff1673ffffffffffffffffffffffffffffffffffffffff16815260200191505060405180910390f35b61010682610153565b151561011157600080fd5b600080825160208401856127105a03f43d604051816000823e8260008114610137578282f35b8282fd5b73beefbeefbeefbeefbeefbeefbeefbeefbeefbeef81565b600080823b90506000811191505091905056fea165627a7a72305820276e76d79a36bb731ba224be90c8a15bd265b79c545434b5bd78802a33ee14700029a165627a7a723058202643e078570387bd76dffcd7f1387958b1879b11a81b966e154d1ed9ab8f3f720029",
  "source": "pragma solidity ^0.5.0;\n\nimport \"./EthlanceRegistry.sol\";\nimport \"./EthlanceWorkContract.sol\";\nimport \"./EthlanceComment.sol\";\nimport \"./EthlanceFeedback.sol\";\nimport \"./proxy/Forwarder.sol\";       // target(EthlanceComment)\nimport \"./proxy/SecondForwarder.sol\"; // target(EthlanceFeedback)\n\n\n/// @title Represents a Employer / Candidate work dispute\ncontract EthlanceDispute {\n  uint public constant version = 1;\n  EthlanceRegistry public constant registry = EthlanceRegistry(0xdaBBdABbDABbDabbDaBbDabbDaBbdaBbdaBbDAbB);\n\n\n  //\n  // Constants\n  //\n  uint public constant GUEST_TYPE = 0;\n  uint public constant EMPLOYER_TYPE = 1;\n  uint public constant CANDIDATE_TYPE = 2;\n  uint public constant ARBITER_TYPE = 3;\n\n\n  //\n  // Members\n  //\n  uint public disputeIndex;\n    \n  uint public dateCreated;\n\n  uint public dateUpdated;\n\n  // When dateResolved is set >0, this reflects completion\n  uint public dateResolved;\n\n  // Title of dispute, describing the reason for the dispute\n  string public reason;\n\n  // The amount that the employer did receive as a result of\n  // resolution, with a token address for the type of ERC20 token.\n  uint public employerResolutionAmount;\n  address public employerResolutionToken;\n\n  // The amount that the candidate did receive as a result of\n  // resolution, with a token address for the type of ERC20 token.\n  uint public candidateResolutionAmount;\n  address public candidateResolutionToken;\n\n  // The amount that the arbiter did receive as a result of the\n  // resolution, with a token address for the type of ERC20 token.\n  uint public arbiterResolutionAmount;\n  address public arbiterResolutionToken;\n\n  // The entity that constructed contract\n  address public owner;\n\n  // The EthlanceWorkContract reference.\n  EthlanceWorkContract public workInstance;\n    \n  /// @dev Forwarder Constructor\n  /// @param _workInstance The EthlanceWorkContract parent instance for this Dispute.\n  /// @param _reason Short string defining the reason for the dispute\n  /// @param metahash A structure IPFS data structure defined by a\n  /// hash string. The hash is stored as the employer or the\n  /// candidate depending on is_employer_request.\n  function construct(EthlanceWorkContract _workInstance,\n                     uint _disputeIndex,\n                     string calldata _reason,\n                     string calldata metahash,\n                     bool is_employer_request) external {\n    require(owner == address(0), \"EthlanceDispute contract already constructed.\");\n    owner = msg.sender;\n\n    workInstance = _workInstance;\n    disputeIndex = _disputeIndex;\n    reason = _reason;\n    dateCreated = now;\n    dateUpdated = now;\n\n    // Fire off comment with provided metahash\n    if (is_employer_request) {\n      createComment(workInstance.storeInstance().employerAddress(), metahash);\n    }\n    else {\n      createComment(workInstance.candidateAddress(), metahash);\n    }\n\n    // Fire off event\n    fireEvent(\"DisputeCreated\");\n  }\n\n\n  function updateDateUpdated() private {\n    dateUpdated = now;\n  }\n\n    \n  /// @dev Resolves the dispute between the employer and the\n  /// candidate, and pays the employer and the candidate's the given\n  /// amounts.\n  /// @param _employerAmount The amount of tokens to pay the employer for resolution.\n  /// @param _employerToken The token address of the type of token, set to 0x0 for ETH.\n  /// @param _candidateAmount The amount of tokens to pay the candidate for resolution.\n  /// @param _candidateToken The token address of the type of token, set to 0x0 for ETH.\n  /// @param _arbiterAmount The amount of tokens to pay the arbiter for resolution.\n  /// @param _arbiterToken The token address of the type of token, set to 0x0 for ETH.\n  function resolve(uint _employerAmount,\n                   address _employerToken,\n                   uint _candidateAmount,\n                   address _candidateToken,\n                   uint _arbiterAmount,\n                   address _arbiterToken) external {\n    require(workInstance.storeInstance().acceptedArbiter() == msg.sender,\n            \"Only the accepted arbiter can resolve a dispute.\");\n    require(dateResolved == 0, \"This dispute has already been resolved.\");\n    workInstance.resolveDispute(_employerAmount, _employerToken,\n                                 _candidateAmount, _candidateToken,\n                                 _arbiterAmount, _arbiterToken);\n    employerResolutionAmount = _employerAmount;\n    employerResolutionToken = _employerToken;\n    candidateResolutionAmount = _candidateAmount;\n    candidateResolutionToken = _candidateToken;\n    arbiterResolutionAmount = _arbiterAmount;\n    arbiterResolutionToken = _arbiterToken;\n    dateResolved = now;\n    updateDateUpdated();\n\n    fireEvent(\"DisputeResolved\");\n  }\n\n    \n  /// @dev Returns true if the current dispute is resolved.\n  function isResolved() external view returns(bool) {\n    return dateResolved != 0;\n  }\n\n\n  /// @dev Fire events specific to the dispute.\n  /// @param eventName Unique to give the fired event\n  function fireEvent(string memory eventName) private {\n    uint[] memory eventData = new uint[](3);\n    eventData[0] = workInstance.jobIndex();\n    eventData[1] = workInstance.workIndex();\n    eventData[2] = disputeIndex;\n\n    registry.fireEvent(eventName, version, eventData);\n  }\n\n\n  /// @dev Returns the user type, either CANDIDATE_TYPE,\n  /// EMPLOYER_TYPE, ARBITER_TYPE, or GUEST_TYPE for the given\n  /// address.\n  function getUserType(address _address) private returns (uint) {\n    if (_address == workInstance.candidateAddress()) {\n      return CANDIDATE_TYPE;\n    }\n    else if (_address == workInstance.storeInstance().employerAddress()) {\n      return EMPLOYER_TYPE;\n    }\n    else if (_address == workInstance.storeInstance().acceptedArbiter()) {\n      return ARBITER_TYPE;\n    }\n    else {\n      return GUEST_TYPE;\n    }\n  }\n\n\n  /// @dev Public function for authorized users to create comments\n  /// on the given dispute.\n  function addComment(string calldata metahash) external {\n    createComment(msg.sender, metahash);\n  }\n\n\n  /// @dev Place a comment on the dispute linked to the given user\n  /// address\n  function createComment(address userAddress, string memory metahash) private {\n    uint userType = getUserType(userAddress);\n    require(userType != GUEST_TYPE,\n            \"Only the candidate, employer, and arbiter can comment.\");\n  \n    // Create the forwarded contract\n    Forwarder fwd = new Forwarder(); // Proxy Contract\n    // target(EthlanceComment)\n    EthlanceComment comment = EthlanceComment(address(fwd));\n\n    // Permit Comment to fire registry events\n    registry.permitDispatch(address(fwd));\n\n    // Add comment to the registry comment listing\n    registry.pushComment(address(this), address(comment));\n\n    uint[4] memory index;\n    index[0] = workInstance.storeInstance().jobIndex();\n    index[1] = workInstance.workIndex();\n    index[2] = disputeIndex;\n    index[3] = registry.getCommentCount(address(this)) - 1;\n\n    // Construct the comment contract\n    comment.construct(userAddress,\n                      userType,\n                      metahash,\n                      EthlanceComment.CommentType.Dispute,\n                      index);\n  }\n\n\n  /// @dev Leave feedback for the arbiter in the given Dispute.\n  /*\n    Notes:\n\n    - Only the candidate and the employer can leave feedback on a dispute.\n  */\n  function leaveFeedback(uint rating, string calldata metahash) external {\n    uint userType = getUserType(msg.sender);\n    require(userType == CANDIDATE_TYPE || userType == EMPLOYER_TYPE,\n            \"Only the candidate or the employer, can leave feedback for the arbiter.\");\n  \n    address toUserAddress = workInstance.storeInstance().acceptedArbiter();\n    uint toUserType = ARBITER_TYPE;\n\n    // Check and create forwarded feedback contract instance\n    EthlanceFeedback feedback;\n    if (!registry.hasFeedback(address(workInstance))) {\n      SecondForwarder fwd = new SecondForwarder(); // Proxy Contract\n                                                   // target(EthlanceFeedback)\n\n      feedback = EthlanceFeedback(address(fwd));\n\n      // Permit Feedback to fire registry events\n      registry.permitDispatch(address(fwd));\n      \n      // Add feedback to the registry feedback listing\n      registry.pushFeedback(address(workInstance), address(feedback));\n      \n      // Construct the feedback contract\n      feedback.construct(address(workInstance),\n                         workInstance.storeInstance().jobIndex(),\n                         workInstance.workIndex());\n    }\n    else {\n      feedback = EthlanceFeedback(registry.getFeedbackByAddress(address(workInstance)));\n    }\n\n    feedback.update(msg.sender,\n                    toUserAddress,\n                    userType,\n                    toUserType,\n                    metahash,\n                    rating);\n  }\n}\n",
  "sourcePath": "/home/benzap/projects/ethlance/contracts/EthlanceDispute.sol",
  "compiler": {
    "name": "solc",
    "version": "0.5.0+commit.1d4f565a.Emscripten.clang"
  },
  "schemaVersion": "3.0.9",
  "updatedAt": "2019-05-14T23:51:40.081Z",
  "devdoc": {
    "methods": {
      "addComment(string)": {
        "details": "Public function for authorized users to create comments on the given dispute."
      },
      "construct(address,uint256,string,string,bool)": {
        "details": "Forwarder Constructor",
        "params": {
          "_reason": "Short string defining the reason for the dispute",
          "_workInstance": "The EthlanceWorkContract parent instance for this Dispute.",
          "metahash": "A structure IPFS data structure defined by a hash string. The hash is stored as the employer or the candidate depending on is_employer_request."
        }
      },
      "isResolved()": {
        "details": "Returns true if the current dispute is resolved."
      },
      "leaveFeedback(uint256,string)": {
        "details": "Leave feedback for the arbiter in the given Dispute."
      },
      "resolve(uint256,address,uint256,address,uint256,address)": {
        "details": "Resolves the dispute between the employer and the candidate, and pays the employer and the candidate's the given amounts.",
        "params": {
          "_arbiterAmount": "The amount of tokens to pay the arbiter for resolution.",
          "_arbiterToken": "The token address of the type of token, set to 0x0 for ETH.",
          "_candidateAmount": "The amount of tokens to pay the candidate for resolution.",
          "_candidateToken": "The token address of the type of token, set to 0x0 for ETH.",
          "_employerAmount": "The amount of tokens to pay the employer for resolution.",
          "_employerToken": "The token address of the type of token, set to 0x0 for ETH."
        }
      }
    },
    "title": "Represents a Employer / Candidate work dispute"
  },
  "userdoc": {
    "methods": {}
  }
}