{
  "contractName": "EthlanceJobStore",
  "abi": [
    {
      "constant": true,
      "inputs": [],
      "name": "isInvitationOnly",
      "outputs": [
        {
          "name": "",
          "type": "bool"
        }
      ],
      "payable": false,
      "stateMutability": "view",
      "type": "function"
    },
    {
      "constant": true,
      "inputs": [],
      "name": "dateUpdated",
      "outputs": [
        {
          "name": "",
          "type": "uint256"
        }
      ],
      "payable": false,
      "stateMutability": "view",
      "type": "function"
    },
    {
      "constant": true,
      "inputs": [],
      "name": "bidOption",
      "outputs": [
        {
          "name": "",
          "type": "uint8"
        }
      ],
      "payable": false,
      "stateMutability": "view",
      "type": "function"
    },
    {
      "constant": true,
      "inputs": [],
      "name": "metahash",
      "outputs": [
        {
          "name": "",
          "type": "string"
        }
      ],
      "payable": false,
      "stateMutability": "view",
      "type": "function"
    },
    {
      "constant": true,
      "inputs": [],
      "name": "employerAddress",
      "outputs": [
        {
          "name": "",
          "type": "address"
        }
      ],
      "payable": false,
      "stateMutability": "view",
      "type": "function"
    },
    {
      "constant": true,
      "inputs": [],
      "name": "rewardValue",
      "outputs": [
        {
          "name": "",
          "type": "uint256"
        }
      ],
      "payable": false,
      "stateMutability": "view",
      "type": "function"
    },
    {
      "constant": true,
      "inputs": [],
      "name": "dateCreated",
      "outputs": [
        {
          "name": "",
          "type": "uint256"
        }
      ],
      "payable": false,
      "stateMutability": "view",
      "type": "function"
    },
    {
      "constant": true,
      "inputs": [
        {
          "name": "",
          "type": "address"
        }
      ],
      "name": "arbiterRequestMapping",
      "outputs": [
        {
          "name": "",
          "type": "uint256"
        }
      ],
      "payable": false,
      "stateMutability": "view",
      "type": "function"
    },
    {
      "constant": true,
      "inputs": [
        {
          "name": "",
          "type": "uint256"
        }
      ],
      "name": "arbiterRequestListing",
      "outputs": [
        {
          "name": "isEmployerRequest",
          "type": "bool"
        },
        {
          "name": "dateRequested",
          "type": "uint256"
        },
        {
          "name": "arbiterAddress",
          "type": "address"
        }
      ],
      "payable": false,
      "stateMutability": "view",
      "type": "function"
    },
    {
      "constant": true,
      "inputs": [],
      "name": "version",
      "outputs": [
        {
          "name": "",
          "type": "uint256"
        }
      ],
      "payable": false,
      "stateMutability": "view",
      "type": "function"
    },
    {
      "constant": true,
      "inputs": [],
      "name": "tokenStore",
      "outputs": [
        {
          "name": "",
          "type": "address"
        }
      ],
      "payable": false,
      "stateMutability": "view",
      "type": "function"
    },
    {
      "constant": true,
      "inputs": [
        {
          "name": "",
          "type": "address"
        }
      ],
      "name": "workContractMapping",
      "outputs": [
        {
          "name": "",
          "type": "bool"
        }
      ],
      "payable": false,
      "stateMutability": "view",
      "type": "function"
    },
    {
      "constant": true,
      "inputs": [],
      "name": "registry",
      "outputs": [
        {
          "name": "",
          "type": "address"
        }
      ],
      "payable": false,
      "stateMutability": "view",
      "type": "function"
    },
    {
      "constant": true,
      "inputs": [],
      "name": "BID_OPTION_BOUNTY",
      "outputs": [
        {
          "name": "",
          "type": "uint8"
        }
      ],
      "payable": false,
      "stateMutability": "view",
      "type": "function"
    },
    {
      "constant": true,
      "inputs": [],
      "name": "jobIndex",
      "outputs": [
        {
          "name": "",
          "type": "uint256"
        }
      ],
      "payable": false,
      "stateMutability": "view",
      "type": "function"
    },
    {
      "constant": true,
      "inputs": [],
      "name": "estimatedLengthSeconds",
      "outputs": [
        {
          "name": "",
          "type": "uint256"
        }
      ],
      "payable": false,
      "stateMutability": "view",
      "type": "function"
    },
    {
      "constant": true,
      "inputs": [],
      "name": "dateFinished",
      "outputs": [
        {
          "name": "",
          "type": "uint256"
        }
      ],
      "payable": false,
      "stateMutability": "view",
      "type": "function"
    },
    {
      "constant": true,
      "inputs": [
        {
          "name": "",
          "type": "uint256"
        }
      ],
      "name": "workContractListing",
      "outputs": [
        {
          "name": "",
          "type": "address"
        }
      ],
      "payable": false,
      "stateMutability": "view",
      "type": "function"
    },
    {
      "constant": true,
      "inputs": [],
      "name": "includeEtherToken",
      "outputs": [
        {
          "name": "",
          "type": "bool"
        }
      ],
      "payable": false,
      "stateMutability": "view",
      "type": "function"
    },
    {
      "constant": true,
      "inputs": [],
      "name": "acceptedArbiter",
      "outputs": [
        {
          "name": "",
          "type": "address"
        }
      ],
      "payable": false,
      "stateMutability": "view",
      "type": "function"
    },
    {
      "constant": false,
      "inputs": [
        {
          "name": "_jobIndex",
          "type": "uint256"
        },
        {
          "name": "_employerAddress",
          "type": "address"
        },
        {
          "name": "_bidOption",
          "type": "uint8"
        },
        {
          "name": "_estimatedLengthSeconds",
          "type": "uint256"
        },
        {
          "name": "_includeEtherToken",
          "type": "bool"
        },
        {
          "name": "_isInvitationOnly",
          "type": "bool"
        },
        {
          "name": "_metahash",
          "type": "string"
        },
        {
          "name": "_rewardValue",
          "type": "uint256"
        }
      ],
      "name": "construct",
      "outputs": [],
      "payable": false,
      "stateMutability": "nonpayable",
      "type": "function"
    },
    {
      "constant": false,
      "inputs": [
        {
          "name": "_metahash",
          "type": "string"
        }
      ],
      "name": "updateMetahash",
      "outputs": [],
      "payable": false,
      "stateMutability": "nonpayable",
      "type": "function"
    },
    {
      "constant": false,
      "inputs": [
        {
          "name": "candidateAddress",
          "type": "address"
        }
      ],
      "name": "requestWorkContract",
      "outputs": [],
      "payable": false,
      "stateMutability": "nonpayable",
      "type": "function"
    },
    {
      "constant": false,
      "inputs": [
        {
          "name": "arbiterAddress",
          "type": "address"
        }
      ],
      "name": "requestArbiter",
      "outputs": [],
      "payable": false,
      "stateMutability": "nonpayable",
      "type": "function"
    },
    {
      "constant": true,
      "inputs": [],
      "name": "getRequestedArbiterCount",
      "outputs": [
        {
          "name": "",
          "type": "uint256"
        }
      ],
      "payable": false,
      "stateMutability": "view",
      "type": "function"
    },
    {
      "constant": true,
      "inputs": [
        {
          "name": "index",
          "type": "uint256"
        }
      ],
      "name": "getRequestedArbiterByIndex",
      "outputs": [
        {
          "name": "isEmployerRequest",
          "type": "bool"
        },
        {
          "name": "dateRequested",
          "type": "uint256"
        },
        {
          "name": "arbiterAddress",
          "type": "address"
        }
      ],
      "payable": false,
      "stateMutability": "view",
      "type": "function"
    },
    {
      "constant": true,
      "inputs": [],
      "name": "getWorkContractCount",
      "outputs": [
        {
          "name": "",
          "type": "uint256"
        }
      ],
      "payable": false,
      "stateMutability": "view",
      "type": "function"
    },
    {
      "constant": true,
      "inputs": [
        {
          "name": "index",
          "type": "uint256"
        }
      ],
      "name": "getWorkContractByIndex",
      "outputs": [
        {
          "name": "",
          "type": "address"
        }
      ],
      "payable": false,
      "stateMutability": "view",
      "type": "function"
    },
    {
      "constant": false,
      "inputs": [
        {
          "name": "employerAmount",
          "type": "uint256"
        },
        {
          "name": "employerToken",
          "type": "address"
        },
        {
          "name": "candidateAmount",
          "type": "uint256"
        },
        {
          "name": "candidateToken",
          "type": "address"
        },
        {
          "name": "arbiterAmount",
          "type": "uint256"
        },
        {
          "name": "arbiterToken",
          "type": "address"
        },
        {
          "name": "candidateAddress",
          "type": "address"
        }
      ],
      "name": "resolveDispute",
      "outputs": [],
      "payable": false,
      "stateMutability": "nonpayable",
      "type": "function"
    },
    {
      "constant": false,
      "inputs": [
        {
          "name": "candidateAddress",
          "type": "address"
        },
        {
          "name": "amountPaid",
          "type": "uint256"
        }
      ],
      "name": "payInvoice",
      "outputs": [],
      "payable": false,
      "stateMutability": "nonpayable",
      "type": "function"
    },
    {
      "constant": false,
      "inputs": [
        {
          "name": "candidateAddress",
          "type": "address"
        },
        {
          "name": "amountPaid",
          "type": "uint256"
        },
        {
          "name": "tokenAddress",
          "type": "address"
        }
      ],
      "name": "payInvoice",
      "outputs": [],
      "payable": false,
      "stateMutability": "nonpayable",
      "type": "function"
    },
    {
      "constant": false,
      "inputs": [],
      "name": "fund",
      "outputs": [],
      "payable": true,
      "stateMutability": "payable",
      "type": "function"
    },
    {
      "constant": false,
      "inputs": [
        {
          "name": "tokenAddress",
          "type": "address"
        },
        {
          "name": "amount",
          "type": "uint256"
        }
      ],
      "name": "fundToken",
      "outputs": [],
      "payable": false,
      "stateMutability": "nonpayable",
      "type": "function"
    }
  ],
  "bytecode": "0x608060405234801561001057600080fd5b50613877806100206000396000f3fe6080604052600436106101ed5760003560e01c8063718e709b1161010d578063c62cd343116100a0578063e0cb51ee1161006f578063e0cb51ee14610b69578063e30c625514610b94578063ef63b5c814610c0f578063f8bb797d14610c3e578063fbbd213814610cc4576101ed565b8063c62cd34314610a3d578063d411b8b514610ab8578063d7175a8314610b13578063defeaaf914610b3e576101ed565b8063b60d4288116100dc578063b60d428814610900578063b77728181461090a578063bdacf65114610935578063c5f1650a146109c2576101ed565b8063718e709b146107be5780637b10399914610827578063905ee4741461087e578063b0b05bae146108af576101ed565b80631f741c7a116101855780634404db0f116101545780634404db0f1461065e57806350461922146106af57806354fd4d501461073c5780636193063014610767576101ed565b80631f741c7a146105485780632aad16941461057357806330c6faeb146105d85780633d3c69f614610633576101ed565b8063063c3e03116101c1578063063c3e031461034c578063073a46d9146104365780630d0175a9146104c657806312c7df731461051d576101ed565b8062955650146101f257806301c02d7c146102c15780630201e535146102f0578063024302791461031b575b600080fd5b3480156101fe57600080fd5b506102bf600480360360e081101561021557600080fd5b8101908080359060200190929190803573ffffffffffffffffffffffffffffffffffffffff16906020019092919080359060200190929190803573ffffffffffffffffffffffffffffffffffffffff16906020019092919080359060200190929190803573ffffffffffffffffffffffffffffffffffffffff169060200190929190803573ffffffffffffffffffffffffffffffffffffffff169060200190929190505050610d1b565b005b3480156102cd57600080fd5b506102d6610fac565b604051808215151515815260200191505060405180910390f35b3480156102fc57600080fd5b50610305610fbf565b6040518082815260200191505060405180910390f35b34801561032757600080fd5b50610330610fc5565b604051808260ff1660ff16815260200191505060405180910390f35b34801561035857600080fd5b50610434600480360361010081101561037057600080fd5b8101908080359060200190929190803573ffffffffffffffffffffffffffffffffffffffff169060200190929190803560ff16906020019092919080359060200190929190803515159060200190929190803515159060200190929190803590602001906401000000008111156103e657600080fd5b8201836020820111156103f857600080fd5b8035906020019184600183028401116401000000008311171561041a57600080fd5b909192939192939080359060200190929190505050610fd8565b005b34801561044257600080fd5b5061044b611236565b6040518080602001828103825283818151815260200191508051906020019080838360005b8381101561048b578082015181840152602081019050610470565b50505050905090810190601f1680156104b85780820380516001836020036101000a031916815260200191505b509250505060405180910390f35b3480156104d257600080fd5b506104db6112d4565b604051808273ffffffffffffffffffffffffffffffffffffffff1673ffffffffffffffffffffffffffffffffffffffff16815260200191505060405180910390f35b34801561052957600080fd5b506105326112fa565b6040518082815260200191505060405180910390f35b34801561055457600080fd5b5061055d611300565b6040518082815260200191505060405180910390f35b34801561057f57600080fd5b506105c26004803603602081101561059657600080fd5b81019080803573ffffffffffffffffffffffffffffffffffffffff169060200190929190505050611306565b6040518082815260200191505060405180910390f35b3480156105e457600080fd5b50610631600480360360408110156105fb57600080fd5b81019080803573ffffffffffffffffffffffffffffffffffffffff1690602001909291908035906020019092919050505061131e565b005b34801561063f57600080fd5b50610648611437565b6040518082815260200191505060405180910390f35b34801561066a57600080fd5b506106ad6004803603602081101561068157600080fd5b81019080803573ffffffffffffffffffffffffffffffffffffffff169060200190929190505050611444565b005b3480156106bb57600080fd5b506106e8600480360360208110156106d257600080fd5b8101908080359060200190929190505050612180565b60405180841515151581526020018381526020018273ffffffffffffffffffffffffffffffffffffffff1673ffffffffffffffffffffffffffffffffffffffff168152602001935050505060405180910390f35b34801561074857600080fd5b506107516121e4565b6040518082815260200191505060405180910390f35b34801561077357600080fd5b5061077c6121e9565b604051808273ffffffffffffffffffffffffffffffffffffffff1673ffffffffffffffffffffffffffffffffffffffff16815260200191505060405180910390f35b3480156107ca57600080fd5b5061080d600480360360208110156107e157600080fd5b81019080803573ffffffffffffffffffffffffffffffffffffffff16906020019092919050505061220f565b604051808215151515815260200191505060405180910390f35b34801561083357600080fd5b5061083c61222f565b604051808273ffffffffffffffffffffffffffffffffffffffff1673ffffffffffffffffffffffffffffffffffffffff16815260200191505060405180910390f35b34801561088a57600080fd5b50610893612247565b604051808260ff1660ff16815260200191505060405180910390f35b3480156108bb57600080fd5b506108fe600480360360208110156108d257600080fd5b81019080803573ffffffffffffffffffffffffffffffffffffffff16906020019092919050505061224c565b005b610908612884565b005b34801561091657600080fd5b5061091f6128eb565b6040518082815260200191505060405180910390f35b34801561094157600080fd5b5061096e6004803603602081101561095857600080fd5b81019080803590602001909291905050506128f1565b60405180841515151581526020018381526020018273ffffffffffffffffffffffffffffffffffffffff1673ffffffffffffffffffffffffffffffffffffffff168152602001935050505060405180910390f35b3480156109ce57600080fd5b506109fb600480360360208110156109e557600080fd5b8101908080359060200190929190505050612a38565b604051808273ffffffffffffffffffffffffffffffffffffffff1673ffffffffffffffffffffffffffffffffffffffff16815260200191505060405180910390f35b348015610a4957600080fd5b50610ab660048036036060811015610a6057600080fd5b81019080803573ffffffffffffffffffffffffffffffffffffffff16906020019092919080359060200190929190803573ffffffffffffffffffffffffffffffffffffffff169060200190929190505050612af3565b005b348015610ac457600080fd5b50610b1160048036036040811015610adb57600080fd5b81019080803573ffffffffffffffffffffffffffffffffffffffff16906020019092919080359060200190929190505050612b61565b005b348015610b1f57600080fd5b50610b28612bcf565b6040518082815260200191505060405180910390f35b348015610b4a57600080fd5b50610b53612bdc565b6040518082815260200191505060405180910390f35b348015610b7557600080fd5b50610b7e612be2565b6040518082815260200191505060405180910390f35b348015610ba057600080fd5b50610bcd60048036036020811015610bb757600080fd5b8101908080359060200190929190505050612be8565b604051808273ffffffffffffffffffffffffffffffffffffffff1673ffffffffffffffffffffffffffffffffffffffff16815260200191505060405180910390f35b348015610c1b57600080fd5b50610c24612c24565b604051808215151515815260200191505060405180910390f35b348015610c4a57600080fd5b50610cc260048036036020811015610c6157600080fd5b8101908080359060200190640100000000811115610c7e57600080fd5b820183602082011115610c9057600080fd5b80359060200191846001830284011164010000000083111715610cb257600080fd5b9091929391929390505050612c37565b005b348015610cd057600080fd5b50610cd9612cf3565b604051808273ffffffffffffffffffffffffffffffffffffffff1673ffffffffffffffffffffffffffffffffffffffff16815260200191505060405180910390f35b600073ffffffffffffffffffffffffffffffffffffffff168673ffffffffffffffffffffffffffffffffffffffff16148015610d835750600073ffffffffffffffffffffffffffffffffffffffff168473ffffffffffffffffffffffffffffffffffffffff16145b8015610dbb5750600073ffffffffffffffffffffffffffffffffffffffff168273ffffffffffffffffffffffffffffffffffffffff16145b610e10576040517f08c379a00000000000000000000000000000000000000000000000000000000081526004018080602001828103825260218152602001806137db6021913960400191505060405180910390fd5b600083868901019050803073ffffffffffffffffffffffffffffffffffffffff16311015610e89576040517f08c379a00000000000000000000000000000000000000000000000000000000081526004018080602001828103825260358152602001806136896035913960400191505060405180910390fd5b600560009054906101000a900473ffffffffffffffffffffffffffffffffffffffff1673ffffffffffffffffffffffffffffffffffffffff166108fc899081150290604051600060405180830381858888f19350505050158015610ef1573d6000803e3d6000fd5b508173ffffffffffffffffffffffffffffffffffffffff166108fc879081150290604051600060405180830381858888f19350505050158015610f38573d6000803e3d6000fd5b50600160009054906101000a900473ffffffffffffffffffffffffffffffffffffffff1673ffffffffffffffffffffffffffffffffffffffff166108fc859081150290604051600060405180830381858888f19350505050158015610fa1573d6000803e3d6000fd5b505050505050505050565b600760019054906101000a900460ff1681565b60035481565b600160149054906101000a900460ff1681565b8860008190555087600560006101000a81548173ffffffffffffffffffffffffffffffffffffffff021916908373ffffffffffffffffffffffffffffffffffffffff16021790555086600160146101000a81548160ff021916908360ff1602179055508560068190555084600760006101000a81548160ff02191690831515021790555083600760016101000a81548160ff02191690831515021790555082826008919061108792919061312f565b5080600981905550600060405161109d906131af565b604051809103906000f0801580156110b9573d6000803e3d6000fd5b50905080600a60006101000a81548173ffffffffffffffffffffffffffffffffffffffff021916908373ffffffffffffffffffffffffffffffffffffffff16021790555073dabbdabbdabbdabbdabbdabbdabbdabbdabbdabb73ffffffffffffffffffffffffffffffffffffffff166304d64386826040518263ffffffff1660e01b8152600401808273ffffffffffffffffffffffffffffffffffffffff1673ffffffffffffffffffffffffffffffffffffffff168152602001915050600060405180830381600087803b15801561119057600080fd5b505af11580156111a4573d6000803e3d6000fd5b50505050600a60009054906101000a900473ffffffffffffffffffffffffffffffffffffffff1673ffffffffffffffffffffffffffffffffffffffff166394b91deb6040518163ffffffff1660e01b8152600401600060405180830381600087803b15801561121257600080fd5b505af1158015611226573d6000803e3d6000fd5b5050505050505050505050505050565b60088054600181600116156101000203166002900480601f0160208091040260200160405190810160405280929190818152602001828054600181600116156101000203166002900480156112cc5780601f106112a1576101008083540402835291602001916112cc565b820191906000526020600020905b8154815290600101906020018083116112af57829003601f168201915b505050505081565b600560009054906101000a900473ffffffffffffffffffffffffffffffffffffffff1681565b60095481565b60025481565b600c6020528060005260406000206000915090505481565b61132733612d19565b61137c576040517f08c379a00000000000000000000000000000000000000000000000000000000081526004018080602001828103825260438152602001806136466043913960600191505060405180910390fd5b803073ffffffffffffffffffffffffffffffffffffffff163110156113ec576040517f08c379a00000000000000000000000000000000000000000000000000000000081526004018080602001828103825260308152602001806137346030913960400191505060405180910390fd5b8173ffffffffffffffffffffffffffffffffffffffff166108fc829081150290604051600060405180830381858888f19350505050158015611432573d6000803e3d6000fd5b505050565b6000600d80549050905090565b73dabbdabbdabbdabbdabbdabbdabbdabbdabbdabb73ffffffffffffffffffffffffffffffffffffffff16631f5bdf5d826040518263ffffffff1660e01b8152600401808273ffffffffffffffffffffffffffffffffffffffff1673ffffffffffffffffffffffffffffffffffffffff16815260200191505060206040518083038186803b1580156114d557600080fd5b505afa1580156114e9573d6000803e3d6000fd5b505050506040513d60208110156114ff57600080fd5b8101908080519060200190929190505050611565576040517f08c379a000000000000000000000000000000000000000000000000000000000815260040180806020018281038252602781526020018061361f6027913960400191505060405180910390fd5b73dabbdabbdabbdabbdabbdabbdabbdabbdabbdabb73ffffffffffffffffffffffffffffffffffffffff1663c20ae75a826040518263ffffffff1660e01b8152600401808273ffffffffffffffffffffffffffffffffffffffff1673ffffffffffffffffffffffffffffffffffffffff16815260200191505060206040518083038186803b1580156115f657600080fd5b505afa15801561160a573d6000803e3d6000fd5b505050506040513d602081101561162057600080fd5b8101908080519060200190929190505050611686576040517f08c379a000000000000000000000000000000000000000000000000000000000815260040180806020018281038252602a8152602001806135f5602a913960400191505060405180910390fd5b600073ffffffffffffffffffffffffffffffffffffffff16600160009054906101000a900473ffffffffffffffffffffffffffffffffffffffff1673ffffffffffffffffffffffffffffffffffffffff161461174a576040517f08c379a00000000000000000000000000000000000000000000000000000000081526004018080602001828103825260198152602001807f4172626974657220616c72656164792061636365707465642e0000000000000081525060200191505060405180910390fd5b600560009054906101000a900473ffffffffffffffffffffffffffffffffffffffff1673ffffffffffffffffffffffffffffffffffffffff168173ffffffffffffffffffffffffffffffffffffffff1614156117f1576040517f08c379a00000000000000000000000000000000000000000000000000000000081526004018080602001828103825260378152602001806135946037913960400191505060405180910390fd5b600560009054906101000a900473ffffffffffffffffffffffffffffffffffffffff1673ffffffffffffffffffffffffffffffffffffffff163373ffffffffffffffffffffffffffffffffffffffff16148061187857508073ffffffffffffffffffffffffffffffffffffffff163373ffffffffffffffffffffffffffffffffffffffff16145b6118cd576040517f08c379a00000000000000000000000000000000000000000000000000000000081526004018080602001828103825260508152602001806137fc6050913960600191505060405180910390fd5b6000808273ffffffffffffffffffffffffffffffffffffffff163373ffffffffffffffffffffffffffffffffffffffff161415611d41576000600c60008573ffffffffffffffffffffffffffffffffffffffff1673ffffffffffffffffffffffffffffffffffffffff168152602001908152602001600020541415611c6757600b60405180606001604052806000151581526020014281526020018573ffffffffffffffffffffffffffffffffffffffff168152509080600181540180825580915050906001820390600052602060002090600302016000909192909190915060008201518160000160006101000a81548160ff0219169083151502179055506020820151816001015560408201518160020160006101000a81548173ffffffffffffffffffffffffffffffffffffffff021916908373ffffffffffffffffffffffffffffffffffffffff160217905550505050600b80549050600c60008573ffffffffffffffffffffffffffffffffffffffff1673ffffffffffffffffffffffffffffffffffffffff1681526020019081526020016000208190555060606002604051908082528060200260200182016040528015611a9c5781602001602082028038833980820191505090505b50905060005481600081518110611aaf57fe5b60200260200101818152505073dabbdabbdabbdabbdabbdabbdabbdabbdabbdabb73ffffffffffffffffffffffffffffffffffffffff166369c212f6856040518263ffffffff1660e01b8152600401808273ffffffffffffffffffffffffffffffffffffffff1673ffffffffffffffffffffffffffffffffffffffff16815260200191505060206040518083038186803b158015611b4c57600080fd5b505afa158015611b60573d6000803e3d6000fd5b505050506040513d6020811015611b7657600080fd5b810190808051906020019092919050505073ffffffffffffffffffffffffffffffffffffffff1663589759196040518163ffffffff1660e01b815260040160206040518083038186803b158015611bcc57600080fd5b505afa158015611be0573d6000803e3d6000fd5b505050506040513d6020811015611bf657600080fd5b810190808051906020019092919050505081600181518110611c1457fe5b602002602001018181525050611c5f6040518060400160405280601381526020017f4a6f62417262697465725265717565737465640000000000000000000000000081525082612dbb565b50505061217d565b6001600c60008573ffffffffffffffffffffffffffffffffffffffff1673ffffffffffffffffffffffffffffffffffffffff16815260200190815260200160002054039150600b8281548110611cb957fe5b906000526020600020906003020160000160009054906101000a900460ff1690508015611cf057611ce983612ef5565b505061217d565b6040517f08c379a00000000000000000000000000000000000000000000000000000000081526004018080602001828103825260228152602001806136e66022913960400191505060405180910390fd5b6000600c60008573ffffffffffffffffffffffffffffffffffffffff1673ffffffffffffffffffffffffffffffffffffffff1681526020019081526020016000205414156120a457600b60405180606001604052806001151581526020014281526020018573ffffffffffffffffffffffffffffffffffffffff168152509080600181540180825580915050906001820390600052602060002090600302016000909192909190915060008201518160000160006101000a81548160ff0219169083151502179055506020820151816001015560408201518160020160006101000a81548173ffffffffffffffffffffffffffffffffffffffff021916908373ffffffffffffffffffffffffffffffffffffffff160217905550505050600b80549050600c60008573ffffffffffffffffffffffffffffffffffffffff1673ffffffffffffffffffffffffffffffffffffffff1681526020019081526020016000208190555060606002604051908082528060200260200182016040528015611ed95781602001602082028038833980820191505090505b50905060005481600081518110611eec57fe5b60200260200101818152505073dabbdabbdabbdabbdabbdabbdabbdabbdabbdabb73ffffffffffffffffffffffffffffffffffffffff166369c212f6856040518263ffffffff1660e01b8152600401808273ffffffffffffffffffffffffffffffffffffffff1673ffffffffffffffffffffffffffffffffffffffff16815260200191505060206040518083038186803b158015611f8957600080fd5b505afa158015611f9d573d6000803e3d6000fd5b505050506040513d6020811015611fb357600080fd5b810190808051906020019092919050505073ffffffffffffffffffffffffffffffffffffffff1663589759196040518163ffffffff1660e01b815260040160206040518083038186803b15801561200957600080fd5b505afa15801561201d573d6000803e3d6000fd5b505050506040513d602081101561203357600080fd5b81019080805190602001909291905050508160018151811061205157fe5b60200260200101818152505061209c6040518060400160405280601381526020017f4a6f62417262697465725265717565737465640000000000000000000000000081525082612dbb565b50505061217d565b6001600c60008573ffffffffffffffffffffffffffffffffffffffff1673ffffffffffffffffffffffffffffffffffffffff16815260200190815260200160002054039150600b82815481106120f657fe5b906000526020600020906003020160000160009054906101000a900460ff1690508061212c5761212583612ef5565b505061217d565b6040517f08c379a000000000000000000000000000000000000000000000000000000000815260040180806020018281038252602c815260200180613708602c913960400191505060405180910390fd5b50565b600b818154811061218d57fe5b90600052602060002090600302016000915090508060000160009054906101000a900460ff16908060010154908060020160009054906101000a900473ffffffffffffffffffffffffffffffffffffffff16905083565b600181565b600a60009054906101000a900473ffffffffffffffffffffffffffffffffffffffff1681565b600e6020528060005260406000206000915054906101000a900460ff1681565b73dabbdabbdabbdabbdabbdabbdabbdabbdabbdabb81565b600381565b73dabbdabbdabbdabbdabbdabbdabbdabbdabbdabb73ffffffffffffffffffffffffffffffffffffffff16631f5bdf5d826040518263ffffffff1660e01b8152600401808273ffffffffffffffffffffffffffffffffffffffff1673ffffffffffffffffffffffffffffffffffffffff16815260200191505060206040518083038186803b1580156122dd57600080fd5b505afa1580156122f1573d6000803e3d6000fd5b505050506040513d602081101561230757600080fd5b810190808051906020019092919050505061236d576040517f08c379a000000000000000000000000000000000000000000000000000000000815260040180806020018281038252602781526020018061361f6027913960400191505060405180910390fd5b600560009054906101000a900473ffffffffffffffffffffffffffffffffffffffff1673ffffffffffffffffffffffffffffffffffffffff163373ffffffffffffffffffffffffffffffffffffffff1614806123f457508073ffffffffffffffffffffffffffffffffffffffff163373ffffffffffffffffffffffffffffffffffffffff16145b612449576040517f08c379a00000000000000000000000000000000000000000000000000000000081526004018080602001828103825260778152602001806137646077913960800191505060405180910390fd5b60001515600e60008373ffffffffffffffffffffffffffffffffffffffff1673ffffffffffffffffffffffffffffffffffffffff16815260200190815260200160002060009054906101000a900460ff161515146124f2576040517f08c379a000000000000000000000000000000000000000000000000000000000815260040180806020018281038252602e815260200180613542602e913960400191505060405180910390fd5b8073ffffffffffffffffffffffffffffffffffffffff16600560009054906101000a900473ffffffffffffffffffffffffffffffffffffffff1673ffffffffffffffffffffffffffffffffffffffff161415612599576040517f08c379a00000000000000000000000000000000000000000000000000000000081526004018080602001828103825260248152602001806135706024913960400191505060405180910390fd5b60006040516125a7906131bc565b604051809103906000f0801580156125c3573d6000803e3d6000fd5b509050600081905073dabbdabbdabbdabbdabbdabbdabbdabbdabbdabb73ffffffffffffffffffffffffffffffffffffffff166304d64386836040518263ffffffff1660e01b8152600401808273ffffffffffffffffffffffffffffffffffffffff1673ffffffffffffffffffffffffffffffffffffffff168152602001915050600060405180830381600087803b15801561265e57600080fd5b505af1158015612672573d6000803e3d6000fd5b505050506000600d805490509050600d8290806001815401808255809150509060018203906000526020600020016000909192909190916101000a81548173ffffffffffffffffffffffffffffffffffffffff021916908373ffffffffffffffffffffffffffffffffffffffff160217905550506001600e60008673ffffffffffffffffffffffffffffffffffffffff1673ffffffffffffffffffffffffffffffffffffffff16815260200190815260200160002060006101000a81548160ff0219169083151502179055506000809050600560009054906101000a900473ffffffffffffffffffffffffffffffffffffffff1673ffffffffffffffffffffffffffffffffffffffff163373ffffffffffffffffffffffffffffffffffffffff16141561279e57600190505b8273ffffffffffffffffffffffffffffffffffffffff166364b3f069308488856040518563ffffffff1660e01b8152600401808573ffffffffffffffffffffffffffffffffffffffff1673ffffffffffffffffffffffffffffffffffffffff1681526020018481526020018373ffffffffffffffffffffffffffffffffffffffff1673ffffffffffffffffffffffffffffffffffffffff16815260200182151515158152602001945050505050600060405180830381600087803b15801561286557600080fd5b505af1158015612879573d6000803e3d6000fd5b505050505050505050565b600760009054906101000a900460ff166128e9576040517f08c379a00000000000000000000000000000000000000000000000000000000081526004018080602001828103825260288152602001806136be6028913960400191505060405180910390fd5b565b60005481565b6000806000600b805490508410612970576040517f08c379a000000000000000000000000000000000000000000000000000000000815260040180806020018281038252601a8152602001807f476976656e20696e646578206f7574206f6620626f756e64732e00000000000081525060200191505060405180910390fd5b6129786131c9565b600b858154811061298557fe5b90600052602060002090600302016040518060600160405290816000820160009054906101000a900460ff16151515158152602001600182015481526020016002820160009054906101000a900473ffffffffffffffffffffffffffffffffffffffff1673ffffffffffffffffffffffffffffffffffffffff1673ffffffffffffffffffffffffffffffffffffffff16815250509050806000015193508060200151925080604001519150509193909250565b6000600d805490508210612ab4576040517f08c379a000000000000000000000000000000000000000000000000000000000815260040180806020018281038252601d8152602001807f476976656e20696e646578206973206f7574206f6620626f756e64732e00000081525060200191505060405180910390fd5b600d8281548110612ac157fe5b9060005260206000200160009054906101000a900473ffffffffffffffffffffffffffffffffffffffff169050919050565b6040517f08c379a000000000000000000000000000000000000000000000000000000000815260040180806020018281038252600f8152602001807f4e6f7420496d706c656d656e746564000000000000000000000000000000000081525060200191505060405180910390fd5b6040517f08c379a000000000000000000000000000000000000000000000000000000000815260040180806020018281038252600f8152602001807f4e6f7420496d706c656d656e746564000000000000000000000000000000000081525060200191505060405180910390fd5b6000600b80549050905090565b60065481565b60045481565b600d8181548110612bf557fe5b906000526020600020016000915054906101000a900473ffffffffffffffffffffffffffffffffffffffff1681565b600760009054906101000a900460ff1681565b600560009054906101000a900473ffffffffffffffffffffffffffffffffffffffff1673ffffffffffffffffffffffffffffffffffffffff163373ffffffffffffffffffffffffffffffffffffffff1614612cdd576040517f08c379a000000000000000000000000000000000000000000000000000000000815260040180806020018281038252602a8152602001806135cb602a913960400191505060405180910390fd5b818160089190612cee92919061312f565b505050565b600160009054906101000a900473ffffffffffffffffffffffffffffffffffffffff1681565b600080600090505b600d80549050811015612db0578273ffffffffffffffffffffffffffffffffffffffff16600d8281548110612d5257fe5b9060005260206000200160009054906101000a900473ffffffffffffffffffffffffffffffffffffffff1673ffffffffffffffffffffffffffffffffffffffff161415612da3576001915050612db6565b8080600101915050612d21565b50600090505b919050565b73dabbdabbdabbdabbdabbdabbdabbdabbdabbdabb73ffffffffffffffffffffffffffffffffffffffff16634904a20c836001846040518463ffffffff1660e01b8152600401808060200184815260200180602001838103835286818151815260200191508051906020019080838360005b83811015612e48578082015181840152602081019050612e2d565b50505050905090810190601f168015612e755780820380516001836020036101000a031916815260200191505b50838103825284818151815260200191508051906020019060200280838360005b83811015612eb1578082015181840152602081019050612e96565b5050505090500195505050505050600060405180830381600087803b158015612ed957600080fd5b505af1158015612eed573d6000803e3d6000fd5b505050505050565b80600160006101000a81548173ffffffffffffffffffffffffffffffffffffffff021916908373ffffffffffffffffffffffffffffffffffffffff16021790555060606002604051908082528060200260200182016040528015612f685781602001602082028038833980820191505090505b50905060005481600081518110612f7b57fe5b60200260200101818152505073dabbdabbdabbdabbdabbdabbdabbdabbdabbdabb73ffffffffffffffffffffffffffffffffffffffff166369c212f6836040518263ffffffff1660e01b8152600401808273ffffffffffffffffffffffffffffffffffffffff1673ffffffffffffffffffffffffffffffffffffffff16815260200191505060206040518083038186803b15801561301857600080fd5b505afa15801561302c573d6000803e3d6000fd5b505050506040513d602081101561304257600080fd5b810190808051906020019092919050505073ffffffffffffffffffffffffffffffffffffffff1663589759196040518163ffffffff1660e01b815260040160206040518083038186803b15801561309857600080fd5b505afa1580156130ac573d6000803e3d6000fd5b505050506040513d60208110156130c257600080fd5b8101908080519060200190929190505050816001815181106130e057fe5b60200260200101818152505061312b6040518060400160405280601281526020017f4a6f62417262697465724163636570746564000000000000000000000000000081525082612dbb565b5050565b828054600181600116156101000203166002900490600052602060002090601f016020900481019282601f1061317057803560ff191683800117855561319e565b8280016001018555821561319e579182015b8281111561319d578235825591602001919060010190613182565b5b5090506131ab9190613202565b5090565b61018d8061322883390190565b61018d806133b583390190565b604051806060016040528060001515815260200160008152602001600073ffffffffffffffffffffffffffffffffffffffff1681525090565b61322491905b80821115613220576000816000905550600101613208565b5090565b9056fe608060405234801561001057600080fd5b5061016d806100206000396000f3fe60806040526004361061001e5760003560e01c8063d4b8399214610083575b61008173dabadabadabadabadabadabadabadabadabadaba6000368080601f016020809104026020016040519081016040528093929190818152602001838380828437600081840152601f19601f820116905080830192505050505050506100da565b005b34801561008f57600080fd5b50610098610116565b604051808273ffffffffffffffffffffffffffffffffffffffff1673ffffffffffffffffffffffffffffffffffffffff16815260200191505060405180910390f35b6100e38261012e565b6100ec57600080fd5b600080825160208401856127105a03f43d604051816000823e8260008114610112578282f35b8282fd5b73dabadabadabadabadabadabadabadabadabadaba81565b600080823b90506000811191505091905056fea165627a7a7230582014d765e86116e8adca284f5da6fdb3958a332d063238eea03fa8ec6023d30a550029608060405234801561001057600080fd5b5061016d806100206000396000f3fe60806040526004361061001e5760003560e01c8063d4b8399214610083575b61008173beefbeefbeefbeefbeefbeefbeefbeefbeefbeef6000368080601f016020809104026020016040519081016040528093929190818152602001838380828437600081840152601f19601f820116905080830192505050505050506100da565b005b34801561008f57600080fd5b50610098610116565b604051808273ffffffffffffffffffffffffffffffffffffffff1673ffffffffffffffffffffffffffffffffffffffff16815260200191505060405180910390f35b6100e38261012e565b6100ec57600080fd5b600080825160208401856127105a03f43d604051816000823e8260008114610112578282f35b8282fd5b73beefbeefbeefbeefbeefbeefbeefbeefbeefbeef81565b600080823b90506000811191505091905056fea165627a7a72305820ed1d3b3569ae986f822b8e9264b896f17014f4eea4cea9ee6c554559d0c3dafb002943616e64696461746520616c726561647920686173206120776f726b20636f6e747261637420637265617465642e456d706c6f7965722063616e6e6f7420776f726b206f6e20686973206f776e204a6f622e456d706c6f7965722063616e6e6f74206265207468652061726269746572206f6620686973206f776e206a6f6220636f6e74726163742e4f6e6c792074686520656d706c6f7965722063616e2075706461746520746865206d657461686173682e476976656e2061646472657373206973206e6f742061207265676973746572656420617262697465722e476976656e2061646472657373206973206e6f742061207265676973746572656420757365722e4f6e6c79206120776f726b20636f6e747261637420686173207065726d697373696f6e20746f207472616e736665722066726f6d20746865206a6f622073746f72652e4a6f622053746f72652062616c616e636520646f6573206e6f742073617469736679207265736f6c7574696f6e207061796f75742e476976656e204a6f6253746f7265206973206e6f7420657468657265756d2066756e6461626c652e417262697465722068617320616c7265616479206d61646520612072657175657374456d706c6f7965722068617320616c726561647920726571756573746564207468697320617262697465722e4a6f622053746f72652062616c616e636520646f6573206e6f74207361746973667920616d6f756e7420746f207061794552524f523a2054686520656d706c6f7965722063616e2072657175657374206120776f726b20636f6e747261637420666f7220612063616e6469646174652e205468652063616e6469646174652063616e2072657175657374206120776f726b20636f6e747261637420666f722068696d73656c662e455243323020546f6b656e7320617265206e6f7420696d706c656d656e7465642e4f6e6c7920616e20656d706c6f7965722063616e207265717565737420616e20617262697465722c206f6e6c7920616e20617262697465722063616e2072657175657374207468656d73656c7665732ea165627a7a72305820b48bd68961b94dbbff46da19dcb1873559caa835934e321bae6fd68a95293f8c0029",
  "source": "pragma solidity ^0.5.0;\n\nimport \"./EthlanceRegistry.sol\";\nimport \"./EthlanceWorkContract.sol\";\nimport \"./EthlanceTokenStore.sol\";\nimport \"./proxy/Forwarder.sol\";        // target(EthlanceWorkContract)\nimport \"./proxy/SecondForwarder.sol\";  // target(EthlanceTokenStore)\n\n/// @title Create Job Contracts as an assigned Employer as a group of\n/// identical contracts.\ncontract EthlanceJobStore {\n  uint public constant version = 1;\n  EthlanceRegistry public constant registry = EthlanceRegistry(0xdaBBdABbDABbDabbDaBbDabbDaBbdaBbdaBbDAbB);\n\n  //\n  // Structures\n  //\n\n  /// Represents a particular arbiter requesting, or being requested\n  /// by an employer for a job contract.\n  struct ArbiterRequest {\n    bool isEmployerRequest;\n    uint dateRequested;\n    address arbiterAddress;\n  }\n\n  //\n  // Members\n  //\n\n  // The job index.\n  uint public jobIndex;\n\n  // The Accepted Arbiter assigned to the Jobs within the Job Store.\n  address payable public acceptedArbiter;\n\n  /// Bid Option Enumeration\n  // 0 - Hourly Rate\n  // 1 - Fixed Price\n  // 2 - Annual Salary\n  // 3 - Bounty\n  uint8 public bidOption;\n  uint8 public constant BID_OPTION_BOUNTY = 3;\n\n  // Datetime of job contract creation\n  uint public dateCreated;\n\n  // Datetime of the last time the job contract was updated.\n  uint public dateUpdated;\n\n  // Datetime of job contract finishing\n  uint public dateFinished;\n    \n  // Employer assigned to the given JobStore.\n  address payable public employerAddress;\n\n  // Estimated amount of time to finish the contract (in seconds)\n  uint public estimatedLengthSeconds;\n\n  // If true, additionally include ether as a token to pay out.\n  bool public includeEtherToken;\n  // TODO: tokenAddress_listing\n\n  // If true, only employers can request candidates and arbiters\n  bool public isInvitationOnly;\n\n  // Additional Job Information stored in IPFS Metahash\n  string public metahash;\n\n  // The reward value for a completed bounty\n  uint public rewardValue;\n\n  // Token Storage for ERC20 tokens\n  EthlanceTokenStore public tokenStore;\n\n  //\n  // Collections\n  //\n\n  // Arbiter Requests\n  ArbiterRequest[] public arbiterRequestListing;\n  mapping(address => uint) public arbiterRequestMapping;\n\n  // Work Contract Listing\n  address[] public workContractListing;\n  mapping(address => bool) public workContractMapping;\n    \n\n  function construct(uint _jobIndex,\n                     address payable _employerAddress,\n                     uint8 _bidOption,\n                     uint _estimatedLengthSeconds,\n                     bool _includeEtherToken,\n                     bool _isInvitationOnly,\n                     string calldata _metahash,\n                     uint _rewardValue)\n    external {\n    jobIndex = _jobIndex;\n    employerAddress = _employerAddress;\n    bidOption = _bidOption;\n    estimatedLengthSeconds = _estimatedLengthSeconds;\n    includeEtherToken = _includeEtherToken;\n    isInvitationOnly = _isInvitationOnly;\n    metahash = _metahash;\n    rewardValue = _rewardValue;\n\n    // Construct TokenStore forwarder\n    SecondForwarder fwd = new SecondForwarder(); // Proxy Contract\n    // target(EthlanceTokenStore)\n\n    tokenStore = EthlanceTokenStore(address(fwd));\n\n    registry.permitDispatch(address(fwd));\n  \n    tokenStore.construct();\n  }\n\n\n  /// @dev update job store's IPFS metahash\n  function updateMetahash(string calldata _metahash) external {\n    require(msg.sender == employerAddress, \"Only the employer can update the metahash.\");\n    metahash = _metahash;\n  }\n\n\n  /// @dev Fire events specific to the work contract\n  /// @param eventName Unique to give the fired event\n  /// @param eventData Additional event data to include in the\n  /// fired event.\n  function fireEvent(string memory eventName, uint[] memory eventData) private {\n    registry.fireEvent(eventName, version, eventData);\n  }\n\n\n  /// @dev Set the accepted arbiter for the current Job Wagon.\n  /// @param arbiterAddress User address of the accepted arbiter.\n  function setAcceptedArbiter(address payable arbiterAddress)\n    private {\n    acceptedArbiter = arbiterAddress;\n\n    // Fire off event\n    uint[] memory eventData = new uint[](2);\n    eventData[0] = jobIndex;\n    eventData[1] = EthlanceUser(registry.getUserByAddress(arbiterAddress)).userId();\n    fireEvent(\"JobArbiterAccepted\", eventData);\n  }\n\n\n  /// @dev Request and create a pending contract between the Candidate and the Employer\n  /// @param candidateAddress The user address of the Candidate.\n  /*\n      \n    Only the employer or the candidate can request a work\n    contract. Contract status upon construction depends on who\n    requests a work contract, or whether the Job is bounty-based.\n\n  */\n  function requestWorkContract(address payable candidateAddress)\n    public {\n    require(registry.isRegisteredUser(candidateAddress),\n            \"Given address is not a registered user.\");\n    require(msg.sender == employerAddress || msg.sender == candidateAddress,\n            \"ERROR: The employer can request a work contract for a candidate. The candidate can request a work contract for himself.\");\n    require(workContractMapping[candidateAddress] == false,\n            \"Candidate already has a work contract created.\");\n    require(employerAddress != candidateAddress,\n            \"Employer cannot work on his own Job.\");\n\n    // Create the forwarded contract, and place in the work listing.\n    Forwarder fwd = new Forwarder(); // Proxy Contract with\n    // target(EthlanceWorkContract)\n    EthlanceWorkContract workContract = EthlanceWorkContract(address(fwd));\n\n    // Permit Work Contract to fire registry events\n    registry.permitDispatch(address(fwd));\n\n    uint workIndex = workContractListing.length;\n    workContractListing.push(address(workContract));\n    workContractMapping[candidateAddress] = true;\n\n    // Determine if it's an employer or a candidate request\n    bool isEmployerRequest = false;\n    if (msg.sender == employerAddress) {\n      isEmployerRequest = true;\n    }\n\n    // Construct the work contract.\n    workContract.construct(this, workIndex, candidateAddress, isEmployerRequest);\n  }\n\n    \n  /// @dev Add an arbiter to the arbiter request listing.\n  /// @param arbiterAddress The user address of the arbiter.\n  /*\n\n    Functionality changes based on who is requesting the arbiter,\n    and the status of the requested arbiter.\n\n    Case 1: Employer requests a Arbiter. (msg.sender == employerAddress)\n\n    Case 2: Arbiter requests himself. (msg.sender == arbiterAddress)\n\n    acceptedArbiter is set if:\n\n    - employer had already requested the arbiter, and the arbiter requests the job contract\n    - arbiter requests himself, and the employer requests the same arbiter.\n\n  */\n  function requestArbiter(address payable arbiterAddress)\n    public {\n    require(registry.isRegisteredUser(arbiterAddress),\n            \"Given address is not a registered user.\");\n    require(registry.isRegisteredArbiter(arbiterAddress),\n            \"Given address is not a registered arbiter.\");\n    require(acceptedArbiter == address(0), \"Arbiter already accepted.\");\n    require(arbiterAddress != employerAddress,\n            \"Employer cannot be the arbiter of his own job contract.\");\n    require(msg.sender == employerAddress || msg.sender == arbiterAddress,\n            \"Only an employer can request an arbiter, only an arbiter can request themselves.\");\n\n    // Locals\n    uint requestIndex;\n    bool isEmployerRequest;\n\n    //\n    // Handle case where an arbiter is requesting the job contract.\n    //\n\n    if (msg.sender == arbiterAddress) {\n      // No previous request, so create a new Arbiter Request\n      if (arbiterRequestMapping[arbiterAddress] == 0) {\n        arbiterRequestListing.push(ArbiterRequest(false, now, arbiterAddress));\n        arbiterRequestMapping[arbiterAddress] = arbiterRequestListing.length;\n\n        // Fire off event\n        uint[] memory eventData = new uint[](2);\n        eventData[0] = jobIndex;\n        eventData[1] = EthlanceUser(registry.getUserByAddress(arbiterAddress)).userId();\n        fireEvent(\"JobArbiterRequested\", eventData);\n\n        return;\n      }\n\n      // Was a previous request, check if an employer requested this arbiter\n      requestIndex = arbiterRequestMapping[arbiterAddress] - 1;\n      isEmployerRequest = arbiterRequestListing[requestIndex].isEmployerRequest;\n      \n      // If this arbiter was already requested by the employer, we have our accepted arbiter\n      if (isEmployerRequest) {\n        setAcceptedArbiter(arbiterAddress);\n        return;\n      }\n\n      // Otherwise, we revert, since this arbiter already made a request\n      revert(\"Arbiter has already made a request\");\n      return;\n    }\n\n    //\n    // Handle case where employer is requesting an arbiter for the job contract.\n    //\n\n    // No previous request, so create a new Arbiter Request\n    if (arbiterRequestMapping[arbiterAddress] == 0) {\n      arbiterRequestListing.push(ArbiterRequest(true, now, arbiterAddress));\n      arbiterRequestMapping[arbiterAddress] = arbiterRequestListing.length;\n      \n      // Fire off event\n      uint[] memory eventData = new uint[](2);\n      eventData[0] = jobIndex;\n      eventData[1] = EthlanceUser(registry.getUserByAddress(arbiterAddress)).userId();\n      fireEvent(\"JobArbiterRequested\", eventData);\n\n      return;\n    }\n\n    // Was a previous request, check if a arbiter already requested this job.\n    requestIndex = arbiterRequestMapping[arbiterAddress] - 1;\n    isEmployerRequest = arbiterRequestListing[requestIndex].isEmployerRequest;\n\n    // If this arbiter already requested this job, we have our accepted arbiter\n    if (!isEmployerRequest) {\n      setAcceptedArbiter(arbiterAddress);\n      return;\n    }\n\n    // Otherwise, we revert, since the employer already requested this arbiter\n    revert(\"Employer has already requested this arbiter.\");\n    return;\n  }\n\n\n  /// @dev Returns the number of requested arbiters for this job contract\n  /// @return The number of requested arbiters.\n  function getRequestedArbiterCount()\n    public view returns(uint) {\n    return arbiterRequestListing.length;\n  }\n\n    \n  /// @dev Get the arbiter request data in the arbiter request listing.\n  /// @param index The index of the ArbiterRequest within the listing.\n  /// @return 2-element tuple containing the arbiter data.\n  function getRequestedArbiterByIndex(uint index)\n    public view returns (bool isEmployerRequest,\n                         uint dateRequested,\n                         address arbiterAddress) {\n    require(index < arbiterRequestListing.length,\n            \"Given index out of bounds.\");\n    ArbiterRequest memory arbiterRequest = arbiterRequestListing[index];\n    isEmployerRequest = arbiterRequest.isEmployerRequest;\n    dateRequested = arbiterRequest.dateRequested;\n    arbiterAddress = arbiterRequest.arbiterAddress;\n  }\n\n\n  /// @dev Get the current number of work contracts\n  /// @return The number of work contracts in the job store.\n  function getWorkContractCount()\n    public view returns(uint) {\n    return workContractListing.length;\n  }\n\n\n  /// @dev Returns the WorkContract address at the given index.\n  /// @param index The index of the Work Contract to be retrieved.\n  /// @return The address of the EthlanceWorkContract.\n  function getWorkContractByIndex(uint index)\n    public view returns(address) {\n    require(index < workContractListing.length, \"Given index is out of bounds.\");\n    return workContractListing[index];\n  }\n\n    \n  /// @dev Returns true if the given _workContract instance resides\n  /// in the current job_store.\n  function isWorkContract(address _workContract) private returns(bool) {\n    for (uint i = 0; i < workContractListing.length; i++) {\n      if (address(workContractListing[i]) == _workContract) {\n        return true;\n      }\n    }\n    return false;\n  }\n\n    \n  /// @dev Main function for resolving a dispute between an employer and a candidate.\n  /// @param employerAmount Amount to give the employer for dispute resolution.\n  function resolveDispute(uint employerAmount,\n                          address employerToken,\n                          uint candidateAmount,\n                          address candidateToken,\n                          uint arbiterAmount,\n                          address arbiterToken,\n                          address payable candidateAddress) external {\n    require(employerToken == address(0) &&\n            candidateToken == address(0) &&\n            arbiterToken == address(0),\n            \"ERC20 Tokens are not implemented.\");\n  \n    //FIXME: safemath, ERC20 compatible\n    uint totalPayout = employerAmount + candidateAmount + arbiterAmount;\n    if (address(this).balance < totalPayout) {\n      revert(\"Job Store balance does not satisfy resolution payout.\");\n    }\n  \n    employerAddress.transfer(employerAmount);\n    candidateAddress.transfer(candidateAmount);\n    acceptedArbiter.transfer(arbiterAmount);\n  }\n\n\n  /// @dev Main function for paying an invoice, propagated up from EthlanceInvoice.\n  /// @param candidateAddress The address of the person acquiring the payout.\n  /// @param amountPaid The amount paid to the given candidateAddress in Wei.\n  /*\n    Notes:\n\n    - This function is a propagation from EthlanceWorkContract -->\n    EthlanceInvoice. Access rights should be reflected in each\n    step.\n  */\n  function payInvoice(address payable candidateAddress, uint amountPaid) external {\n    require(isWorkContract(msg.sender), \"Only a work contract has permission to transfer from the job store.\");\n    require(address(this).balance >= amountPaid, \"Job Store balance does not satisfy amount to pay\");\n    candidateAddress.transfer(amountPaid);\n  }\n\n    \n  /// @dev Main function for paying an invoice with an ERC20 token, propagated from EthlanceInvoice.\n  /// @param candidateAddress The address of the person acquiring the payout.\n  /// @param amountPaid The amount paid to the given candidateAddress based on the ERC20 token contract amount.\n  /// @param tokenAddress Address of the ERC20 token contract.\n  function payInvoice(address candidateAddress, uint amountPaid, address tokenAddress) external {\n    revert(\"Not Implemented\");\n  }\n\n\n  /// @dev Main method for funding ethereum to the given JobStore.\n  /*\n    Notes:\n\n    - Anyone can fund a JobStore with ether as long as the employer\n    has included the ether token (includeEtherToken)\n\n  */\n  function fund() external payable {\n    if (!includeEtherToken) {\n      revert(\"Given JobStore is not ethereum fundable.\");\n    }\n  }\n\n\n  /// @dev Overload for funding the JobStore with an ERC20 token\n  /// @param tokenAddress Address of the ERC20 token contract.\n  /// @param amount The amount of tokens to transfer to the current JobStore contract.\n  /*\n    Notes:\n\n    - The tokenAddress ERC20 token contract requires pre-approval\n    from the person funding the contract. This will require a\n    strictly client-side interaction for this pre-approval.\n  */\n  function fundToken(address tokenAddress, uint amount) external {\n    revert(\"Not Implemented\");\n  }\n}\n",
  "sourcePath": "/home/benzap/projects/ethlance/contracts/EthlanceJobStore.sol",
  "compiler": {
    "name": "solc",
    "version": "0.5.8+commit.23d335f2.Linux.g++"
  },
  "schemaVersion": "3.0.9",
  "updatedAt": "2019-05-15T03:25:42.108Z",
  "devdoc": {
    "methods": {
      "fund()": {
        "details": "Main method for funding ethereum to the given JobStore."
      },
      "fundToken(address,uint256)": {
        "details": "Overload for funding the JobStore with an ERC20 token",
        "params": {
          "amount": "The amount of tokens to transfer to the current JobStore contract.",
          "tokenAddress": "Address of the ERC20 token contract."
        }
      },
      "getRequestedArbiterByIndex(uint256)": {
        "details": "Get the arbiter request data in the arbiter request listing.",
        "params": {
          "index": "The index of the ArbiterRequest within the listing."
        },
        "return": "2-element tuple containing the arbiter data."
      },
      "getRequestedArbiterCount()": {
        "details": "Returns the number of requested arbiters for this job contract",
        "return": "The number of requested arbiters."
      },
      "getWorkContractByIndex(uint256)": {
        "details": "Returns the WorkContract address at the given index.",
        "params": {
          "index": "The index of the Work Contract to be retrieved."
        },
        "return": "The address of the EthlanceWorkContract."
      },
      "getWorkContractCount()": {
        "details": "Get the current number of work contracts",
        "return": "The number of work contracts in the job store."
      },
      "payInvoice(address,uint256)": {
        "details": "Main function for paying an invoice, propagated up from EthlanceInvoice.",
        "params": {
          "amountPaid": "The amount paid to the given candidateAddress in Wei.",
          "candidateAddress": "The address of the person acquiring the payout."
        }
      },
      "payInvoice(address,uint256,address)": {
        "details": "Main function for paying an invoice with an ERC20 token, propagated from EthlanceInvoice.",
        "params": {
          "amountPaid": "The amount paid to the given candidateAddress based on the ERC20 token contract amount.",
          "candidateAddress": "The address of the person acquiring the payout.",
          "tokenAddress": "Address of the ERC20 token contract."
        }
      },
      "requestArbiter(address)": {
        "details": "Add an arbiter to the arbiter request listing.",
        "params": {
          "arbiterAddress": "The user address of the arbiter."
        }
      },
      "requestWorkContract(address)": {
        "details": "Request and create a pending contract between the Candidate and the Employer",
        "params": {
          "candidateAddress": "The user address of the Candidate."
        }
      },
      "resolveDispute(uint256,address,uint256,address,uint256,address,address)": {
        "details": "Main function for resolving a dispute between an employer and a candidate.",
        "params": {
          "employerAmount": "Amount to give the employer for dispute resolution."
        }
      },
      "updateMetahash(string)": {
        "details": "update job store's IPFS metahash"
      }
    },
    "title": "Create Job Contracts as an assigned Employer as a group of identical contracts."
  },
  "userdoc": {
    "methods": {}
  }
}