{
  "contractName": "EthlanceComment",
  "abi": [
    {
      "constant": true,
      "inputs": [],
      "name": "dateUpdated",
      "outputs": [
        {
          "name": "",
          "type": "uint256"
        }
      ],
      "payable": false,
      "stateMutability": "view",
      "type": "function"
    },
    {
      "constant": true,
      "inputs": [],
      "name": "dateCreated",
      "outputs": [
        {
          "name": "",
          "type": "uint256"
        }
      ],
      "payable": false,
      "stateMutability": "view",
      "type": "function"
    },
    {
      "constant": true,
      "inputs": [],
      "name": "commentType",
      "outputs": [
        {
          "name": "",
          "type": "uint8"
        }
      ],
      "payable": false,
      "stateMutability": "view",
      "type": "function"
    },
    {
      "constant": true,
      "inputs": [],
      "name": "version",
      "outputs": [
        {
          "name": "",
          "type": "uint256"
        }
      ],
      "payable": false,
      "stateMutability": "view",
      "type": "function"
    },
    {
      "constant": true,
      "inputs": [
        {
          "name": "",
          "type": "uint256"
        }
      ],
      "name": "metahashListing",
      "outputs": [
        {
          "name": "",
          "type": "string"
        }
      ],
      "payable": false,
      "stateMutability": "view",
      "type": "function"
    },
    {
      "constant": true,
      "inputs": [],
      "name": "EMPLOYER_TYPE",
      "outputs": [
        {
          "name": "",
          "type": "uint256"
        }
      ],
      "payable": false,
      "stateMutability": "view",
      "type": "function"
    },
    {
      "constant": true,
      "inputs": [],
      "name": "registry",
      "outputs": [
        {
          "name": "",
          "type": "address"
        }
      ],
      "payable": false,
      "stateMutability": "view",
      "type": "function"
    },
    {
      "constant": true,
      "inputs": [],
      "name": "userType",
      "outputs": [
        {
          "name": "",
          "type": "uint256"
        }
      ],
      "payable": false,
      "stateMutability": "view",
      "type": "function"
    },
    {
      "constant": true,
      "inputs": [],
      "name": "owner",
      "outputs": [
        {
          "name": "",
          "type": "address"
        }
      ],
      "payable": false,
      "stateMutability": "view",
      "type": "function"
    },
    {
      "constant": true,
      "inputs": [],
      "name": "CANDIDATE_TYPE",
      "outputs": [
        {
          "name": "",
          "type": "uint256"
        }
      ],
      "payable": false,
      "stateMutability": "view",
      "type": "function"
    },
    {
      "constant": true,
      "inputs": [
        {
          "name": "",
          "type": "uint256"
        }
      ],
      "name": "commentIndex",
      "outputs": [
        {
          "name": "",
          "type": "uint256"
        }
      ],
      "payable": false,
      "stateMutability": "view",
      "type": "function"
    },
    {
      "constant": true,
      "inputs": [],
      "name": "userAddress",
      "outputs": [
        {
          "name": "",
          "type": "address"
        }
      ],
      "payable": false,
      "stateMutability": "view",
      "type": "function"
    },
    {
      "constant": true,
      "inputs": [],
      "name": "ARBITER_TYPE",
      "outputs": [
        {
          "name": "",
          "type": "uint256"
        }
      ],
      "payable": false,
      "stateMutability": "view",
      "type": "function"
    },
    {
      "constant": true,
      "inputs": [],
      "name": "GUEST_TYPE",
      "outputs": [
        {
          "name": "",
          "type": "uint256"
        }
      ],
      "payable": false,
      "stateMutability": "view",
      "type": "function"
    },
    {
      "constant": false,
      "inputs": [
        {
          "name": "_userAddress",
          "type": "address"
        },
        {
          "name": "_userType",
          "type": "uint256"
        },
        {
          "name": "_metahash",
          "type": "string"
        },
        {
          "name": "_commentType",
          "type": "uint8"
        },
        {
          "name": "_commentIndex",
          "type": "uint256[4]"
        }
      ],
      "name": "construct",
      "outputs": [],
      "payable": false,
      "stateMutability": "nonpayable",
      "type": "function"
    },
    {
      "constant": false,
      "inputs": [
        {
          "name": "_metahash",
          "type": "string"
        }
      ],
      "name": "update",
      "outputs": [],
      "payable": false,
      "stateMutability": "nonpayable",
      "type": "function"
    },
    {
      "constant": true,
      "inputs": [],
      "name": "getCount",
      "outputs": [
        {
          "name": "",
          "type": "uint256"
        }
      ],
      "payable": false,
      "stateMutability": "view",
      "type": "function"
    },
    {
      "constant": true,
      "inputs": [
        {
          "name": "_index",
          "type": "uint256"
        }
      ],
      "name": "getRevisionByIndex",
      "outputs": [
        {
          "name": "",
          "type": "string"
        }
      ],
      "payable": false,
      "stateMutability": "view",
      "type": "function"
    },
    {
      "constant": true,
      "inputs": [],
      "name": "getLast",
      "outputs": [
        {
          "name": "",
          "type": "string"
        }
      ],
      "payable": false,
      "stateMutability": "view",
      "type": "function"
    },
    {
      "constant": true,
      "inputs": [
        {
          "name": "index",
          "type": "uint256"
        }
      ],
      "name": "getIndex",
      "outputs": [
        {
          "name": "",
          "type": "uint256"
        }
      ],
      "payable": false,
      "stateMutability": "view",
      "type": "function"
    }
  ],
  "bytecode": "0x608060405234801561001057600080fd5b506111f3806100206000396000f3fe608060405234801561001057600080fd5b506004361061012c5760003560e01c80637b103999116100ad578063b721f1cd11610071578063b721f1cd146105ec578063da677ec71461060a578063e4128fb31461064c578063fb01b30314610696578063fe737a12146106b45761012c565b80637b103999146104da57806384819ace146105245780638da5cb5b146105425780638e7cb6e11461058c578063a87d942c146105ce5761012c565b80634d622831116100f45780634d622831146102cd57806354fd4d50146103505780636095ceff1461036e578063628addd9146104155780636a10928f146104bc5761012c565b80630201e535146101315780631f741c7a1461014f578063356349fe1461016d5780633d7403a3146101995780634bda28d114610212575b600080fd5b6101396106d2565b6040518082815260200191505060405180910390f35b6101576106d8565b6040518082815260200191505060405180910390f35b6101756106de565b6040518082600281111561018557fe5b60ff16815260200191505060405180910390f35b610210600480360360208110156101af57600080fd5b81019080803590602001906401000000008111156101cc57600080fd5b8201836020820111156101de57600080fd5b8035906020019184600183028401116401000000008311171561020057600080fd5b90919293919293905050506106f1565b005b6102cb600480360361010081101561022957600080fd5b81019080803573ffffffffffffffffffffffffffffffffffffffff169060200190929190803590602001909291908035906020019064010000000081111561027057600080fd5b82018360208201111561028257600080fd5b803590602001918460018302840111640100000000831117156102a457600080fd5b9091929391929390803560ff16906020019092919080608001909192919290505050610822565b005b6102d5610a92565b6040518080602001828103825283818151815260200191508051906020019080838360005b838110156103155780820151818401526020810190506102fa565b50505050905090810190601f1680156103425780820380516001836020036101000a031916815260200191505b509250505060405180910390f35b610358610b51565b6040518082815260200191505060405180910390f35b61039a6004803603602081101561038457600080fd5b8101908080359060200190929190505050610b56565b6040518080602001828103825283818151815260200191508051906020019080838360005b838110156103da5780820151818401526020810190506103bf565b50505050905090810190601f1680156104075780820380516001836020036101000a031916815260200191505b509250505060405180910390f35b6104416004803603602081101561042b57600080fd5b8101908080359060200190929190505050610c0f565b6040518080602001828103825283818151815260200191508051906020019080838360005b83811015610481578082015181840152602081019050610466565b50505050905090810190601f1680156104ae5780820380516001836020036101000a031916815260200191505b509250505060405180910390f35b6104c4610d42565b6040518082815260200191505060405180910390f35b6104e2610d47565b604051808273ffffffffffffffffffffffffffffffffffffffff1673ffffffffffffffffffffffffffffffffffffffff16815260200191505060405180910390f35b61052c610d5f565b6040518082815260200191505060405180910390f35b61054a610d65565b604051808273ffffffffffffffffffffffffffffffffffffffff1673ffffffffffffffffffffffffffffffffffffffff16815260200191505060405180910390f35b6105b8600480360360208110156105a257600080fd5b8101908080359060200190929190505050610d8a565b6040518082815260200191505060405180910390f35b6105d6610e19565b6040518082815260200191505060405180910390f35b6105f4610e26565b6040518082815260200191505060405180910390f35b6106366004803603602081101561062057600080fd5b8101908080359060200190929190505050610e2b565b6040518082815260200191505060405180910390f35b610654610e43565b604051808273ffffffffffffffffffffffffffffffffffffffff1673ffffffffffffffffffffffffffffffffffffffff16815260200191505060405180910390f35b61069e610e69565b6040518082815260200191505060405180910390f35b6106bc610e6e565b6040518082815260200191505060405180910390f35b60045481565b60035481565b600660009054906101000a900460ff1681565b600260009054906101000a900473ffffffffffffffffffffffffffffffffffffffff1673ffffffffffffffffffffffffffffffffffffffff163373ffffffffffffffffffffffffffffffffffffffff1614610797576040517f08c379a000000000000000000000000000000000000000000000000000000000815260040180806020018281038252602c81526020018061116c602c913960400191505060405180910390fd5b60058282909180600181540180825580915050906001820390600052602060002001600090919293909192939091929091925091906107d7929190611086565b50504260048190555061081e6040518060400160405280600e81526020017f436f6d6d656e7455706461746564000000000000000000000000000000000000815250610e73565b5050565b600073ffffffffffffffffffffffffffffffffffffffff166000809054906101000a900473ffffffffffffffffffffffffffffffffffffffff1673ffffffffffffffffffffffffffffffffffffffff16146108c8576040517f08c379a00000000000000000000000000000000000000000000000000000000081526004018080602001828103825260308152602001806111986030913960400191505060405180910390fd5b600385111561093f576040517f08c379a00000000000000000000000000000000000000000000000000000000081526004018080602001828103825260118152602001807f556e6b6e6f776e2055736572205479706500000000000000000000000000000081525060200191505060405180910390fd5b336000806101000a81548173ffffffffffffffffffffffffffffffffffffffff021916908373ffffffffffffffffffffffffffffffffffffffff16021790555085600260006101000a81548173ffffffffffffffffffffffffffffffffffffffff021916908373ffffffffffffffffffffffffffffffffffffffff160217905550846001819055506005848490918060018154018082558091505090600182039060005260206000200160009091929390919293909192909192509190610a07929190611086565b5050426003819055504260048190555081600660006101000a81548160ff02191690836002811115610a3557fe5b0217905550806007906004610a4b929190611106565b50610a8a6040518060400160405280600e81526020017f436f6d6d656e7443726561746564000000000000000000000000000000000000815250610e73565b505050505050565b6060600560016005805490500381548110610aa957fe5b906000526020600020018054600181600116156101000203166002900480601f016020809104026020016040519081016040528092919081815260200182805460018160011615610100020316600290048015610b475780601f10610b1c57610100808354040283529160200191610b47565b820191906000526020600020905b815481529060010190602001808311610b2a57829003601f168201915b5050505050905090565b600181565b60058181548110610b6357fe5b906000526020600020016000915090508054600181600116156101000203166002900480601f016020809104026020016040519081016040528092919081815260200182805460018160011615610100020316600290048015610c075780601f10610bdc57610100808354040283529160200191610c07565b820191906000526020600020905b815481529060010190602001808311610bea57829003601f168201915b505050505081565b60606005805490508210610c8b576040517f08c379a000000000000000000000000000000000000000000000000000000000815260040180806020018281038252601d8152602001807f476976656e20696e646578206973206f7574206f6620626f756e64732e00000081525060200191505060405180910390fd5b60058281548110610c9857fe5b906000526020600020018054600181600116156101000203166002900480601f016020809104026020016040519081016040528092919081815260200182805460018160011615610100020316600290048015610d365780601f10610d0b57610100808354040283529160200191610d36565b820191906000526020600020905b815481529060010190602001808311610d1957829003601f168201915b50505050509050919050565b600181565b73dabbdabbdabbdabbdabbdabbdabbdabbdabbdabb81565b60015481565b6000809054906101000a900473ffffffffffffffffffffffffffffffffffffffff1681565b60006004821115610e03576040517f08c379a00000000000000000000000000000000000000000000000000000000081526004018080602001828103825260138152602001807f496e646578206f7574206f6620626f756e64730000000000000000000000000081525060200191505060405180910390fd5b60078260048110610e1057fe5b01549050919050565b6000600580549050905090565b600281565b60078160048110610e3857fe5b016000915090505481565b600260009054906101000a900473ffffffffffffffffffffffffffffffffffffffff1681565b600381565b600081565b60606004604051908082528060200260200182016040528015610ea55781602001602082028038833980820191505090505b5090506007600060048110610eb657fe5b015481600081518110610ec557fe5b6020026020010181815250506007600160048110610edf57fe5b015481600181518110610eee57fe5b6020026020010181815250506007600260048110610f0857fe5b015481600281518110610f1757fe5b6020026020010181815250506007600360048110610f3157fe5b015481600381518110610f4057fe5b60200260200101818152505073dabbdabbdabbdabbdabbdabbdabbdabbdabbdabb73ffffffffffffffffffffffffffffffffffffffff16634904a20c836001846040518463ffffffff1660e01b8152600401808060200184815260200180602001838103835286818151815260200191508051906020019080838360005b83811015610fd9578082015181840152602081019050610fbe565b50505050905090810190601f1680156110065780820380516001836020036101000a031916815260200191505b50838103825284818151815260200191508051906020019060200280838360005b83811015611042578082015181840152602081019050611027565b5050505090500195505050505050600060405180830381600087803b15801561106a57600080fd5b505af115801561107e573d6000803e3d6000fd5b505050505050565b828054600181600116156101000203166002900490600052602060002090601f016020900481019282601f106110c757803560ff19168380011785556110f5565b828001600101855582156110f5579182015b828111156110f45782358255916020019190600101906110d9565b5b5090506111029190611146565b5090565b8260048101928215611135579160200282015b82811115611134578235825591602001919060010190611119565b5b5090506111429190611146565b5090565b61116891905b8082111561116457600081600090555060010161114c565b5090565b9056fe4f6e6c7920746865206f726967696e616c20757365722063616e20656469742074686520636f6d6d656e742e4574686c616e6365436f6d6d656e7420636f6e74726163742077617320616c726561647920636f6e7374727563746564a165627a7a72305820063db1fbe49babec7767d6d76911ac1dbfe9bac5493869f65f43ce3ff2ed42ef0029",
  "source": "pragma solidity ^0.5.0;\n\nimport \"./EthlanceRegistry.sol\";\n\n\n/// @title Represents a comment created by a given party\n/*\n  Notes:\n\n  - Each comment contract stores previous revisions of a comment.\n*/\ncontract EthlanceComment {\n\tuint public constant version = 1;\n\tEthlanceRegistry public constant registry = EthlanceRegistry(0xdaBBdABbDABbDabbDaBbDabbDaBbdaBbdaBbDAbB);\n\n\t//\n\t// Constants\n\t//\n\tuint public constant GUEST_TYPE = 0;\n\tuint public constant EMPLOYER_TYPE = 1;\n\tuint public constant CANDIDATE_TYPE = 2;\n\tuint public constant ARBITER_TYPE = 3;\n\n\t//\n\t// Enums\n  //\n  enum CommentType {\n    WorkContract,\n    Invoice,\n    Dispute\n  }\n    \n\n  //\n  // Members\n  //\n  address public owner;\n  uint public userType;\n  address public userAddress;\n  uint public dateCreated;\n  uint public dateUpdated;\n  string[] public metahashListing;\n  CommentType public commentType;\n  uint[4] public commentIndex;\n\n\n  /// @dev Forwarder Constructor\n  function construct(address _userAddress,\n                     uint _userType,\n                     string calldata _metahash,\n                     CommentType _commentType,\n                     uint[4] calldata _commentIndex)\n  \n    external {\n    require(owner == address(0), \"EthlanceComment contract was already constructed\");\n    require(_userType <= ARBITER_TYPE, \"Unknown User Type\");\n\n    owner = msg.sender;\n    userAddress = _userAddress;\n    userType = _userType;\n    metahashListing.push(_metahash);\n    dateCreated = now;\n    dateUpdated = now;\n    commentType = _commentType;\n    commentIndex = _commentIndex;\n\n    fireEvent(\"CommentCreated\");\n  }\n\n    \n  /// @dev Update the given comment with a revision, replaces the latest metahash.\n  function update(string calldata _metahash) external {\n    require(msg.sender == userAddress, \"Only the original user can edit the comment.\");\n    metahashListing.push(_metahash);\n    dateUpdated = now;\n    fireEvent(\"CommentUpdated\");\n  }\n\n\n  /// @dev Get the number of comment revisions.\n  function getCount() public view returns(uint) {\n    return metahashListing.length;\n  }\n\n\n  /// @dev Get the comment or comment revision at the given index\n  function getRevisionByIndex(uint _index) public view returns(string memory) {\n    require(_index < metahashListing.length, \"Given index is out of bounds.\");\n    return metahashListing[_index];\n  }\n\n\n  /// @dev Get the comment or latest comment revision.\n  function getLast() public view returns(string memory) {\n    return metahashListing[metahashListing.length - 1];\n  }\n\n\n  /// @dev Fire events specific to the dispute.\n  /// @param eventName Unique to give the fired event\n  function fireEvent(string memory eventName) private {\n    uint[] memory eventData = new uint[](4);\n    eventData[0] = commentIndex[0];\n    eventData[1] = commentIndex[1];\n    eventData[2] = commentIndex[2];\n    eventData[3] = commentIndex[3];\n\n    registry.fireEvent(eventName, version, eventData);\n  }\n\n\n  /// @dev Returns the comment sub-index\n  /*\n    For Work Contract:\n    [0] --> Job Index\n    [1] --> Work Contract Index\n    [2] --> Comment Index\n\n    For Invoice:\n    [0] --> Job Index\n    [1] --> Work Contract Index\n    [2] --> Invoice Index\n    [3] --> Comment Index\n\n    For Dispute:\n    [0] --> Job Index\n    [1] --> Work Contract Index\n    [2] --> Dispute Index\n    [3] --> Comment Index\n  */\n  function getIndex(uint index) public view returns(uint) {\n    require(index <= 4, \"Index out of bounds\");\n    return commentIndex[index];\n  }\n}\n",
  "sourcePath": "/home/benzap/projects/ethlance/contracts/EthlanceComment.sol",
  "compiler": {
    "name": "solc",
    "version": "0.5.8+commit.23d335f2.Linux.g++"
  },
  "schemaVersion": "3.0.9",
  "updatedAt": "2019-05-15T03:25:42.078Z",
  "devdoc": {
    "methods": {
      "construct(address,uint256,string,uint8,uint256[4])": {
        "details": "Forwarder Constructor"
      },
      "getCount()": {
        "details": "Get the number of comment revisions."
      },
      "getIndex(uint256)": {
        "details": "Returns the comment sub-index"
      },
      "getLast()": {
        "details": "Get the comment or latest comment revision."
      },
      "getRevisionByIndex(uint256)": {
        "details": "Get the comment or comment revision at the given index"
      },
      "update(string)": {
        "details": "Update the given comment with a revision, replaces the latest metahash."
      }
    },
    "title": "Represents a comment created by a given party"
  },
  "userdoc": {
    "methods": {}
  }
}