{
  "contractName": "EthlanceJobFactory",
  "abi": [
    {
      "constant": true,
      "inputs": [],
      "name": "version",
      "outputs": [
        {
          "name": "",
          "type": "uint256"
        }
      ],
      "payable": false,
      "stateMutability": "view",
      "type": "function"
    },
    {
      "constant": true,
      "inputs": [],
      "name": "registry",
      "outputs": [
        {
          "name": "",
          "type": "address"
        }
      ],
      "payable": false,
      "stateMutability": "view",
      "type": "function"
    },
    {
      "constant": false,
      "inputs": [
        {
          "name": "bidOption",
          "type": "uint8"
        },
        {
          "name": "estimatedLengthSeconds",
          "type": "uint256"
        },
        {
          "name": "includeEtherToken",
          "type": "bool"
        },
        {
          "name": "isInvitationOnly",
          "type": "bool"
        },
        {
          "name": "metahash",
          "type": "string"
        },
        {
          "name": "rewardValue",
          "type": "uint256"
        }
      ],
      "name": "createJobStore",
      "outputs": [],
      "payable": false,
      "stateMutability": "nonpayable",
      "type": "function"
    },
    {
      "constant": true,
      "inputs": [],
      "name": "getJobStoreCount",
      "outputs": [
        {
          "name": "",
          "type": "uint256"
        }
      ],
      "payable": false,
      "stateMutability": "view",
      "type": "function"
    },
    {
      "constant": true,
      "inputs": [
        {
          "name": "index",
          "type": "uint256"
        }
      ],
      "name": "getJobStoreByIndex",
      "outputs": [
        {
          "name": "",
          "type": "address"
        }
      ],
      "payable": false,
      "stateMutability": "view",
      "type": "function"
    }
  ],
  "bytecode": "0x608060405234801561001057600080fd5b50610b74806100206000396000f3fe608060405234801561001057600080fd5b50600436106100575760003560e01c8063343ff8d91461005c57806354fd4d501461015057806364528e771461016e5780637b1039991461018c578063f1b02bb4146101d6575b600080fd5b61014e600480360360c081101561007257600080fd5b81019080803560ff16906020019092919080359060200190929190803515159060200190929190803515159060200190929190803590602001906401000000008111156100be57600080fd5b8201836020820111156100d057600080fd5b803590602001918460018302840111640100000000831117156100f257600080fd5b91908080601f016020809104026020016040519081016040528093929190818152602001838380828437600081840152601f19601f82011690508083019250505050505050919291929080359060200190929190505050610244565b005b6101586106f0565b6040518082815260200191505060405180910390f35b6101766106f5565b6040518082815260200191505060405180910390f35b610194610791565b604051808273ffffffffffffffffffffffffffffffffffffffff1673ffffffffffffffffffffffffffffffffffffffff16815260200191505060405180910390f35b610202600480360360208110156101ec57600080fd5b81019080803590602001909291905050506107a9565b604051808273ffffffffffffffffffffffffffffffffffffffff1673ffffffffffffffffffffffffffffffffffffffff16815260200191505060405180910390f35b73dabbdabbdabbdabbdabbdabbdabbdabbdabbdabb73ffffffffffffffffffffffffffffffffffffffff1663f067498c336040518263ffffffff1660e01b8152600401808273ffffffffffffffffffffffffffffffffffffffff1673ffffffffffffffffffffffffffffffffffffffff16815260200191505060206040518083038186803b1580156102d557600080fd5b505afa1580156102e9573d6000803e3d6000fd5b505050506040513d60208110156102ff57600080fd5b8101908080519060200190929190505050610365576040517f08c379a0000000000000000000000000000000000000000000000000000000008152600401808060200182810382526022815260200180610b276022913960400191505060405180910390fd5b60006040516103739061098c565b604051809103906000f08015801561038f573d6000803e3d6000fd5b509050600081905073dabbdabbdabbdabbdabbdabbdabbdabbdabbdabb73ffffffffffffffffffffffffffffffffffffffff166304d64386836040518263ffffffff1660e01b8152600401808273ffffffffffffffffffffffffffffffffffffffff1673ffffffffffffffffffffffffffffffffffffffff168152602001915050600060405180830381600087803b15801561042a57600080fd5b505af115801561043e573d6000803e3d6000fd5b50505050600073dabbdabbdabbdabbdabbdabbdabbdabbdabbdabb73ffffffffffffffffffffffffffffffffffffffff16633c231adf836040518263ffffffff1660e01b8152600401808273ffffffffffffffffffffffffffffffffffffffff1673ffffffffffffffffffffffffffffffffffffffff168152602001915050602060405180830381600087803b1580156104d757600080fd5b505af11580156104eb573d6000803e3d6000fd5b505050506040513d602081101561050157600080fd5b810190808051906020019092919050505090508173ffffffffffffffffffffffffffffffffffffffff1663063c3e0382338c8c8c8c8c8c6040518963ffffffff1660e01b8152600401808981526020018873ffffffffffffffffffffffffffffffffffffffff1673ffffffffffffffffffffffffffffffffffffffff1681526020018760ff1660ff168152602001868152602001851515151581526020018415151515815260200180602001838152602001828103825284818151815260200191508051906020019080838360005b838110156105eb5780820151818401526020810190506105d0565b50505050905090810190601f1680156106185780820380516001836020036101000a031916815260200191505b509950505050505050505050600060405180830381600087803b15801561063e57600080fd5b505af1158015610652573d6000803e3d6000fd5b50505050606060016040519080825280602002602001820160405280156106885781602001602082028038833980820191505090505b509050818160008151811061069957fe5b6020026020010181815250506106e46040518060400160405280600f81526020017f4a6f6253746f726543726561746564000000000000000000000000000000000081525082610852565b50505050505050505050565b600181565b600073dabbdabbdabbdabbdabbdabbdabbdabbdabbdabb73ffffffffffffffffffffffffffffffffffffffff166364528e776040518163ffffffff1660e01b815260040160206040518083038186803b15801561075157600080fd5b505afa158015610765573d6000803e3d6000fd5b505050506040513d602081101561077b57600080fd5b8101908080519060200190929190505050905090565b73dabbdabbdabbdabbdabbdabbdabbdabbdabbdabb81565b600073dabbdabbdabbdabbdabbdabbdabbdabbdabbdabb73ffffffffffffffffffffffffffffffffffffffff1663f1b02bb4836040518263ffffffff1660e01b81526004018082815260200191505060206040518083038186803b15801561081057600080fd5b505afa158015610824573d6000803e3d6000fd5b505050506040513d602081101561083a57600080fd5b81019080805190602001909291905050509050919050565b73dabbdabbdabbdabbdabbdabbdabbdabbdabbdabb73ffffffffffffffffffffffffffffffffffffffff16634904a20c836001846040518463ffffffff1660e01b8152600401808060200184815260200180602001838103835286818151815260200191508051906020019080838360005b838110156108df5780820151818401526020810190506108c4565b50505050905090810190601f16801561090c5780820380516001836020036101000a031916815260200191505b50838103825284818151815260200191508051906020019060200280838360005b8381101561094857808201518184015260208101905061092d565b5050505090500195505050505050600060405180830381600087803b15801561097057600080fd5b505af1158015610984573d6000803e3d6000fd5b505050505050565b61018d8061099a8339019056fe608060405234801561001057600080fd5b5061016d806100206000396000f3fe60806040526004361061001e5760003560e01c8063d4b8399214610083575b61008173beefbeefbeefbeefbeefbeefbeefbeefbeefbeef6000368080601f016020809104026020016040519081016040528093929190818152602001838380828437600081840152601f19601f820116905080830192505050505050506100da565b005b34801561008f57600080fd5b50610098610116565b604051808273ffffffffffffffffffffffffffffffffffffffff1673ffffffffffffffffffffffffffffffffffffffff16815260200191505060405180910390f35b6100e38261012e565b6100ec57600080fd5b600080825160208401856127105a03f43d604051816000823e8260008114610112578282f35b8282fd5b73beefbeefbeefbeefbeefbeefbeefbeefbeefbeef81565b600080823b90506000811191505091905056fea165627a7a72305820ed1d3b3569ae986f822b8e9264b896f17014f4eea4cea9ee6c554559d0c3dafb0029596f7520617265206e6f742061207265676973746572656420656d706c6f7965722ea165627a7a72305820235abeaff5026f62dc79e1a3bdfc076a851d4e7f8945348a43e9abe456703de80029",
  "source": "pragma solidity ^0.5.0;\n\nimport \"./EthlanceRegistry.sol\";\nimport \"./EthlanceJobStore.sol\";\nimport \"./EthlanceUserFactory.sol\";\nimport \"./EthlanceUser.sol\";\nimport \"./proxy/MutableForwarder.sol\";\nimport \"./proxy/Forwarder.sol\";\n\n/// @title For creation of Job Contracts.\ncontract EthlanceJobFactory {\n  uint public constant version = 1;\n  EthlanceRegistry public constant registry = EthlanceRegistry(0xdaBBdABbDABbDabbDaBbDabbDaBbdaBbdaBbDAbB);\n\n  //\n  // Methods\n  //\n\n  /// @dev Fire events specific to the JobFactory\n  /// @param eventName Unique to give the fired event\n  /// @param eventData Additional event data to include in the\n  /// fired event.\n  function fireEvent(string memory eventName, uint[] memory eventData) private {\n    registry.fireEvent(eventName, version, eventData);\n  }\n\n\n  /// @dev Create Job Contract for given user defined by\n  /// 'employer_user_id'. Note that parameters are described in\n  /// EthlanceJob contract.\n  function createJobStore(uint8 bidOption,\n                          uint estimatedLengthSeconds,\n                          bool includeEtherToken,\n                          bool isInvitationOnly,\n                          string memory metahash,\n                          uint rewardValue)\n    public {\n    require(registry.isRegisteredEmployer(msg.sender),\n            \"You are not a registered employer.\");\n\n    // TODO: bounds on parameters\n\n    Forwarder fwd = new Forwarder(); // Proxy Contract with\n    // target(EthlanceJobStore)\n    EthlanceJobStore jobStore = EthlanceJobStore(address(fwd));\n\n    // Permit JobStore to fire registry events\n    registry.permitDispatch(address(fwd));\n\n    uint jobIndex = registry.pushJobStore(address(jobStore));\n    jobStore.construct(jobIndex,\n                       msg.sender,\n                       bidOption,\n                       estimatedLengthSeconds,\n                       includeEtherToken,\n                       isInvitationOnly,\n                       metahash,\n                       rewardValue);\n  \n    // Create and Fire off event data\n    uint[] memory edata = new uint[](1);\n    edata[0] = jobIndex;\n    fireEvent(\"JobStoreCreated\", edata);\n  }\n\n  //\n  // Views\n  //\n    \n  function getJobStoreCount()\n    public view returns(uint) {\n    return registry.getJobStoreCount();\n  }\n\n  /// @dev Get the job address at `index` within the job listing\n  /// @param index The index of the job address within the job listing.\n  /// @return The address of the given index\n  function getJobStoreByIndex(uint index)\n    public view returns (address)\n  {\n    return registry.getJobStoreByIndex(index);\n  }\n}\n",
  "sourcePath": "/home/benzap/projects/ethlance/contracts/EthlanceJobFactory.sol",
  "compiler": {
    "name": "solc",
    "version": "0.5.8+commit.23d335f2.Linux.g++"
  },
  "schemaVersion": "3.0.9",
  "updatedAt": "2019-05-15T03:25:42.105Z",
  "devdoc": {
    "methods": {
      "createJobStore(uint8,uint256,bool,bool,string,uint256)": {
        "details": "Create Job Contract for given user defined by 'employer_user_id'. Note that parameters are described in EthlanceJob contract."
      },
      "getJobStoreByIndex(uint256)": {
        "details": "Get the job address at `index` within the job listing",
        "params": {
          "index": "The index of the job address within the job listing."
        },
        "return": "The address of the given index"
      }
    },
    "title": "For creation of Job Contracts."
  },
  "userdoc": {
    "methods": {}
  }
}