{
  "contractName": "EthlanceInvoice",
  "abi": [
    {
      "constant": true,
      "inputs": [],
      "name": "dateUpdated",
      "outputs": [
        {
          "name": "",
          "type": "uint256"
        }
      ],
      "payable": false,
      "stateMutability": "view",
      "type": "function"
    },
    {
      "constant": true,
      "inputs": [],
      "name": "dateCreated",
      "outputs": [
        {
          "name": "",
          "type": "uint256"
        }
      ],
      "payable": false,
      "stateMutability": "view",
      "type": "function"
    },
    {
      "constant": true,
      "inputs": [],
      "name": "amountPaid",
      "outputs": [
        {
          "name": "",
          "type": "uint256"
        }
      ],
      "payable": false,
      "stateMutability": "view",
      "type": "function"
    },
    {
      "constant": true,
      "inputs": [],
      "name": "invoiceIndex",
      "outputs": [
        {
          "name": "",
          "type": "uint256"
        }
      ],
      "payable": false,
      "stateMutability": "view",
      "type": "function"
    },
    {
      "constant": true,
      "inputs": [],
      "name": "version",
      "outputs": [
        {
          "name": "",
          "type": "uint256"
        }
      ],
      "payable": false,
      "stateMutability": "view",
      "type": "function"
    },
    {
      "constant": true,
      "inputs": [],
      "name": "EMPLOYER_TYPE",
      "outputs": [
        {
          "name": "",
          "type": "uint256"
        }
      ],
      "payable": false,
      "stateMutability": "view",
      "type": "function"
    },
    {
      "constant": true,
      "inputs": [],
      "name": "registry",
      "outputs": [
        {
          "name": "",
          "type": "address"
        }
      ],
      "payable": false,
      "stateMutability": "view",
      "type": "function"
    },
    {
      "constant": true,
      "inputs": [],
      "name": "owner",
      "outputs": [
        {
          "name": "",
          "type": "address"
        }
      ],
      "payable": false,
      "stateMutability": "view",
      "type": "function"
    },
    {
      "constant": true,
      "inputs": [],
      "name": "workInstance",
      "outputs": [
        {
          "name": "",
          "type": "address"
        }
      ],
      "payable": false,
      "stateMutability": "view",
      "type": "function"
    },
    {
      "constant": true,
      "inputs": [],
      "name": "datePaid",
      "outputs": [
        {
          "name": "",
          "type": "uint256"
        }
      ],
      "payable": false,
      "stateMutability": "view",
      "type": "function"
    },
    {
      "constant": true,
      "inputs": [],
      "name": "CANDIDATE_TYPE",
      "outputs": [
        {
          "name": "",
          "type": "uint256"
        }
      ],
      "payable": false,
      "stateMutability": "view",
      "type": "function"
    },
    {
      "constant": true,
      "inputs": [],
      "name": "amountRequested",
      "outputs": [
        {
          "name": "",
          "type": "uint256"
        }
      ],
      "payable": false,
      "stateMutability": "view",
      "type": "function"
    },
    {
      "constant": true,
      "inputs": [],
      "name": "ARBITER_TYPE",
      "outputs": [
        {
          "name": "",
          "type": "uint256"
        }
      ],
      "payable": false,
      "stateMutability": "view",
      "type": "function"
    },
    {
      "constant": true,
      "inputs": [],
      "name": "GUEST_TYPE",
      "outputs": [
        {
          "name": "",
          "type": "uint256"
        }
      ],
      "payable": false,
      "stateMutability": "view",
      "type": "function"
    },
    {
      "constant": false,
      "inputs": [
        {
          "name": "_workInstance",
          "type": "address"
        },
        {
          "name": "_invoiceIndex",
          "type": "uint256"
        },
        {
          "name": "_amountRequested",
          "type": "uint256"
        },
        {
          "name": "metahash",
          "type": "string"
        }
      ],
      "name": "construct",
      "outputs": [],
      "payable": false,
      "stateMutability": "nonpayable",
      "type": "function"
    },
    {
      "constant": false,
      "inputs": [
        {
          "name": "_amountPaid",
          "type": "uint256"
        }
      ],
      "name": "pay",
      "outputs": [],
      "payable": false,
      "stateMutability": "nonpayable",
      "type": "function"
    },
    {
      "constant": true,
      "inputs": [],
      "name": "isInvoicePaid",
      "outputs": [
        {
          "name": "",
          "type": "bool"
        }
      ],
      "payable": false,
      "stateMutability": "view",
      "type": "function"
    },
    {
      "constant": false,
      "inputs": [
        {
          "name": "metahash",
          "type": "string"
        }
      ],
      "name": "addComment",
      "outputs": [],
      "payable": false,
      "stateMutability": "nonpayable",
      "type": "function"
    }
  ],
  "bytecode": "0x608060405234801561001057600080fd5b50611e5b806100206000396000f3fe6080604052600436106100fc576000357c0100000000000000000000000000000000000000000000000000000000900463ffffffff1680630201e5351461010157806314ec4f911461012c5780631f741c7a146101e6578063216340c31461021157806342ddaf4e1461023c57806354fd4d50146102675780636a10928f14610292578063717473a4146102bd5780637b103999146102ec578063843b4386146103435780638da5cb5b146103c9578063a5d622ea14610420578063b05ac85714610477578063b721f1cd146104a2578063c290d691146104cd578063c628d3f814610508578063fb01b30314610533578063fe737a121461055e575b600080fd5b34801561010d57600080fd5b50610116610589565b6040518082815260200191505060405180910390f35b34801561013857600080fd5b506101e46004803603608081101561014f57600080fd5b81019080803573ffffffffffffffffffffffffffffffffffffffff1690602001909291908035906020019092919080359060200190929190803590602001906401000000008111156101a057600080fd5b8201836020820111156101b257600080fd5b803590602001918460018302840111640100000000831117156101d457600080fd5b909192939192939050505061058f565b005b3480156101f257600080fd5b506101fb61086a565b6040518082815260200191505060405180910390f35b34801561021d57600080fd5b50610226610870565b6040518082815260200191505060405180910390f35b34801561024857600080fd5b50610251610876565b6040518082815260200191505060405180910390f35b34801561027357600080fd5b5061027c61087c565b6040518082815260200191505060405180910390f35b34801561029e57600080fd5b506102a7610881565b6040518082815260200191505060405180910390f35b3480156102c957600080fd5b506102d2610886565b604051808215151515815260200191505060405180910390f35b3480156102f857600080fd5b50610301610892565b604051808273ffffffffffffffffffffffffffffffffffffffff1673ffffffffffffffffffffffffffffffffffffffff16815260200191505060405180910390f35b34801561034f57600080fd5b506103c76004803603602081101561036657600080fd5b810190808035906020019064010000000081111561038357600080fd5b82018360208201111561039557600080fd5b803590602001918460018302840111640100000000831117156103b757600080fd5b90919293919293905050506108aa565b005b3480156103d557600080fd5b506103de6108fc565b604051808273ffffffffffffffffffffffffffffffffffffffff1673ffffffffffffffffffffffffffffffffffffffff16815260200191505060405180910390f35b34801561042c57600080fd5b50610435610922565b604051808273ffffffffffffffffffffffffffffffffffffffff1673ffffffffffffffffffffffffffffffffffffffff16815260200191505060405180910390f35b34801561048357600080fd5b5061048c610948565b6040518082815260200191505060405180910390f35b3480156104ae57600080fd5b506104b761094e565b6040518082815260200191505060405180910390f35b3480156104d957600080fd5b50610506600480360360208110156104f057600080fd5b8101908080359060200190929190505050610953565b005b34801561051457600080fd5b5061051d610d16565b6040518082815260200191505060405180910390f35b34801561053f57600080fd5b50610548610d1c565b6040518082815260200191505060405180910390f35b34801561056a57600080fd5b50610573610d21565b6040518082815260200191505060405180910390f35b60025481565b600073ffffffffffffffffffffffffffffffffffffffff16600660009054906101000a900473ffffffffffffffffffffffffffffffffffffffff1673ffffffffffffffffffffffffffffffffffffffff1614151561067b576040517f08c379a000000000000000000000000000000000000000000000000000000000815260040180806020018281038252602d8152602001807f4574686c616e6365496e766f69636520636f6e747261637420616c726561647981526020017f20636f6e73747275637465642e0000000000000000000000000000000000000081525060400191505060405180910390fd5b33600660006101000a81548173ffffffffffffffffffffffffffffffffffffffff021916908373ffffffffffffffffffffffffffffffffffffffff16021790555084600760006101000a81548173ffffffffffffffffffffffffffffffffffffffff021916908373ffffffffffffffffffffffffffffffffffffffff16021790555083600081905550826004819055504260018190555042600281905550610825600760009054906101000a900473ffffffffffffffffffffffffffffffffffffffff1673ffffffffffffffffffffffffffffffffffffffff16631daa7a386040518163ffffffff167c010000000000000000000000000000000000000000000000000000000002815260040160206040518083038186803b1580156107a057600080fd5b505afa1580156107b4573d6000803e3d6000fd5b505050506040513d60208110156107ca57600080fd5b810190808051906020019092919050505083838080601f016020809104026020016040519081016040528093929190818152602001838380828437600081840152601f19601f82011690508083019250505050505050610d26565b6108636040805190810160405280600e81526020017f496e766f696365437265617465640000000000000000000000000000000000008152506114a9565b5050505050565b60015481565b60055481565b60005481565b600181565b600181565b60008060035411905090565b73dabbdabbdabbdabbdabbdabbdabbdabbdabbdabb81565b6108f83383838080601f016020809104026020016040519081016040528093929190818152602001838380828437600081840152601f19601f82011690508083019250505050505050610d26565b5050565b600660009054906101000a900473ffffffffffffffffffffffffffffffffffffffff1681565b600760009054906101000a900473ffffffffffffffffffffffffffffffffffffffff1681565b60035481565b600281565b3373ffffffffffffffffffffffffffffffffffffffff16600760009054906101000a900473ffffffffffffffffffffffffffffffffffffffff1673ffffffffffffffffffffffffffffffffffffffff1663ac0677886040518163ffffffff167c010000000000000000000000000000000000000000000000000000000002815260040160206040518083038186803b1580156109ee57600080fd5b505afa158015610a02573d6000803e3d6000fd5b505050506040513d6020811015610a1857600080fd5b810190808051906020019092919050505073ffffffffffffffffffffffffffffffffffffffff16630d0175a96040518163ffffffff167c010000000000000000000000000000000000000000000000000000000002815260040160206040518083038186803b158015610a8a57600080fd5b505afa158015610a9e573d6000803e3d6000fd5b505050506040513d6020811015610ab457600080fd5b810190808051906020019092919050505073ffffffffffffffffffffffffffffffffffffffff16141515610b76576040517f08c379a00000000000000000000000000000000000000000000000000000000081526004018080602001828103825260258152602001807f4f6e6c792074686520656d706c6f7965722063616e2070617920616e20696e7681526020017f6f6963652e00000000000000000000000000000000000000000000000000000081525060400191505060405180910390fd5b6000600354141515610c16576040517f08c379a00000000000000000000000000000000000000000000000000000000081526004018080602001828103825260248152602001807f476976656e20696e766f6963652068617320616c7265616479206265656e207081526020017f6169642e0000000000000000000000000000000000000000000000000000000081525060400191505060405180910390fd5b600760009054906101000a900473ffffffffffffffffffffffffffffffffffffffff1673ffffffffffffffffffffffffffffffffffffffff1663ac60a6cd826040518263ffffffff167c010000000000000000000000000000000000000000000000000000000002815260040180828152602001915050600060405180830381600087803b158015610ca757600080fd5b505af1158015610cbb573d6000803e3d6000fd5b505050508060058190555042600381905550610cd561180c565b610d136040805190810160405280600b81526020017f496e766f696365506169640000000000000000000000000000000000000000008152506114a9565b50565b60045481565b600381565b600081565b6000610d3183611815565b905060008114151515610dd2576040517f08c379a00000000000000000000000000000000000000000000000000000000081526004018080602001828103825260368152602001807f4f6e6c79207468652063616e6469646174652c20656d706c6f7965722c20616e81526020017f6420617262697465722063616e20636f6d6d656e742e0000000000000000000081525060400191505060405180910390fd5b6000610ddc611c4a565b604051809103906000f080158015610df8573d6000803e3d6000fd5b509050600081905073dabbdabbdabbdabbdabbdabbdabbdabbdabbdabb73ffffffffffffffffffffffffffffffffffffffff166304d64386836040518263ffffffff167c0100000000000000000000000000000000000000000000000000000000028152600401808273ffffffffffffffffffffffffffffffffffffffff1673ffffffffffffffffffffffffffffffffffffffff168152602001915050600060405180830381600087803b158015610eaf57600080fd5b505af1158015610ec3573d6000803e3d6000fd5b5050505073dabbdabbdabbdabbdabbdabbdabbdabbdabbdabb73ffffffffffffffffffffffffffffffffffffffff1663585a5b1d30836040518363ffffffff167c0100000000000000000000000000000000000000000000000000000000028152600401808373ffffffffffffffffffffffffffffffffffffffff1673ffffffffffffffffffffffffffffffffffffffff1681526020018273ffffffffffffffffffffffffffffffffffffffff1673ffffffffffffffffffffffffffffffffffffffff16815260200192505050600060405180830381600087803b158015610faa57600080fd5b505af1158015610fbe573d6000803e3d6000fd5b50505050610fca611c5a565b600760009054906101000a900473ffffffffffffffffffffffffffffffffffffffff1673ffffffffffffffffffffffffffffffffffffffff1663ac0677886040518163ffffffff167c010000000000000000000000000000000000000000000000000000000002815260040160206040518083038186803b15801561104e57600080fd5b505afa158015611062573d6000803e3d6000fd5b505050506040513d602081101561107857600080fd5b810190808051906020019092919050505073ffffffffffffffffffffffffffffffffffffffff1663b77728186040518163ffffffff167c010000000000000000000000000000000000000000000000000000000002815260040160206040518083038186803b1580156110ea57600080fd5b505afa1580156110fe573d6000803e3d6000fd5b505050506040513d602081101561111457600080fd5b810190808051906020019092919050505081600060048110151561113457fe5b602002018181525050600760009054906101000a900473ffffffffffffffffffffffffffffffffffffffff1673ffffffffffffffffffffffffffffffffffffffff16630f8af3c56040518163ffffffff167c010000000000000000000000000000000000000000000000000000000002815260040160206040518083038186803b1580156111c157600080fd5b505afa1580156111d5573d6000803e3d6000fd5b505050506040513d60208110156111eb57600080fd5b810190808051906020019092919050505081600160048110151561120b57fe5b60200201818152505060005481600260048110151561122657fe5b602002018181525050600173dabbdabbdabbdabbdabbdabbdabbdabbdabbdabb73ffffffffffffffffffffffffffffffffffffffff16635f329fb2306040518263ffffffff167c0100000000000000000000000000000000000000000000000000000000028152600401808273ffffffffffffffffffffffffffffffffffffffff1673ffffffffffffffffffffffffffffffffffffffff16815260200191505060206040518083038186803b1580156112de57600080fd5b505afa1580156112f2573d6000803e3d6000fd5b505050506040513d602081101561130857600080fd5b81019080805190602001909291905050500381600360048110151561132957fe5b6020020181815250508173ffffffffffffffffffffffffffffffffffffffff16634bda28d18786886001866040518663ffffffff167c0100000000000000000000000000000000000000000000000000000000028152600401808673ffffffffffffffffffffffffffffffffffffffff1673ffffffffffffffffffffffffffffffffffffffff168152602001858152602001806020018460028111156113cb57fe5b60ff16815260200183600460200280838360005b838110156113fa5780820151818401526020810190506113df565b50505050905001828103825285818151815260200191508051906020019080838360005b8381101561143957808201518184015260208101905061141e565b50505050905090810190601f1680156114665780820380516001836020036101000a031916815260200191505b509650505050505050600060405180830381600087803b15801561148957600080fd5b505af115801561149d573d6000803e3d6000fd5b50505050505050505050565b606060036040519080825280602002602001820160405280156114db5781602001602082028038833980820191505090505b509050600760009054906101000a900473ffffffffffffffffffffffffffffffffffffffff1673ffffffffffffffffffffffffffffffffffffffff1663b77728186040518163ffffffff167c010000000000000000000000000000000000000000000000000000000002815260040160206040518083038186803b15801561156257600080fd5b505afa158015611576573d6000803e3d6000fd5b505050506040513d602081101561158c57600080fd5b81019080805190602001909291905050508160008151811015156115ac57fe5b9060200190602002018181525050600760009054906101000a900473ffffffffffffffffffffffffffffffffffffffff1673ffffffffffffffffffffffffffffffffffffffff16630f8af3c56040518163ffffffff167c010000000000000000000000000000000000000000000000000000000002815260040160206040518083038186803b15801561163e57600080fd5b505afa158015611652573d6000803e3d6000fd5b505050506040513d602081101561166857600080fd5b810190808051906020019092919050505081600181518110151561168857fe5b90602001906020020181815250506000548160028151811015156116a857fe5b906020019060200201818152505073dabbdabbdabbdabbdabbdabbdabbdabbdabbdabb73ffffffffffffffffffffffffffffffffffffffff16634904a20c836001846040518463ffffffff167c0100000000000000000000000000000000000000000000000000000000028152600401808060200184815260200180602001838103835286818151815260200191508051906020019080838360005b8381101561175f578082015181840152602081019050611744565b50505050905090810190601f16801561178c5780820380516001836020036101000a031916815260200191505b50838103825284818151815260200191508051906020019060200280838360005b838110156117c85780820151818401526020810190506117ad565b5050505090500195505050505050600060405180830381600087803b1580156117f057600080fd5b505af1158015611804573d6000803e3d6000fd5b505050505050565b42600281905550565b6000600760009054906101000a900473ffffffffffffffffffffffffffffffffffffffff1673ffffffffffffffffffffffffffffffffffffffff16631daa7a386040518163ffffffff167c010000000000000000000000000000000000000000000000000000000002815260040160206040518083038186803b15801561189b57600080fd5b505afa1580156118af573d6000803e3d6000fd5b505050506040513d60208110156118c557600080fd5b810190808051906020019092919050505073ffffffffffffffffffffffffffffffffffffffff168273ffffffffffffffffffffffffffffffffffffffff1614156119125760029050611c45565b600760009054906101000a900473ffffffffffffffffffffffffffffffffffffffff1673ffffffffffffffffffffffffffffffffffffffff1663ac0677886040518163ffffffff167c010000000000000000000000000000000000000000000000000000000002815260040160206040518083038186803b15801561199657600080fd5b505afa1580156119aa573d6000803e3d6000fd5b505050506040513d60208110156119c057600080fd5b810190808051906020019092919050505073ffffffffffffffffffffffffffffffffffffffff16630d0175a96040518163ffffffff167c010000000000000000000000000000000000000000000000000000000002815260040160206040518083038186803b158015611a3257600080fd5b505afa158015611a46573d6000803e3d6000fd5b505050506040513d6020811015611a5c57600080fd5b810190808051906020019092919050505073ffffffffffffffffffffffffffffffffffffffff168273ffffffffffffffffffffffffffffffffffffffff161415611aa95760019050611c45565b600760009054906101000a900473ffffffffffffffffffffffffffffffffffffffff1673ffffffffffffffffffffffffffffffffffffffff1663ac0677886040518163ffffffff167c010000000000000000000000000000000000000000000000000000000002815260040160206040518083038186803b158015611b2d57600080fd5b505afa158015611b41573d6000803e3d6000fd5b505050506040513d6020811015611b5757600080fd5b810190808051906020019092919050505073ffffffffffffffffffffffffffffffffffffffff1663fbbd21386040518163ffffffff167c010000000000000000000000000000000000000000000000000000000002815260040160206040518083038186803b158015611bc957600080fd5b505afa158015611bdd573d6000803e3d6000fd5b505050506040513d6020811015611bf357600080fd5b810190808051906020019092919050505073ffffffffffffffffffffffffffffffffffffffff168273ffffffffffffffffffffffffffffffffffffffff161415611c405760039050611c45565b600090505b919050565b6040516101b280611c7e83390190565b60806040519081016040528060049060208202803883398082019150509050509056fe608060405234801561001057600080fd5b50610192806100206000396000f3fe608060405260043610610041576000357c0100000000000000000000000000000000000000000000000000000000900463ffffffff168063d4b83992146100a6575b6100a473beefbeefbeefbeefbeefbeefbeefbeefbeefbeef6000368080601f016020809104026020016040519081016040528093929190818152602001838380828437600081840152601f19601f820116905080830192505050505050506100fd565b005b3480156100b257600080fd5b506100bb61013b565b604051808273ffffffffffffffffffffffffffffffffffffffff1673ffffffffffffffffffffffffffffffffffffffff16815260200191505060405180910390f35b61010682610153565b151561011157600080fd5b600080825160208401856127105a03f43d604051816000823e8260008114610137578282f35b8282fd5b73beefbeefbeefbeefbeefbeefbeefbeefbeefbeef81565b600080823b90506000811191505091905056fea165627a7a72305820276e76d79a36bb731ba224be90c8a15bd265b79c545434b5bd78802a33ee14700029a165627a7a7230582043c96c8a43398e414728e57f92a11ba752abb07d76eb34abce5529586a4a2a2e0029",
  "source": "pragma solidity ^0.5.0;\n\nimport \"./EthlanceRegistry.sol\";\nimport \"./EthlanceWorkContract.sol\";\nimport \"./EthlanceComment.sol\";\nimport \"./proxy/Forwarder.sol\";\n\n\n/// @title Represents a Candidate Invoice for work\ncontract EthlanceInvoice {\n  uint public constant version = 1;\n  EthlanceRegistry public constant registry = EthlanceRegistry(0xdaBBdABbDABbDabbDaBbDabbDaBbdaBbdaBbDAbB);\n\n\n  //\n  // Constants\n  //\n  uint public constant GUEST_TYPE = 0;\n  uint public constant EMPLOYER_TYPE = 1;\n  uint public constant CANDIDATE_TYPE = 2;\n  uint public constant ARBITER_TYPE = 3;\n\n\n  //\n  // Members\n  //\n  uint public invoiceIndex;\n\n  uint public dateCreated;\n    \n  uint public dateUpdated;\n\n  // When datePaid is set >0, this reflects completion\n  uint public datePaid;\n    \n  //FIXME: needs to be more flexible for other currency types\n  //defined in the contract.\n\n  // In Wei, the amount that needs to be paid to the candidate(employee)\n  uint public amountRequested;\n    \n  // In Wei, the amount actually paid by the employer to the candidate(employee)\n  uint public amountPaid;\n\n  // The entity that constructed the contract\n  address public owner;\n\n  // The EthlanceWorkContract reference.\n  EthlanceWorkContract public workInstance;\n    \n  /// @dev Forwarder Constructor\n  function construct(EthlanceWorkContract _workInstance,\n                     uint _invoiceIndex,\n                     uint _amountRequested,\n                     string calldata metahash) external {\n    require(owner == address(0), \"EthlanceInvoice contract already constructed.\");\n    owner = msg.sender;\n\n    workInstance = _workInstance;\n    invoiceIndex = _invoiceIndex;\n    amountRequested = _amountRequested;\n    dateCreated = now;\n    dateUpdated = now;\n\n    // Fire off comment with provided metahash\n    createComment(workInstance.candidateAddress(), metahash);\n\n    // Fire off event\n    fireEvent(\"InvoiceCreated\");\n  }\n\n    \n  function updateDateUpdated() private {\n    dateUpdated = now;\n  }\n\n\n  /// @dev Pays the given invoice the the amount of `_amountPaid`.\n  /// @param _amountPaid The amount to pay the invoice in Wei.\n  function pay(uint _amountPaid) external {\n    require(workInstance.storeInstance().employerAddress() == msg.sender,\n            \"Only the employer can pay an invoice.\");\n    require(datePaid == 0, \"Given invoice has already been paid.\");\n\n    workInstance.payInvoice(_amountPaid);\n    amountPaid = _amountPaid;\n    datePaid = now;\n    updateDateUpdated();\n\n    // Fire off event\n    fireEvent(\"InvoicePaid\");\n  }\n\n    \n  /// @dev Returns true if the invoice has been paid.\n  function isInvoicePaid() external view returns(bool) {\n    return datePaid > 0;\n  }\n\n\n  /// @dev Fire events specific to the invoice.\n  /// @param event_name Unique to give the fired event\n  function fireEvent(string memory event_name) private {\n    uint[] memory event_data = new uint[](3);\n    event_data[0] = workInstance.jobIndex();\n    event_data[1] = workInstance.workIndex();\n    event_data[2] = invoiceIndex;\n\n    registry.fireEvent(event_name, version, event_data);\n  }\n\n\n  /// @dev Returns the user type, either CANDIDATE_TYPE,\n  /// EMPLOYER_TYPE, ARBITER_TYPE, or GUEST_TYPE for the given\n  /// address.\n  function getUserType(address _address) private returns (uint) {\n    if (_address == workInstance.candidateAddress()) {\n      return CANDIDATE_TYPE;\n    }\n    else if (_address == workInstance.storeInstance().employerAddress()) {\n      return EMPLOYER_TYPE;\n    }\n    else if (_address == workInstance.storeInstance().acceptedArbiter()) {\n      return ARBITER_TYPE;\n    }\n    else {\n      return GUEST_TYPE;\n    }\n  }\n\n\n  /// @dev Public function for authorized users to create comments\n  /// on the given invoice.\n  function addComment(string calldata metahash) external {\n    createComment(msg.sender, metahash);\n  }\n\n\n  /// @dev Place a comment on the invoice linked to the given user\n  /// address\n  function createComment(address userAddress, string memory metahash) private {\n    uint userType = getUserType(userAddress);\n    require(userType != GUEST_TYPE,\n            \"Only the candidate, employer, and arbiter can comment.\");\n  \n    // Create the forwarded contract\n    Forwarder fwd = new Forwarder(); // Proxy Contract\n    // target(EthlanceComment)\n    EthlanceComment comment = EthlanceComment(address(fwd));\n\n    // Permit Comment to fire registry events\n    registry.permitDispatch(address(fwd));\n\n    // Add comment to the registry comment listing\n    registry.pushComment(address(this), address(comment));\n\n    uint[4] memory index;\n    index[0] = workInstance.storeInstance().jobIndex();\n    index[1] = workInstance.workIndex();\n    index[2] = invoiceIndex;\n    index[3] = registry.getCommentCount(address(this)) - 1;\n\n    // Construct the comment contract\n    comment.construct(userAddress,\n                      userType,\n                      metahash,\n                      EthlanceComment.CommentType.Invoice,\n                      index);\n  }\n}\n",
  "sourcePath": "/home/benzap/projects/ethlance/contracts/EthlanceInvoice.sol",
  "compiler": {
    "name": "solc",
    "version": "0.5.0+commit.1d4f565a.Emscripten.clang"
  },
  "schemaVersion": "3.0.9",
  "updatedAt": "2019-05-14T23:51:40.096Z",
  "devdoc": {
    "methods": {
      "addComment(string)": {
        "details": "Public function for authorized users to create comments on the given invoice."
      },
      "construct(address,uint256,uint256,string)": {
        "details": "Forwarder Constructor"
      },
      "isInvoicePaid()": {
        "details": "Returns true if the invoice has been paid."
      },
      "pay(uint256)": {
        "details": "Pays the given invoice the the amount of `_amountPaid`.",
        "params": {
          "_amountPaid": "The amount to pay the invoice in Wei."
        }
      }
    },
    "title": "Represents a Candidate Invoice for work"
  },
  "userdoc": {
    "methods": {}
  }
}