{
  "contractName": "EthlanceDispute",
  "abi": [
    {
      "constant": true,
      "inputs": [],
      "name": "dateUpdated",
      "outputs": [
        {
          "name": "",
          "type": "uint256"
        }
      ],
      "payable": false,
      "stateMutability": "view",
      "type": "function"
    },
    {
      "constant": true,
      "inputs": [],
      "name": "arbiterResolutionAmount",
      "outputs": [
        {
          "name": "",
          "type": "uint256"
        }
      ],
      "payable": false,
      "stateMutability": "view",
      "type": "function"
    },
    {
      "constant": true,
      "inputs": [],
      "name": "employerResolutionToken",
      "outputs": [
        {
          "name": "",
          "type": "address"
        }
      ],
      "payable": false,
      "stateMutability": "view",
      "type": "function"
    },
    {
      "constant": true,
      "inputs": [],
      "name": "dateCreated",
      "outputs": [
        {
          "name": "",
          "type": "uint256"
        }
      ],
      "payable": false,
      "stateMutability": "view",
      "type": "function"
    },
    {
      "constant": true,
      "inputs": [],
      "name": "arbiterResolutionToken",
      "outputs": [
        {
          "name": "",
          "type": "address"
        }
      ],
      "payable": false,
      "stateMutability": "view",
      "type": "function"
    },
    {
      "constant": true,
      "inputs": [],
      "name": "version",
      "outputs": [
        {
          "name": "",
          "type": "uint256"
        }
      ],
      "payable": false,
      "stateMutability": "view",
      "type": "function"
    },
    {
      "constant": true,
      "inputs": [],
      "name": "candidateResolutionToken",
      "outputs": [
        {
          "name": "",
          "type": "address"
        }
      ],
      "payable": false,
      "stateMutability": "view",
      "type": "function"
    },
    {
      "constant": true,
      "inputs": [],
      "name": "EMPLOYER_TYPE",
      "outputs": [
        {
          "name": "",
          "type": "uint256"
        }
      ],
      "payable": false,
      "stateMutability": "view",
      "type": "function"
    },
    {
      "constant": true,
      "inputs": [],
      "name": "dateResolved",
      "outputs": [
        {
          "name": "",
          "type": "uint256"
        }
      ],
      "payable": false,
      "stateMutability": "view",
      "type": "function"
    },
    {
      "constant": true,
      "inputs": [],
      "name": "registry",
      "outputs": [
        {
          "name": "",
          "type": "address"
        }
      ],
      "payable": false,
      "stateMutability": "view",
      "type": "function"
    },
    {
      "constant": true,
      "inputs": [],
      "name": "candidateResolutionAmount",
      "outputs": [
        {
          "name": "",
          "type": "uint256"
        }
      ],
      "payable": false,
      "stateMutability": "view",
      "type": "function"
    },
    {
      "constant": true,
      "inputs": [],
      "name": "owner",
      "outputs": [
        {
          "name": "",
          "type": "address"
        }
      ],
      "payable": false,
      "stateMutability": "view",
      "type": "function"
    },
    {
      "constant": true,
      "inputs": [],
      "name": "workInstance",
      "outputs": [
        {
          "name": "",
          "type": "address"
        }
      ],
      "payable": false,
      "stateMutability": "view",
      "type": "function"
    },
    {
      "constant": true,
      "inputs": [],
      "name": "CANDIDATE_TYPE",
      "outputs": [
        {
          "name": "",
          "type": "uint256"
        }
      ],
      "payable": false,
      "stateMutability": "view",
      "type": "function"
    },
    {
      "constant": true,
      "inputs": [],
      "name": "disputeIndex",
      "outputs": [
        {
          "name": "",
          "type": "uint256"
        }
      ],
      "payable": false,
      "stateMutability": "view",
      "type": "function"
    },
    {
      "constant": true,
      "inputs": [],
      "name": "reason",
      "outputs": [
        {
          "name": "",
          "type": "string"
        }
      ],
      "payable": false,
      "stateMutability": "view",
      "type": "function"
    },
    {
      "constant": true,
      "inputs": [],
      "name": "ARBITER_TYPE",
      "outputs": [
        {
          "name": "",
          "type": "uint256"
        }
      ],
      "payable": false,
      "stateMutability": "view",
      "type": "function"
    },
    {
      "constant": true,
      "inputs": [],
      "name": "employerResolutionAmount",
      "outputs": [
        {
          "name": "",
          "type": "uint256"
        }
      ],
      "payable": false,
      "stateMutability": "view",
      "type": "function"
    },
    {
      "constant": true,
      "inputs": [],
      "name": "GUEST_TYPE",
      "outputs": [
        {
          "name": "",
          "type": "uint256"
        }
      ],
      "payable": false,
      "stateMutability": "view",
      "type": "function"
    },
    {
      "constant": false,
      "inputs": [
        {
          "name": "_workInstance",
          "type": "address"
        },
        {
          "name": "_disputeIndex",
          "type": "uint256"
        },
        {
          "name": "_reason",
          "type": "string"
        },
        {
          "name": "metahash",
          "type": "string"
        },
        {
          "name": "is_employer_request",
          "type": "bool"
        }
      ],
      "name": "construct",
      "outputs": [],
      "payable": false,
      "stateMutability": "nonpayable",
      "type": "function"
    },
    {
      "constant": false,
      "inputs": [
        {
          "name": "_employerAmount",
          "type": "uint256"
        },
        {
          "name": "_employerToken",
          "type": "address"
        },
        {
          "name": "_candidateAmount",
          "type": "uint256"
        },
        {
          "name": "_candidateToken",
          "type": "address"
        },
        {
          "name": "_arbiterAmount",
          "type": "uint256"
        },
        {
          "name": "_arbiterToken",
          "type": "address"
        }
      ],
      "name": "resolve",
      "outputs": [],
      "payable": false,
      "stateMutability": "nonpayable",
      "type": "function"
    },
    {
      "constant": true,
      "inputs": [],
      "name": "isResolved",
      "outputs": [
        {
          "name": "",
          "type": "bool"
        }
      ],
      "payable": false,
      "stateMutability": "view",
      "type": "function"
    },
    {
      "constant": false,
      "inputs": [
        {
          "name": "metahash",
          "type": "string"
        }
      ],
      "name": "addComment",
      "outputs": [],
      "payable": false,
      "stateMutability": "nonpayable",
      "type": "function"
    },
    {
      "constant": false,
      "inputs": [
        {
          "name": "rating",
          "type": "uint256"
        },
        {
          "name": "metahash",
          "type": "string"
        }
      ],
      "name": "leaveFeedback",
      "outputs": [],
      "payable": false,
      "stateMutability": "nonpayable",
      "type": "function"
    }
  ],
  "bytecode": "0x608060405234801561001057600080fd5b50612dad806100206000396000f3fe608060405234801561001057600080fd5b50600436106101585760003560e01c80638ac236f7116100c3578063d2cc8fee1161007c578063d2cc8fee146106ab578063dbb3f537146106c9578063e134e33d146106eb578063fb01b3031461076e578063fb2698681461078c578063fe737a12146107aa57610158565b80638ac236f7146104b65780638da5cb5b146104d4578063a5d622ea1461051e578063aafcf67c14610568578063b721f1cd1461060a578063cbf50ec01461062857610158565b806354fd4d501161011557806354fd4d501461034f5780635e7277b81461036d5780636a10928f146103b75780636aa42beb146103d55780637b103999146103f3578063843b43861461043d57610158565b80630201e5351461015d57806308a447a41461017b5780631c0994b6146101995780631f741c7a146101e3578063485715e81461020157806349f4b5171461024b575b600080fd5b6101656107c8565b6040518082815260200191505060405180910390f35b6101836107ce565b6040518082815260200191505060405180910390f35b6101a16107d4565b604051808273ffffffffffffffffffffffffffffffffffffffff1673ffffffffffffffffffffffffffffffffffffffff16815260200191505060405180910390f35b6101eb6107fa565b6040518082815260200191505060405180910390f35b610209610800565b604051808273ffffffffffffffffffffffffffffffffffffffff1673ffffffffffffffffffffffffffffffffffffffff16815260200191505060405180910390f35b61034d600480360360a081101561026157600080fd5b81019080803573ffffffffffffffffffffffffffffffffffffffff16906020019092919080359060200190929190803590602001906401000000008111156102a857600080fd5b8201836020820111156102ba57600080fd5b803590602001918460018302840111640100000000831117156102dc57600080fd5b9091929391929390803590602001906401000000008111156102fd57600080fd5b82018360208201111561030f57600080fd5b8035906020019184600183028401116401000000008311171561033157600080fd5b9091929391929390803515159060200190929190505050610826565b005b610357610c29565b6040518082815260200191505060405180910390f35b610375610c2e565b604051808273ffffffffffffffffffffffffffffffffffffffff1673ffffffffffffffffffffffffffffffffffffffff16815260200191505060405180910390f35b6103bf610c54565b6040518082815260200191505060405180910390f35b6103dd610c59565b6040518082815260200191505060405180910390f35b6103fb610c5f565b604051808273ffffffffffffffffffffffffffffffffffffffff1673ffffffffffffffffffffffffffffffffffffffff16815260200191505060405180910390f35b6104b46004803603602081101561045357600080fd5b810190808035906020019064010000000081111561047057600080fd5b82018360208201111561048257600080fd5b803590602001918460018302840111640100000000831117156104a457600080fd5b9091929391929390505050610c77565b005b6104be610cc9565b6040518082815260200191505060405180910390f35b6104dc610ccf565b604051808273ffffffffffffffffffffffffffffffffffffffff1673ffffffffffffffffffffffffffffffffffffffff16815260200191505060405180910390f35b610526610cf5565b604051808273ffffffffffffffffffffffffffffffffffffffff1673ffffffffffffffffffffffffffffffffffffffff16815260200191505060405180910390f35b610608600480360360c081101561057e57600080fd5b8101908080359060200190929190803573ffffffffffffffffffffffffffffffffffffffff16906020019092919080359060200190929190803573ffffffffffffffffffffffffffffffffffffffff16906020019092919080359060200190929190803573ffffffffffffffffffffffffffffffffffffffff169060200190929190505050610d1b565b005b610612611182565b6040518082815260200191505060405180910390f35b6106a96004803603604081101561063e57600080fd5b81019080803590602001909291908035906020019064010000000081111561066557600080fd5b82018360208201111561067757600080fd5b8035906020019184600183028401116401000000008311171561069957600080fd5b9091929391929390505050611187565b005b6106b3611a99565b6040518082815260200191505060405180910390f35b6106d1611a9f565b604051808215151515815260200191505060405180910390f35b6106f3611aac565b6040518080602001828103825283818151815260200191508051906020019080838360005b83811015610733578082015181840152602081019050610718565b50505050905090810190601f1680156107605780820380516001836020036101000a031916815260200191505b509250505060405180910390f35b610776611b4a565b6040518082815260200191505060405180910390f35b610794611b4f565b6040518082815260200191505060405180910390f35b6107b2611b55565b6040518082815260200191505060405180910390f35b60025481565b60095481565b600660009054906101000a900473ffffffffffffffffffffffffffffffffffffffff1681565b60015481565b600a60009054906101000a900473ffffffffffffffffffffffffffffffffffffffff1681565b600073ffffffffffffffffffffffffffffffffffffffff16600b60009054906101000a900473ffffffffffffffffffffffffffffffffffffffff1673ffffffffffffffffffffffffffffffffffffffff16146108cd576040517f08c379a000000000000000000000000000000000000000000000000000000000815260040180806020018281038252602d815260200180612d0e602d913960400191505060405180910390fd5b33600b60006101000a81548173ffffffffffffffffffffffffffffffffffffffff021916908373ffffffffffffffffffffffffffffffffffffffff16021790555086600c60006101000a81548173ffffffffffffffffffffffffffffffffffffffff021916908373ffffffffffffffffffffffffffffffffffffffff16021790555085600081905550848460049190610967929190612885565b5042600181905550426002819055508015610af157610aec600c60009054906101000a900473ffffffffffffffffffffffffffffffffffffffff1673ffffffffffffffffffffffffffffffffffffffff1663ac0677886040518163ffffffff1660e01b815260040160206040518083038186803b1580156109e757600080fd5b505afa1580156109fb573d6000803e3d6000fd5b505050506040513d6020811015610a1157600080fd5b810190808051906020019092919050505073ffffffffffffffffffffffffffffffffffffffff16630d0175a96040518163ffffffff1660e01b815260040160206040518083038186803b158015610a6757600080fd5b505afa158015610a7b573d6000803e3d6000fd5b505050506040513d6020811015610a9157600080fd5b810190808051906020019092919050505084848080601f016020809104026020016040519081016040528093929190818152602001838380828437600081840152601f19601f82011690508083019250505050505050611b5a565b610be2565b610be1600c60009054906101000a900473ffffffffffffffffffffffffffffffffffffffff1673ffffffffffffffffffffffffffffffffffffffff16631daa7a386040518163ffffffff1660e01b815260040160206040518083038186803b158015610b5c57600080fd5b505afa158015610b70573d6000803e3d6000fd5b505050506040513d6020811015610b8657600080fd5b810190808051906020019092919050505084848080601f016020809104026020016040519081016040528093929190818152602001838380828437600081840152601f19601f82011690508083019250505050505050611b5a565b5b610c206040518060400160405280600e81526020017f44697370757465437265617465640000000000000000000000000000000000008152506121d0565b50505050505050565b600181565b600860009054906101000a900473ffffffffffffffffffffffffffffffffffffffff1681565b600181565b60035481565b73dabbdabbdabbdabbdabbdabbdabbdabbdabbdabb81565b610cc53383838080601f016020809104026020016040519081016040528093929190818152602001838380828437600081840152601f19601f82011690508083019250505050505050611b5a565b5050565b60075481565b600b60009054906101000a900473ffffffffffffffffffffffffffffffffffffffff1681565b600c60009054906101000a900473ffffffffffffffffffffffffffffffffffffffff1681565b3373ffffffffffffffffffffffffffffffffffffffff16600c60009054906101000a900473ffffffffffffffffffffffffffffffffffffffff1673ffffffffffffffffffffffffffffffffffffffff1663ac0677886040518163ffffffff1660e01b815260040160206040518083038186803b158015610d9a57600080fd5b505afa158015610dae573d6000803e3d6000fd5b505050506040513d6020811015610dc457600080fd5b810190808051906020019092919050505073ffffffffffffffffffffffffffffffffffffffff1663fbbd21386040518163ffffffff1660e01b815260040160206040518083038186803b158015610e1a57600080fd5b505afa158015610e2e573d6000803e3d6000fd5b505050506040513d6020811015610e4457600080fd5b810190808051906020019092919050505073ffffffffffffffffffffffffffffffffffffffff1614610ec1576040517f08c379a0000000000000000000000000000000000000000000000000000000008152600401808060200182810382526030815260200180612c816030913960400191505060405180910390fd5b600060035414610f1c576040517f08c379a0000000000000000000000000000000000000000000000000000000008152600401808060200182810382526027815260200180612ce76027913960400191505060405180910390fd5b600c60009054906101000a900473ffffffffffffffffffffffffffffffffffffffff1673ffffffffffffffffffffffffffffffffffffffff1663c45fc5138787878787876040518763ffffffff1660e01b8152600401808781526020018673ffffffffffffffffffffffffffffffffffffffff1673ffffffffffffffffffffffffffffffffffffffff1681526020018581526020018473ffffffffffffffffffffffffffffffffffffffff1673ffffffffffffffffffffffffffffffffffffffff1681526020018381526020018273ffffffffffffffffffffffffffffffffffffffff1673ffffffffffffffffffffffffffffffffffffffff1681526020019650505050505050600060405180830381600087803b15801561103d57600080fd5b505af1158015611051573d6000803e3d6000fd5b505050508560058190555084600660006101000a81548173ffffffffffffffffffffffffffffffffffffffff021916908373ffffffffffffffffffffffffffffffffffffffff1602179055508360078190555082600860006101000a81548173ffffffffffffffffffffffffffffffffffffffff021916908373ffffffffffffffffffffffffffffffffffffffff1602179055508160098190555080600a60006101000a81548173ffffffffffffffffffffffffffffffffffffffff021916908373ffffffffffffffffffffffffffffffffffffffff1602179055504260038190555061113c6124d3565b61117a6040518060400160405280600f81526020017f446973707574655265736f6c76656400000000000000000000000000000000008152506121d0565b505050505050565b600281565b6000611192336124dc565b905060028114806111a35750600181145b6111f8576040517f08c379a0000000000000000000000000000000000000000000000000000000008152600401808060200182810382526047815260200180612d3b6047913960600191505060405180910390fd5b6000600c60009054906101000a900473ffffffffffffffffffffffffffffffffffffffff1673ffffffffffffffffffffffffffffffffffffffff1663ac0677886040518163ffffffff1660e01b815260040160206040518083038186803b15801561126257600080fd5b505afa158015611276573d6000803e3d6000fd5b505050506040513d602081101561128c57600080fd5b810190808051906020019092919050505073ffffffffffffffffffffffffffffffffffffffff1663fbbd21386040518163ffffffff1660e01b815260040160206040518083038186803b1580156112e257600080fd5b505afa1580156112f6573d6000803e3d6000fd5b505050506040513d602081101561130c57600080fd5b81019080805190602001909291905050509050600060039050600073dabbdabbdabbdabbdabbdabbdabbdabbdabbdabb73ffffffffffffffffffffffffffffffffffffffff16638bac5fbc600c60009054906101000a900473ffffffffffffffffffffffffffffffffffffffff166040518263ffffffff1660e01b8152600401808273ffffffffffffffffffffffffffffffffffffffff1673ffffffffffffffffffffffffffffffffffffffff16815260200191505060206040518083038186803b1580156113da57600080fd5b505afa1580156113ee573d6000803e3d6000fd5b505050506040513d602081101561140457600080fd5b810190808051906020019092919050505061188857600060405161142790612905565b604051809103906000f080158015611443573d6000803e3d6000fd5b50905080915073dabbdabbdabbdabbdabbdabbdabbdabbdabbdabb73ffffffffffffffffffffffffffffffffffffffff166304d64386826040518263ffffffff1660e01b8152600401808273ffffffffffffffffffffffffffffffffffffffff1673ffffffffffffffffffffffffffffffffffffffff168152602001915050600060405180830381600087803b1580156114dc57600080fd5b505af11580156114f0573d6000803e3d6000fd5b5050505073dabbdabbdabbdabbdabbdabbdabbdabbdabbdabb73ffffffffffffffffffffffffffffffffffffffff1663ec6040be600c60009054906101000a900473ffffffffffffffffffffffffffffffffffffffff16846040518363ffffffff1660e01b8152600401808373ffffffffffffffffffffffffffffffffffffffff1673ffffffffffffffffffffffffffffffffffffffff1681526020018273ffffffffffffffffffffffffffffffffffffffff1673ffffffffffffffffffffffffffffffffffffffff16815260200192505050600060405180830381600087803b1580156115dd57600080fd5b505af11580156115f1573d6000803e3d6000fd5b505050508173ffffffffffffffffffffffffffffffffffffffff1663ed7ace46600c60009054906101000a900473ffffffffffffffffffffffffffffffffffffffff16600c60009054906101000a900473ffffffffffffffffffffffffffffffffffffffff1673ffffffffffffffffffffffffffffffffffffffff1663ac0677886040518163ffffffff1660e01b815260040160206040518083038186803b15801561169c57600080fd5b505afa1580156116b0573d6000803e3d6000fd5b505050506040513d60208110156116c657600080fd5b810190808051906020019092919050505073ffffffffffffffffffffffffffffffffffffffff1663b77728186040518163ffffffff1660e01b815260040160206040518083038186803b15801561171c57600080fd5b505afa158015611730573d6000803e3d6000fd5b505050506040513d602081101561174657600080fd5b8101908080519060200190929190505050600c60009054906101000a900473ffffffffffffffffffffffffffffffffffffffff1673ffffffffffffffffffffffffffffffffffffffff16630f8af3c56040518163ffffffff1660e01b815260040160206040518083038186803b1580156117bf57600080fd5b505afa1580156117d3573d6000803e3d6000fd5b505050506040513d60208110156117e957600080fd5b81019080805190602001909291905050506040518463ffffffff1660e01b8152600401808473ffffffffffffffffffffffffffffffffffffffff1673ffffffffffffffffffffffffffffffffffffffff1681526020018381526020018281526020019350505050600060405180830381600087803b15801561186a57600080fd5b505af115801561187e573d6000803e3d6000fd5b5050505050611979565b73dabbdabbdabbdabbdabbdabbdabbdabbdabbdabb73ffffffffffffffffffffffffffffffffffffffff166313f7ab10600c60009054906101000a900473ffffffffffffffffffffffffffffffffffffffff166040518263ffffffff1660e01b8152600401808273ffffffffffffffffffffffffffffffffffffffff1673ffffffffffffffffffffffffffffffffffffffff16815260200191505060206040518083038186803b15801561193b57600080fd5b505afa15801561194f573d6000803e3d6000fd5b505050506040513d602081101561196557600080fd5b810190808051906020019092919050505090505b8073ffffffffffffffffffffffffffffffffffffffff166343168a3e338587868b8b8e6040518863ffffffff1660e01b8152600401808873ffffffffffffffffffffffffffffffffffffffff1673ffffffffffffffffffffffffffffffffffffffff1681526020018773ffffffffffffffffffffffffffffffffffffffff1673ffffffffffffffffffffffffffffffffffffffff168152602001868152602001858152602001806020018381526020018281038252858582818152602001925080828437600081840152601f19601f82011690508083019250505098505050505050505050600060405180830381600087803b158015611a7857600080fd5b505af1158015611a8c573d6000803e3d6000fd5b5050505050505050505050565b60005481565b6000806003541415905090565b60048054600181600116156101000203166002900480601f016020809104026020016040519081016040528092919081815260200182805460018160011615610100020316600290048015611b425780601f10611b1757610100808354040283529160200191611b42565b820191906000526020600020905b815481529060010190602001808311611b2557829003601f168201915b505050505081565b600381565b60055481565b600081565b6000611b65836124dc565b90506000811415611bc1576040517f08c379a0000000000000000000000000000000000000000000000000000000008152600401808060200182810382526036815260200180612cb16036913960400191505060405180910390fd5b6000604051611bcf90612912565b604051809103906000f080158015611beb573d6000803e3d6000fd5b509050600081905073dabbdabbdabbdabbdabbdabbdabbdabbdabbdabb73ffffffffffffffffffffffffffffffffffffffff166304d64386836040518263ffffffff1660e01b8152600401808273ffffffffffffffffffffffffffffffffffffffff1673ffffffffffffffffffffffffffffffffffffffff168152602001915050600060405180830381600087803b158015611c8657600080fd5b505af1158015611c9a573d6000803e3d6000fd5b5050505073dabbdabbdabbdabbdabbdabbdabbdabbdabbdabb73ffffffffffffffffffffffffffffffffffffffff1663585a5b1d30836040518363ffffffff1660e01b8152600401808373ffffffffffffffffffffffffffffffffffffffff1673ffffffffffffffffffffffffffffffffffffffff1681526020018273ffffffffffffffffffffffffffffffffffffffff1673ffffffffffffffffffffffffffffffffffffffff16815260200192505050600060405180830381600087803b158015611d6557600080fd5b505af1158015611d79573d6000803e3d6000fd5b50505050611d8561291f565b600c60009054906101000a900473ffffffffffffffffffffffffffffffffffffffff1673ffffffffffffffffffffffffffffffffffffffff1663ac0677886040518163ffffffff1660e01b815260040160206040518083038186803b158015611ded57600080fd5b505afa158015611e01573d6000803e3d6000fd5b505050506040513d6020811015611e1757600080fd5b810190808051906020019092919050505073ffffffffffffffffffffffffffffffffffffffff1663b77728186040518163ffffffff1660e01b815260040160206040518083038186803b158015611e6d57600080fd5b505afa158015611e81573d6000803e3d6000fd5b505050506040513d6020811015611e9757600080fd5b810190808051906020019092919050505081600060048110611eb557fe5b602002018181525050600c60009054906101000a900473ffffffffffffffffffffffffffffffffffffffff1673ffffffffffffffffffffffffffffffffffffffff16630f8af3c56040518163ffffffff1660e01b815260040160206040518083038186803b158015611f2657600080fd5b505afa158015611f3a573d6000803e3d6000fd5b505050506040513d6020811015611f5057600080fd5b810190808051906020019092919050505081600160048110611f6e57fe5b60200201818152505060005481600260048110611f8757fe5b602002018181525050600173dabbdabbdabbdabbdabbdabbdabbdabbdabbdabb73ffffffffffffffffffffffffffffffffffffffff16635f329fb2306040518263ffffffff1660e01b8152600401808273ffffffffffffffffffffffffffffffffffffffff1673ffffffffffffffffffffffffffffffffffffffff16815260200191505060206040518083038186803b15801561202357600080fd5b505afa158015612037573d6000803e3d6000fd5b505050506040513d602081101561204d57600080fd5b8101908080519060200190929190505050038160036004811061206c57fe5b6020020181815250508173ffffffffffffffffffffffffffffffffffffffff16634bda28d18786886002866040518663ffffffff1660e01b8152600401808673ffffffffffffffffffffffffffffffffffffffff1673ffffffffffffffffffffffffffffffffffffffff168152602001858152602001806020018460028111156120f257fe5b60ff16815260200183600460200280838360005b83811015612121578082015181840152602081019050612106565b50505050905001828103825285818151815260200191508051906020019080838360005b83811015612160578082015181840152602081019050612145565b50505050905090810190601f16801561218d5780820380516001836020036101000a031916815260200191505b509650505050505050600060405180830381600087803b1580156121b057600080fd5b505af11580156121c4573d6000803e3d6000fd5b50505050505050505050565b606060036040519080825280602002602001820160405280156122025781602001602082028038833980820191505090505b509050600c60009054906101000a900473ffffffffffffffffffffffffffffffffffffffff1673ffffffffffffffffffffffffffffffffffffffff1663b77728186040518163ffffffff1660e01b815260040160206040518083038186803b15801561226d57600080fd5b505afa158015612281573d6000803e3d6000fd5b505050506040513d602081101561229757600080fd5b8101908080519060200190929190505050816000815181106122b557fe5b602002602001018181525050600c60009054906101000a900473ffffffffffffffffffffffffffffffffffffffff1673ffffffffffffffffffffffffffffffffffffffff16630f8af3c56040518163ffffffff1660e01b815260040160206040518083038186803b15801561232957600080fd5b505afa15801561233d573d6000803e3d6000fd5b505050506040513d602081101561235357600080fd5b81019080805190602001909291905050508160018151811061237157fe5b6020026020010181815250506000548160028151811061238d57fe5b60200260200101818152505073dabbdabbdabbdabbdabbdabbdabbdabbdabbdabb73ffffffffffffffffffffffffffffffffffffffff16634904a20c836001846040518463ffffffff1660e01b8152600401808060200184815260200180602001838103835286818151815260200191508051906020019080838360005b8381101561242657808201518184015260208101905061240b565b50505050905090810190601f1680156124535780820380516001836020036101000a031916815260200191505b50838103825284818151815260200191508051906020019060200280838360005b8381101561248f578082015181840152602081019050612474565b5050505090500195505050505050600060405180830381600087803b1580156124b757600080fd5b505af11580156124cb573d6000803e3d6000fd5b505050505050565b42600281905550565b6000600c60009054906101000a900473ffffffffffffffffffffffffffffffffffffffff1673ffffffffffffffffffffffffffffffffffffffff16631daa7a386040518163ffffffff1660e01b815260040160206040518083038186803b15801561254657600080fd5b505afa15801561255a573d6000803e3d6000fd5b505050506040513d602081101561257057600080fd5b810190808051906020019092919050505073ffffffffffffffffffffffffffffffffffffffff168273ffffffffffffffffffffffffffffffffffffffff1614156125bd5760029050612880565b600c60009054906101000a900473ffffffffffffffffffffffffffffffffffffffff1673ffffffffffffffffffffffffffffffffffffffff1663ac0677886040518163ffffffff1660e01b815260040160206040518083038186803b15801561262557600080fd5b505afa158015612639573d6000803e3d6000fd5b505050506040513d602081101561264f57600080fd5b810190808051906020019092919050505073ffffffffffffffffffffffffffffffffffffffff16630d0175a96040518163ffffffff1660e01b815260040160206040518083038186803b1580156126a557600080fd5b505afa1580156126b9573d6000803e3d6000fd5b505050506040513d60208110156126cf57600080fd5b810190808051906020019092919050505073ffffffffffffffffffffffffffffffffffffffff168273ffffffffffffffffffffffffffffffffffffffff16141561271c5760019050612880565b600c60009054906101000a900473ffffffffffffffffffffffffffffffffffffffff1673ffffffffffffffffffffffffffffffffffffffff1663ac0677886040518163ffffffff1660e01b815260040160206040518083038186803b15801561278457600080fd5b505afa158015612798573d6000803e3d6000fd5b505050506040513d60208110156127ae57600080fd5b810190808051906020019092919050505073ffffffffffffffffffffffffffffffffffffffff1663fbbd21386040518163ffffffff1660e01b815260040160206040518083038186803b15801561280457600080fd5b505afa158015612818573d6000803e3d6000fd5b505050506040513d602081101561282e57600080fd5b810190808051906020019092919050505073ffffffffffffffffffffffffffffffffffffffff168273ffffffffffffffffffffffffffffffffffffffff16141561287b5760039050612880565b600090505b919050565b828054600181600116156101000203166002900490600052602060002090601f016020900481019282601f106128c657803560ff19168380011785556128f4565b828001600101855582156128f4579182015b828111156128f35782358255916020019190600101906128d8565b5b5090506129019190612941565b5090565b61018d8061296783390190565b61018d80612af483390190565b6040518060800160405280600490602082028038833980820191505090505090565b61296391905b8082111561295f576000816000905550600101612947565b5090565b9056fe608060405234801561001057600080fd5b5061016d806100206000396000f3fe60806040526004361061001e5760003560e01c8063d4b8399214610083575b61008173dabadabadabadabadabadabadabadabadabadaba6000368080601f016020809104026020016040519081016040528093929190818152602001838380828437600081840152601f19601f820116905080830192505050505050506100da565b005b34801561008f57600080fd5b50610098610116565b604051808273ffffffffffffffffffffffffffffffffffffffff1673ffffffffffffffffffffffffffffffffffffffff16815260200191505060405180910390f35b6100e38261012e565b6100ec57600080fd5b600080825160208401856127105a03f43d604051816000823e8260008114610112578282f35b8282fd5b73dabadabadabadabadabadabadabadabadabadaba81565b600080823b90506000811191505091905056fea165627a7a7230582014d765e86116e8adca284f5da6fdb3958a332d063238eea03fa8ec6023d30a550029608060405234801561001057600080fd5b5061016d806100206000396000f3fe60806040526004361061001e5760003560e01c8063d4b8399214610083575b61008173beefbeefbeefbeefbeefbeefbeefbeefbeefbeef6000368080601f016020809104026020016040519081016040528093929190818152602001838380828437600081840152601f19601f820116905080830192505050505050506100da565b005b34801561008f57600080fd5b50610098610116565b604051808273ffffffffffffffffffffffffffffffffffffffff1673ffffffffffffffffffffffffffffffffffffffff16815260200191505060405180910390f35b6100e38261012e565b6100ec57600080fd5b600080825160208401856127105a03f43d604051816000823e8260008114610112578282f35b8282fd5b73beefbeefbeefbeefbeefbeefbeefbeefbeefbeef81565b600080823b90506000811191505091905056fea165627a7a72305820ed1d3b3569ae986f822b8e9264b896f17014f4eea4cea9ee6c554559d0c3dafb00294f6e6c792074686520616363657074656420617262697465722063616e207265736f6c7665206120646973707574652e4f6e6c79207468652063616e6469646174652c20656d706c6f7965722c20616e6420617262697465722063616e20636f6d6d656e742e5468697320646973707574652068617320616c7265616479206265656e207265736f6c7665642e4574686c616e63654469737075746520636f6e747261637420616c726561647920636f6e73747275637465642e4f6e6c79207468652063616e646964617465206f722074686520656d706c6f7965722c2063616e206c6561766520666565646261636b20666f722074686520617262697465722ea165627a7a72305820e422c90f47da57c217cb9001044f587b0efce99fa3001d53e9838f123dd73c0a0029",
  "source": "pragma solidity ^0.5.0;\n\nimport \"./EthlanceRegistry.sol\";\nimport \"./EthlanceWorkContract.sol\";\nimport \"./EthlanceComment.sol\";\nimport \"./EthlanceFeedback.sol\";\nimport \"./proxy/Forwarder.sol\";       // target(EthlanceComment)\nimport \"./proxy/SecondForwarder.sol\"; // target(EthlanceFeedback)\n\n\n/// @title Represents a Employer / Candidate work dispute\ncontract EthlanceDispute {\n  uint public constant version = 1;\n  EthlanceRegistry public constant registry = EthlanceRegistry(0xdaBBdABbDABbDabbDaBbDabbDaBbdaBbdaBbDAbB);\n\n\n  //\n  // Constants\n  //\n  uint public constant GUEST_TYPE = 0;\n  uint public constant EMPLOYER_TYPE = 1;\n  uint public constant CANDIDATE_TYPE = 2;\n  uint public constant ARBITER_TYPE = 3;\n\n\n  //\n  // Members\n  //\n  uint public disputeIndex;\n    \n  uint public dateCreated;\n\n  uint public dateUpdated;\n\n  // When dateResolved is set >0, this reflects completion\n  uint public dateResolved;\n\n  // Title of dispute, describing the reason for the dispute\n  string public reason;\n\n  // The amount that the employer did receive as a result of\n  // resolution, with a token address for the type of ERC20 token.\n  uint public employerResolutionAmount;\n  address public employerResolutionToken;\n\n  // The amount that the candidate did receive as a result of\n  // resolution, with a token address for the type of ERC20 token.\n  uint public candidateResolutionAmount;\n  address public candidateResolutionToken;\n\n  // The amount that the arbiter did receive as a result of the\n  // resolution, with a token address for the type of ERC20 token.\n  uint public arbiterResolutionAmount;\n  address public arbiterResolutionToken;\n\n  // The entity that constructed contract\n  address public owner;\n\n  // The EthlanceWorkContract reference.\n  EthlanceWorkContract public workInstance;\n    \n  /// @dev Forwarder Constructor\n  /// @param _workInstance The EthlanceWorkContract parent instance for this Dispute.\n  /// @param _reason Short string defining the reason for the dispute\n  /// @param metahash A structure IPFS data structure defined by a\n  /// hash string. The hash is stored as the employer or the\n  /// candidate depending on is_employer_request.\n  function construct(EthlanceWorkContract _workInstance,\n                     uint _disputeIndex,\n                     string calldata _reason,\n                     string calldata metahash,\n                     bool is_employer_request) external {\n    require(owner == address(0), \"EthlanceDispute contract already constructed.\");\n    owner = msg.sender;\n\n    workInstance = _workInstance;\n    disputeIndex = _disputeIndex;\n    reason = _reason;\n    dateCreated = now;\n    dateUpdated = now;\n\n    // Fire off comment with provided metahash\n    if (is_employer_request) {\n      createComment(workInstance.storeInstance().employerAddress(), metahash);\n    }\n    else {\n      createComment(workInstance.candidateAddress(), metahash);\n    }\n\n    // Fire off event\n    fireEvent(\"DisputeCreated\");\n  }\n\n\n  function updateDateUpdated() private {\n    dateUpdated = now;\n  }\n\n    \n  /// @dev Resolves the dispute between the employer and the\n  /// candidate, and pays the employer and the candidate's the given\n  /// amounts.\n  /// @param _employerAmount The amount of tokens to pay the employer for resolution.\n  /// @param _employerToken The token address of the type of token, set to 0x0 for ETH.\n  /// @param _candidateAmount The amount of tokens to pay the candidate for resolution.\n  /// @param _candidateToken The token address of the type of token, set to 0x0 for ETH.\n  /// @param _arbiterAmount The amount of tokens to pay the arbiter for resolution.\n  /// @param _arbiterToken The token address of the type of token, set to 0x0 for ETH.\n  function resolve(uint _employerAmount,\n                   address _employerToken,\n                   uint _candidateAmount,\n                   address _candidateToken,\n                   uint _arbiterAmount,\n                   address _arbiterToken) external {\n    require(workInstance.storeInstance().acceptedArbiter() == msg.sender,\n            \"Only the accepted arbiter can resolve a dispute.\");\n    require(dateResolved == 0, \"This dispute has already been resolved.\");\n    workInstance.resolveDispute(_employerAmount, _employerToken,\n                                 _candidateAmount, _candidateToken,\n                                 _arbiterAmount, _arbiterToken);\n    employerResolutionAmount = _employerAmount;\n    employerResolutionToken = _employerToken;\n    candidateResolutionAmount = _candidateAmount;\n    candidateResolutionToken = _candidateToken;\n    arbiterResolutionAmount = _arbiterAmount;\n    arbiterResolutionToken = _arbiterToken;\n    dateResolved = now;\n    updateDateUpdated();\n\n    fireEvent(\"DisputeResolved\");\n  }\n\n    \n  /// @dev Returns true if the current dispute is resolved.\n  function isResolved() external view returns(bool) {\n    return dateResolved != 0;\n  }\n\n\n  /// @dev Fire events specific to the dispute.\n  /// @param eventName Unique to give the fired event\n  function fireEvent(string memory eventName) private {\n    uint[] memory eventData = new uint[](3);\n    eventData[0] = workInstance.jobIndex();\n    eventData[1] = workInstance.workIndex();\n    eventData[2] = disputeIndex;\n\n    registry.fireEvent(eventName, version, eventData);\n  }\n\n\n  /// @dev Returns the user type, either CANDIDATE_TYPE,\n  /// EMPLOYER_TYPE, ARBITER_TYPE, or GUEST_TYPE for the given\n  /// address.\n  function getUserType(address _address) private returns (uint) {\n    if (_address == workInstance.candidateAddress()) {\n      return CANDIDATE_TYPE;\n    }\n    else if (_address == workInstance.storeInstance().employerAddress()) {\n      return EMPLOYER_TYPE;\n    }\n    else if (_address == workInstance.storeInstance().acceptedArbiter()) {\n      return ARBITER_TYPE;\n    }\n    else {\n      return GUEST_TYPE;\n    }\n  }\n\n\n  /// @dev Public function for authorized users to create comments\n  /// on the given dispute.\n  function addComment(string calldata metahash) external {\n    createComment(msg.sender, metahash);\n  }\n\n\n  /// @dev Place a comment on the dispute linked to the given user\n  /// address\n  function createComment(address userAddress, string memory metahash) private {\n    uint userType = getUserType(userAddress);\n    require(userType != GUEST_TYPE,\n            \"Only the candidate, employer, and arbiter can comment.\");\n  \n    // Create the forwarded contract\n    Forwarder fwd = new Forwarder(); // Proxy Contract\n    // target(EthlanceComment)\n    EthlanceComment comment = EthlanceComment(address(fwd));\n\n    // Permit Comment to fire registry events\n    registry.permitDispatch(address(fwd));\n\n    // Add comment to the registry comment listing\n    registry.pushComment(address(this), address(comment));\n\n    uint[4] memory index;\n    index[0] = workInstance.storeInstance().jobIndex();\n    index[1] = workInstance.workIndex();\n    index[2] = disputeIndex;\n    index[3] = registry.getCommentCount(address(this)) - 1;\n\n    // Construct the comment contract\n    comment.construct(userAddress,\n                      userType,\n                      metahash,\n                      EthlanceComment.CommentType.Dispute,\n                      index);\n  }\n\n\n  /// @dev Leave feedback for the arbiter in the given Dispute.\n  /*\n    Notes:\n\n    - Only the candidate and the employer can leave feedback on a dispute.\n  */\n  function leaveFeedback(uint rating, string calldata metahash) external {\n    uint userType = getUserType(msg.sender);\n    require(userType == CANDIDATE_TYPE || userType == EMPLOYER_TYPE,\n            \"Only the candidate or the employer, can leave feedback for the arbiter.\");\n  \n    address toUserAddress = workInstance.storeInstance().acceptedArbiter();\n    uint toUserType = ARBITER_TYPE;\n\n    // Check and create forwarded feedback contract instance\n    EthlanceFeedback feedback;\n    if (!registry.hasFeedback(address(workInstance))) {\n      SecondForwarder fwd = new SecondForwarder(); // Proxy Contract\n                                                   // target(EthlanceFeedback)\n\n      feedback = EthlanceFeedback(address(fwd));\n\n      // Permit Feedback to fire registry events\n      registry.permitDispatch(address(fwd));\n      \n      // Add feedback to the registry feedback listing\n      registry.pushFeedback(address(workInstance), address(feedback));\n      \n      // Construct the feedback contract\n      feedback.construct(address(workInstance),\n                         workInstance.storeInstance().jobIndex(),\n                         workInstance.workIndex());\n    }\n    else {\n      feedback = EthlanceFeedback(registry.getFeedbackByAddress(address(workInstance)));\n    }\n\n    feedback.update(msg.sender,\n                    toUserAddress,\n                    userType,\n                    toUserType,\n                    metahash,\n                    rating);\n  }\n}\n",
  "sourcePath": "/home/benzap/projects/ethlance/contracts/EthlanceDispute.sol",
  "compiler": {
    "name": "solc",
    "version": "0.5.8+commit.23d335f2.Linux.g++"
  },
  "schemaVersion": "3.0.9",
  "updatedAt": "2019-05-15T03:25:42.082Z",
  "devdoc": {
    "methods": {
      "addComment(string)": {
        "details": "Public function for authorized users to create comments on the given dispute."
      },
      "construct(address,uint256,string,string,bool)": {
        "details": "Forwarder Constructor",
        "params": {
          "_reason": "Short string defining the reason for the dispute",
          "_workInstance": "The EthlanceWorkContract parent instance for this Dispute.",
          "metahash": "A structure IPFS data structure defined by a hash string. The hash is stored as the employer or the candidate depending on is_employer_request."
        }
      },
      "isResolved()": {
        "details": "Returns true if the current dispute is resolved."
      },
      "leaveFeedback(uint256,string)": {
        "details": "Leave feedback for the arbiter in the given Dispute."
      },
      "resolve(uint256,address,uint256,address,uint256,address)": {
        "details": "Resolves the dispute between the employer and the candidate, and pays the employer and the candidate's the given amounts.",
        "params": {
          "_arbiterAmount": "The amount of tokens to pay the arbiter for resolution.",
          "_arbiterToken": "The token address of the type of token, set to 0x0 for ETH.",
          "_candidateAmount": "The amount of tokens to pay the candidate for resolution.",
          "_candidateToken": "The token address of the type of token, set to 0x0 for ETH.",
          "_employerAmount": "The amount of tokens to pay the employer for resolution.",
          "_employerToken": "The token address of the type of token, set to 0x0 for ETH."
        }
      }
    },
    "title": "Represents a Employer / Candidate work dispute"
  },
  "userdoc": {
    "methods": {}
  }
}