{
  "contractName": "EthlanceUser",
  "abi": [
    {
      "constant": true,
      "inputs": [],
      "name": "dateUpdated",
      "outputs": [
        {
          "name": "",
          "type": "uint256"
        }
      ],
      "payable": false,
      "stateMutability": "view",
      "type": "function"
    },
    {
      "constant": true,
      "inputs": [],
      "name": "metahash",
      "outputs": [
        {
          "name": "",
          "type": "string"
        }
      ],
      "payable": false,
      "stateMutability": "view",
      "type": "function"
    },
    {
      "constant": true,
      "inputs": [],
      "name": "employerData",
      "outputs": [
        {
          "name": "isRegistered",
          "type": "bool"
        }
      ],
      "payable": false,
      "stateMutability": "view",
      "type": "function"
    },
    {
      "constant": true,
      "inputs": [],
      "name": "dateCreated",
      "outputs": [
        {
          "name": "",
          "type": "uint256"
        }
      ],
      "payable": false,
      "stateMutability": "view",
      "type": "function"
    },
    {
      "constant": true,
      "inputs": [],
      "name": "version",
      "outputs": [
        {
          "name": "",
          "type": "uint256"
        }
      ],
      "payable": false,
      "stateMutability": "view",
      "type": "function"
    },
    {
      "constant": true,
      "inputs": [],
      "name": "userId",
      "outputs": [
        {
          "name": "",
          "type": "uint256"
        }
      ],
      "payable": false,
      "stateMutability": "view",
      "type": "function"
    },
    {
      "constant": true,
      "inputs": [],
      "name": "registry",
      "outputs": [
        {
          "name": "",
          "type": "address"
        }
      ],
      "payable": false,
      "stateMutability": "view",
      "type": "function"
    },
    {
      "constant": true,
      "inputs": [],
      "name": "owner",
      "outputs": [
        {
          "name": "",
          "type": "address"
        }
      ],
      "payable": false,
      "stateMutability": "view",
      "type": "function"
    },
    {
      "constant": true,
      "inputs": [],
      "name": "arbiterData",
      "outputs": [
        {
          "name": "isRegistered",
          "type": "bool"
        },
        {
          "name": "paymentValue",
          "type": "uint256"
        },
        {
          "name": "currencyType",
          "type": "uint16"
        },
        {
          "name": "paymentType",
          "type": "uint8"
        }
      ],
      "payable": false,
      "stateMutability": "view",
      "type": "function"
    },
    {
      "constant": true,
      "inputs": [],
      "name": "userAddress",
      "outputs": [
        {
          "name": "",
          "type": "address"
        }
      ],
      "payable": false,
      "stateMutability": "view",
      "type": "function"
    },
    {
      "constant": true,
      "inputs": [],
      "name": "candidateData",
      "outputs": [
        {
          "name": "isRegistered",
          "type": "bool"
        },
        {
          "name": "hourlyRate",
          "type": "uint64"
        },
        {
          "name": "currencyType",
          "type": "uint16"
        }
      ],
      "payable": false,
      "stateMutability": "view",
      "type": "function"
    },
    {
      "constant": false,
      "inputs": [
        {
          "name": "_userId",
          "type": "uint256"
        },
        {
          "name": "_address",
          "type": "address"
        },
        {
          "name": "_metahash",
          "type": "string"
        }
      ],
      "name": "construct",
      "outputs": [],
      "payable": false,
      "stateMutability": "nonpayable",
      "type": "function"
    },
    {
      "constant": false,
      "inputs": [
        {
          "name": "_metahash",
          "type": "string"
        }
      ],
      "name": "updateMetahash",
      "outputs": [],
      "payable": false,
      "stateMutability": "nonpayable",
      "type": "function"
    },
    {
      "constant": false,
      "inputs": [
        {
          "name": "hourlyRate",
          "type": "uint64"
        },
        {
          "name": "currencyType",
          "type": "uint16"
        }
      ],
      "name": "registerCandidate",
      "outputs": [],
      "payable": false,
      "stateMutability": "nonpayable",
      "type": "function"
    },
    {
      "constant": false,
      "inputs": [
        {
          "name": "hourlyRate",
          "type": "uint64"
        },
        {
          "name": "currencyType",
          "type": "uint16"
        }
      ],
      "name": "updateCandidateRate",
      "outputs": [],
      "payable": false,
      "stateMutability": "nonpayable",
      "type": "function"
    },
    {
      "constant": true,
      "inputs": [],
      "name": "getCandidateData",
      "outputs": [
        {
          "name": "isRegistered",
          "type": "bool"
        },
        {
          "name": "hourlyRate",
          "type": "uint64"
        },
        {
          "name": "currencyType",
          "type": "uint16"
        }
      ],
      "payable": false,
      "stateMutability": "view",
      "type": "function"
    },
    {
      "constant": false,
      "inputs": [
        {
          "name": "paymentValue",
          "type": "uint256"
        },
        {
          "name": "currencyType",
          "type": "uint16"
        },
        {
          "name": "paymentType",
          "type": "uint8"
        }
      ],
      "name": "registerArbiter",
      "outputs": [],
      "payable": false,
      "stateMutability": "nonpayable",
      "type": "function"
    },
    {
      "constant": false,
      "inputs": [
        {
          "name": "paymentValue",
          "type": "uint256"
        },
        {
          "name": "currencyType",
          "type": "uint16"
        },
        {
          "name": "paymentType",
          "type": "uint8"
        }
      ],
      "name": "updateArbiterRate",
      "outputs": [],
      "payable": false,
      "stateMutability": "nonpayable",
      "type": "function"
    },
    {
      "constant": true,
      "inputs": [],
      "name": "getArbiterData",
      "outputs": [
        {
          "name": "isRegistered",
          "type": "bool"
        },
        {
          "name": "paymentValue",
          "type": "uint256"
        },
        {
          "name": "currencyType",
          "type": "uint16"
        },
        {
          "name": "paymentType",
          "type": "uint8"
        }
      ],
      "payable": false,
      "stateMutability": "view",
      "type": "function"
    },
    {
      "constant": false,
      "inputs": [],
      "name": "registerEmployer",
      "outputs": [],
      "payable": false,
      "stateMutability": "nonpayable",
      "type": "function"
    },
    {
      "constant": true,
      "inputs": [],
      "name": "getEmployerData",
      "outputs": [
        {
          "name": "isRegistered",
          "type": "bool"
        }
      ],
      "payable": false,
      "stateMutability": "view",
      "type": "function"
    }
  ],
  "bytecode": "0x608060405234801561001057600080fd5b5061191c806100206000396000f3fe608060405234801561001057600080fd5b50600436106101375760003560e01c806358975919116100b8578063c4942f651161007c578063c4942f65146104dd578063d4ec3afe14610522578063e0a88f491461056b578063e4128fb3146105b0578063f0548a90146105fa578063f8bb797d1461064657610137565b8063589759191461039c5780637b103999146103ba5780638da5cb5b1461040457806399d0a05f1461044e578063c15a118c1461049457610137565b806317a857be116100ff57806317a857be1461024f5780631f741c7a146102715780634fba3c411461028f57806350a4ca1b1461033257806354fd4d501461037e57610137565b80630201e5351461013c578063073a46d91461015a5780630feb20c7146101dd5780631099d2d01461022357806314dee24514610245575b600080fd5b610144610701565b6040518082815260200191505060405180910390f35b610162610707565b6040518080602001828103825283818151815260200191508051906020019080838360005b838110156101a2578082015181840152602081019050610187565b50505050905090810190601f1680156101cf5780820380516001836020036101000a031916815260200191505b509250505060405180910390f35b610221600480360360408110156101f357600080fd5b81019080803567ffffffffffffffff169060200190929190803561ffff1690602001909291905050506107a5565b005b61022b610a35565b604051808215151515815260200191505060405180910390f35b61024d610a4e565b005b610257610c15565b604051808215151515815260200191505060405180910390f35b610279610c2f565b6040518082815260200191505060405180910390f35b610330600480360360608110156102a557600080fd5b8101908080359060200190929190803573ffffffffffffffffffffffffffffffffffffffff169060200190929190803590602001906401000000008111156102ec57600080fd5b8201836020820111156102fe57600080fd5b8035906020019184600183028401116401000000008311171561032057600080fd5b9091929391929390505050610c35565b005b61033a610d8a565b60405180841515151581526020018367ffffffffffffffff1667ffffffffffffffff1681526020018261ffff1661ffff168152602001935050505060405180910390f35b610386610ddb565b6040518082815260200191505060405180910390f35b6103a4610de0565b6040518082815260200191505060405180910390f35b6103c2610de6565b604051808273ffffffffffffffffffffffffffffffffffffffff1673ffffffffffffffffffffffffffffffffffffffff16815260200191505060405180910390f35b61040c610dfe565b604051808273ffffffffffffffffffffffffffffffffffffffff1673ffffffffffffffffffffffffffffffffffffffff16815260200191505060405180910390f35b6104926004803603604081101561046457600080fd5b81019080803567ffffffffffffffff169060200190929190803561ffff169060200190929190505050610e24565b005b6104db600480360360608110156104aa57600080fd5b8101908080359060200190929190803561ffff169060200190929190803560ff169060200190929190505050610fb2565b005b6104e561123f565b60405180851515151581526020018481526020018361ffff1661ffff1681526020018260ff1660ff16815260200194505050505060405180910390f35b6105696004803603606081101561053857600080fd5b8101908080359060200190929190803561ffff169060200190929190803560ff169060200190929190505050611285565b005b610573611410565b60405180851515151581526020018481526020018361ffff1661ffff1681526020018260ff1660ff16815260200194505050505060405180910390f35b6105b8611464565b604051808273ffffffffffffffffffffffffffffffffffffffff1673ffffffffffffffffffffffffffffffffffffffff16815260200191505060405180910390f35b610602611489565b60405180841515151581526020018367ffffffffffffffff1667ffffffffffffffff1681526020018261ffff1661ffff168152602001935050505060405180910390f35b6106ff6004803603602081101561065c57600080fd5b810190808035906020019064010000000081111561067957600080fd5b82018360208201111561068b57600080fd5b803590602001918460018302840111640100000000831117156106ad57600080fd5b91908080601f016020809104026020016040519081016040528093929190818152602001838380828437600081840152601f19601f8201169050808301925050505050505091929192905050506114d0565b005b60035481565b60048054600181600116156101000203166002900480601f01602080910402602001604051908101604052809291908181526020018280546001816001161561010002031660029004801561079d5780601f106107725761010080835404028352916020019161079d565b820191906000526020600020905b81548152906001019060200180831161078057829003601f168201915b505050505081565b3373ffffffffffffffffffffffffffffffffffffffff166000809054906101000a900473ffffffffffffffffffffffffffffffffffffffff1673ffffffffffffffffffffffffffffffffffffffff161461084a576040517f08c379a00000000000000000000000000000000000000000000000000000000081526004018080602001828103825260398152602001806118b86039913960400191505060405180910390fd5b600660000160009054906101000a900460ff16156108b3576040517f08c379a000000000000000000000000000000000000000000000000000000000815260040180806020018281038252602f815260200180611889602f913960400191505060405180910390fd5b60018161ffff16111561092e576040517f08c379a000000000000000000000000000000000000000000000000000000000815260040180806020018281038252601a8152602001807f43757272656e63792054797065206f7574206f662072616e676500000000000081525060200191505060405180910390fd5b6001600660000160006101000a81548160ff02191690831515021790555081600660000160016101000a81548167ffffffffffffffff021916908367ffffffffffffffff16021790555080600660000160096101000a81548161ffff021916908361ffff1602179055506109a0611597565b606060016040519080825280602002602001820160405280156109d25781602001602082028038833980820191505090505b509050600154816000815181106109e557fe5b602002602001018181525050610a306040518060400160405280601781526020017f557365725265676973746572656443616e646964617465000000000000000000815250826115a0565b505050565b60078060000160009054906101000a900460ff16905081565b3373ffffffffffffffffffffffffffffffffffffffff166000809054906101000a900473ffffffffffffffffffffffffffffffffffffffff1673ffffffffffffffffffffffffffffffffffffffff1614610af3576040517f08c379a00000000000000000000000000000000000000000000000000000000081526004018080602001828103825260398152602001806118b86039913960400191505060405180910390fd5b600760000160009054906101000a900460ff1615610b5c576040517f08c379a000000000000000000000000000000000000000000000000000000000815260040180806020018281038252603081526020018061182f6030913960400191505060405180910390fd5b6001600760000160006101000a81548160ff021916908315150217905550610b82611597565b60606001604051908082528060200260200182016040528015610bb45781602001602082028038833980820191505090505b50905060015481600081518110610bc757fe5b602002602001018181525050610c126040518060400160405280601681526020017f5573657252656769737465726564456d706c6f79657200000000000000000000815250826115a0565b50565b6000600760000160009054906101000a900460ff16905090565b60025481565b600073ffffffffffffffffffffffffffffffffffffffff16600560009054906101000a900473ffffffffffffffffffffffffffffffffffffffff1673ffffffffffffffffffffffffffffffffffffffff1614610cdc576040517f08c379a000000000000000000000000000000000000000000000000000000000815260040180806020018281038252602a81526020018061185f602a913960400191505060405180910390fd5b33600560006101000a81548173ffffffffffffffffffffffffffffffffffffffff021916908373ffffffffffffffffffffffffffffffffffffffff16021790555083600181905550826000806101000a81548173ffffffffffffffffffffffffffffffffffffffff021916908373ffffffffffffffffffffffffffffffffffffffff1602179055504260028190555042600381905550818160049190610d839291906116da565b5050505050565b6000806000600660000160009054906101000a900460ff169250600660000160019054906101000a900467ffffffffffffffff169150600660000160099054906101000a900461ffff169050909192565b600181565b60015481565b73dabbdabbdabbdabbdabbdabbdabbdabbdabbdabb81565b600560009054906101000a900473ffffffffffffffffffffffffffffffffffffffff1681565b3373ffffffffffffffffffffffffffffffffffffffff166000809054906101000a900473ffffffffffffffffffffffffffffffffffffffff1673ffffffffffffffffffffffffffffffffffffffff1614610ec9576040517f08c379a00000000000000000000000000000000000000000000000000000000081526004018080602001828103825260398152602001806118b86039913960400191505060405180910390fd5b81600660000160016101000a81548167ffffffffffffffff021916908367ffffffffffffffff16021790555080600660000160096101000a81548161ffff021916908361ffff160217905550610f1d611597565b60606001604051908082528060200260200182016040528015610f4f5781602001602082028038833980820191505090505b50905060015481600081518110610f6257fe5b602002602001018181525050610fad6040518060400160405280601381526020017f5573657243616e64696461746555706461746500000000000000000000000000815250826115a0565b505050565b3373ffffffffffffffffffffffffffffffffffffffff166000809054906101000a900473ffffffffffffffffffffffffffffffffffffffff1673ffffffffffffffffffffffffffffffffffffffff1614611057576040517f08c379a00000000000000000000000000000000000000000000000000000000081526004018080602001828103825260398152602001806118b86039913960400191505060405180910390fd5b600860000160009054906101000a900460ff16156110c0576040517f08c379a000000000000000000000000000000000000000000000000000000000815260040180806020018281038252602f815260200180611800602f913960400191505060405180910390fd5b60018261ffff16111561113b576040517f08c379a000000000000000000000000000000000000000000000000000000000815260040180806020018281038252601a8152602001807f43757272656e63792054797065206f7574206f662072616e676500000000000081525060200191505060405180910390fd5b6001600860000160006101000a81548160ff0219169083151502179055508260086001018190555081600860020160006101000a81548161ffff021916908361ffff16021790555080600860020160026101000a81548160ff021916908360ff1602179055506111a9611597565b606060016040519080825280602002602001820160405280156111db5781602001602082028038833980820191505090505b509050600154816000815181106111ee57fe5b6020026020010181815250506112396040518060400160405280601581526020017f5573657252656769737465726564417262697465720000000000000000000000815250826115a0565b50505050565b60088060000160009054906101000a900460ff16908060010154908060020160009054906101000a900461ffff16908060020160029054906101000a900460ff16905084565b3373ffffffffffffffffffffffffffffffffffffffff166000809054906101000a900473ffffffffffffffffffffffffffffffffffffffff1673ffffffffffffffffffffffffffffffffffffffff161461132a576040517f08c379a00000000000000000000000000000000000000000000000000000000081526004018080602001828103825260398152602001806118b86039913960400191505060405180910390fd5b8260086001018190555081600860020160006101000a81548161ffff021916908361ffff16021790555080600860020160026101000a81548160ff021916908360ff16021790555061137a611597565b606060016040519080825280602002602001820160405280156113ac5781602001602082028038833980820191505090505b509050600154816000815181106113bf57fe5b60200260200101818152505061140a6040518060400160405280601281526020017f5573657241726269746572557064617465640000000000000000000000000000815250826115a0565b50505050565b600080600080600860000160009054906101000a900460ff1693506008600101549250600860020160009054906101000a900461ffff169150600860020160029054906101000a900460ff16905090919293565b6000809054906101000a900473ffffffffffffffffffffffffffffffffffffffff1681565b60068060000160009054906101000a900460ff16908060000160019054906101000a900467ffffffffffffffff16908060000160099054906101000a900461ffff16905083565b3373ffffffffffffffffffffffffffffffffffffffff166000809054906101000a900473ffffffffffffffffffffffffffffffffffffffff1673ffffffffffffffffffffffffffffffffffffffff1614611575576040517f08c379a00000000000000000000000000000000000000000000000000000000081526004018080602001828103825260398152602001806118b86039913960400191505060405180910390fd5b806004908051906020019061158b92919061175a565b50611594611597565b50565b42600381905550565b73dabbdabbdabbdabbdabbdabbdabbdabbdabbdabb73ffffffffffffffffffffffffffffffffffffffff16634904a20c836001846040518463ffffffff1660e01b8152600401808060200184815260200180602001838103835286818151815260200191508051906020019080838360005b8381101561162d578082015181840152602081019050611612565b50505050905090810190601f16801561165a5780820380516001836020036101000a031916815260200191505b50838103825284818151815260200191508051906020019060200280838360005b8381101561169657808201518184015260208101905061167b565b5050505090500195505050505050600060405180830381600087803b1580156116be57600080fd5b505af11580156116d2573d6000803e3d6000fd5b505050505050565b828054600181600116156101000203166002900490600052602060002090601f016020900481019282601f1061171b57803560ff1916838001178555611749565b82800160010185558215611749579182015b8281111561174857823582559160200191906001019061172d565b5b50905061175691906117da565b5090565b828054600181600116156101000203166002900490600052602060002090601f016020900481019282601f1061179b57805160ff19168380011785556117c9565b828001600101855582156117c9579182015b828111156117c85782518255916020019190600101906117ad565b5b5090506117d691906117da565b5090565b6117fc91905b808211156117f85760008160009055506001016117e0565b5090565b9056fe476976656e207573657220697320616c7265616479207265676973746572656420617320616e20417262697465722e476976656e207573657220697320616c7265616479207265676973746572656420617320616e20456d706c6f7965722e4574686c616e63655573657220636f6e747261637420616c726561647920636f6e73747275637465642e476976656e207573657220697320616c7265616479207265676973746572656420617320612043616e646964617465556e617574686f72697a65643a20476976656e205573657220646f6573206e6f74206f776e2074686973207573657220636f6e74726163742ea165627a7a72305820181807370c39d6501b0fb1f444219ed57ab8c7a756b9eae95b2206631b13578e0029",
  "source": "pragma solidity ^0.5.0;\n\nimport \"./proxy/MutableForwarder.sol\";\nimport \"./EthlanceRegistry.sol\";\nimport \"./EthlanceFeedback.sol\";\n\n\n/// @title User Contract which represents a User's information\n/// describing their price points and skills for employment, for being\n/// a candidate, and for being an Arbiter for jobs.\ncontract EthlanceUser {\n  uint public constant version = 1;\n  EthlanceRegistry public constant registry = EthlanceRegistry(0xdaBBdABbDABbDabbDaBbDabbDaBbdaBbdaBbDAbB);\n\n  struct Candidate {\n    bool isRegistered;\n    uint64 hourlyRate; // In units of currency\n    uint16 currencyType; // 0: Ethereum, 1: USD, ...\n    // Additional Data in IPFS Metahash\n  }\n\n  struct Employer {\n    bool isRegistered;\n    // Additional Data in IPFS Metahash\n  }\n\n  struct Arbiter {\n    bool isRegistered;\n    uint paymentValue; // Based on paymentType:\n    // [0] In units of currency\n    // [1] 1-100 for percentage\n    uint16 currencyType; // 0: Ethereum, 1: USD, ...\n    uint8 paymentType; // 0: Flat Rate, 1: Percentage\n    // Additonal Data in IPFS Metahash\n  }\n\n  address public userAddress;\n  uint public userId;\n  uint public dateCreated;\n  uint public dateUpdated;\n  string public metahash;\n    \n  // The entity that constructed contract\n  address public owner;\n\n  Candidate public candidateData;\n  Employer public employerData;\n  Arbiter public arbiterData;\n  \n\n  function construct(uint _userId, address _address, string calldata _metahash)\n    external {\n    require(owner == address(0), \"EthlanceUser contract already constructed.\");\n    owner = msg.sender;\n\n    userId = _userId;\n    userAddress = _address;\n    dateCreated = now;\n    dateUpdated = now;\n    metahash = _metahash;\n  \n  }\n\n\n  /// @dev Fire events specific to the User\n  /// @param eventName Unique to give the fired event\n  /// @param eventData Additional event data to include in the\n  /// fired event.\n  function fireEvent(string memory eventName, uint[] memory eventData) private {\n    registry.fireEvent(eventName, version, eventData);\n  }\n\n\n  function updateMetahash(string memory _metahash)\n    public\n    isUser {\n    metahash = _metahash;\n    updateDateUpdated();\n  }\n\n\n  function updateDateUpdated() internal {\n    dateUpdated = now;\n  }\n\n\n  /// @dev Register Candidate for the User.\n  /// @dev Note: Requires that the address is a registered user.\n  /// @param hourlyRate Based on currency, the hourly suggested\n  /// amount for payment.\n  /// @param currencyType The type of currency to be paid in.\n  function registerCandidate(uint64 hourlyRate, uint16 currencyType)\n    public \n    isUser {\n    require(!candidateData.isRegistered,\n            \"Given user is already registered as a Candidate\");\n    require(currencyType <= 1, \"Currency Type out of range\");\n\n    candidateData.isRegistered = true;\n    candidateData.hourlyRate = hourlyRate;\n    candidateData.currencyType = currencyType;\n    updateDateUpdated();\n\n    // Fire \"UserRegisteredCandidate\" Event\n    uint[] memory edata = new uint[](1);\n    edata[0] = userId;\n    fireEvent(\"UserRegisteredCandidate\", edata);\n  }\n\n\n  /// @dev Update Candidate's rate of hourly pay and currency type.\n  /// @param hourlyRate The rate of hourly pay for a particular currency.\n  ///                    For USD, a unit of pay is a cent. For\n  ///                    Ethereum, the unit of pay is a wei.\n  /// @param currencyType Type of hourly pay. 0 - Eth, 1 - USD.\n  function updateCandidateRate(uint64 hourlyRate,\n                               uint16 currencyType)\n    public\n    isUser {\n    candidateData.hourlyRate = hourlyRate;\n    candidateData.currencyType = currencyType;\n    updateDateUpdated();\n\n    // Fire \"UserRegisteredCandidate\" Event\n    uint[] memory edata = new uint[](1);\n    edata[0] = userId;\n    fireEvent(\"UserCandidateUpdate\", edata);\n  }\n\n    \n  /// @dev Return the user's candidate data\n  /// @return Tuple of candidate data.\n  function getCandidateData()\n    public view returns(bool isRegistered,\n                        uint64 hourlyRate,\n                        uint16 currencyType) {\n    isRegistered = candidateData.isRegistered;\n    hourlyRate = candidateData.hourlyRate;\n    currencyType = candidateData.currencyType;\n  }\n\n\n  /// @dev Registers an Arbiter for the User.\n  /// @param paymentValue Unit of payment based on currencyType\n  /// and paymentType\n  /// @param currencyType Type of currency for the payment value\n  ///        0 - ETH, 1 - USD\n  /// @param paymentType Type of payment that the arbiter takes.\n  ///        0 - Flat Rate, 1 - Percentage\n  function registerArbiter(uint paymentValue,\n                           uint16 currencyType,\n                           uint8 paymentType)\n    public\n    isUser {\n    require(!arbiterData.isRegistered,\n            \"Given user is already registered as an Arbiter.\");\n    require(currencyType <= 1, \"Currency Type out of range\");\n\n    arbiterData.isRegistered = true;\n    arbiterData.paymentValue = paymentValue;\n    arbiterData.currencyType = currencyType;\n    arbiterData.paymentType = paymentType;\n    updateDateUpdated();\n\n    // Fire Event\n    uint[] memory edata = new uint[](1);\n    edata[0] = userId;\n    fireEvent(\"UserRegisteredArbiter\", edata);\n  }\n\n\n  /// @dev Updates the given arbiter's rate of payment.\n  /// @param paymentValue unit of payment based on currencyType\n  /// and paymentType\n  /// @param currencyType Type of currency for the payment value\n  ///        0 - ETH, 1 - USD\n  /// @param paymentType Type of payment that the arbiter takes.\n  ///        0 - Flat Rate, 1 - Percentage\n  function updateArbiterRate(uint paymentValue,\n                             uint16 currencyType,\n                             uint8 paymentType)\n    public\n    isUser {\n    arbiterData.paymentValue = paymentValue;\n    arbiterData.currencyType = currencyType;\n    arbiterData.paymentType = paymentType;\n    updateDateUpdated();\n\n    // Fire Event\n    uint[] memory edata = new uint[](1);\n    edata[0] = userId;\n    fireEvent(\"UserArbiterUpdated\", edata);\n  }\n\n\n  /// @dev Gets the user's arbiter data.\n  /// @return Tuple containing the arbiter data\n  function getArbiterData()\n    public view\n    returns(bool isRegistered,\n            uint paymentValue,\n            uint16 currencyType,\n            uint8 paymentType) {\n    isRegistered = arbiterData.isRegistered;\n    paymentValue = arbiterData.paymentValue;\n    currencyType = arbiterData.currencyType;\n    paymentType = arbiterData.paymentType;\n  }\n\n\n  /// @dev Registers an Employee for the User.\n  function registerEmployer()\n    public\n    isUser {\n    require(!employerData.isRegistered,\n            \"Given user is already registered as an Employer.\");\n\n    employerData.isRegistered = true;\n    updateDateUpdated();\n\n    // Fire Event\n    uint[] memory edata = new uint[](1);\n    edata[0] = userId;\n    fireEvent(\"UserRegisteredEmployer\", edata);\n  }\n    \n\n  /// @dev Gets the user's employer data.\n  /// @return Tuple containing the employer data\n  function getEmployerData()\n    public view\n    returns(bool isRegistered) {\n    isRegistered = employerData.isRegistered;\n  }\n    \n\n  //\n  // Modifiers\n  //\n    \n  /// @dev Checks if the msg.sender is the user assigned to the user\n  /// contract.\n  modifier isUser {\n    require(userAddress == msg.sender,\n            \"Unauthorized: Given User does not own this user contract.\");\n    _;\n  }\n    \n\n}\n",
  "sourcePath": "/home/benzap/projects/ethlance/contracts/EthlanceUser.sol",
  "compiler": {
    "name": "solc",
    "version": "0.5.8+commit.23d335f2.Linux.g++"
  },
  "schemaVersion": "3.0.9",
  "updatedAt": "2019-05-15T03:25:42.139Z",
  "devdoc": {
    "methods": {
      "getArbiterData()": {
        "details": "Gets the user's arbiter data.",
        "return": "Tuple containing the arbiter data"
      },
      "getCandidateData()": {
        "details": "Return the user's candidate data",
        "return": "Tuple of candidate data."
      },
      "getEmployerData()": {
        "details": "Gets the user's employer data.",
        "return": "Tuple containing the employer data"
      },
      "registerArbiter(uint256,uint16,uint8)": {
        "details": "Registers an Arbiter for the User.",
        "params": {
          "currencyType": "Type of currency for the payment value        0 - ETH, 1 - USD",
          "paymentType": "Type of payment that the arbiter takes.        0 - Flat Rate, 1 - Percentage",
          "paymentValue": "Unit of payment based on currencyType and paymentType"
        }
      },
      "registerCandidate(uint64,uint16)": {
        "details": "Register Candidate for the User.Note: Requires that the address is a registered user.",
        "params": {
          "currencyType": "The type of currency to be paid in.",
          "hourlyRate": "Based on currency, the hourly suggested amount for payment."
        }
      },
      "registerEmployer()": {
        "details": "Registers an Employee for the User."
      },
      "updateArbiterRate(uint256,uint16,uint8)": {
        "details": "Updates the given arbiter's rate of payment.",
        "params": {
          "currencyType": "Type of currency for the payment value        0 - ETH, 1 - USD",
          "paymentType": "Type of payment that the arbiter takes.        0 - Flat Rate, 1 - Percentage",
          "paymentValue": "unit of payment based on currencyType and paymentType"
        }
      },
      "updateCandidateRate(uint64,uint16)": {
        "details": "Update Candidate's rate of hourly pay and currency type.",
        "params": {
          "currencyType": "Type of hourly pay. 0 - Eth, 1 - USD.",
          "hourlyRate": "The rate of hourly pay for a particular currency.                    For USD, a unit of pay is a cent. For                    Ethereum, the unit of pay is a wei."
        }
      }
    },
    "title": "User Contract which represents a User's information describing their price points and skills for employment, for being a candidate, and for being an Arbiter for jobs."
  },
  "userdoc": {
    "methods": {}
  }
}