{
  "contractName": "EthlanceTokenStore",
  "abi": [
    {
      "constant": true,
      "inputs": [],
      "name": "version",
      "outputs": [
        {
          "name": "",
          "type": "uint256"
        }
      ],
      "payable": false,
      "stateMutability": "view",
      "type": "function"
    },
    {
      "constant": true,
      "inputs": [],
      "name": "registry",
      "outputs": [
        {
          "name": "",
          "type": "address"
        }
      ],
      "payable": false,
      "stateMutability": "view",
      "type": "function"
    },
    {
      "constant": true,
      "inputs": [],
      "name": "owner",
      "outputs": [
        {
          "name": "",
          "type": "address"
        }
      ],
      "payable": false,
      "stateMutability": "view",
      "type": "function"
    },
    {
      "constant": false,
      "inputs": [],
      "name": "construct",
      "outputs": [],
      "payable": false,
      "stateMutability": "nonpayable",
      "type": "function"
    },
    {
      "constant": false,
      "inputs": [
        {
          "name": "tokenAddress",
          "type": "address"
        }
      ],
      "name": "addToken",
      "outputs": [],
      "payable": false,
      "stateMutability": "nonpayable",
      "type": "function"
    },
    {
      "constant": true,
      "inputs": [
        {
          "name": "tokenAddress",
          "type": "address"
        }
      ],
      "name": "hasToken",
      "outputs": [
        {
          "name": "",
          "type": "bool"
        }
      ],
      "payable": false,
      "stateMutability": "view",
      "type": "function"
    },
    {
      "constant": true,
      "inputs": [
        {
          "name": "index",
          "type": "uint256"
        }
      ],
      "name": "getTokenByIndex",
      "outputs": [
        {
          "name": "",
          "type": "address"
        }
      ],
      "payable": false,
      "stateMutability": "view",
      "type": "function"
    },
    {
      "constant": true,
      "inputs": [],
      "name": "getTokenCount",
      "outputs": [
        {
          "name": "",
          "type": "uint256"
        }
      ],
      "payable": false,
      "stateMutability": "view",
      "type": "function"
    }
  ],
  "bytecode": "0x608060405234801561001057600080fd5b506106a8806100206000396000f3fe608060405234801561001057600080fd5b50600436106100885760003560e01c80638da5cb5b1161005b5780638da5cb5b1461018157806394b91deb146101cb5780639bb0f599146101d5578063d48bfca71461023157610088565b806354fd4d501461008d578063644b7a43146100ab57806378a89567146101195780637b10399914610137575b600080fd5b610095610275565b6040518082815260200191505060405180910390f35b6100d7600480360360208110156100c157600080fd5b810190808035906020019092919050505061027a565b604051808273ffffffffffffffffffffffffffffffffffffffff1673ffffffffffffffffffffffffffffffffffffffff16815260200191505060405180910390f35b610121610335565b6040518082815260200191505060405180910390f35b61013f610342565b604051808273ffffffffffffffffffffffffffffffffffffffff1673ffffffffffffffffffffffffffffffffffffffff16815260200191505060405180910390f35b61018961035a565b604051808273ffffffffffffffffffffffffffffffffffffffff1673ffffffffffffffffffffffffffffffffffffffff16815260200191505060405180910390f35b6101d3610380565b005b610217600480360360208110156101eb57600080fd5b81019080803573ffffffffffffffffffffffffffffffffffffffff16906020019092919050505061046a565b604051808215151515815260200191505060405180910390f35b6102736004803603602081101561024757600080fd5b81019080803573ffffffffffffffffffffffffffffffffffffffff1690602001909291905050506104bf565b005b600181565b600060018054905082106102f6576040517f08c379a00000000000000000000000000000000000000000000000000000000081526004018080602001828103825260138152602001807f496e646578206f7574206f6620626f756e64730000000000000000000000000081525060200191505060405180910390fd5b6001828154811061030357fe5b9060005260206000200160009054906101000a900473ffffffffffffffffffffffffffffffffffffffff169050919050565b6000600180549050905090565b73dabbdabbdabbdabbdabbdabbdabbdabbdabbdabb81565b600260009054906101000a900473ffffffffffffffffffffffffffffffffffffffff1681565b600073ffffffffffffffffffffffffffffffffffffffff16600260009054906101000a900473ffffffffffffffffffffffffffffffffffffffff1673ffffffffffffffffffffffffffffffffffffffff1614610427576040517f08c379a00000000000000000000000000000000000000000000000000000000081526004018080602001828103825260348152602001806106266034913960400191505060405180910390fd5b33600260006101000a81548173ffffffffffffffffffffffffffffffffffffffff021916908373ffffffffffffffffffffffffffffffffffffffff160217905550565b60008060008373ffffffffffffffffffffffffffffffffffffffff1673ffffffffffffffffffffffffffffffffffffffff16815260200190815260200160002060009054906101000a900460ff169050919050565b3373ffffffffffffffffffffffffffffffffffffffff16600260009054906101000a900473ffffffffffffffffffffffffffffffffffffffff1673ffffffffffffffffffffffffffffffffffffffff1614610565576040517f08c379a000000000000000000000000000000000000000000000000000000000815260040180806020018281038252602381526020018061065a6023913960400191505060405180910390fd5b60018190806001815401808255809150509060018203906000526020600020016000909192909190916101000a81548173ffffffffffffffffffffffffffffffffffffffff021916908373ffffffffffffffffffffffffffffffffffffffff1602179055505060016000808373ffffffffffffffffffffffffffffffffffffffff1673ffffffffffffffffffffffffffffffffffffffff16815260200190815260200160002060006101000a81548160ff0219169083151502179055505056fe4574686c616e6365546f6b656e53746f726520636f6e74726163742077617320616c726561647920636f6e73747275637465642e4f6e6c7920746865206f776e65722063616e206164642061206a6f6220746f6b656e2ea165627a7a723058207195bf6bc15b8b1c1ec74b5c9c5338d3fb8608a815d8f5f826ab1ccc138f51980029",
  "source": "pragma solidity ^0.5.0;\n\nimport \"./EthlanceRegistry.sol\";\nimport \"./token/IERC20.sol\";\n\n\n/// @title Used to store general ERC20 token contracts.\ncontract EthlanceTokenStore {\n  uint public constant version = 1;\n  EthlanceRegistry public constant registry = EthlanceRegistry(0xdaBBdABbDABbDabbDaBbDabbDaBbdaBbdaBbDAbB);\n\n  //\n  // Collections\n  //\n\n  // Determine what token addresses are linked to the job store\n  mapping(address => bool) internal jobTokenMapping;\n\n  // Listing of all accepted tokens\n  address[] internal jobTokenListing;\n\n  //\n  // Members\n  //\n\n  address public owner;\n    \n\n  // Forwarded Constructor\n  function construct() external {\n    require(owner == address(0), \"EthlanceTokenStore contract was already constructed.\");\n    owner = msg.sender;\n  }\n\n\n  //\n  // Methods\n  //\n\n  /// @dev Add a job token for a job contract\n  /// @param tokenAddress The address of the ERC20 Token\n  function addToken(address tokenAddress)\n    public {\n    require(owner == msg.sender, \"Only the owner can add a job token.\");\n\n    //TODO: check to see if it's an ERC20 token\n\n    jobTokenListing.push(tokenAddress);\n    jobTokenMapping[tokenAddress] = true;\n  }\n\n\n  //\n  // Views\n  //\n\n  /// @dev Returns true if the store contains the given token.\n  function hasToken(address tokenAddress) public view returns (bool) {\n    return jobTokenMapping[tokenAddress];\n  }\n\n\n  /// @dev Gets all active tokens for a particular job contract\n  /// @return the address of the token at the given index.\n  function getTokenByIndex(uint index)\n    public view returns (address) {\n    require(index < jobTokenListing.length, \"Index out of bounds\");\n    return jobTokenListing[index];\n  }\n\n\n  /// @dev Returns the total number of tokens\n  function getTokenCount()\n    public view returns(uint) {\n    return jobTokenListing.length;\n  }\n\n\n  /// @dev Fire events specific to the work contract\n  /// @param eventName Unique to give the fired event\n  /// @param eventData Additional event data to include in the\n  /// fired event.\n  function fireEvent(string memory eventName, uint[] memory eventData) private {\n    registry.fireEvent(eventName, version, eventData);\n  }\n\n}\n",
  "sourcePath": "/home/benzap/projects/ethlance/contracts/EthlanceTokenStore.sol",
  "compiler": {
    "name": "solc",
    "version": "0.5.8+commit.23d335f2.Linux.g++"
  },
  "schemaVersion": "3.0.9",
  "updatedAt": "2019-05-15T03:25:42.137Z",
  "devdoc": {
    "methods": {
      "addToken(address)": {
        "details": "Add a job token for a job contract",
        "params": {
          "tokenAddress": "The address of the ERC20 Token"
        }
      },
      "getTokenByIndex(uint256)": {
        "details": "Gets all active tokens for a particular job contract",
        "return": "the address of the token at the given index."
      },
      "getTokenCount()": {
        "details": "Returns the total number of tokens"
      },
      "hasToken(address)": {
        "details": "Returns true if the store contains the given token."
      }
    },
    "title": "Used to store general ERC20 token contracts."
  },
  "userdoc": {
    "methods": {}
  }
}