{
  "contractName": "EthlanceWorkContract",
  "abi": [
    {
      "constant": true,
      "inputs": [],
      "name": "dateUpdated",
      "outputs": [
        {
          "name": "",
          "type": "uint256"
        }
      ],
      "payable": false,
      "stateMutability": "view",
      "type": "function"
    },
    {
      "constant": true,
      "inputs": [],
      "name": "CONTRACT_STATUS_FINISHED",
      "outputs": [
        {
          "name": "",
          "type": "uint256"
        }
      ],
      "payable": false,
      "stateMutability": "view",
      "type": "function"
    },
    {
      "constant": true,
      "inputs": [],
      "name": "workIndex",
      "outputs": [
        {
          "name": "",
          "type": "uint256"
        }
      ],
      "payable": false,
      "stateMutability": "view",
      "type": "function"
    },
    {
      "constant": true,
      "inputs": [],
      "name": "candidateAddress",
      "outputs": [
        {
          "name": "",
          "type": "address"
        }
      ],
      "payable": false,
      "stateMutability": "view",
      "type": "function"
    },
    {
      "constant": true,
      "inputs": [],
      "name": "dateCreated",
      "outputs": [
        {
          "name": "",
          "type": "uint256"
        }
      ],
      "payable": false,
      "stateMutability": "view",
      "type": "function"
    },
    {
      "constant": true,
      "inputs": [
        {
          "name": "",
          "type": "uint256"
        }
      ],
      "name": "invoiceListing",
      "outputs": [
        {
          "name": "",
          "type": "address"
        }
      ],
      "payable": false,
      "stateMutability": "view",
      "type": "function"
    },
    {
      "constant": true,
      "inputs": [],
      "name": "CONTRACT_STATUS_ACCEPTED",
      "outputs": [
        {
          "name": "",
          "type": "uint256"
        }
      ],
      "payable": false,
      "stateMutability": "view",
      "type": "function"
    },
    {
      "constant": true,
      "inputs": [],
      "name": "CONTRACT_STATUS_IN_PROGRESS",
      "outputs": [
        {
          "name": "",
          "type": "uint256"
        }
      ],
      "payable": false,
      "stateMutability": "view",
      "type": "function"
    },
    {
      "constant": true,
      "inputs": [],
      "name": "CONTRACT_STATUS_REQUEST_CANDIDATE_FINISHED",
      "outputs": [
        {
          "name": "",
          "type": "uint256"
        }
      ],
      "payable": false,
      "stateMutability": "view",
      "type": "function"
    },
    {
      "constant": true,
      "inputs": [],
      "name": "version",
      "outputs": [
        {
          "name": "",
          "type": "uint256"
        }
      ],
      "payable": false,
      "stateMutability": "view",
      "type": "function"
    },
    {
      "constant": true,
      "inputs": [],
      "name": "CONTRACT_STATUS_REQUEST_EMPLOYER_FINISHED",
      "outputs": [
        {
          "name": "",
          "type": "uint256"
        }
      ],
      "payable": false,
      "stateMutability": "view",
      "type": "function"
    },
    {
      "constant": true,
      "inputs": [],
      "name": "CONTRACT_STATUS_CANCELLED",
      "outputs": [
        {
          "name": "",
          "type": "uint256"
        }
      ],
      "payable": false,
      "stateMutability": "view",
      "type": "function"
    },
    {
      "constant": true,
      "inputs": [],
      "name": "CONTRACT_STATUS_REQUEST_EMPLOYER_INVITE",
      "outputs": [
        {
          "name": "",
          "type": "uint256"
        }
      ],
      "payable": false,
      "stateMutability": "view",
      "type": "function"
    },
    {
      "constant": true,
      "inputs": [],
      "name": "CONTRACT_STATUS_REQUEST_CANDIDATE_INVITE",
      "outputs": [
        {
          "name": "",
          "type": "uint256"
        }
      ],
      "payable": false,
      "stateMutability": "view",
      "type": "function"
    },
    {
      "constant": true,
      "inputs": [],
      "name": "EMPLOYER_TYPE",
      "outputs": [
        {
          "name": "",
          "type": "uint256"
        }
      ],
      "payable": false,
      "stateMutability": "view",
      "type": "function"
    },
    {
      "constant": true,
      "inputs": [],
      "name": "registry",
      "outputs": [
        {
          "name": "",
          "type": "address"
        }
      ],
      "payable": false,
      "stateMutability": "view",
      "type": "function"
    },
    {
      "constant": true,
      "inputs": [],
      "name": "owner",
      "outputs": [
        {
          "name": "",
          "type": "address"
        }
      ],
      "payable": false,
      "stateMutability": "view",
      "type": "function"
    },
    {
      "constant": true,
      "inputs": [],
      "name": "CONTRACT_STATUS_OPEN_BOUNTY",
      "outputs": [
        {
          "name": "",
          "type": "uint256"
        }
      ],
      "payable": false,
      "stateMutability": "view",
      "type": "function"
    },
    {
      "constant": true,
      "inputs": [],
      "name": "storeInstance",
      "outputs": [
        {
          "name": "",
          "type": "address"
        }
      ],
      "payable": false,
      "stateMutability": "view",
      "type": "function"
    },
    {
      "constant": true,
      "inputs": [],
      "name": "CANDIDATE_TYPE",
      "outputs": [
        {
          "name": "",
          "type": "uint256"
        }
      ],
      "payable": false,
      "stateMutability": "view",
      "type": "function"
    },
    {
      "constant": true,
      "inputs": [],
      "name": "jobIndex",
      "outputs": [
        {
          "name": "",
          "type": "uint256"
        }
      ],
      "payable": false,
      "stateMutability": "view",
      "type": "function"
    },
    {
      "constant": true,
      "inputs": [],
      "name": "contractStatus",
      "outputs": [
        {
          "name": "",
          "type": "uint256"
        }
      ],
      "payable": false,
      "stateMutability": "view",
      "type": "function"
    },
    {
      "constant": true,
      "inputs": [],
      "name": "CONTRACT_STATUS_INITIAL",
      "outputs": [
        {
          "name": "",
          "type": "uint256"
        }
      ],
      "payable": false,
      "stateMutability": "view",
      "type": "function"
    },
    {
      "constant": true,
      "inputs": [],
      "name": "CONTRACT_STATUS_ON_HOLD",
      "outputs": [
        {
          "name": "",
          "type": "uint256"
        }
      ],
      "payable": false,
      "stateMutability": "view",
      "type": "function"
    },
    {
      "constant": true,
      "inputs": [
        {
          "name": "",
          "type": "uint256"
        }
      ],
      "name": "disputeListing",
      "outputs": [
        {
          "name": "",
          "type": "address"
        }
      ],
      "payable": false,
      "stateMutability": "view",
      "type": "function"
    },
    {
      "constant": true,
      "inputs": [],
      "name": "ARBITER_TYPE",
      "outputs": [
        {
          "name": "",
          "type": "uint256"
        }
      ],
      "payable": false,
      "stateMutability": "view",
      "type": "function"
    },
    {
      "constant": true,
      "inputs": [],
      "name": "GUEST_TYPE",
      "outputs": [
        {
          "name": "",
          "type": "uint256"
        }
      ],
      "payable": false,
      "stateMutability": "view",
      "type": "function"
    },
    {
      "constant": false,
      "inputs": [
        {
          "name": "_storeInstance",
          "type": "address"
        },
        {
          "name": "_workIndex",
          "type": "uint256"
        },
        {
          "name": "_candidateAddress",
          "type": "address"
        },
        {
          "name": "isEmployerRequest",
          "type": "bool"
        }
      ],
      "name": "construct",
      "outputs": [],
      "payable": false,
      "stateMutability": "nonpayable",
      "type": "function"
    },
    {
      "constant": false,
      "inputs": [],
      "name": "requestInvite",
      "outputs": [],
      "payable": false,
      "stateMutability": "nonpayable",
      "type": "function"
    },
    {
      "constant": false,
      "inputs": [
        {
          "name": "_sender",
          "type": "address"
        }
      ],
      "name": "requestInvite",
      "outputs": [],
      "payable": false,
      "stateMutability": "nonpayable",
      "type": "function"
    },
    {
      "constant": false,
      "inputs": [],
      "name": "proceed",
      "outputs": [],
      "payable": false,
      "stateMutability": "nonpayable",
      "type": "function"
    },
    {
      "constant": false,
      "inputs": [],
      "name": "requestFinished",
      "outputs": [],
      "payable": false,
      "stateMutability": "nonpayable",
      "type": "function"
    },
    {
      "constant": false,
      "inputs": [
        {
          "name": "reason",
          "type": "string"
        },
        {
          "name": "metahash",
          "type": "string"
        }
      ],
      "name": "createDispute",
      "outputs": [],
      "payable": false,
      "stateMutability": "nonpayable",
      "type": "function"
    },
    {
      "constant": true,
      "inputs": [],
      "name": "getDisputeCount",
      "outputs": [
        {
          "name": "",
          "type": "uint256"
        }
      ],
      "payable": false,
      "stateMutability": "view",
      "type": "function"
    },
    {
      "constant": true,
      "inputs": [
        {
          "name": "index",
          "type": "uint256"
        }
      ],
      "name": "getDisputeByIndex",
      "outputs": [
        {
          "name": "",
          "type": "address"
        }
      ],
      "payable": false,
      "stateMutability": "view",
      "type": "function"
    },
    {
      "constant": false,
      "inputs": [
        {
          "name": "_employerAmount",
          "type": "uint256"
        },
        {
          "name": "_employerToken",
          "type": "address"
        },
        {
          "name": "_candidateAmount",
          "type": "uint256"
        },
        {
          "name": "_candidateToken",
          "type": "address"
        },
        {
          "name": "_arbiterAmount",
          "type": "uint256"
        },
        {
          "name": "_arbiterToken",
          "type": "address"
        }
      ],
      "name": "resolveDispute",
      "outputs": [],
      "payable": false,
      "stateMutability": "nonpayable",
      "type": "function"
    },
    {
      "constant": false,
      "inputs": [
        {
          "name": "amount",
          "type": "uint256"
        },
        {
          "name": "metahash",
          "type": "string"
        }
      ],
      "name": "createInvoice",
      "outputs": [],
      "payable": false,
      "stateMutability": "nonpayable",
      "type": "function"
    },
    {
      "constant": false,
      "inputs": [
        {
          "name": "amountPaid",
          "type": "uint256"
        }
      ],
      "name": "payInvoice",
      "outputs": [],
      "payable": false,
      "stateMutability": "nonpayable",
      "type": "function"
    },
    {
      "constant": true,
      "inputs": [],
      "name": "getInvoiceCount",
      "outputs": [
        {
          "name": "",
          "type": "uint256"
        }
      ],
      "payable": false,
      "stateMutability": "view",
      "type": "function"
    },
    {
      "constant": true,
      "inputs": [
        {
          "name": "index",
          "type": "uint256"
        }
      ],
      "name": "getInvoiceByIndex",
      "outputs": [
        {
          "name": "",
          "type": "address"
        }
      ],
      "payable": false,
      "stateMutability": "view",
      "type": "function"
    },
    {
      "constant": false,
      "inputs": [
        {
          "name": "metahash",
          "type": "string"
        }
      ],
      "name": "addComment",
      "outputs": [],
      "payable": false,
      "stateMutability": "nonpayable",
      "type": "function"
    },
    {
      "constant": false,
      "inputs": [
        {
          "name": "rating",
          "type": "uint256"
        },
        {
          "name": "metahash",
          "type": "string"
        }
      ],
      "name": "leaveFeedback",
      "outputs": [],
      "payable": false,
      "stateMutability": "nonpayable",
      "type": "function"
    }
  ],
  "bytecode": "0x608060405234801561001057600080fd5b50614c2f806100206000396000f3fe608060405260043610610204576000357c0100000000000000000000000000000000000000000000000000000000900463ffffffff1680630201e535146102095780630ad334df146102345780630f8af3c51461025f57806310987b771461028a5780631daa7a38146102b55780631f741c7a1461030c57806329578ad2146103375780632a33fec6146103b25780632c40d0fa146103c95780632d1aa118146103f45780632d48feae146104c6578063331df534146104dd5780634ce660351461050857806354fd4d50146105335780635b2d05db1461055e5780635cf7a9ad146105895780635f77dbd0146105b45780636196e693146105df57806364b3f0691461060a5780636a10928f146106915780637b103999146106bc5780637d6a59ed14610713578063843b43861461073e5780638cd1ac61146107c45780638da5cb5b146109235780638e724a721461097a578063a94c8395146109f5578063ac06778814610a20578063ac60a6cd14610a77578063b721f1cd14610ab2578063b777281814610add578063c45fc51314610b08578063c6a1086514610bb7578063c6ee20d214610bce578063cbf50ec014610bf9578063e779235e14610c89578063e9cbdb7a14610cb4578063eab95edf14610d2f578063eb1a9c5514610d80578063ebef75e514610dab578063fb01b30314610e26578063fe737a1214610e51575b600080fd5b34801561021557600080fd5b5061021e610e7c565b6040518082815260200191505060405180910390f35b34801561024057600080fd5b50610249610e82565b6040518082815260200191505060405180910390f35b34801561026b57600080fd5b50610274610e87565b6040518082815260200191505060405180910390f35b34801561029657600080fd5b5061029f610e8d565b6040518082815260200191505060405180910390f35b3480156102c157600080fd5b506102ca610e9a565b604051808273ffffffffffffffffffffffffffffffffffffffff1673ffffffffffffffffffffffffffffffffffffffff16815260200191505060405180910390f35b34801561031857600080fd5b50610321610ec0565b6040518082815260200191505060405180910390f35b34801561034357600080fd5b506103706004803603602081101561035a57600080fd5b8101908080359060200190929190505050610ec6565b604051808273ffffffffffffffffffffffffffffffffffffffff1673ffffffffffffffffffffffffffffffffffffffff16815260200191505060405180910390f35b3480156103be57600080fd5b506103c7610f04565b005b3480156103d557600080fd5b506103de611302565b6040518082815260200191505060405180910390f35b34801561040057600080fd5b506104c46004803603604081101561041757600080fd5b81019080803590602001909291908035906020019064010000000081111561043e57600080fd5b82018360208201111561045057600080fd5b8035906020019184600183028401116401000000008311171561047257600080fd5b91908080601f016020809104026020016040519081016040528093929190818152602001838380828437600081840152601f19601f820116905080830192505050505050509192919290505050611307565b005b3480156104d257600080fd5b506104db6115a3565b005b3480156104e957600080fd5b506104f2611aac565b6040518082815260200191505060405180910390f35b34801561051457600080fd5b5061051d611ab1565b6040518082815260200191505060405180910390f35b34801561053f57600080fd5b50610548611ab6565b6040518082815260200191505060405180910390f35b34801561056a57600080fd5b50610573611abb565b6040518082815260200191505060405180910390f35b34801561059557600080fd5b5061059e611ac0565b6040518082815260200191505060405180910390f35b3480156105c057600080fd5b506105c9611ac5565b6040518082815260200191505060405180910390f35b3480156105eb57600080fd5b506105f4611aca565b6040518082815260200191505060405180910390f35b34801561061657600080fd5b5061068f6004803603608081101561062d57600080fd5b81019080803573ffffffffffffffffffffffffffffffffffffffff16906020019092919080359060200190929190803573ffffffffffffffffffffffffffffffffffffffff169060200190929190803515159060200190929190505050611acf565b005b34801561069d57600080fd5b506106a6611e5c565b6040518082815260200191505060405180910390f35b3480156106c857600080fd5b506106d1611e61565b604051808273ffffffffffffffffffffffffffffffffffffffff1673ffffffffffffffffffffffffffffffffffffffff16815260200191505060405180910390f35b34801561071f57600080fd5b50610728611e79565b6040518082815260200191505060405180910390f35b34801561074a57600080fd5b506107c26004803603602081101561076157600080fd5b810190808035906020019064010000000081111561077e57600080fd5b82018360208201111561079057600080fd5b803590602001918460018302840111640100000000831117156107b257600080fd5b9091929391929390505050611e86565b005b3480156107d057600080fd5b50610921600480360360408110156107e757600080fd5b810190808035906020019064010000000081111561080457600080fd5b82018360208201111561081657600080fd5b8035906020019184600183028401116401000000008311171561083857600080fd5b91908080601f016020809104026020016040519081016040528093929190818152602001838380828437600081840152601f19601f8201169050808301925050505050505091929192908035906020019064010000000081111561089b57600080fd5b8201836020820111156108ad57600080fd5b803590602001918460018302840111640100000000831117156108cf57600080fd5b91908080601f016020809104026020016040519081016040528093929190818152602001838380828437600081840152601f19601f82011690508083019250505050505050919291929050505061245d565b005b34801561092f57600080fd5b50610938612b3d565b604051808273ffffffffffffffffffffffffffffffffffffffff1673ffffffffffffffffffffffffffffffffffffffff16815260200191505060405180910390f35b34801561098657600080fd5b506109b36004803603602081101561099d57600080fd5b8101908080359060200190929190505050612b63565b604051808273ffffffffffffffffffffffffffffffffffffffff1673ffffffffffffffffffffffffffffffffffffffff16815260200191505060405180910390f35b348015610a0157600080fd5b50610a0a612ba6565b6040518082815260200191505060405180910390f35b348015610a2c57600080fd5b50610a35612bab565b604051808273ffffffffffffffffffffffffffffffffffffffff1673ffffffffffffffffffffffffffffffffffffffff16815260200191505060405180910390f35b348015610a8357600080fd5b50610ab060048036036020811015610a9a57600080fd5b8101908080359060200190929190505050612bd1565b005b348015610abe57600080fd5b50610ac7612d76565b6040518082815260200191505060405180910390f35b348015610ae957600080fd5b50610af2612d7b565b6040518082815260200191505060405180910390f35b348015610b1457600080fd5b50610bb5600480360360c0811015610b2b57600080fd5b8101908080359060200190929190803573ffffffffffffffffffffffffffffffffffffffff16906020019092919080359060200190929190803573ffffffffffffffffffffffffffffffffffffffff16906020019092919080359060200190929190803573ffffffffffffffffffffffffffffffffffffffff169060200190929190505050612d81565b005b348015610bc357600080fd5b50610bcc612fd6565b005b348015610bda57600080fd5b50610be3612fe2565b6040518082815260200191505060405180910390f35b348015610c0557600080fd5b50610c8760048036036040811015610c1c57600080fd5b810190808035906020019092919080359060200190640100000000811115610c4357600080fd5b820183602082011115610c5557600080fd5b80359060200191846001830284011164010000000083111715610c7757600080fd5b9091929391929390505050612fe8565b005b348015610c9557600080fd5b50610c9e613770565b6040518082815260200191505060405180910390f35b348015610cc057600080fd5b50610ced60048036036020811015610cd757600080fd5b8101908080359060200190929190505050613775565b604051808273ffffffffffffffffffffffffffffffffffffffff1673ffffffffffffffffffffffffffffffffffffffff16815260200191505060405180910390f35b348015610d3b57600080fd5b50610d7e60048036036020811015610d5257600080fd5b81019080803573ffffffffffffffffffffffffffffffffffffffff1690602001909291905050506137b8565b005b348015610d8c57600080fd5b50610d95613efc565b6040518082815260200191505060405180910390f35b348015610db757600080fd5b50610de460048036036020811015610dce57600080fd5b8101908080359060200190929190505050613f01565b604051808273ffffffffffffffffffffffffffffffffffffffff1673ffffffffffffffffffffffffffffffffffffffff16815260200191505060405180910390f35b348015610e3257600080fd5b50610e3b613f3f565b6040518082815260200191505060405180910390f35b348015610e5d57600080fd5b50610e66613f44565b6040518082815260200191505060405180910390f35b60075481565b600981565b60025481565b6000600880549050905090565b600460009054906101000a900473ffffffffffffffffffffffffffffffffffffffff1681565b60065481565b600981815481101515610ed557fe5b906000526020600020016000915054906101000a900473ffffffffffffffffffffffffffffffffffffffff1681565b3373ffffffffffffffffffffffffffffffffffffffff16600360009054906101000a900473ffffffffffffffffffffffffffffffffffffffff1673ffffffffffffffffffffffffffffffffffffffff16630d0175a96040518163ffffffff167c010000000000000000000000000000000000000000000000000000000002815260040160206040518083038186803b158015610f9f57600080fd5b505afa158015610fb3573d6000803e3d6000fd5b505050506040513d6020811015610fc957600080fd5b810190808051906020019092919050505073ffffffffffffffffffffffffffffffffffffffff1614151561108b576040517f08c379a00000000000000000000000000000000000000000000000000000000081526004018080602001828103825260278152602001807f4d75737420626520616e20656d706c6f79657220746f2073746172742061206381526020017f6f6e74726163740000000000000000000000000000000000000000000000000081525060400191505060405180910390fd5b600073ffffffffffffffffffffffffffffffffffffffff16600360009054906101000a900473ffffffffffffffffffffffffffffffffffffffff1673ffffffffffffffffffffffffffffffffffffffff1663fbbd21386040518163ffffffff167c010000000000000000000000000000000000000000000000000000000002815260040160206040518083038186803b15801561112757600080fd5b505afa15801561113b573d6000803e3d6000fd5b505050506040513d602081101561115157600080fd5b810190808051906020019092919050505073ffffffffffffffffffffffffffffffffffffffff1614151515611214576040517f08c379a000000000000000000000000000000000000000000000000000000000815260040180806020018281038252603d8152602001807f4d75737420626520616e2061636365707465642061726269746572206265666f81526020017f726520776f726b20636f6e7472616374732063616e2070726f6365656400000081525060400191505060405180910390fd5b6004600054141561126c576112296005613f49565b6112676040805190810160405280601681526020017f4a6f6250726f63656564576f726b436f6e747261637400000000000000000000815250613f5b565b611300565b6040517f08c379a000000000000000000000000000000000000000000000000000000000815260040180806020018281038252603d8152602001807f43616e6e6f74207374617274206120636f6e747261637420696620697420697381526020017f206e6f7420696e2074686520276163636570746564272073746174652e00000081525060400191505060405180910390fd5b565b600481565b60006113116144d8565b604051809103906000f08015801561132d573d6000803e3d6000fd5b509050600081905073dabbdabbdabbdabbdabbdabbdabbdabbdabbdabb73ffffffffffffffffffffffffffffffffffffffff166304d64386836040518263ffffffff167c0100000000000000000000000000000000000000000000000000000000028152600401808273ffffffffffffffffffffffffffffffffffffffff1673ffffffffffffffffffffffffffffffffffffffff168152602001915050600060405180830381600087803b1580156113e457600080fd5b505af11580156113f8573d6000803e3d6000fd5b505050506000600980549050905060098290806001815401808255809150509060018203906000526020600020016000909192909190916101000a81548173ffffffffffffffffffffffffffffffffffffffff021916908373ffffffffffffffffffffffffffffffffffffffff160217905550508173ffffffffffffffffffffffffffffffffffffffff166314ec4f91308388886040518563ffffffff167c0100000000000000000000000000000000000000000000000000000000028152600401808573ffffffffffffffffffffffffffffffffffffffff1673ffffffffffffffffffffffffffffffffffffffff16815260200184815260200183815260200180602001828103825283818151815260200191508051906020019080838360005b8381101561153557808201518184015260208101905061151a565b50505050905090810190601f1680156115625780820380516001836020036101000a031916815260200191505b5095505050505050600060405180830381600087803b15801561158457600080fd5b505af1158015611598573d6000803e3d6000fd5b505050505050505050565b3373ffffffffffffffffffffffffffffffffffffffff16600360009054906101000a900473ffffffffffffffffffffffffffffffffffffffff1673ffffffffffffffffffffffffffffffffffffffff16630d0175a96040518163ffffffff167c010000000000000000000000000000000000000000000000000000000002815260040160206040518083038186803b15801561163e57600080fd5b505afa158015611652573d6000803e3d6000fd5b505050506040513d602081101561166857600080fd5b810190808051906020019092919050505073ffffffffffffffffffffffffffffffffffffffff1614806116e857503373ffffffffffffffffffffffffffffffffffffffff16600460009054906101000a900473ffffffffffffffffffffffffffffffffffffffff1673ffffffffffffffffffffffffffffffffffffffff16145b15156117a8576040517f08c379a00000000000000000000000000000000000000000000000000000000081526004018080602001828103825260478152602001807f4f6e6c79207468652063616e64696461746520616e642074686520656d706c6f81526020017f7965722063616e20726571756573742066696e697368696e672074686520636f81526020017f6e74726163742e0000000000000000000000000000000000000000000000000081525060600191505060405180910390fd5b60008090503373ffffffffffffffffffffffffffffffffffffffff16600360009054906101000a900473ffffffffffffffffffffffffffffffffffffffff1673ffffffffffffffffffffffffffffffffffffffff16630d0175a96040518163ffffffff167c010000000000000000000000000000000000000000000000000000000002815260040160206040518083038186803b15801561184857600080fd5b505afa15801561185c573d6000803e3d6000fd5b505050506040513d602081101561187257600080fd5b810190808051906020019092919050505073ffffffffffffffffffffffffffffffffffffffff1614156118a457600190505b60056000541415611951578015611903576118bf6008613f49565b6118fd6040805190810160405280601b81526020017f576f726b436f6e74726163745265717565737446696e69736865640000000000815250613f5b565b50611aaa565b61190d6007613f49565b61194b6040805190810160405280601b81526020017f576f726b436f6e74726163745265717565737446696e69736865640000000000815250613f5b565b50611aaa565b8015801561196157506008600054145b156119b4576119706009613f49565b6119ae6040805190810160405280601481526020017f576f726b436f6e747261637446696e6973686564000000000000000000000000815250613f5b565b50611aaa565b8080156119c357506007600054145b15611a16576119d26009613f49565b611a106040805190810160405280601481526020017f576f726b436f6e747261637446696e6973686564000000000000000000000000815250613f5b565b50611aaa565b6040517f08c379a00000000000000000000000000000000000000000000000000000000081526004018080602001828103825260288152602001807f4661696c656420746f206d656574207265717565737446696e6973686564206381526020017f726974657269612e00000000000000000000000000000000000000000000000081525060400191505060405180910390fd5b565b600581565b600781565b600181565b600881565b600a81565b600281565b600181565b600073ffffffffffffffffffffffffffffffffffffffff16600560009054906101000a900473ffffffffffffffffffffffffffffffffffffffff1673ffffffffffffffffffffffffffffffffffffffff16141515611bbb576040517f08c379a00000000000000000000000000000000000000000000000000000000081526004018080602001828103825260328152602001807f4574686c616e6365576f726b436f6e747261637420636f6e747261637420616c81526020017f726561647920636f6e73747275637465642e000000000000000000000000000081525060400191505060405180910390fd5b33600560006101000a81548173ffffffffffffffffffffffffffffffffffffffff021916908373ffffffffffffffffffffffffffffffffffffffff16021790555083600360006101000a81548173ffffffffffffffffffffffffffffffffffffffff021916908373ffffffffffffffffffffffffffffffffffffffff1602179055508260028190555081600460006101000a81548173ffffffffffffffffffffffffffffffffffffffff021916908373ffffffffffffffffffffffffffffffffffffffff1602179055504260068190555042600781905550600360009054906101000a900473ffffffffffffffffffffffffffffffffffffffff1673ffffffffffffffffffffffffffffffffffffffff1663b77728186040518163ffffffff167c010000000000000000000000000000000000000000000000000000000002815260040160206040518083038186803b158015611d1757600080fd5b505afa158015611d2b573d6000803e3d6000fd5b505050506040513d6020811015611d4157600080fd5b81019080805190602001909291905050506001819055508015611e2a57611e25600360009054906101000a900473ffffffffffffffffffffffffffffffffffffffff1673ffffffffffffffffffffffffffffffffffffffff16630d0175a96040518163ffffffff167c010000000000000000000000000000000000000000000000000000000002815260040160206040518083038186803b158015611de557600080fd5b505afa158015611df9573d6000803e3d6000fd5b505050506040513d6020811015611e0f57600080fd5b81019080805190602001909291905050506137b8565b611e56565b611e55600460009054906101000a900473ffffffffffffffffffffffffffffffffffffffff166137b8565b5b50505050565b600181565b73dabbdabbdabbdabbdabbdabbdabbdabbdabbdabb81565b6000600980549050905090565b6000611e9133614126565b905060008114151515611f32576040517f08c379a00000000000000000000000000000000000000000000000000000000081526004018080602001828103825260368152602001807f4f6e6c79207468652063616e6469646174652c20656d706c6f7965722c20616e81526020017f6420617262697465722063616e20636f6d6d656e742e0000000000000000000081525060400191505060405180910390fd5b6000611f3c6144e8565b604051809103906000f080158015611f58573d6000803e3d6000fd5b509050600081905073dabbdabbdabbdabbdabbdabbdabbdabbdabbdabb73ffffffffffffffffffffffffffffffffffffffff166304d64386836040518263ffffffff167c0100000000000000000000000000000000000000000000000000000000028152600401808273ffffffffffffffffffffffffffffffffffffffff1673ffffffffffffffffffffffffffffffffffffffff168152602001915050600060405180830381600087803b15801561200f57600080fd5b505af1158015612023573d6000803e3d6000fd5b5050505073dabbdabbdabbdabbdabbdabbdabbdabbdabbdabb73ffffffffffffffffffffffffffffffffffffffff1663585a5b1d30836040518363ffffffff167c0100000000000000000000000000000000000000000000000000000000028152600401808373ffffffffffffffffffffffffffffffffffffffff1673ffffffffffffffffffffffffffffffffffffffff1681526020018273ffffffffffffffffffffffffffffffffffffffff1673ffffffffffffffffffffffffffffffffffffffff16815260200192505050600060405180830381600087803b15801561210a57600080fd5b505af115801561211e573d6000803e3d6000fd5b5050505061212a6144f8565b600360009054906101000a900473ffffffffffffffffffffffffffffffffffffffff1673ffffffffffffffffffffffffffffffffffffffff1663b77728186040518163ffffffff167c010000000000000000000000000000000000000000000000000000000002815260040160206040518083038186803b1580156121ae57600080fd5b505afa1580156121c2573d6000803e3d6000fd5b505050506040513d60208110156121d857600080fd5b81019080805190602001909291905050508160006004811015156121f857fe5b60200201818152505060025481600160048110151561221357fe5b602002018181525050600173dabbdabbdabbdabbdabbdabbdabbdabbdabbdabb73ffffffffffffffffffffffffffffffffffffffff16635f329fb2306040518263ffffffff167c0100000000000000000000000000000000000000000000000000000000028152600401808273ffffffffffffffffffffffffffffffffffffffff1673ffffffffffffffffffffffffffffffffffffffff16815260200191505060206040518083038186803b1580156122cb57600080fd5b505afa1580156122df573d6000803e3d6000fd5b505050506040513d60208110156122f557600080fd5b81019080805190602001909291905050500381600260048110151561231657fe5b6020020181815250508173ffffffffffffffffffffffffffffffffffffffff16634bda28d1338689896000876040518763ffffffff167c0100000000000000000000000000000000000000000000000000000000028152600401808773ffffffffffffffffffffffffffffffffffffffff1673ffffffffffffffffffffffffffffffffffffffff168152602001868152602001806020018460028111156123b957fe5b60ff16815260200183600460200280838360005b838110156123e85780820151818401526020810190506123cd565b505050509050018281038252868682818152602001925080828437600081840152601f19601f820116905080830192505050975050505050505050600060405180830381600087803b15801561243d57600080fd5b505af1158015612451573d6000803e3d6000fd5b50505050505050505050565b3373ffffffffffffffffffffffffffffffffffffffff16600460009054906101000a900473ffffffffffffffffffffffffffffffffffffffff1673ffffffffffffffffffffffffffffffffffffffff1614806125a257503373ffffffffffffffffffffffffffffffffffffffff16600360009054906101000a900473ffffffffffffffffffffffffffffffffffffffff1673ffffffffffffffffffffffffffffffffffffffff16630d0175a96040518163ffffffff167c010000000000000000000000000000000000000000000000000000000002815260040160206040518083038186803b15801561254f57600080fd5b505afa158015612563573d6000803e3d6000fd5b505050506040513d602081101561257957600080fd5b810190808051906020019092919050505073ffffffffffffffffffffffffffffffffffffffff16145b151561263c576040517f08c379a000000000000000000000000000000000000000000000000000000000815260040180806020018281038252603c8152602001807f4f6e6c792074686520656d706c6f79657220616e64207468652063616e64696481526020017f6174652063616e20637265617465206e65772064697370757465732e0000000081525060400191505060405180910390fd5b6005600054148061264f57506006600054145b8061265c57506008600054145b8061266957506007600054145b1515612729576040517f08c379a00000000000000000000000000000000000000000000000000000000081526004018080602001828103825260438152602001807f5468652063757272656e7420636f6e74726163742073746174757320646f657381526020017f206e6f7420616c6c6f7720796f7520746f20637265617465206120646973707581526020017f74652e000000000000000000000000000000000000000000000000000000000081525060600191505060405180910390fd5b60008090503373ffffffffffffffffffffffffffffffffffffffff16600360009054906101000a900473ffffffffffffffffffffffffffffffffffffffff1673ffffffffffffffffffffffffffffffffffffffff16630d0175a96040518163ffffffff167c010000000000000000000000000000000000000000000000000000000002815260040160206040518083038186803b1580156127c957600080fd5b505afa1580156127dd573d6000803e3d6000fd5b505050506040513d60208110156127f357600080fd5b810190808051906020019092919050505073ffffffffffffffffffffffffffffffffffffffff16141561282557600190505b600061282f61451b565b604051809103906000f08015801561284b573d6000803e3d6000fd5b50905073dabbdabbdabbdabbdabbdabbdabbdabbdabbdabb73ffffffffffffffffffffffffffffffffffffffff166304d64386826040518263ffffffff167c0100000000000000000000000000000000000000000000000000000000028152600401808273ffffffffffffffffffffffffffffffffffffffff1673ffffffffffffffffffffffffffffffffffffffff168152602001915050600060405180830381600087803b1580156128fd57600080fd5b505af1158015612911573d6000803e3d6000fd5b5050505060008190506000600880549050905060088290806001815401808255809150509060018203906000526020600020016000909192909190916101000a81548173ffffffffffffffffffffffffffffffffffffffff021916908373ffffffffffffffffffffffffffffffffffffffff160217905550508173ffffffffffffffffffffffffffffffffffffffff166349f4b51730838989896040518663ffffffff167c0100000000000000000000000000000000000000000000000000000000028152600401808673ffffffffffffffffffffffffffffffffffffffff1673ffffffffffffffffffffffffffffffffffffffff168152602001858152602001806020018060200184151515158152602001838103835286818151815260200191508051906020019080838360005b83811015612a5c578082015181840152602081019050612a41565b50505050905090810190601f168015612a895780820380516001836020036101000a031916815260200191505b50838103825285818151815260200191508051906020019080838360005b83811015612ac2578082015181840152602081019050612aa7565b50505050905090810190601f168015612aef5780820380516001836020036101000a031916815260200191505b50975050505050505050600060405180830381600087803b158015612b1357600080fd5b505af1158015612b27573d6000803e3d6000fd5b50505050612b356006613f49565b505050505050565b600560009054906101000a900473ffffffffffffffffffffffffffffffffffffffff1681565b6000600982815481101515612b7457fe5b9060005260206000200160009054906101000a900473ffffffffffffffffffffffffffffffffffffffff169050919050565b600381565b600360009054906101000a900473ffffffffffffffffffffffffffffffffffffffff1681565b612bda33614387565b1515612c74576040517f08c379a000000000000000000000000000000000000000000000000000000000815260040180806020018281038252602e8152602001807f4f6e6c7920616e20696e766f69636520636f6e74726163742063616e2027706181526020017f792720616e20696e766f6963652e00000000000000000000000000000000000081525060400191505060405180910390fd5b600360009054906101000a900473ffffffffffffffffffffffffffffffffffffffff1673ffffffffffffffffffffffffffffffffffffffff166330c6faeb600460009054906101000a900473ffffffffffffffffffffffffffffffffffffffff16836040518363ffffffff167c0100000000000000000000000000000000000000000000000000000000028152600401808373ffffffffffffffffffffffffffffffffffffffff1673ffffffffffffffffffffffffffffffffffffffff16815260200182815260200192505050600060405180830381600087803b158015612d5b57600080fd5b505af1158015612d6f573d6000803e3d6000fd5b5050505050565b600281565b60015481565b612d8a3361442b565b1515612e24576040517f08c379a00000000000000000000000000000000000000000000000000000000081526004018080602001828103825260308152602001807f4f6e6c792061206469737075746520636f6e74726163742063616e202772657381526020017f6f6c766527206120646973707574652e0000000000000000000000000000000081525060400191505060405180910390fd5b600360009054906101000a900473ffffffffffffffffffffffffffffffffffffffff1673ffffffffffffffffffffffffffffffffffffffff1662955650878787878787600460009054906101000a900473ffffffffffffffffffffffffffffffffffffffff166040518863ffffffff167c0100000000000000000000000000000000000000000000000000000000028152600401808881526020018773ffffffffffffffffffffffffffffffffffffffff1673ffffffffffffffffffffffffffffffffffffffff1681526020018681526020018573ffffffffffffffffffffffffffffffffffffffff1673ffffffffffffffffffffffffffffffffffffffff1681526020018481526020018373ffffffffffffffffffffffffffffffffffffffff1673ffffffffffffffffffffffffffffffffffffffff1681526020018273ffffffffffffffffffffffffffffffffffffffff1673ffffffffffffffffffffffffffffffffffffffff168152602001975050505050505050600060405180830381600087803b158015612fb657600080fd5b505af1158015612fca573d6000803e3d6000fd5b50505050505050505050565b612fe060006137b8565b565b60005481565b6000612ff333614126565b905060028114806130045750600181145b151561309e576040517f08c379a00000000000000000000000000000000000000000000000000000000081526004018080602001828103825260378152602001807f4f6e6c79207468652063616e646964617465206f722074686520656d706c6f7981526020017f65722c2063616e206c6561766520666565646261636b2e00000000000000000081525060400191505060405180910390fd5b60008060028314156131745760019150600360009054906101000a900473ffffffffffffffffffffffffffffffffffffffff1673ffffffffffffffffffffffffffffffffffffffff16630d0175a96040518163ffffffff167c010000000000000000000000000000000000000000000000000000000002815260040160206040518083038186803b15801561313257600080fd5b505afa158015613146573d6000803e3d6000fd5b505050506040513d602081101561315c57600080fd5b8101908080519060200190929190505050905061319e565b60029150600460009054906101000a900473ffffffffffffffffffffffffffffffffffffffff1690505b600073dabbdabbdabbdabbdabbdabbdabbdabbdabbdabb73ffffffffffffffffffffffffffffffffffffffff16638bac5fbc306040518263ffffffff167c0100000000000000000000000000000000000000000000000000000000028152600401808273ffffffffffffffffffffffffffffffffffffffff1673ffffffffffffffffffffffffffffffffffffffff16815260200191505060206040518083038186803b15801561324d57600080fd5b505afa158015613261573d6000803e3d6000fd5b505050506040513d602081101561327757600080fd5b8101908080519060200190929190505050151561354957600061329861452b565b604051809103906000f0801580156132b4573d6000803e3d6000fd5b50905080915073dabbdabbdabbdabbdabbdabbdabbdabbdabbdabb73ffffffffffffffffffffffffffffffffffffffff166304d64386826040518263ffffffff167c0100000000000000000000000000000000000000000000000000000000028152600401808273ffffffffffffffffffffffffffffffffffffffff1673ffffffffffffffffffffffffffffffffffffffff168152602001915050600060405180830381600087803b15801561336957600080fd5b505af115801561337d573d6000803e3d6000fd5b5050505073dabbdabbdabbdabbdabbdabbdabbdabbdabbdabb73ffffffffffffffffffffffffffffffffffffffff1663ec6040be30836040518363ffffffff167c0100000000000000000000000000000000000000000000000000000000028152600401808373ffffffffffffffffffffffffffffffffffffffff1673ffffffffffffffffffffffffffffffffffffffff1681526020018273ffffffffffffffffffffffffffffffffffffffff1673ffffffffffffffffffffffffffffffffffffffff16815260200192505050600060405180830381600087803b15801561346457600080fd5b505af1158015613478573d6000803e3d6000fd5b505050508173ffffffffffffffffffffffffffffffffffffffff1663ed7ace46306001546002546040518463ffffffff167c0100000000000000000000000000000000000000000000000000000000028152600401808473ffffffffffffffffffffffffffffffffffffffff1673ffffffffffffffffffffffffffffffffffffffff1681526020018381526020018281526020019350505050600060405180830381600087803b15801561352b57600080fd5b505af115801561353f573d6000803e3d6000fd5b5050505050613634565b73dabbdabbdabbdabbdabbdabbdabbdabbdabbdabb73ffffffffffffffffffffffffffffffffffffffff166313f7ab10306040518263ffffffff167c0100000000000000000000000000000000000000000000000000000000028152600401808273ffffffffffffffffffffffffffffffffffffffff1673ffffffffffffffffffffffffffffffffffffffff16815260200191505060206040518083038186803b1580156135f657600080fd5b505afa15801561360a573d6000803e3d6000fd5b505050506040513d602081101561362057600080fd5b810190808051906020019092919050505090505b8073ffffffffffffffffffffffffffffffffffffffff166343168a3e338487878b8b8e6040518863ffffffff167c0100000000000000000000000000000000000000000000000000000000028152600401808873ffffffffffffffffffffffffffffffffffffffff1673ffffffffffffffffffffffffffffffffffffffff1681526020018773ffffffffffffffffffffffffffffffffffffffff1673ffffffffffffffffffffffffffffffffffffffff168152602001868152602001858152602001806020018381526020018281038252858582818152602001925080828437600081840152601f19601f82011690508083019250505098505050505050505050600060405180830381600087803b15801561374f57600080fd5b505af1158015613763573d6000803e3d6000fd5b5050505050505050505050565b600081565b600060088281548110151561378657fe5b9060005260206000200160009054906101000a900473ffffffffffffffffffffffffffffffffffffffff169050919050565b3373ffffffffffffffffffffffffffffffffffffffff16600360009054906101000a900473ffffffffffffffffffffffffffffffffffffffff1673ffffffffffffffffffffffffffffffffffffffff16141561381357613a20565b3373ffffffffffffffffffffffffffffffffffffffff16600360009054906101000a900473ffffffffffffffffffffffffffffffffffffffff1673ffffffffffffffffffffffffffffffffffffffff16630d0175a96040518163ffffffff167c010000000000000000000000000000000000000000000000000000000002815260040160206040518083038186803b1580156138ae57600080fd5b505afa1580156138c2573d6000803e3d6000fd5b505050506040513d60208110156138d857600080fd5b810190808051906020019092919050505073ffffffffffffffffffffffffffffffffffffffff16148061395857503373ffffffffffffffffffffffffffffffffffffffff16600460009054906101000a900473ffffffffffffffffffffffffffffffffffffffff1673ffffffffffffffffffffffffffffffffffffffff16145b1561396557339050613a1f565b6040517f08c379a00000000000000000000000000000000000000000000000000000000081526004018080602001828103825260418152602001807f4f6e6c7920746865206a6f622073746f72652c2063616e64696461746520616e81526020017f6420656d706c6f7965722063616e207265717565737420616e20696e7669746581526020017f2e0000000000000000000000000000000000000000000000000000000000000081525060600191505060405180910390fd5b5b60008090508173ffffffffffffffffffffffffffffffffffffffff16600360009054906101000a900473ffffffffffffffffffffffffffffffffffffffff1673ffffffffffffffffffffffffffffffffffffffff16630d0175a96040518163ffffffff167c010000000000000000000000000000000000000000000000000000000002815260040160206040518083038186803b158015613ac057600080fd5b505afa158015613ad4573d6000803e3d6000fd5b505050506040513d6020811015613aea57600080fd5b810190808051906020019092919050505073ffffffffffffffffffffffffffffffffffffffff161415613b1c57600190505b600360009054906101000a900473ffffffffffffffffffffffffffffffffffffffff1673ffffffffffffffffffffffffffffffffffffffff1663905ee4746040518163ffffffff167c010000000000000000000000000000000000000000000000000000000002815260040160206040518083038186803b158015613ba057600080fd5b505afa158015613bb4573d6000803e3d6000fd5b505050506040513d6020811015613bca57600080fd5b810190808051906020019092919050505060ff16600360009054906101000a900473ffffffffffffffffffffffffffffffffffffffff1673ffffffffffffffffffffffffffffffffffffffff1663024302796040518163ffffffff167c010000000000000000000000000000000000000000000000000000000002815260040160206040518083038186803b158015613c6257600080fd5b505afa158015613c76573d6000803e3d6000fd5b505050506040513d6020811015613c8c57600080fd5b810190808051906020019092919050505060ff161415613cf457613cb06003613f49565b613cee6040805190810160405280601681526020017f4a6f6252657175657374576f726b436f6e747261637400000000000000000000815250613f5b565b50613ef9565b600080541415613da0578015613d5257613d0e6002613f49565b613d4c6040805190810160405280601681526020017f4a6f6252657175657374576f726b436f6e747261637400000000000000000000815250613f5b565b50613ef9565b613d5c6001613f49565b613d9a6040805190810160405280601681526020017f4a6f6252657175657374576f726b436f6e747261637400000000000000000000815250613f5b565b50613ef9565b808015613daf57506001600054145b15613e0257613dbe6004613f49565b613dfc6040805190810160405280601581526020017f4a6f62416363657074576f726b436f6e74726163740000000000000000000000815250613f5b565b50613ef9565b80158015613e1257506002600054145b15613e6557613e216004613f49565b613e5f6040805190810160405280601581526020017f4a6f62416363657074576f726b436f6e74726163740000000000000000000000815250613f5b565b50613ef9565b6040517f08c379a000000000000000000000000000000000000000000000000000000000815260040180806020018281038252602e8152602001807f4661696c656420746f206d65657420726571756972656420726571756573744981526020017f6e7669746520637269746572696100000000000000000000000000000000000081525060400191505060405180910390fd5b50565b600681565b600881815481101515613f1057fe5b906000526020600020016000915054906101000a900473ffffffffffffffffffffffffffffffffffffffff1681565b600381565b600081565b80600081905550613f586144cf565b50565b60606002604051908082528060200260200182016040528015613f8d5781602001602082028038833980820191505090505b509050600154816000815181101515613fa257fe5b9060200190602002018181525050600254816001815181101515613fc257fe5b906020019060200201818152505073dabbdabbdabbdabbdabbdabbdabbdabbdabbdabb73ffffffffffffffffffffffffffffffffffffffff16634904a20c836001846040518463ffffffff167c0100000000000000000000000000000000000000000000000000000000028152600401808060200184815260200180602001838103835286818151815260200191508051906020019080838360005b8381101561407957808201518184015260208101905061405e565b50505050905090810190601f1680156140a65780820380516001836020036101000a031916815260200191505b50838103825284818151815260200191508051906020019060200280838360005b838110156140e25780820151818401526020810190506140c7565b5050505090500195505050505050600060405180830381600087803b15801561410a57600080fd5b505af115801561411e573d6000803e3d6000fd5b505050505050565b6000600460009054906101000a900473ffffffffffffffffffffffffffffffffffffffff1673ffffffffffffffffffffffffffffffffffffffff168273ffffffffffffffffffffffffffffffffffffffff1614156141875760029050614382565b600360009054906101000a900473ffffffffffffffffffffffffffffffffffffffff1673ffffffffffffffffffffffffffffffffffffffff16630d0175a96040518163ffffffff167c010000000000000000000000000000000000000000000000000000000002815260040160206040518083038186803b15801561420b57600080fd5b505afa15801561421f573d6000803e3d6000fd5b505050506040513d602081101561423557600080fd5b810190808051906020019092919050505073ffffffffffffffffffffffffffffffffffffffff168273ffffffffffffffffffffffffffffffffffffffff1614156142825760019050614382565b600360009054906101000a900473ffffffffffffffffffffffffffffffffffffffff1673ffffffffffffffffffffffffffffffffffffffff1663fbbd21386040518163ffffffff167c010000000000000000000000000000000000000000000000000000000002815260040160206040518083038186803b15801561430657600080fd5b505afa15801561431a573d6000803e3d6000fd5b505050506040513d602081101561433057600080fd5b810190808051906020019092919050505073ffffffffffffffffffffffffffffffffffffffff168273ffffffffffffffffffffffffffffffffffffffff16141561437d5760039050614382565b600090505b919050565b600080600090505b600980549050811015614420578273ffffffffffffffffffffffffffffffffffffffff166009828154811015156143c257fe5b9060005260206000200160009054906101000a900473ffffffffffffffffffffffffffffffffffffffff1673ffffffffffffffffffffffffffffffffffffffff161415614413576001915050614426565b808060010191505061438f565b50600090505b919050565b600080600090505b6008805490508110156144c4578273ffffffffffffffffffffffffffffffffffffffff1660088281548110151561446657fe5b9060005260206000200160009054906101000a900473ffffffffffffffffffffffffffffffffffffffff1673ffffffffffffffffffffffffffffffffffffffff1614156144b75760019150506144ca565b8080600101915050614433565b50600090505b919050565b42600781905550565b6040516101b28061453c83390190565b6040516101b2806146ee83390190565b608060405190810160405280600490602082028038833980820191505090505090565b6040516101b2806148a083390190565b6040516101b280614a528339019056fe608060405234801561001057600080fd5b50610192806100206000396000f3fe608060405260043610610041576000357c0100000000000000000000000000000000000000000000000000000000900463ffffffff168063d4b83992146100a6575b6100a473beefbeefbeefbeefbeefbeefbeefbeefbeefbeef6000368080601f016020809104026020016040519081016040528093929190818152602001838380828437600081840152601f19601f820116905080830192505050505050506100fd565b005b3480156100b257600080fd5b506100bb61013b565b604051808273ffffffffffffffffffffffffffffffffffffffff1673ffffffffffffffffffffffffffffffffffffffff16815260200191505060405180910390f35b61010682610153565b151561011157600080fd5b600080825160208401856127105a03f43d604051816000823e8260008114610137578282f35b8282fd5b73beefbeefbeefbeefbeefbeefbeefbeefbeefbeef81565b600080823b90506000811191505091905056fea165627a7a72305820276e76d79a36bb731ba224be90c8a15bd265b79c545434b5bd78802a33ee14700029608060405234801561001057600080fd5b50610192806100206000396000f3fe608060405260043610610041576000357c0100000000000000000000000000000000000000000000000000000000900463ffffffff168063d4b83992146100a6575b6100a473dbdadbadbabdabdbadabdbafffd1234fdfadbccc6000368080601f016020809104026020016040519081016040528093929190818152602001838380828437600081840152601f19601f820116905080830192505050505050506100fd565b005b3480156100b257600080fd5b506100bb61013b565b604051808273ffffffffffffffffffffffffffffffffffffffff1673ffffffffffffffffffffffffffffffffffffffff16815260200191505060405180910390f35b61010682610153565b151561011157600080fd5b600080825160208401856127105a03f43d604051816000823e8260008114610137578282f35b8282fd5b73dbdadbadbabdabdbadabdbafffd1234fdfadbccc81565b600080823b90506000811191505091905056fea165627a7a723058207a075bd687fc3c7a74bc8335afe0dd449ce765ff34ed95a518359cbe696d1edb0029608060405234801561001057600080fd5b50610192806100206000396000f3fe608060405260043610610041576000357c0100000000000000000000000000000000000000000000000000000000900463ffffffff168063d4b83992146100a6575b6100a473dabadabadabadabadabadabadabadabadabadaba6000368080601f016020809104026020016040519081016040528093929190818152602001838380828437600081840152601f19601f820116905080830192505050505050506100fd565b005b3480156100b257600080fd5b506100bb61013b565b604051808273ffffffffffffffffffffffffffffffffffffffff1673ffffffffffffffffffffffffffffffffffffffff16815260200191505060405180910390f35b61010682610153565b151561011157600080fd5b600080825160208401856127105a03f43d604051816000823e8260008114610137578282f35b8282fd5b73dabadabadabadabadabadabadabadabadabadaba81565b600080823b90506000811191505091905056fea165627a7a72305820bfe31bd3867c2ffbc4c62b094df10ee78b7acb47ad355bcd50c22f98c0dcf9730029608060405234801561001057600080fd5b50610192806100206000396000f3fe608060405260043610610041576000357c0100000000000000000000000000000000000000000000000000000000900463ffffffff168063d4b83992146100a6575b6100a473beefabeefabeefabeefabeefabeefabeefabeefa6000368080601f016020809104026020016040519081016040528093929190818152602001838380828437600081840152601f19601f820116905080830192505050505050506100fd565b005b3480156100b257600080fd5b506100bb61013b565b604051808273ffffffffffffffffffffffffffffffffffffffff1673ffffffffffffffffffffffffffffffffffffffff16815260200191505060405180910390f35b61010682610153565b151561011157600080fd5b600080825160208401856127105a03f43d604051816000823e8260008114610137578282f35b8282fd5b73beefabeefabeefabeefabeefabeefabeefabeefa81565b600080823b90506000811191505091905056fea165627a7a72305820ba2803d6fe6ca8a308d345d52cbc201b07538e95a16ac1312e5070273a403b140029a165627a7a72305820c1524bed8f2517cda5cb0131b585f1ffa1cf6f93600da992f1087c6638cba2a50029",
  "source": "pragma solidity ^0.5.0;\n\nimport \"./EthlanceRegistry.sol\";\nimport \"./EthlanceUserFactory.sol\";\nimport \"./EthlanceUser.sol\";\nimport \"./EthlanceJobStore.sol\";\nimport \"./EthlanceDispute.sol\";\nimport \"./EthlanceInvoice.sol\";\nimport \"./EthlanceFeedback.sol\";\nimport \"./EthlanceComment.sol\";\nimport \"./proxy/MutableForwarder.sol\";\nimport \"./proxy/Forwarder.sol\";       // target(EthlanceInvoice)\nimport \"./proxy/SecondForwarder.sol\"; // target(EthlanceDispute)\nimport \"./proxy/ThirdForwarder.sol\";  // target(EthlanceComment)\nimport \"./proxy/FourthForwarder.sol\"; // target(EthlanceFeedback)\n\n\n/// @title Work Contract to tie candidates, employers, and arbiters to\n/// an agreement.\ncontract EthlanceWorkContract {\n  uint public constant version = 1;\n  EthlanceRegistry public constant registry = EthlanceRegistry(0xdaBBdABbDABbDabbDaBbDabbDaBbdaBbdaBbDAbB);\n\n  //\n  // Constants\n  //\n  uint public constant GUEST_TYPE = 0;\n  uint public constant EMPLOYER_TYPE = 1;\n  uint public constant CANDIDATE_TYPE = 2;\n  uint public constant ARBITER_TYPE = 3;\n\n  //\n  // Structures\n  //\n\n  // Nothing here yet.\n\n  //\n  // Members\n  //\n\n  // The status of contract with respect to the employer and the\n  // candidate's interactions.\n  //\n  // Notes:\n  //\n  // - The overall status of the contract will also be reflected\n  //   with respect to any open disputes.\n  //\n  // Status Codes:\n  // -----------\n  // 0  -> Initial\n  // --\n  // 1  -> Request Candidate Invite\n  // 2  -> Request Employer Invite\n  // 3  -> Open Bounty\n  // --\n  // 4  -> Accepted\n  // --\n  // 5  -> In Progress\n  // 6  -> On Hold\n  // --\n  // 7  -> Request Candidate Finished\n  // 8  -> Request Employer Finished\n  // 9  -> Finished\n  // --\n  // 10 -> Cancelled\n  uint public contractStatus;\n  uint public constant CONTRACT_STATUS_INITIAL = 0;\n  uint public constant CONTRACT_STATUS_REQUEST_CANDIDATE_INVITE = 1;\n  uint public constant CONTRACT_STATUS_REQUEST_EMPLOYER_INVITE = 2;\n  uint public constant CONTRACT_STATUS_OPEN_BOUNTY = 3;\n  uint public constant CONTRACT_STATUS_ACCEPTED = 4;\n  uint public constant CONTRACT_STATUS_IN_PROGRESS = 5;\n  uint public constant CONTRACT_STATUS_ON_HOLD = 6;\n  uint public constant CONTRACT_STATUS_REQUEST_CANDIDATE_FINISHED = 7;\n  uint public constant CONTRACT_STATUS_REQUEST_EMPLOYER_FINISHED = 8;\n  uint public constant CONTRACT_STATUS_FINISHED = 9;\n  uint public constant CONTRACT_STATUS_CANCELLED = 10;\n    \n  uint public jobIndex;\n  uint public workIndex;\n\n  // The EthlanceJobStore contains additional data about our\n  // contract.\n  EthlanceJobStore public storeInstance;\n\n  // The candidate linked to this contract\n  address payable public candidateAddress;\n\n  // The entity that constructed contract\n  address public owner;\n\n  uint public dateCreated;\n  uint public dateUpdated;\n\n  // Feedback Store\n    \n\n  //\n  // Collections\n  //\n    \n  // Dispute Listing\n  EthlanceDispute[] public disputeListing;\n\n  // Invoice Listing\n  EthlanceInvoice[] public invoiceListing;\n\n\n  /// @dev Forwarder Constructor\n  function construct(EthlanceJobStore _storeInstance,\n                     uint _workIndex,\n                     address payable _candidateAddress,\n                     bool isEmployerRequest)\n    external {\n    require(owner == address(0), \"EthlanceWorkContract contract already constructed.\");\n    owner = msg.sender;\n\n    // Main members\n    storeInstance = _storeInstance;\n    workIndex = _workIndex;\n    candidateAddress = _candidateAddress;\n    dateCreated = now;\n    dateUpdated = now;\n  \n    // Event Data Construction\n    jobIndex = storeInstance.jobIndex();\n\n\n    if (isEmployerRequest) {\n      requestInvite(storeInstance.employerAddress());\n      return;\n    }\n    requestInvite(candidateAddress);\n    return;\n  }\n\n  //\n  // Methods\n  //\n\n  /// @dev Update the datetime of the job contract.\n  function updateDateUpdated()\n    private {\n    dateUpdated = now;\n  }\n\n    \n  /// @dev Change the contract status\n  /// @param newStatus The new contract status\n  function setContractStatus(uint newStatus) private {\n    contractStatus = newStatus;\n    updateDateUpdated();\n  }\n\n\n  /// @dev Requests an invite from either the candidate or the employer.\n  /// @param _sender Delegation for initial work contract construction.\n  /*\n    Case 1:\n      \n    requestInvite() is initially called while the contract is in a\n    CONTRACT_STATUS_INITIAL state and the storeInstance.is_bounty\n    is true. The Contract is placed in a CONTRACT_STATUS_OPEN_BOUNTY\n    state.\n\n    Case 2:\n      \n    requestInvite() is initially called while the contract is in a\n    CONTRACT_STATUS_INITIAL state and the contract is placed in a\n    CONTRACT_STATUS_EMPLOYER_INVITE state.\n\n    Case 3:\n\n    requestInvite() is initially called while the contract is in a\n    CONTRACT_STATUS_INITIAL state and the contract is placed in a\n    CONTRACT_STATUS_CANDIDATE_INVITE state.\n\n    Case 4:\n\n    requestInvite() is called while the contract is in a\n    CONTRACT_STATUS_CANDIDATE_INVITE state and the contract is\n    placed in a CONTRACT_STATUS_ACCEPTED state.\n\n    Case 5:\n\n    requestInvite() is called while the contract is in a\n    CONTRACT_STATUS_EMPLOYER_INVITE state and the contract is placed\n    in a CONTRACT_STATUS_ACCEPTED state.\n      \n    Default:\n\n    ERROR\n  */\n  function requestInvite(address _sender)\n    public {\n  \n    if (address(storeInstance) == msg.sender) {/* _sender has been loaded by the constructor */}\n    else if (storeInstance.employerAddress() == msg.sender || candidateAddress == msg.sender) {\n      _sender = msg.sender;\n    }\n    else {\n      revert(\"Only the job store, candidate and employer can request an invite.\");\n    }\n\n    bool isEmployerRequest = false;\n    if (storeInstance.employerAddress() == _sender) {\n      isEmployerRequest = true;\n    }\n\n    // Case 1\n    if (storeInstance.bidOption() == storeInstance.BID_OPTION_BOUNTY()) {\n      setContractStatus(CONTRACT_STATUS_OPEN_BOUNTY);\n      fireEvent(\"JobRequestWorkContract\");\n      return;\n    }\n\n    // Case 2 & 3\n    if (contractStatus == CONTRACT_STATUS_INITIAL) {\n      if (isEmployerRequest) {\n        setContractStatus(CONTRACT_STATUS_REQUEST_EMPLOYER_INVITE);\n        fireEvent(\"JobRequestWorkContract\");\n        return;\n      }\n      setContractStatus(CONTRACT_STATUS_REQUEST_CANDIDATE_INVITE);\n      fireEvent(\"JobRequestWorkContract\");\n      return;\n    }\n  \n    // Case 4\n    if (isEmployerRequest && contractStatus == CONTRACT_STATUS_REQUEST_CANDIDATE_INVITE) {\n      setContractStatus(CONTRACT_STATUS_ACCEPTED);\n      fireEvent(\"JobAcceptWorkContract\");\n      return;\n    }\n\n    // Case 5\n    if (!isEmployerRequest && contractStatus == CONTRACT_STATUS_REQUEST_EMPLOYER_INVITE) {\n      setContractStatus(CONTRACT_STATUS_ACCEPTED);\n      fireEvent(\"JobAcceptWorkContract\");\n      return;\n    }\n\n    revert(\"Failed to meet required requestInvite criteria\");\n  }\n\n    \n  /// @dev Overloaded requestInvite for direct employer and candidate requests.\n  /*\n    Notes:\n\n    - The address is set to 0x0 to reflect that it's a direct\n    request from a candidate, or an employer.\n\n  */\n  function requestInvite() public {\n    requestInvite(address(0));\n  }\n    \n\n  /// @dev Start the work contract\n  /*\n    Notes:\n\n    - This requires that the contract be within the CONTRACT_STATUS_ACCEPTED state.\n  */\n  function proceed() external {\n    require(storeInstance.employerAddress() == msg.sender,\n            \"Must be an employer to start a contract\");\n    require(storeInstance.acceptedArbiter() != address(0),\n            \"Must be an accepted arbiter before work contracts can proceed\");\n\n    if (contractStatus == CONTRACT_STATUS_ACCEPTED) {\n      setContractStatus(CONTRACT_STATUS_IN_PROGRESS);\n      fireEvent(\"JobProceedWorkContract\");\n    }\n    else {\n      revert(\"Cannot start a contract if it is not in the 'accepted' state.\");\n    }\n  }\n\n\n  /// @dev Request to finish the contract as the employer or the candidate\n  /*\n    Case 1:\n\n    While in the CONTRACT_STATUS_IN_PROGRESS state, and if the\n    candidate invokes requestFinished(), the contract will be placed\n    in the CONTRACT_STATUS_REQUEST_CANDIDATE_FINISHED state.\n\n    Case 2:\n\n    While in the CONTRACT_STATUS_IN_PROGRESS state, and if the\n    employer invokes requestFinished(), the contract will be placed\n    in the CONTRACT_STATUS_REQUEST_EMPLOYER_FINISHED state.\n      \n    Case 3:\n\n    While in the CONTRACT_STATUS_REQUEST_EMPLOYER_FINISHED state,\n    and if the candidate invokes requestFinished(), the contract\n    will be placed in the CONTRACT_STATUS_FINISHED state.\n\n    Case 4:\n\n    While in the CONTRACT_STATUS_REQUEST_CANDIDATE_FINISHED state,\n    and if the employer invokes requestFinished(), the contract will\n    be placed in the CONTRACT_STATUS_FINISHED state.\n\n  */\n  function requestFinished() external {\n    require(storeInstance.employerAddress() == msg.sender || candidateAddress == msg.sender,\n            \"Only the candidate and the employer can request finishing the contract.\");\n\n    bool isEmployerRequest = false;\n    if (storeInstance.employerAddress() == msg.sender) {\n      isEmployerRequest = true;\n    }\n\n    // Case 1 & 2\n    if (contractStatus == CONTRACT_STATUS_IN_PROGRESS) {\n      if (isEmployerRequest) {\n        setContractStatus(CONTRACT_STATUS_REQUEST_EMPLOYER_FINISHED);\n        fireEvent(\"WorkContractRequestFinished\");\n        return;\n      }\n      setContractStatus(CONTRACT_STATUS_REQUEST_CANDIDATE_FINISHED);\n      fireEvent(\"WorkContractRequestFinished\");\n      return;\n    }\n  \n    // Case 3\n    if (!isEmployerRequest && contractStatus == CONTRACT_STATUS_REQUEST_EMPLOYER_FINISHED) {\n      setContractStatus(CONTRACT_STATUS_FINISHED);\n      fireEvent(\"WorkContractFinished\");\n      return;\n    }\n\n    // Case 4\n    if (isEmployerRequest && contractStatus == CONTRACT_STATUS_REQUEST_CANDIDATE_FINISHED) {\n      setContractStatus(CONTRACT_STATUS_FINISHED);\n      fireEvent(\"WorkContractFinished\");\n      return;\n    }\n\n    revert(\"Failed to meet requestFinished criteria.\");\n  }\n    \n\n  /// @dev Fire events specific to the work contract\n  /// @param eventName Unique to give the fired event\n  function fireEvent(string memory eventName) private {\n    // Event Data Pre-construction\n    uint[] memory eventData = new uint[](2);\n    eventData[0] = jobIndex;\n    eventData[1] = workIndex;\n\n    registry.fireEvent(eventName, version, eventData);\n  }\n\n\n  /// @dev Create a dispute between the employer and the candidate.\n  /// @param reason Short string with the reason for the dispute.\n  /// @param metahash Represents a IPFS hash with a longer\n  /// explanation for the dispute by either the employer or the\n  /// candidate.\n  function createDispute(string memory reason, string memory metahash) public {\n    // TODO: authentication\n    require(candidateAddress == msg.sender || storeInstance.employerAddress() == msg.sender,\n            \"Only the employer and the candidate can create new disputes.\");\n    require(contractStatus == CONTRACT_STATUS_IN_PROGRESS ||\n            contractStatus == CONTRACT_STATUS_ON_HOLD ||\n            contractStatus == CONTRACT_STATUS_REQUEST_EMPLOYER_FINISHED ||\n            contractStatus == CONTRACT_STATUS_REQUEST_CANDIDATE_FINISHED,\n            \"The current contract status does not allow you to create a dispute.\");\n\n    bool isEmployerRequest = false;\n    if (storeInstance.employerAddress() == msg.sender) {\n      isEmployerRequest = true;\n    }\n\n    // Create the forwarded contract\n    SecondForwarder fwd = new SecondForwarder(); // Proxy Contract\n    // target(EthlanceDispute)\n\n    // Permit Dispute to fire registry events and create comments\n    registry.permitDispatch(address(fwd));\n\n    EthlanceDispute dispute = EthlanceDispute(address(fwd));\n    uint disputeIndex = disputeListing.length;\n    disputeListing.push(dispute);\n  \n    // Construct the dispute contract\n    dispute.construct(this, disputeIndex, reason, metahash, isEmployerRequest);\n\n    // Change our status to 'on hold', since we have a new open dispute.\n    setContractStatus(CONTRACT_STATUS_ON_HOLD);\n  }\n\n    \n  /// @dev Returns the number of disputes within the work contract\n  function getDisputeCount() public view returns(uint) {\n    return disputeListing.length;\n  }\n\n    \n  /// @dev Returns the address of the EthlanceDispute at the given\n  /// index within the dispute listing.\n  function getDisputeByIndex(uint index) public view returns (EthlanceDispute) {\n    return disputeListing[index];\n  }\n\n\n  /// @dev Resolves a dispute.\n  /*\n    Notes:\n\n    - The original EthlanceDispute.resolve(...) propagates to this method.\n\n    - This function only ensures that it is a call from an\n    EthlanceDispute. The result is propagated to the job store for\n    resolution.\n  */\n  function resolveDispute(uint _employerAmount,\n                          address _employerToken,\n                          uint _candidateAmount,\n                          address _candidateToken,\n                          uint _arbiterAmount,\n                          address _arbiterToken) external {\n    require(isDispute(msg.sender), \"Only a dispute contract can 'resolve' a dispute.\");\n    storeInstance.resolveDispute(_employerAmount, _employerToken,\n                                  _candidateAmount, _candidateToken,\n                                  _arbiterAmount, _arbiterToken,\n                                  candidateAddress);\n  }\n\n    \n  /// @dev Determines whether the given address is an\n  /// EthlanceDispute contract that is part of the current\n  /// EthlanceWorkContract.\n  /// @return True, if it is an EthlanceDispute contract that is\n  /// part of the EthlanceWorkContract.\n  function isDispute(address _dispute) private returns(bool) {\n    for (uint i = 0; i < disputeListing.length; i++) {\n      if (address(disputeListing[i]) == _dispute) {\n        return true;\n      }\n    }\n    return false;\n  }\n\n\n  /// @dev Create an invoice between the employer and the candidate.\n  /// @param metahash Contains additional information about the invoice\n  function createInvoice(uint amount, string memory metahash) public {\n    // Create the forwarded contract\n    Forwarder fwd = new Forwarder(); // Proxy Contract\n    // target(EthlanceInvoice)\n    EthlanceInvoice invoice = EthlanceInvoice(address(fwd));\n\n    // Permit Invoice to fire registry events\n    registry.permitDispatch(address(fwd));\n\n    uint invoiceIndex = invoiceListing.length;\n    invoiceListing.push(invoice);\n  \n    // Construct the invoice contract\n    invoice.construct(this, invoiceIndex, amount, metahash);\n  }\n\n    \n  /// @dev Pays an invoice\n  /*\n    Notes:\n\n    - The original EthlanceInvoice.pay(...) propagates to this method.\n\n    - This function only ensures that it is receiving a payment\n    request from the desired invoice. The result is propagated to\n    the job store for payment.\n  */\n  function payInvoice(uint amountPaid) external {\n    require(isInvoice(msg.sender), \"Only an invoice contract can 'pay' an invoice.\");\n    storeInstance.payInvoice(candidateAddress, amountPaid);\n  }\n\n\n  /// @dev Determines whether the given address is an\n  /// EthlanceInvoice contract that is part of the current\n  /// EthlanceWorkContract.\n  /// @return True, if it is an EthlanceInvoice contract that is\n  /// part of the EthlanceWorkContract.\n  function isInvoice(address _invoice) private returns(bool) {\n    for (uint i = 0; i < invoiceListing.length; i++) {\n      if (address(invoiceListing[i]) == _invoice) {\n        return true;\n      }\n    }\n    return false;\n  }\n\n    \n  /// @dev Returns the number of invoices within the work contract\n  function getInvoiceCount() public view returns(uint) {\n    return invoiceListing.length;\n  }\n\n    \n  /// @dev Returns the address of the EthlanceInvoice at the given\n  /// index within the invoice listing.\n  function getInvoiceByIndex(uint index) public view returns (EthlanceInvoice) {\n    return invoiceListing[index];\n  }\n\n\n  /// @dev Returns the user type, either CANDIDATE_TYPE,\n  /// EMPLOYER_TYPE, ARBITER_TYPE, or GUEST_TYPE for the given\n  /// address.\n  function getUserType(address _address) private returns (uint) {\n    if (_address == candidateAddress) {\n      return CANDIDATE_TYPE;\n    }\n    else if (_address == storeInstance.employerAddress()) {\n      return EMPLOYER_TYPE;\n    }\n    else if (_address == storeInstance.acceptedArbiter()) {\n      return ARBITER_TYPE;\n    }\n    else {\n      return GUEST_TYPE;\n    }\n  }\n\n\n  /// @dev Place a comment on the dispute\n  function addComment(string calldata metahash) external {\n    uint userType = getUserType(msg.sender);\n    require(userType != GUEST_TYPE,\n            \"Only the candidate, employer, and arbiter can comment.\");\n  \n    // Create the forwarded contract\n    ThirdForwarder fwd = new ThirdForwarder(); // Proxy Contract\n    // target(EthlanceComment)\n    EthlanceComment comment = EthlanceComment(address(fwd));\n\n    // Permit Comment to fire registry events\n    registry.permitDispatch(address(fwd));\n\n    // Add comment to the registry comment listing\n    registry.pushComment(address(this), address(comment));\n\n    uint[4] memory index;\n    index[0] = storeInstance.jobIndex();\n    index[1] = workIndex;\n    index[2] = registry.getCommentCount(address(this)) - 1;\n\n    // Construct the comment contract\n    comment.construct(msg.sender,\n                      userType,\n                      metahash,\n                      EthlanceComment.CommentType.WorkContract,\n                      index);\n  }\n\n    \n  /// @dev Leave feedback on the given work contract\n  /*\n    Notes:\n\n    - Only the candidate and the employer can leave feedback on a work contract.\n    - A candidate leaving feedback is meant for the employer.\n    - An employer leaving feedback is meant for the candidate.\n  */\n  function leaveFeedback(uint rating, string calldata metahash) external {\n    uint userType = getUserType(msg.sender);\n    require(userType == CANDIDATE_TYPE || userType == EMPLOYER_TYPE,\n            \"Only the candidate or the employer, can leave feedback.\");\n  \n    uint toUserType;\n    address toUserAddress;\n  \n    if (userType == CANDIDATE_TYPE) {\n      toUserType = EMPLOYER_TYPE;\n      toUserAddress = storeInstance.employerAddress();\n    }\n    else {\n      toUserType = CANDIDATE_TYPE;\n      toUserAddress = candidateAddress;\n    }\n  \n    // Check and create forwarded feedback contract instance\n    EthlanceFeedback feedback;\n    if (!registry.hasFeedback(address(this))) {\n      FourthForwarder fwd = new FourthForwarder(); // Proxy Contract\n                                                   // target(EthlanceFeedback)\n\n      feedback = EthlanceFeedback(address(fwd));\n\n      // Permit Feedback to fire registry events\n      registry.permitDispatch(address(fwd));\n      \n      // Add feedback to the registry feedback mapping\n      registry.pushFeedback(address(this), address(fwd));\n      \n      // Construct the feedback contract\n      feedback.construct(address(this), jobIndex, workIndex);\n    }\n    else {\n      feedback = EthlanceFeedback(registry.getFeedbackByAddress(address(this)));\n    }\n\n    feedback.update(msg.sender,\n                    toUserAddress,\n                    userType,\n                    toUserType,\n                    metahash,\n                    rating);\n  }\n}\n",
  "sourcePath": "/home/benzap/projects/ethlance/contracts/EthlanceWorkContract.sol",
  "compiler": {
    "name": "solc",
    "version": "0.5.0+commit.1d4f565a.Emscripten.clang"
  },
  "schemaVersion": "3.0.9",
  "updatedAt": "2019-05-14T23:51:40.139Z",
  "devdoc": {
    "methods": {
      "addComment(string)": {
        "details": "Place a comment on the dispute"
      },
      "construct(address,uint256,address,bool)": {
        "details": "Forwarder Constructor"
      },
      "createDispute(string,string)": {
        "details": "Create a dispute between the employer and the candidate.",
        "params": {
          "metahash": "Represents a IPFS hash with a longer explanation for the dispute by either the employer or the candidate.",
          "reason": "Short string with the reason for the dispute."
        }
      },
      "createInvoice(uint256,string)": {
        "details": "Create an invoice between the employer and the candidate.",
        "params": {
          "metahash": "Contains additional information about the invoice"
        }
      },
      "getDisputeByIndex(uint256)": {
        "details": "Returns the address of the EthlanceDispute at the given index within the dispute listing."
      },
      "getDisputeCount()": {
        "details": "Returns the number of disputes within the work contract"
      },
      "getInvoiceByIndex(uint256)": {
        "details": "Returns the address of the EthlanceInvoice at the given index within the invoice listing."
      },
      "getInvoiceCount()": {
        "details": "Returns the number of invoices within the work contract"
      },
      "leaveFeedback(uint256,string)": {
        "details": "Leave feedback on the given work contract"
      },
      "payInvoice(uint256)": {
        "details": "Pays an invoice"
      },
      "proceed()": {
        "details": "Start the work contract"
      },
      "requestFinished()": {
        "details": "Request to finish the contract as the employer or the candidate"
      },
      "requestInvite()": {
        "details": "Overloaded requestInvite for direct employer and candidate requests."
      },
      "requestInvite(address)": {
        "details": "Requests an invite from either the candidate or the employer.",
        "params": {
          "_sender": "Delegation for initial work contract construction."
        }
      },
      "resolveDispute(uint256,address,uint256,address,uint256,address)": {
        "details": "Resolves a dispute."
      }
    },
    "title": "Work Contract to tie candidates, employers, and arbiters to an agreement."
  },
  "userdoc": {
    "methods": {}
  }
}