{
  "contractName": "FourthForwarder",
  "abi": [
    {
      "constant": true,
      "inputs": [],
      "name": "target",
      "outputs": [
        {
          "name": "",
          "type": "address"
        }
      ],
      "payable": false,
      "stateMutability": "view",
      "type": "function"
    },
    {
      "payable": true,
      "stateMutability": "payable",
      "type": "fallback"
    }
  ],
  "bytecode": "0x608060405234801561001057600080fd5b50610192806100206000396000f3fe608060405260043610610041576000357c0100000000000000000000000000000000000000000000000000000000900463ffffffff168063d4b83992146100a6575b6100a473beefabeefabeefabeefabeefabeefabeefabeefa6000368080601f016020809104026020016040519081016040528093929190818152602001838380828437600081840152601f19601f820116905080830192505050505050506100fd565b005b3480156100b257600080fd5b506100bb61013b565b604051808273ffffffffffffffffffffffffffffffffffffffff1673ffffffffffffffffffffffffffffffffffffffff16815260200191505060405180910390f35b61010682610153565b151561011157600080fd5b600080825160208401856127105a03f43d604051816000823e8260008114610137578282f35b8282fd5b73beefabeefabeefabeefabeefabeefabeefabeefa81565b600080823b90506000811191505091905056fea165627a7a72305820ba2803d6fe6ca8a308d345d52cbc201b07538e95a16ac1312e5070273a403b140029",
  "source": "pragma solidity ^0.5.0;\n\nimport \"../proxy/DelegateProxy.sol\";\n\ncontract FourthForwarder is DelegateProxy {\n  // After compiling contract, the address placeholder is replaced in the bytecode by the real target address\n  address public constant target = 0xbEefaBeEFABEefaBEeFAbEEFabeefaBEEFABEeFa; // checksumed to silence warning\n\n  /*\n   * @dev Forwards all calls to target\n   */\n  function() external payable {\n    delegatedFwd(target, msg.data);\n  }\n}\n",
  "sourcePath": "/home/benzap/projects/ethlance/contracts/proxy/FourthForwarder.sol",
  "compiler": {
    "name": "solc",
    "version": "0.5.0+commit.1d4f565a.Emscripten.clang"
  },
  "schemaVersion": "3.0.9",
  "updatedAt": "2019-05-14T23:51:40.163Z",
  "devdoc": {
    "methods": {}
  },
  "userdoc": {
    "methods": {}
  }
}